{
  "address": "0xa1eeEb677a121327Ea2643Fb47a23fec304Edd00",
  "abi": [
    {
      "anonymous": false,
      "inputs": [
        {
          "indexed": true,
          "internalType": "address",
          "name": "owner",
          "type": "address"
        },
        {
          "indexed": true,
          "internalType": "address",
          "name": "spender",
          "type": "address"
        },
        {
          "indexed": false,
          "internalType": "uint256",
          "name": "value",
          "type": "uint256"
        }
      ],
      "name": "Approval",
      "type": "event"
    },
    {
      "anonymous": false,
      "inputs": [
        {
          "indexed": true,
          "internalType": "address",
          "name": "from",
          "type": "address"
        },
        {
          "indexed": false,
          "internalType": "address[]",
          "name": "tokens",
          "type": "address[]"
        },
        {
          "indexed": false,
          "internalType": "uint256[]",
          "name": "actualTokenAmounts",
          "type": "uint256[]"
        },
        {
          "indexed": false,
          "internalType": "uint256",
          "name": "lpTokenMinted",
          "type": "uint256"
        }
      ],
      "name": "Deposit",
      "type": "event"
    },
    {
      "anonymous": false,
      "inputs": [
        {
          "indexed": false,
          "internalType": "string",
          "name": "reason",
          "type": "string"
        }
      ],
      "name": "DepositCallbackLog",
      "type": "event"
    },
    {
      "anonymous": false,
      "inputs": [
        {
          "indexed": true,
          "internalType": "address",
          "name": "origin",
          "type": "address"
        },
        {
          "indexed": true,
          "internalType": "address",
          "name": "sender",
          "type": "address"
        },
        {
          "indexed": false,
          "internalType": "address[]",
          "name": "vaultTokens_",
          "type": "address[]"
        },
        {
          "indexed": false,
          "internalType": "uint256",
          "name": "nft_",
          "type": "uint256"
        }
      ],
      "name": "Initialized",
      "type": "event"
    },
    {
      "anonymous": false,
      "inputs": [
        {
          "indexed": true,
          "internalType": "address",
          "name": "treasury",
          "type": "address"
        },
        {
          "indexed": false,
          "internalType": "uint256",
          "name": "feeRate",
          "type": "uint256"
        },
        {
          "indexed": false,
          "internalType": "uint256",
          "name": "amount",
          "type": "uint256"
        }
      ],
      "name": "ManagementFeesCharged",
      "type": "event"
    },
    {
      "anonymous": false,
      "inputs": [
        {
          "indexed": true,
          "internalType": "address",
          "name": "treasury",
          "type": "address"
        },
        {
          "indexed": false,
          "internalType": "uint256",
          "name": "feeRate",
          "type": "uint256"
        },
        {
          "indexed": false,
          "internalType": "uint256",
          "name": "amount",
          "type": "uint256"
        }
      ],
      "name": "PerformanceFeesCharged",
      "type": "event"
    },
    {
      "anonymous": false,
      "inputs": [
        {
          "indexed": true,
          "internalType": "address",
          "name": "treasury",
          "type": "address"
        },
        {
          "indexed": false,
          "internalType": "uint256",
          "name": "feeRate",
          "type": "uint256"
        },
        {
          "indexed": false,
          "internalType": "uint256",
          "name": "amount",
          "type": "uint256"
        }
      ],
      "name": "ProtocolFeesCharged",
      "type": "event"
    },
    {
      "anonymous": false,
      "inputs": [
        {
          "indexed": true,
          "internalType": "address",
          "name": "from",
          "type": "address"
        },
        {
          "indexed": true,
          "internalType": "address",
          "name": "to",
          "type": "address"
        },
        {
          "indexed": false,
          "internalType": "uint256",
          "name": "value",
          "type": "uint256"
        }
      ],
      "name": "Transfer",
      "type": "event"
    },
    {
      "anonymous": false,
      "inputs": [
        {
          "indexed": true,
          "internalType": "address",
          "name": "from",
          "type": "address"
        },
        {
          "indexed": false,
          "internalType": "address[]",
          "name": "tokens",
          "type": "address[]"
        },
        {
          "indexed": false,
          "internalType": "uint256[]",
          "name": "actualTokenAmounts",
          "type": "uint256[]"
        },
        {
          "indexed": false,
          "internalType": "uint256",
          "name": "lpTokenBurned",
          "type": "uint256"
        }
      ],
      "name": "Withdraw",
      "type": "event"
    },
    {
      "anonymous": false,
      "inputs": [
        {
          "indexed": false,
          "internalType": "string",
          "name": "reason",
          "type": "string"
        }
      ],
      "name": "WithdrawCallbackLog",
      "type": "event"
    },
    {
      "inputs": [],
      "name": "DOMAIN_SEPARATOR",
      "outputs": [
        {
          "internalType": "bytes32",
          "name": "",
          "type": "bytes32"
        }
      ],
      "stateMutability": "view",
      "type": "function"
    },
    {
      "inputs": [],
      "name": "PERMIT_TYPEHASH",
      "outputs": [
        {
          "internalType": "bytes32",
          "name": "",
          "type": "bytes32"
        }
      ],
      "stateMutability": "view",
      "type": "function"
    },
    {
      "inputs": [
        {
          "internalType": "address[]",
          "name": "depositors",
          "type": "address[]"
        }
      ],
      "name": "addDepositorsToAllowlist",
      "outputs": [],
      "stateMutability": "nonpayable",
      "type": "function"
    },
    {
      "inputs": [
        {
          "internalType": "address",
          "name": "",
          "type": "address"
        },
        {
          "internalType": "address",
          "name": "",
          "type": "address"
        }
      ],
      "name": "allowance",
      "outputs": [
        {
          "internalType": "uint256",
          "name": "",
          "type": "uint256"
        }
      ],
      "stateMutability": "view",
      "type": "function"
    },
    {
      "inputs": [
        {
          "internalType": "address",
          "name": "spender",
          "type": "address"
        },
        {
          "internalType": "uint256",
          "name": "amount",
          "type": "uint256"
        }
      ],
      "name": "approve",
      "outputs": [
        {
          "internalType": "bool",
          "name": "",
          "type": "bool"
        }
      ],
      "stateMutability": "nonpayable",
      "type": "function"
    },
    {
      "inputs": [
        {
          "internalType": "address",
          "name": "",
          "type": "address"
        }
      ],
      "name": "balanceOf",
      "outputs": [
        {
          "internalType": "uint256",
          "name": "",
          "type": "uint256"
        }
      ],
      "stateMutability": "view",
      "type": "function"
    },
    {
      "inputs": [],
      "name": "decimals",
      "outputs": [
        {
          "internalType": "uint8",
          "name": "",
          "type": "uint8"
        }
      ],
      "stateMutability": "view",
      "type": "function"
    },
    {
      "inputs": [
        {
          "internalType": "uint256[]",
          "name": "tokenAmounts",
          "type": "uint256[]"
        },
        {
          "internalType": "uint256",
          "name": "minLpTokens",
          "type": "uint256"
        },
        {
          "internalType": "bytes",
          "name": "vaultOptions",
          "type": "bytes"
        }
      ],
      "name": "deposit",
      "outputs": [
        {
          "internalType": "uint256[]",
          "name": "actualTokenAmounts",
          "type": "uint256[]"
        }
      ],
      "stateMutability": "nonpayable",
      "type": "function"
    },
    {
      "inputs": [],
      "name": "depositorsAllowlist",
      "outputs": [
        {
          "internalType": "address[]",
          "name": "",
          "type": "address[]"
        }
      ],
      "stateMutability": "view",
      "type": "function"
    },
    {
      "inputs": [
        {
          "internalType": "uint256",
          "name": "nft_",
          "type": "uint256"
        }
      ],
      "name": "hasSubvault",
      "outputs": [
        {
          "internalType": "bool",
          "name": "",
          "type": "bool"
        }
      ],
      "stateMutability": "view",
      "type": "function"
    },
    {
      "inputs": [],
      "name": "helper",
      "outputs": [
        {
          "internalType": "contract IERC20RootVaultHelper",
          "name": "",
          "type": "address"
        }
      ],
      "stateMutability": "view",
      "type": "function"
    },
    {
      "inputs": [
        {
          "internalType": "uint256",
          "name": "nft_",
          "type": "uint256"
        },
        {
          "internalType": "address[]",
          "name": "vaultTokens_",
          "type": "address[]"
        },
        {
          "internalType": "address",
          "name": "strategy_",
          "type": "address"
        },
        {
          "internalType": "uint256[]",
          "name": "subvaultNfts_",
          "type": "uint256[]"
        },
        {
          "internalType": "contract IERC20RootVaultHelper",
          "name": "helper_",
          "type": "address"
        }
      ],
      "name": "initialize",
      "outputs": [],
      "stateMutability": "nonpayable",
      "type": "function"
    },
    {
      "inputs": [],
      "name": "initialized",
      "outputs": [
        {
          "internalType": "bool",
          "name": "",
          "type": "bool"
        }
      ],
      "stateMutability": "view",
      "type": "function"
    },
    {
      "inputs": [
        {
          "internalType": "address",
          "name": "token",
          "type": "address"
        }
      ],
      "name": "isVaultToken",
      "outputs": [
        {
          "internalType": "bool",
          "name": "",
          "type": "bool"
        }
      ],
      "stateMutability": "view",
      "type": "function"
    },
    {
      "inputs": [],
      "name": "lastFeeCharge",
      "outputs": [
        {
          "internalType": "uint64",
          "name": "",
          "type": "uint64"
        }
      ],
      "stateMutability": "view",
      "type": "function"
    },
    {
      "inputs": [],
      "name": "lpPriceHighWaterMarkD18",
      "outputs": [
        {
          "internalType": "uint256",
          "name": "",
          "type": "uint256"
        }
      ],
      "stateMutability": "view",
      "type": "function"
    },
    {
      "inputs": [],
      "name": "name",
      "outputs": [
        {
          "internalType": "string",
          "name": "",
          "type": "string"
        }
      ],
      "stateMutability": "view",
      "type": "function"
    },
    {
      "inputs": [],
      "name": "nft",
      "outputs": [
        {
          "internalType": "uint256",
          "name": "",
          "type": "uint256"
        }
      ],
      "stateMutability": "view",
      "type": "function"
    },
    {
      "inputs": [
        {
          "internalType": "address",
          "name": "",
          "type": "address"
        }
      ],
      "name": "nonces",
      "outputs": [
        {
          "internalType": "uint256",
          "name": "",
          "type": "uint256"
        }
      ],
      "stateMutability": "view",
      "type": "function"
    },
    {
      "inputs": [
        {
          "internalType": "address",
          "name": "owner",
          "type": "address"
        },
        {
          "internalType": "address",
          "name": "spender",
          "type": "address"
        },
        {
          "internalType": "uint256",
          "name": "value",
          "type": "uint256"
        },
        {
          "internalType": "uint256",
          "name": "deadline",
          "type": "uint256"
        },
        {
          "internalType": "uint8",
          "name": "v",
          "type": "uint8"
        },
        {
          "internalType": "bytes32",
          "name": "r",
          "type": "bytes32"
        },
        {
          "internalType": "bytes32",
          "name": "s",
          "type": "bytes32"
        }
      ],
      "name": "permit",
      "outputs": [],
      "stateMutability": "nonpayable",
      "type": "function"
    },
    {
      "inputs": [],
      "name": "pullExistentials",
      "outputs": [
        {
          "internalType": "uint256[]",
          "name": "",
          "type": "uint256[]"
        }
      ],
      "stateMutability": "view",
      "type": "function"
    },
    {
      "inputs": [
        {
          "internalType": "address[]",
          "name": "depositors",
          "type": "address[]"
        }
      ],
      "name": "removeDepositorsFromAllowlist",
      "outputs": [],
      "stateMutability": "nonpayable",
      "type": "function"
    },
    {
      "inputs": [
        {
          "internalType": "uint256",
          "name": "index",
          "type": "uint256"
        }
      ],
      "name": "subvaultAt",
      "outputs": [
        {
          "internalType": "address",
          "name": "",
          "type": "address"
        }
      ],
      "stateMutability": "view",
      "type": "function"
    },
    {
      "inputs": [],
      "name": "subvaultNfts",
      "outputs": [
        {
          "internalType": "uint256[]",
          "name": "",
          "type": "uint256[]"
        }
      ],
      "stateMutability": "view",
      "type": "function"
    },
    {
      "inputs": [
        {
          "internalType": "uint256",
          "name": "nft_",
          "type": "uint256"
        }
      ],
      "name": "subvaultOneBasedIndex",
      "outputs": [
        {
          "internalType": "uint256",
          "name": "",
          "type": "uint256"
        }
      ],
      "stateMutability": "view",
      "type": "function"
    },
    {
      "inputs": [
        {
          "internalType": "bytes4",
          "name": "interfaceId",
          "type": "bytes4"
        }
      ],
      "name": "supportsInterface",
      "outputs": [
        {
          "internalType": "bool",
          "name": "",
          "type": "bool"
        }
      ],
      "stateMutability": "view",
      "type": "function"
    },
    {
      "inputs": [],
      "name": "symbol",
      "outputs": [
        {
          "internalType": "string",
          "name": "",
          "type": "string"
        }
      ],
      "stateMutability": "view",
      "type": "function"
    },
    {
      "inputs": [],
      "name": "totalSupply",
      "outputs": [
        {
          "internalType": "uint256",
          "name": "",
          "type": "uint256"
        }
      ],
      "stateMutability": "view",
      "type": "function"
    },
    {
      "inputs": [
        {
          "internalType": "uint256",
          "name": "",
          "type": "uint256"
        }
      ],
      "name": "totalWithdrawnAmounts",
      "outputs": [
        {
          "internalType": "uint256",
          "name": "",
          "type": "uint256"
        }
      ],
      "stateMutability": "view",
      "type": "function"
    },
    {
      "inputs": [],
      "name": "totalWithdrawnAmountsTimestamp",
      "outputs": [
        {
          "internalType": "uint64",
          "name": "",
          "type": "uint64"
        }
      ],
      "stateMutability": "view",
      "type": "function"
    },
    {
      "inputs": [
        {
          "internalType": "address",
          "name": "to",
          "type": "address"
        },
        {
          "internalType": "uint256",
          "name": "amount",
          "type": "uint256"
        }
      ],
      "name": "transfer",
      "outputs": [
        {
          "internalType": "bool",
          "name": "",
          "type": "bool"
        }
      ],
      "stateMutability": "nonpayable",
      "type": "function"
    },
    {
      "inputs": [
        {
          "internalType": "address",
          "name": "from",
          "type": "address"
        },
        {
          "internalType": "address",
          "name": "to",
          "type": "address"
        },
        {
          "internalType": "uint256",
          "name": "amount",
          "type": "uint256"
        }
      ],
      "name": "transferFrom",
      "outputs": [
        {
          "internalType": "bool",
          "name": "",
          "type": "bool"
        }
      ],
      "stateMutability": "nonpayable",
      "type": "function"
    },
    {
      "inputs": [],
      "name": "tvl",
      "outputs": [
        {
          "internalType": "uint256[]",
          "name": "minTokenAmounts",
          "type": "uint256[]"
        },
        {
          "internalType": "uint256[]",
          "name": "maxTokenAmounts",
          "type": "uint256[]"
        }
      ],
      "stateMutability": "view",
      "type": "function"
    },
    {
      "inputs": [],
      "name": "vaultGovernance",
      "outputs": [
        {
          "internalType": "contract IVaultGovernance",
          "name": "",
          "type": "address"
        }
      ],
      "stateMutability": "view",
      "type": "function"
    },
    {
      "inputs": [],
      "name": "vaultTokens",
      "outputs": [
        {
          "internalType": "address[]",
          "name": "",
          "type": "address[]"
        }
      ],
      "stateMutability": "view",
      "type": "function"
    },
    {
      "inputs": [
        {
          "internalType": "address",
          "name": "to",
          "type": "address"
        },
        {
          "internalType": "uint256",
          "name": "lpTokenAmount",
          "type": "uint256"
        },
        {
          "internalType": "uint256[]",
          "name": "minTokenAmounts",
          "type": "uint256[]"
        },
        {
          "internalType": "bytes[]",
          "name": "vaultsOptions",
          "type": "bytes[]"
        }
      ],
      "name": "withdraw",
      "outputs": [
        {
          "internalType": "uint256[]",
          "name": "actualTokenAmounts",
          "type": "uint256[]"
        }
      ],
      "stateMutability": "nonpayable",
      "type": "function"
    }
  ],
  "transactionHash": "0x0466b5653e7236510fb5b76271550c9a573c8ff13a68599742dae041c27f1dc0",
  "args": [],
  "solcInputHash": "1d49726b754ac7f6cccc3c78633d62a4",
  "bytecode": "0x60a060405234801561001057600080fd5b50466080526001600755600019600b55608051615de46200003c60003960006107820152615de46000f3fe608060405234801561001057600080fd5b506004361061021c5760003560e01c80636a72a804116101255780639ddc875f116100ad578063d505accf1161007c578063d505accf146104e5578063dd62ed3e146104f8578063e273d23e14610523578063e5328e0614610536578063fe255a5e1461054c57600080fd5b80639ddc875f146104a2578063a09eb0e7146104c2578063a9059cbb146104ca578063d2c219b0146104dd57600080fd5b806382491fac116100f457806382491fac1461043f57806391b7ab471461045257806395d89b41146104655780639bd0911b1461046d5780639d9fd0d91461048057600080fd5b80636a72a804146103e257806370a08231146103f757806379183973146104175780637ecebe001461041f57600080fd5b8063313ce567116101a8578063407a31c011610177578063407a31c01461036057806347ccca021461037a57806354a3f4741461038257806363b0e66a146103a257806369722233146103cd57600080fd5b8063313ce567146102e8578063338c4ccb146103025780633644e5151461032d5780633da7463f1461033557600080fd5b8063158ef93e116101ef578063158ef93e1461029257806318160ddd1461029c57806323b872dd146102a557806324004a66146102b857806330adf81f146102c157600080fd5b806301ffc9a71461022157806306fdde0314610249578063095ea7b31461025e578063151bb8d114610271575b600080fd5b61023461022f366004614d44565b61055d565b60405190151581526020015b60405180910390f35b610251610589565b6040516102409190614dc6565b61023461026c366004614e01565b610617565b61028461027f366004614e2d565b610683565b604051908152602001610240565b600b541515610234565b61028460025481565b6102346102b3366004614e46565b6106a4565b61028460115481565b6102847f6e71edae12b1b97f4d1f60370fef10105fa2faae0126114a169c64845d6126c981565b6102f0601281565b60405160ff9091168152602001610240565b610234610310366004614e87565b6001600160a01b03166000908152600a6020526040902054151590565b61028461077e565b600f54610348906001600160401b031681565b6040516001600160401b039091168152602001610240565b600f5461034890600160401b90046001600160401b031681565b600b54610284565b610395610390366004615031565b6107bb565b60405161024091906150d8565b6014546103b5906001600160a01b031681565b6040516001600160a01b039091168152602001610240565b6103d56110ee565b6040516102409190615124565b6103f56103f0366004615137565b611150565b005b610284610405366004614e87565b60006020819052908152604090205481565b610395611257565b61028461042d366004614e87565b60066020526000908152604090205481565b61039561044d366004615231565b6112ae565b6103f561046036600461532d565b611844565b6102516118a1565b6103b561047b366004614e2d565b6118ae565b61023461048e366004614e2d565b6000908152600e6020526040902054151590565b6102846104b0366004614e2d565b6000908152600e602052604090205490565b6103d56119d4565b6102346104d8366004614e01565b6119e0565b610395611a43565b6103f56104f33660046153b0565b611a99565b610284610506366004615421565b600160209081526000928352604080842090915290825290205481565b6103f561053136600461532d565b611ce6565b61053e611d3e565b60405161024092919061545a565b6008546001600160a01b03166103b5565b600061056882612180565b806105835750631182078560e11b6001600160e01b03198316145b92915050565b6003805461059690615488565b80601f01602080910402602001604051908101604052809291908181526020018280546105c290615488565b801561060f5780601f106105e45761010080835404028352916020019161060f565b820191906000526020600020905b8154815290600101906020018083116105f257829003601f168201915b505050505081565b3360008181526001602090815260408083206001600160a01b038716808552925280832085905551919290917f8c5be1e5ebec7d5bd14f71427d1e84f3dd0314c0f7b2291e5b200ac8c7c3b925906106729086815260200190565b60405180910390a350600192915050565b6010818154811061069357600080fd5b600091825260209091200154905081565b6001600160a01b03831660009081526001602090815260408083203384529091528120546000198114610700576106db83826154d9565b6001600160a01b03861660009081526001602090815260408083203384529091529020555b6001600160a01b038516600090815260208190526040812080548592906107289084906154d9565b90915550506001600160a01b038481166000818152602081815260409182902080548801905590518681529192881691600080516020615d8f833981519152910160405180910390a360019150505b9392505050565b60007f000000000000000000000000000000000000000000000000000000000000000046146107b4576107af6121a0565b905090565b5060055490565b6060600260075414156108155760405162461bcd60e51b815260206004820152601f60248201527f5265656e7472616e637947756172643a207265656e7472616e742063616c6c0060448201526064015b60405180910390fd5b600260075560085460408051636d90185560e11b815290516001600160a01b039092169163db2030aa91600480820192602092909190829003018186803b15801561085f57600080fd5b505afa158015610873573d6000803e3d6000fd5b505050506040513d601f19601f820116820180604052508101906108979190615500565b5160408051808201909152600381526223292160e91b602082015290156108d15760405162461bcd60e51b815260040161080c9190614dc6565b506000600980548060200260200160405190810160405280929190818152602001828054801561092a57602002820191906000526020600020905b81546001600160a01b0316815260019091019060200180831161090c575b505060025493945050508115159050610a7b5760005b8251811015610a7957600c818154811061095c5761095c615530565b9060005260206000200154600a6109739190615546565b87828151811061098557610985615530565b60200260200101511015604051806040016040528060048152602001634c494d5560e01b815250906109ca5760405162461bcd60e51b815260040161080c9190614dc6565b50600c81815481106109de576109de615530565b9060005260206000200154600c82815481106109fc576109fc615530565b9060005260206000200154610a119190615546565b878281518110610a2357610a23615530565b60200260200101511115604051806040016040528060048152602001634c494d4f60e01b81525090610a685760405162461bcd60e51b815260040161080c9190614dc6565b50610a7281615565565b9050610940565b505b600080610a86611d3e565b600b549193509150610a9a8184868861223a565b60025460085460405163110c1a4960e31b8152600481018490529195506000916001600160a01b0390911690638860d2489060240160e06040518083038186803b158015610ae757600080fd5b505afa158015610afb573d6000803e3d6000fd5b505050506040513d601f19601f82011682018060405250810190610b1f919061558b565b905080604001511580610b385750610b38601233612604565b6040518060400160405280600381526020016223292160e91b81525090610b725760405162461bcd60e51b815260040161080c9190614dc6565b506000808b516001600160401b03811115610b8f57610b8f614ea4565b604051908082528060200260200182016040528015610bb8578160200160208202803683370190505b5090506000610bc8868e8a612626565b909350905060005b8951811015610cb657610c36878281518110610bee57610bee615530565b60200260200101518f8381518110610c0857610c08615530565b6020026020010151868c86600c8781548110610c2657610c26615530565b9060005260206000200154612815565b838281518110610c4857610c48615530565b602002602001018181525050610ca63330858481518110610c6b57610c6b615530565b60200260200101518d8581518110610c8557610c85615530565b60200260200101516001600160a01b0316612865909392919063ffffffff16565b610caf81615565565b9050610bd0565b5050610cc2818b6128d0565b98506000610cd1868b8a612626565b5090508b811015604051806040016040528060048152602001634c494d5560e01b81525090610d135760405162461bcd60e51b815260040161080c9190614dc6565b506040805180820190915260028152612b2d60f11b602082015281610d4b5760405162461bcd60e51b815260040161080c9190614dc6565b50600854604051630248cd6d60e31b8152600481018790526000916001600160a01b0316906312466b6890602401604080518083038186803b158015610d9057600080fd5b505afa158015610da4573d6000803e3d6000fd5b505050506040513d601f19601f82011682018060405250810190610dc89190615630565b80513360009081526020819052604090205491925090610de89084615666565b1115604051806040016040528060048152602001634c494d4f60e01b81525090610e255760405162461bcd60e51b815260040161080c9190614dc6565b506020810151610e358a84615666565b1115604051806040016040528060048152602001634c494d4f60e01b81525090610e725760405162461bcd60e51b815260040161080c9190614dc6565b5088610e8857610e83600083612bd7565b610e92565b610e923383612bd7565b60005b600954811015610f5a578b8181518110610eb157610eb1615530565b6020026020010151848281518110610ecb57610ecb615530565b60200260200101511115610f4a57610f4a338d8381518110610eef57610eef615530565b6020026020010151868481518110610f0957610f09615530565b6020026020010151610f1b91906154d9565b60098481548110610f2e57610f2e615530565b6000918252602090912001546001600160a01b03169190612c2f565b610f5381615565565b9050610e95565b5060a08501516001600160a01b031615611091578460a001516001600160a01b031663e521826f6040518163ffffffff1660e01b8152600401600060405180830381600087803b158015610fad57600080fd5b505af1925050508015610fbe575060015b61109157610fca61567e565b806308c379a014156110275750610fdf61569a565b80610fea5750611029565b7f15cdeddb22bdd09b20096a7331e944fed9e31228f6f906decf45288b8e4e4a78816040516110199190614dc6565b60405180910390a150611091565b505b7f15cdeddb22bdd09b20096a7331e944fed9e31228f6f906decf45288b8e4e4a78604051611088906020808252601e908201527f63616c6c6261636b206661696c656420776974686f757420726561736f6e0000604082015260600190565b60405180910390a15b336001600160a01b03167f8a0e0d2e597a2c18e7266d384fcd37c696485c4f2d04f8f90cebe3cf9453a15b60098d856040516110cf93929190615761565b60405180910390a25050600160075550969a9950505050505050505050565b6060600980548060200260200160405190810160405280929190818152602001828054801561114657602002820191906000526020600020905b81546001600160a01b03168152600190910190602001808311611128575b5050505050905090565b61115c84868585612c5f565b6111bb6111916040518060400160405280601081526020016f026b2b63637bb902638102a37b5b2b7160851b81525087612f32565b6111b66040518060400160405280600381526020016204d4c560ec1b81525088612f32565b612f6c565b8351806001600160401b038111156111d5576111d5614ea4565b6040519080825280602002602001820160405280156111fe578160200160208202803683370190505b50805161121391601091602090910190614c1c565b5050600f805467ffffffffffffffff1916426001600160401b0316179055601480546001600160a01b0319166001600160a01b039290921691909117905550505050565b6060600d80548060200260200160405190810160405280929190818152602001828054801561114657602002820191906000526020600020905b815481526020019060010190808311611291575050505050905090565b6060600260075414156113035760405162461bcd60e51b815260206004820152601f60248201527f5265656e7472616e637947756172643a207265656e7472616e742063616c6c00604482015260640161080c565b60026007819055805460408051808201909152918252612b2d60f11b602083015290816113435760405162461bcd60e51b815260040161080c9190614dc6565b506000600980548060200260200160405190810160405280929190818152602001828054801561139c57602002820191906000526020600020905b81546001600160a01b0316815260019091019060200180831161137e575b5050505050905060006009805490506001600160401b038111156113c2576113c2614ea4565b6040519080825280602002602001820160405280156113eb578160200160208202803683370190505b50905060006113f8611d3e565b509050611409600b5482868661223a565b600254336000908152602081905260409020549094508089111561142b578098505b60005b84518110156114885761145b8a84838151811061144d5761144d615530565b602002602001015188612fa3565b84828151811061146d5761146d615530565b602090810291909101015261148181615565565b905061142e565b50611494308489613056565b95506000805b8551811015611606578981815181106114b5576114b5615530565b60200260200101518882815181106114cf576114cf615530565b60200260200101511015604051806040016040528060048152602001634c494d5560e01b815250906115145760405162461bcd60e51b815260040161080c9190614dc6565b5087818151811061152757611527615530565b6020026020010151600c828154811061154257611542615530565b90600052602060002001546115579190615666565b61157b8486848151811061156d5761156d615530565b60200260200101518a612fa3565b1061158557600191505b87818151811061159757611597615530565b60200260200101516000146115f6576115f68c8983815181106115bc576115bc615530565b60200260200101518884815181106115d6576115d6615530565b60200260200101516001600160a01b0316612c2f9092919063ffffffff16565b6115ff81615565565b905061149a565b50611610876137b4565b801561162557611620338b613abf565b61162f565b61162f3383613abf565b600b5460085460405163110c1a4960e31b8152600481018390526000916001600160a01b031690638860d2489060240160e06040518083038186803b15801561167757600080fd5b505afa15801561168b573d6000803e3d6000fd5b505050506040513d601f19601f820116820180604052508101906116af919061558b565b60c08101519091506001600160a01b0316156117e8578060c001516001600160a01b031663b4559f3e6040518163ffffffff1660e01b8152600401600060405180830381600087803b15801561170457600080fd5b505af1925050508015611715575060015b6117e85761172161567e565b806308c379a0141561177e575061173661569a565b806117415750611780565b7f463d36dc456538707e7943e90baea3c0f5b709889785a57b9736e5ae56b4b130816040516117709190614dc6565b60405180910390a1506117e8565b505b7f463d36dc456538707e7943e90baea3c0f5b709889785a57b9736e5ae56b4b1306040516117df906020808252601e908201527f63616c6c6261636b206661696c656420776974686f757420726561736f6e0000604082015260600190565b60405180910390a15b336001600160a01b03167f91e54360cfab588303c49bbbb2869608cb9a9fd5ff9b4431f86988f91290421d60098b8f60405161182693929190615761565b60405180910390a25050600160075550949998505050505050505050565b61184c613b21565b60005b8181101561189c5761188983838381811061186c5761186c615530565b90506020020160208101906118819190614e87565b601290613d74565b508061189481615565565b91505061184f565b505050565b6004805461059690615488565b600080600d83815481106118c4576118c4615530565b90600052602060002001549050600860009054906101000a90046001600160a01b03166001600160a01b0316637ac46fbb6040518163ffffffff1660e01b815260040160606040518083038186803b15801561191f57600080fd5b505afa158015611933573d6000803e3d6000fd5b505050506040513d601f19601f820116820180604052508101906119579190615797565b60200151604051639c94d85360e01b8152600481018390526001600160a01b0390911690639c94d8539060240160206040518083038186803b15801561199c57600080fd5b505afa1580156119b0573d6000803e3d6000fd5b505050506040513d601f19601f820116820180604052508101906107779190615808565b60606107af6012613d89565b33600090815260208190526040812080548391908390611a019084906154d9565b90915550506001600160a01b0383166000818152602081815260409182902080548601905590518481523391600080516020615d8f8339815191529101610672565b6060600c8054806020026020016040519081016040528092919081815260200182805480156111465760200282019190600052602060002090815481526020019060010190808311611291575050505050905090565b604080518082019091526002815261545360f01b602082015242851015611ad35760405162461bcd60e51b815260040161080c9190614dc6565b506000611ade61077e565b6001600160a01b038981166000818152600660209081526040918290205482517f6e71edae12b1b97f4d1f60370fef10105fa2faae0126114a169c64845d6126c98184015280840194909452938c166060840152608083018b905260a083019390935260c08083018a90528151808403909101815260e08301909152805192019190912061190160f01b6101008301526101028201929092526101228101919091526101420160408051808303601f1901815282825280516020918201206001600160a01b038c166000908152600683528381208054600190810190915581865292850180855282905260ff89169385019390935260608401879052608084018690529350909160a0016020604051602081039080840390855afa158015611c0a573d6000803e3d6000fd5b5050604051601f1901519150506001600160a01b03811615801590611c405750886001600160a01b0316816001600160a01b0316145b6040518060400160405280600381526020016223292160e91b81525090611c7a5760405162461bcd60e51b815260040161080c9190614dc6565b506001600160a01b0390811660009081526001602090815260408083208b8516808552908352928190208a905551898152919350918a16917f8c5be1e5ebec7d5bd14f71427d1e84f3dd0314c0f7b2291e5b200ac8c7c3b925910160405180910390a350505050505050565b611cee613b21565b60005b8181101561189c57611d2b838383818110611d0e57611d0e615530565b9050602002016020810190611d239190614e87565b601290613d96565b5080611d3681615565565b915050611cf1565b6060806000600860009054906101000a90046001600160a01b03166001600160a01b0316637ac46fbb6040518163ffffffff1660e01b815260040160606040518083038186803b158015611d9157600080fd5b505afa158015611da5573d6000803e3d6000fd5b505050506040513d601f19601f82011682018060405250810190611dc99190615797565b60200151905060006009805480602002602001604051908101604052809291908181526020018280548015611e2757602002820191906000526020600020905b81546001600160a01b03168152600190910190602001808311611e09575b5050505050905080516001600160401b03811115611e4757611e47614ea4565b604051908082528060200260200182016040528015611e70578160200160208202803683370190505b50935080516001600160401b03811115611e8c57611e8c614ea4565b604051908082528060200260200182016040528015611eb5578160200160208202803683370190505b50925060005b600d54811015612179576000836001600160a01b0316639c94d853600d8481548110611ee957611ee9615530565b90600052602060002001546040518263ffffffff1660e01b8152600401611f1291815260200190565b60206040518083038186803b158015611f2a57600080fd5b505afa158015611f3e573d6000803e3d6000fd5b505050506040513d601f19601f82011682018060405250810190611f629190615808565b9050600080826001600160a01b031663e5328e066040518163ffffffff1660e01b815260040160006040518083038186803b158015611fa057600080fd5b505afa158015611fb4573d6000803e3d6000fd5b505050506040513d6000823e601f3d908101601f19168201604052611fdc919081019061588b565b915091506000836001600160a01b031663697222336040518163ffffffff1660e01b815260040160006040518083038186803b15801561201b57600080fd5b505afa15801561202f573d6000803e3d6000fd5b505050506040513d6000823e601f3d908101601f1916820160405261205791908101906158ee565b90506000805b87518110801561206d5750825182105b156121625787818151811061208457612084615530565b60200260200101516001600160a01b03168383815181106120a7576120a7615530565b60200260200101516001600160a01b03161415612152578482815181106120d0576120d0615530565b60200260200101518b82815181106120ea576120ea615530565b602002602001018181516120fe9190615666565b905250835184908390811061211557612115615530565b60200260200101518a828151811061212f5761212f615530565b602002602001018181516121439190615666565b90525061214f82615565565b91505b61215b81615565565b905061205d565b5050505050508061217290615565565b9050611ebb565b5050509091565b600061218b82613dab565b806105835750506001600160e01b0319161590565b60007f8b73c3c69bb8fe3d512ecc4cf759cc79239f7b179b0ffacaa9a75d522b39400f60036040516121d29190615987565b6040805191829003822060208301939093528101919091527fc89efdaa54c0f20c7adf612882df0950f5a951637e0307cdcb4c672f298b8bc660608201524660808201523060a082015260c00160405160208183030381529060405280519060200120905090565b600854600f546001600160a01b0390911690600090612262906001600160401b0316426154d9565b90506000826001600160a01b031663d34cc3806040518163ffffffff1660e01b8152600401604080518083038186803b15801561229e57600080fd5b505afa1580156122b2573d6000803e3d6000fd5b505050506040513d601f19601f820116820180604052508101906122d69190615a23565b80519091508210156122ea575050506125fe565b600f805467ffffffffffffffff1916426001600160401b031617905584612313575050506125fe565b6000600190506000600c80548060200260200160405190810160405280929190818152602001828054801561236757602002820191906000526020600020905b815481526020019060010190808311612353575b5050505050905060005b81518110156123cc5781818151811061238c5761238c615530565b60200260200101518982815181106123a6576123a6615530565b6020026020010151106123bc57600092506123cc565b6123c581615565565b9050612371565b5081156123dd5750505050506125fe565b505060405163110c1a4960e31b8152600481018890526000906001600160a01b03851690638860d2489060240160e06040518083038186803b15801561242257600080fd5b505afa158015612436573d6000803e3d6000fd5b505050506040513d601f19601f8201168201806040525081019061245a919061558b565b60405163dbb1c35f60e01b8152600481018a90529091506000906001600160a01b0386169063dbb1c35f9060240160206040518083038186803b1580156124a057600080fd5b505afa1580156124b4573d6000803e3d6000fd5b505050506040513d601f19601f820116820180604052508101906124d89190615a5f565b6000015190506000856001600160a01b0316637ac46fbb6040518163ffffffff1660e01b815260040160606040518083038186803b15801561251957600080fd5b505afa15801561252d573d6000803e3d6000fd5b505050506040513d601f19601f820116820180604052508101906125519190615797565b600001516001600160a01b031663803db96d6040518163ffffffff1660e01b815260040160206040518083038186803b15801561258d57600080fd5b505afa1580156125a1573d6000803e3d6000fd5b505050506040513d601f19601f820116820180604052508101906125c59190615808565b90506125dd836060015183856000015184898d613de1565b6125f7888a856080015186602001518b8960200151613ecf565b5050505050505b50505050565b6001600160a01b03811660009081526001830160205260408120541515610777565b600080826126925760005b8551811015612688578285828151811061264d5761264d615530565b602002602001015111156126785784818151811061266d5761266d615530565b602002602001015192505b61268181615565565b9050612631565b506000905061280d565b600085519050600080600c8054806020026020016040519081016040528092919081815260200182805480156126e757602002820191906000526020600020905b8154815260200190600101908083116126d3575b5050505050905060005b838110156127a45781818151811061270b5761270b615530565b602002602001015189828151811061272557612725615530565b6020026020010151101561273857612794565b600061277789838151811061274f5761274f615530565b6020026020010151898c858151811061276a5761276a615530565b6020026020010151612fa3565b905086811080612785575083155b1561279257600193508096505b505b61279d81615565565b90506126f1565b50819350836128095760005b885181101561280757858882815181106127cc576127cc615530565b602002602001015111156127f7578781815181106127ec576127ec615530565b602002602001015195505b61280081615565565b90506127b0565b505b5050505b935093915050565b6000831580612822575082155b1561282e57508461285b565b8187101561283e5750600061285b565b600061284b888787612fa3565b9050868111156128585750855b90505b9695505050505050565b6040516001600160a01b03808516602483015283166044820152606481018290526125fe9085906323b872dd60e01b906084015b60408051601f198184030181529190526020810180516001600160e01b03166001600160e01b031990931692909217909152614023565b600b546040805180820190915260048152631253925560e21b602082015260609161290e5760405162461bcd60e51b815260040161080c9190614dc6565b5060085460408051637ac46fbb60e01b815290516000926001600160a01b031691637ac46fbb916004808301926060929190829003018186803b15801561295457600080fd5b505afa158015612968573d6000803e3d6000fd5b505050506040513d601f19601f8201168201806040525081019061298c9190615797565b90506000600d6000815481106129a4576129a4615530565b906000526020600020015490506000826020015190506000816001600160a01b0316639c94d853846040518263ffffffff1660e01b81526004016129ea91815260200190565b60206040518083038186803b158015612a0257600080fd5b505afa158015612a16573d6000803e3d6000fd5b505050506040513d601f19601f82011682018060405250810190612a3a9190615808565b905060005b600954811015612aca576000888281518110612a5d57612a5d615530565b60200260200101511115612ab857612ab882898381518110612a8157612a81615530565b602002602001015160098481548110612a9c57612a9c615530565b6000918252602090912001546001600160a01b031691906140f5565b80612ac281615565565b915050612a3f565b506040516313d1af2d60e11b81526001600160a01b038216906327a35e5a90612afe9030906009908c908c90600401615a87565b600060405180830381600087803b158015612b1857600080fd5b505af1158015612b2c573d6000803e3d6000fd5b505050506040513d6000823e601f3d908101601f19168201604052612b549190810190615ad1565b945060005b600954811015612bcc576000888281518110612b7757612b77615530565b60200260200101511115612bba57612bba82600060098481548110612b9e57612b9e615530565b6000918252602090912001546001600160a01b031691906141b6565b80612bc481615565565b915050612b59565b505050505092915050565b8060026000828254612be99190615666565b90915550506001600160a01b03821660008181526020818152604080832080548601905551848152600080516020615d8f83398151915291015b60405180910390a35050565b6040516001600160a01b03831660248201526044810182905261189c90849063a9059cbb60e01b90606401612899565b6000336001600160a01b0316637ac46fbb6040518163ffffffff1660e01b815260040160606040518083038186803b158015612c9a57600080fd5b505afa158015612cae573d6000803e3d6000fd5b505050506040513d601f19601f82011682018060405250810190612cd29190615797565b60200151905060005b8251811015612f0c576000838281518110612cf857612cf8615530565b60200260200101519050306001600160a01b0316836001600160a01b0316636352211e836040518263ffffffff1660e01b8152600401612d3a91815260200190565b60206040518083038186803b158015612d5257600080fd5b505afa158015612d66573d6000803e3d6000fd5b505050506040513d601f19601f82011682018060405250810190612d8a9190615808565b6001600160a01b0316146040518060400160405280600381526020016223292160e91b81525090612dce5760405162461bcd60e51b815260040161080c9190614dc6565b50600e6000828152602001908152602001600020546000146040518060400160405280600381526020016204455560ec1b81525090612e205760405162461bcd60e51b815260040161080c9190614dc6565b5060405163095ea7b360e01b81526001600160a01b0386811660048301526024820183905284169063095ea7b390604401600060405180830381600087803b158015612e6b57600080fd5b505af1158015612e7f573d6000803e3d6000fd5b5050604051634dcbc73960e01b8152600481018490526001600160a01b0386169250634dcbc7399150602401600060405180830381600087803b158015612ec557600080fd5b505af1158015612ed9573d6000803e3d6000fd5b50505050816001612eea9190615666565b6000918252600e60205260409091205580612f0481615565565b915050612cdb565b508151612f2090600d906020850190614c1c565b50612f2b85856142da565b5050505050565b60606000612f3f83614766565b90508381604051602001612f54929190615b05565b60405160208183030381529060405291505092915050565b8151612f7f906003906020850190614c67565b508051612f93906004906020840190614c67565b50612f9c6121a0565b6005555050565b600080806000198587098587029250828110838203039150508060001415612fdd5760008411612fd257600080fd5b508290049050610777565b808411612fe957600080fd5b6000848688096000868103871696879004966002600389028118808a02820302808a02820302808a02820302808a02820302808a02820302808a02909103029181900381900460010186841190950394909402919094039290920491909117919091029150509392505050565b600b546040805180820190915260048152631253925560e21b60208201526060916130945760405162461bcd60e51b815260040161080c9190614dc6565b50600d5482516040805180820190915260048152631253959360e21b602082015291146130d45760405162461bcd60e51b815260040161080c9190614dc6565b5060085460408051637ac46fbb60e01b815290516000926001600160a01b031691637ac46fbb916004808301926060929190829003018186803b15801561311a57600080fd5b505afa15801561312e573d6000803e3d6000fd5b505050506040513d601f19601f820116820180604052508101906131529190615797565b60200151905083516001600160401b0381111561317157613171614ea4565b60405190808252806020026020018201604052801561319a578160200160208202803683370190505b509150600060098054806020026020016040519081016040528092919081815260200182805480156131f557602002820191906000526020600020905b81546001600160a01b031681526001909101906020018083116131d7575b505050505090506000600c80548060200260200160405190810160405280929190818152602001828054801561324a57602002820191906000526020600020905b815481526020019060010190808311613236575b50505050509050600086516001600160401b0381111561326c5761326c614ea4565b604051908082528060200260200182016040528015613295578160200160208202803683370190505b50905060005b83518110156132ed578781815181106132b6576132b6615530565b60200260200101518282815181106132d0576132d0615530565b6020908102919091010152806132e581615565565b91505061329b565b5060005b600d5481101561354f576000600d828154811061331057613310615530565b6000918252602082200154604051639c94d85360e01b8152600481018290529092506001600160a01b03881690639c94d8539060240160206040518083038186803b15801561335e57600080fd5b505afa158015613372573d6000803e3d6000fd5b505050506040513d601f19601f820116820180604052508101906133969190615808565b90506000816001600160a01b0316632062d7543089888e89815181106133be576133be615530565b60200260200101516040518563ffffffff1660e01b81526004016133e59493929190615b34565b600060405180830381600087803b1580156133ff57600080fd5b505af1158015613413573d6000803e3d6000fd5b505050506040513d6000823e601f3d908101601f1916820160405261343b9190810190615ad1565b9050600160005b88518110156135285787818151811061345d5761345d615530565b602002602001015183828151811061347757613477615530565b60200260200101516134899190615666565b87828151811061349b5761349b615530565b602002602001015111156134f557600091508281815181106134bf576134bf615530565b60200260200101518782815181106134d9576134d9615530565b602002602001018181516134ed91906154d9565b905250613516565b600087828151811061350957613509615530565b6020026020010181815250505b8061352081615565565b915050613442565b508015613538575050505061354f565b50505050808061354790615565565b9150506132f1565b506000846001600160a01b0316639c94d853600d60008154811061357557613575615530565b90600052602060002001546040518263ffffffff1660e01b815260040161359e91815260200190565b60206040518083038186803b1580156135b657600080fd5b505afa1580156135ca573d6000803e3d6000fd5b505050506040513d601f19601f820116820180604052508101906135ee9190615808565b905060005b84518110156137a757600085828151811061361057613610615530565b60209081029190910101516040516370a0823160e01b81523060048201526001600160a01b03909116906370a082319060240160206040518083038186803b15801561365b57600080fd5b505afa15801561366f573d6000803e3d6000fd5b505050506040513d601f19601f820116820180604052508101906136939190615b58565b9050808a83815181106136a8576136a8615530565b6020026020010151101561375e578982815181106136c8576136c8615530565b60200260200101518883815181106136e2576136e2615530565b60200260200101818152505061371e8b8b848151811061370457613704615530565b60200260200101518885815181106115d6576115d6615530565b613759838b848151811061373457613734615530565b60200260200101518361374791906154d9565b8885815181106115d6576115d6615530565b613794565b8088838151811061377157613771615530565b6020026020010181815250506137948b828885815181106115d6576115d6615530565b508061379f81615565565b9150506135f3565b5050505050509392505050565b600081516001600160401b038111156137cf576137cf614ea4565b6040519080825280602002602001820160405280156137f8578160200160208202803683370190505b5060085460408051637ac46fbb60e01b8152905192935042926000926001600160a01b031691637ac46fbb916004808301926060929190829003018186803b15801561384357600080fd5b505afa158015613857573d6000803e3d6000fd5b505050506040513d601f19601f8201168201806040525081019061387b9190615797565b51600f549091506001600160401b03838116600160401b90920416146138ca57600f80546fffffffffffffffff00000000000000001916600160401b6001600160401b03851602179055613925565b60005b845181101561392357601081815481106138e9576138e9615530565b906000526020600020015484828151811061390657613906615530565b60209081029190910101528061391b81615565565b9150506138cd565b505b60005b8451811015612f2b5784818151811061394357613943615530565b602002602001015184828151811061395d5761395d615530565b602002602001018181516139719190615666565b905250600980546001600160a01b0384169163fce33f01918490811061399957613999615530565b60009182526020909120015460405160e083901b6001600160e01b03191681526001600160a01b03909116600482015260240160206040518083038186803b1580156139e457600080fd5b505afa1580156139f8573d6000803e3d6000fd5b505050506040513d601f19601f82011682018060405250810190613a1c9190615b58565b848281518110613a2e57613a2e615530565b60200260200101511115604051806040016040528060048152602001634c494d4f60e01b81525090613a735760405162461bcd60e51b815260040161080c9190614dc6565b50838181518110613a8657613a86615530565b602002602001015160108281548110613aa157613aa1615530565b60009182526020909120015580613ab781615565565b915050613928565b6001600160a01b03821660009081526020819052604081208054839290613ae79084906154d9565b90915550506002805482900390556040518181526000906001600160a01b03841690600080516020615d8f83398151915290602001612c23565b600b5460085460408051637ac46fbb60e01b815290516000926001600160a01b031691637ac46fbb916004808301926060929190829003018186803b158015613b6957600080fd5b505afa158015613b7d573d6000803e3d6000fd5b505050506040513d601f19601f82011682018060405250810190613ba19190615797565b8051604051630935e01b60e21b81523360048201529192506001600160a01b0316906324d7806c9060240160206040518083038186803b158015613be457600080fd5b505afa158015613bf8573d6000803e3d6000fd5b505050506040513d601f19601f82011682018060405250810190613c1c9190615b71565b80613cab5750602081015160405163020604bf60e21b81526004810184905233916001600160a01b03169063081812fc9060240160206040518083038186803b158015613c6857600080fd5b505afa158015613c7c573d6000803e3d6000fd5b505050506040513d601f19601f82011682018060405250810190613ca09190615808565b6001600160a01b0316145b80613d3a575060208101516040516331a9108f60e11b81526004810184905233916001600160a01b031690636352211e9060240160206040518083038186803b158015613cf757600080fd5b505afa158015613d0b573d6000803e3d6000fd5b505050506040513d601f19601f82011682018060405250810190613d2f9190615808565b6001600160a01b0316145b6040518060400160405280600381526020016223292160e91b8152509061189c5760405162461bcd60e51b815260040161080c9190614dc6565b6000610777836001600160a01b03841661486b565b60606000610777836148ba565b6000610777836001600160a01b038416614916565b60006301ffc9a760e01b6001600160e01b03198316148061058357506001600160e01b0319821663305a640b60e21b1492915050565b8515613e60576000613e0e613df68489615546565b83613e09633b9aca006301e13380615546565b612fa3565b9050613e1a8582612bd7565b60408051888152602081018390526001600160a01b038716917ff128e63f8c1601609ed0ca497b3c0aef18a94da6579e4230bae6eca9c5de3c0b910160405180910390a2505b8415613ec7576000613e75613df68488615546565b9050613e818482612bd7565b60408051878152602081018390526001600160a01b038616917f8e65e88a246d15f0b922b1ccbe4df44ab60cdea0aead3dfe00faebea0d8817b0910160405180910390a2505b505050505050565b831580613eda575085155b15613ee457613ec7565b6014546040516312f6244560e21b81526000916001600160a01b031690634bd8911490613f1990899087908790600401615b8c565b60206040518083038186803b158015613f3157600080fd5b505afa158015613f45573d6000803e3d6000fd5b505050506040513d601f19601f82011682018060405250810190613f699190615b58565b90506000613f8082670de0b6b3a76400008a612fa3565b601154909150808211613f9557505050613ec7565b60008115613fce57613fb18a613fab84866154d9565b84612fa3565b9050613fc28189633b9aca00612fa3565b9050613fce8782612bd7565b601183905560408051898152602081018390526001600160a01b038916917fd935d6b9af5232b71790c40552a0436920efa18da75df1474e95aef999d8f5f8910160405180910390a250505050505050505050565b6000614078826040518060400160405280602081526020017f5361666545524332303a206c6f772d6c6576656c2063616c6c206661696c6564815250856001600160a01b0316614a099092919063ffffffff16565b80519091501561189c57808060200190518101906140969190615b71565b61189c5760405162461bcd60e51b815260206004820152602a60248201527f5361666545524332303a204552433230206f7065726174696f6e20646964206e6044820152691bdd081cdd58d8d9595960b21b606482015260840161080c565b604051636eb1769f60e11b81523060048201526001600160a01b038381166024830152600091839186169063dd62ed3e9060440160206040518083038186803b15801561414157600080fd5b505afa158015614155573d6000803e3d6000fd5b505050506040513d601f19601f820116820180604052508101906141799190615b58565b6141839190615666565b6040516001600160a01b0385166024820152604481018290529091506125fe90859063095ea7b360e01b90606401612899565b80158061423f5750604051636eb1769f60e11b81523060048201526001600160a01b03838116602483015284169063dd62ed3e9060440160206040518083038186803b15801561420557600080fd5b505afa158015614219573d6000803e3d6000fd5b505050506040513d601f19601f8201168201806040525081019061423d9190615b58565b155b6142aa5760405162461bcd60e51b815260206004820152603660248201527f5361666545524332303a20617070726f76652066726f6d206e6f6e2d7a65726f60448201527520746f206e6f6e2d7a65726f20616c6c6f77616e636560501b606482015260840161080c565b6040516001600160a01b03831660248201526044810182905261189c90849063095ea7b360e01b90606401612899565b600b546040805180820190915260048152631253925560e21b602082015290156143175760405162461bcd60e51b815260040161080c9190614dc6565b5061432182614a18565b60405180604001604052806004815260200163494e564160e01b8152509061435c5760405162461bcd60e51b815260040161080c9190614dc6565b506040805180820190915260028152612b2d60f11b6020820152816143945760405162461bcd60e51b815260040161080c9190614dc6565b506000336001600160a01b0316637ac46fbb6040518163ffffffff1660e01b815260040160606040518083038186803b1580156143d057600080fd5b505afa1580156143e4573d6000803e3d6000fd5b505050506040513d601f19601f820116820180604052508101906144089190615797565b5183519091501580159061448d5750806001600160a01b03166378546fa26040518163ffffffff1660e01b815260040160206040518083038186803b15801561445057600080fd5b505afa158015614464573d6000803e3d6000fd5b505050506040513d601f19601f820116820180604052508101906144889190615b58565b835111155b6040518060400160405280600381526020016224a72b60e91b815250906144c75760405162461bcd60e51b815260040161080c9190614dc6565b5060005b83518110156145cb57816001600160a01b03166363e85d2d8583815181106144f5576144f5615530565b60209081029190910101516040516001600160e01b031960e084901b1681526001600160a01b0390911660048201526003602482015260440160206040518083038186803b15801561454657600080fd5b505afa15801561455a573d6000803e3d6000fd5b505050506040513d601f19601f8201168201806040525081019061457e9190615b71565b6040518060400160405280600381526020016223292160e91b815250906145b85760405162461bcd60e51b815260040161080c9190614dc6565b50806145c381615565565b9150506144cb565b50600880546001600160a01b0319163317905582516145f1906009906020860190614cda565b50600b82905560095460005b8181101561472157614610816001615666565b600a600087848151811061462657614626615530565b60200260200101516001600160a01b03166001600160a01b0316815260200190815260200160002081905550600085828151811061466657614666615530565b60200260200101519050600c6002826001600160a01b031663313ce5676040518163ffffffff1660e01b815260040160206040518083038186803b1580156146ad57600080fd5b505afa1580156146c1573d6000803e3d6000fd5b505050506040513d601f19601f820116820180604052508101906146e59190615bca565b6146ef9190615bfd565b6146fa90600a615d03565b815460018101835560009283526020909220909101555061471a81615565565b90506145fd565b50604051339032907f0f043e55a1ce0d7ce25125ccbc2800b540d83e21abf7250f0156c2091a28b221906147589088908890615d12565b60405180910390a350505050565b60608161478a5750506040805180820190915260018152600360fc1b602082015290565b8160005b81156147b4578061479e81615565565b91506147ad9050600a83615d34565b915061478e565b6000816001600160401b038111156147ce576147ce614ea4565b6040519080825280601f01601f1916602001820160405280156147f8576020820181803683370190505b5090505b84156148635761480d6001836154d9565b915061481a600a86615d48565b614825906030615666565b60f81b81838151811061483a5761483a615530565b60200101906001600160f81b031916908160001a90535061485c600a86615d34565b94506147fc565b949350505050565b60008181526001830160205260408120546148b257508154600181810184556000848152602080822090930184905584548482528286019093526040902091909155610583565b506000610583565b60608160000180548060200260200160405190810160405280929190818152602001828054801561490a57602002820191906000526020600020905b8154815260200190600101908083116148f6575b50505050509050919050565b600081815260018301602052604081205480156149ff57600061493a6001836154d9565b855490915060009061494e906001906154d9565b90508181146149b357600086600001828154811061496e5761496e615530565b906000526020600020015490508087600001848154811061499157614991615530565b6000918252602080832090910192909255918252600188019052604090208390555b85548690806149c4576149c4615d5c565b600190038181906000526020600020016000905590558560010160008681526020019081526020016000206000905560019350505050610583565b6000915050610583565b60606148638484600085614abb565b6000600282511015614a2c57506001919050565b60005b60018351614a3d91906154d9565b811015614ab25782614a50826001615666565b81518110614a6057614a60615530565b60200260200101516001600160a01b0316838281518110614a8357614a83615530565b60200260200101516001600160a01b031610614aa25750600092915050565b614aab81615565565b9050614a2f565b50600192915050565b606082471015614b1c5760405162461bcd60e51b815260206004820152602660248201527f416464726573733a20696e73756666696369656e742062616c616e636520666f6044820152651c8818d85b1b60d21b606482015260840161080c565b843b614b6a5760405162461bcd60e51b815260206004820152601d60248201527f416464726573733a2063616c6c20746f206e6f6e2d636f6e7472616374000000604482015260640161080c565b600080866001600160a01b03168587604051614b869190615d72565b60006040518083038185875af1925050503d8060008114614bc3576040519150601f19603f3d011682016040523d82523d6000602084013e614bc8565b606091505b5091509150614bd8828286614be3565b979650505050505050565b60608315614bf2575081610777565b825115614c025782518084602001fd5b8160405162461bcd60e51b815260040161080c9190614dc6565b828054828255906000526020600020908101928215614c57579160200282015b82811115614c57578251825591602001919060010190614c3c565b50614c63929150614d2f565b5090565b828054614c7390615488565b90600052602060002090601f016020900481019282614c955760008555614c57565b82601f10614cae57805160ff1916838001178555614c57565b82800160010185558215614c575791820182811115614c57578251825591602001919060010190614c3c565b828054828255906000526020600020908101928215614c57579160200282015b82811115614c5757825182546001600160a01b0319166001600160a01b03909116178255602090920191600190910190614cfa565b5b80821115614c635760008155600101614d30565b600060208284031215614d5657600080fd5b81356001600160e01b03198116811461077757600080fd5b60005b83811015614d89578181015183820152602001614d71565b838111156125fe5750506000910152565b60008151808452614db2816020860160208601614d6e565b601f01601f19169290920160200192915050565b6020815260006107776020830184614d9a565b6001600160a01b0381168114614dee57600080fd5b50565b8035614dfc81614dd9565b919050565b60008060408385031215614e1457600080fd5b8235614e1f81614dd9565b946020939093013593505050565b600060208284031215614e3f57600080fd5b5035919050565b600080600060608486031215614e5b57600080fd5b8335614e6681614dd9565b92506020840135614e7681614dd9565b929592945050506040919091013590565b600060208284031215614e9957600080fd5b813561077781614dd9565b634e487b7160e01b600052604160045260246000fd5b602081018181106001600160401b0382111715614ed957614ed9614ea4565b60405250565b604081018181106001600160401b0382111715614ed957614ed9614ea4565b601f8201601f191681016001600160401b0381118282101715614f2357614f23614ea4565b6040525050565b60006001600160401b03821115614f4357614f43614ea4565b5060051b60200190565b600082601f830112614f5e57600080fd5b81356020614f6b82614f2a565b604051614f788282614efe565b83815260059390931b8501820192828101915086841115614f9857600080fd5b8286015b84811015614fb35780358352918301918301614f9c565b509695505050505050565b600082601f830112614fcf57600080fd5b81356001600160401b03811115614fe857614fe8614ea4565b604051614fff601f8301601f191660200182614efe565b81815284602083860101111561501457600080fd5b816020850160208301376000918101602001919091529392505050565b60008060006060848603121561504657600080fd5b83356001600160401b038082111561505d57600080fd5b61506987838801614f4d565b945060208601359350604086013591508082111561508657600080fd5b5061509386828701614fbe565b9150509250925092565b600081518084526020808501945080840160005b838110156150cd578151875295820195908201906001016150b1565b509495945050505050565b602081526000610777602083018461509d565b600081518084526020808501945080840160005b838110156150cd5781516001600160a01b0316875295820195908201906001016150ff565b60208152600061077760208301846150eb565b600080600080600060a0868803121561514f57600080fd5b853594506020808701356001600160401b038082111561516e57600080fd5b818901915089601f83011261518257600080fd5b813561518d81614f2a565b60405161519a8282614efe565b82815260059290921b840185019185810191508c8311156151ba57600080fd5b938501935b828510156151e15784356151d281614dd9565b825293850193908501906151bf565b98506151f291505060408a01614df1565b9550606089013592508083111561520857600080fd5b505061521688828901614f4d565b92505061522560808701614df1565b90509295509295909350565b6000806000806080858703121561524757600080fd5b843561525281614dd9565b9350602085810135935060408601356001600160401b038082111561527657600080fd5b61528289838a01614f4d565b9450606088013591508082111561529857600080fd5b818801915088601f8301126152ac57600080fd5b81356152b781614f2a565b6040516152c48282614efe565b82815260059290921b840185019185810191508b8311156152e457600080fd5b8585015b8381101561531c578035858111156153005760008081fd5b61530e8e89838a0101614fbe565b8452509186019186016152e8565b50989b979a50959850505050505050565b6000806020838503121561534057600080fd5b82356001600160401b038082111561535757600080fd5b818501915085601f83011261536b57600080fd5b81358181111561537a57600080fd5b8660208260051b850101111561538f57600080fd5b60209290920196919550909350505050565b60ff81168114614dee57600080fd5b600080600080600080600060e0888a0312156153cb57600080fd5b87356153d681614dd9565b965060208801356153e681614dd9565b955060408801359450606088013593506080880135615404816153a1565b9699959850939692959460a0840135945060c09093013592915050565b6000806040838503121561543457600080fd5b823561543f81614dd9565b9150602083013561544f81614dd9565b809150509250929050565b60408152600061546d604083018561509d565b828103602084015261547f818561509d565b95945050505050565b600181811c9082168061549c57607f821691505b602082108114156154bd57634e487b7160e01b600052602260045260246000fd5b50919050565b634e487b7160e01b600052601160045260246000fd5b6000828210156154eb576154eb6154c3565b500390565b80518015158114614dfc57600080fd5b60006020828403121561551257600080fd5b60405161551e81614eba565b615527836154f0565b81529392505050565b634e487b7160e01b600052603260045260246000fd5b6000816000190483118215151615615560576155606154c3565b500290565b6000600019821415615579576155796154c3565b5060010190565b8051614dfc81614dd9565b600060e0828403121561559d57600080fd5b60405160e081018181106001600160401b03821117156155bf576155bf614ea4565b60405282516155cd81614dd9565b815260208301516155dd81614dd9565b60208201526155ee604084016154f0565b6040820152606083015160608201526080830151608082015261561360a08401615580565b60a082015261562460c08401615580565b60c08201529392505050565b60006040828403121561564257600080fd5b60405161564e81614edf565b82518152602083015160208201528091505092915050565b60008219821115615679576156796154c3565b500190565b600060033d11156156975760046000803e5060005160e01c5b90565b600060443d10156156a85790565b6040516003193d81016004833e81513d6001600160401b0381602484011181841117156156d757505050505090565b82850191508151818111156156ef5750505050505090565b843d87010160208285010111156157095750505050505090565b61571860208286010187614efe565b509095945050505050565b6000815480845260208085019450836000528060002060005b838110156150cd5781546001600160a01b03168752958201956001918201910161573c565b6060815260006157746060830186615723565b8281036020840152615786818661509d565b915050826040830152949350505050565b6000606082840312156157a957600080fd5b604051606081018181106001600160401b03821117156157cb576157cb614ea4565b60405282516157d981614dd9565b815260208301516157e981614dd9565b602082015260408301516157fc81614dd9565b60408201529392505050565b60006020828403121561581a57600080fd5b815161077781614dd9565b600082601f83011261583657600080fd5b8151602061584382614f2a565b6040516158508282614efe565b83815260059390931b850182019282810191508684111561587057600080fd5b8286015b84811015614fb35780518352918301918301615874565b6000806040838503121561589e57600080fd5b82516001600160401b03808211156158b557600080fd5b6158c186838701615825565b935060208501519150808211156158d757600080fd5b506158e485828601615825565b9150509250929050565b6000602080838503121561590157600080fd5b82516001600160401b0381111561591757600080fd5b8301601f8101851361592857600080fd5b805161593381614f2a565b6040516159408282614efe565b82815260059290921b830184019184810191508783111561596057600080fd5b928401925b82841015614bd857835161597881614dd9565b82529284019290840190615965565b600080835481600182811c9150808316806159a357607f831692505b60208084108214156159c357634e487b7160e01b86526022600452602486fd5b8180156159d757600181146159e857615a15565b60ff19861689528489019650615a15565b60008a81526020902060005b86811015615a0d5781548b8201529085019083016159f4565b505084890196505b509498975050505050505050565b600060408284031215615a3557600080fd5b604051615a4181614edf565b825181526020830151615a5381614dd9565b60208201529392505050565b600060208284031215615a7157600080fd5b604051615a7d81614eba565b9151825250919050565b6001600160a01b0385168152608060208201819052600090615aab90830186615723565b8281036040840152615abd818661509d565b90508281036060840152614bd88185614d9a565b600060208284031215615ae357600080fd5b81516001600160401b03811115615af957600080fd5b61486384828501615825565b60008351615b17818460208801614d6e565b835190830190615b2b818360208801614d6e565b01949350505050565b6001600160a01b0385168152608060208201819052600090615aab908301866150eb565b600060208284031215615b6a57600080fd5b5051919050565b600060208284031215615b8357600080fd5b610777826154f0565b606081526000615b9f606083018661509d565b8281036020840152615bb181866150eb565b91505060018060a01b0383166040830152949350505050565b600060208284031215615bdc57600080fd5b8151610777816153a1565b634e487b7160e01b600052601260045260246000fd5b600060ff831680615c1057615c10615be7565b8060ff84160491505092915050565b600181815b80851115615c5a578160001904821115615c4057615c406154c3565b80851615615c4d57918102915b93841c9390800290615c24565b509250929050565b600082615c7157506001610583565b81615c7e57506000610583565b8160018114615c945760028114615c9e57615cba565b6001915050610583565b60ff841115615caf57615caf6154c3565b50506001821b610583565b5060208310610133831016604e8410600b8410161715615cdd575081810a610583565b615ce78383615c1f565b8060001904821115615cfb57615cfb6154c3565b029392505050565b600061077760ff841683615c62565b604081526000615d2560408301856150eb565b90508260208301529392505050565b600082615d4357615d43615be7565b500490565b600082615d5757615d57615be7565b500690565b634e487b7160e01b600052603160045260246000fd5b60008251615d84818460208701614d6e565b919091019291505056feddf252ad1be2c89b69c2b068fc378daa952ba7f163c4a11628f55a4df523b3efa2646970667358221220dd20b0eaa10e6bbe6c04f5b8a30c9e6eacb30717ca74a22a260a4927b2208fb664736f6c63430008090033",
  "devdoc": {
    "events": {
      "Deposit(address,address[],uint256[],uint256)": {
        "params": {
          "actualTokenAmounts": "Token amounts deposited",
          "from": "The source address for the liquidity",
          "lpTokenMinted": "LP tokens received by the liquidity provider",
          "tokens": "ERC20 tokens deposited"
        }
      },
      "DepositCallbackLog(string)": {
        "params": {
          "reason": "Error reason"
        }
      },
      "ManagementFeesCharged(address,uint256,uint256)": {
        "params": {
          "amount": "Amount of lp token minted",
          "feeRate": "Fee percent applied denominated in 10 ** 9",
          "treasury": "Treasury receiver of the fee"
        }
      },
      "PerformanceFeesCharged(address,uint256,uint256)": {
        "params": {
          "amount": "Amount of lp token minted",
          "feeRate": "Fee percent applied denominated in 10 ** 9",
          "treasury": "Treasury receiver of the fee"
        }
      },
      "ProtocolFeesCharged(address,uint256,uint256)": {
        "params": {
          "amount": "Amount of lp token minted",
          "feeRate": "Fee percent applied denominated in 10 ** 9",
          "treasury": "Treasury receiver of the fee"
        }
      },
      "Withdraw(address,address[],uint256[],uint256)": {
        "params": {
          "actualTokenAmounts": "Token amounts withdrawn",
          "from": "The source address for the liquidity",
          "lpTokenBurned": "LP tokens burned from the liquidity provider",
          "tokens": "ERC20 tokens withdrawn"
        }
      },
      "WithdrawCallbackLog(string)": {
        "params": {
          "reason": "Error reason"
        }
      }
    },
    "kind": "dev",
    "methods": {
      "addDepositorsToAllowlist(address[])": {
        "details": "The action can be done only by user with admins, owners or by approved rights",
        "params": {
          "depositors": "Array of new depositors"
        }
      },
      "approve(address,uint256)": {
        "details": "Sets `amount` as the allowance of `spender` over the caller's tokens. Returns a boolean value indicating whether the operation succeeded. IMPORTANT: Beware that changing an allowance with this method brings the risk that someone may use both the old and the new allowance by unfortunate transaction ordering. One possible solution to mitigate this race condition is to first reduce the spender's allowance to 0 and set the desired value afterwards: https://github.com/ethereum/EIPs/issues/20#issuecomment-263524729 Emits an {Approval} event."
      },
      "deposit(uint256[],uint256,bytes)": {
        "params": {
          "minLpTokens": "Minimal value of LP tokens",
          "tokenAmounts": "Array of amounts of tokens for deposit",
          "vaultOptions": "Options of vaults"
        },
        "returns": {
          "actualTokenAmounts": "Arrays of actual token amounts after deposit"
        }
      },
      "hasSubvault(uint256)": {
        "params": {
          "nft_": "index of subvault for check"
        },
        "returns": {
          "_0": "`true` if subvault present, `false` otherwise"
        }
      },
      "initialize(uint256,address[],address,uint256[],address)": {
        "details": "Can only be initialized by vault governance",
        "params": {
          "nft_": "NFT of the vault in the VaultRegistry",
          "strategy_": "The address that will have approvals for subvaultNfts",
          "subvaultNfts_": "The NFTs of the subvaults that will be aggregated by this ERC20RootVault",
          "vaultTokens_": "ERC20 tokens that will be managed by this Vault"
        }
      },
      "isVaultToken(address)": {
        "params": {
          "token": "Address of the token to check"
        },
        "returns": {
          "_0": "`true` if this token is managed by Vault"
        }
      },
      "removeDepositorsFromAllowlist(address[])": {
        "details": "The action can be done only by user with admins, owners or by approved rights",
        "params": {
          "depositors": "Array of depositors for remove"
        }
      },
      "subvaultAt(uint256)": {
        "params": {
          "index": "Index of subvault"
        },
        "returns": {
          "_0": "address Address of the contract"
        }
      },
      "subvaultNfts()": {
        "returns": {
          "_0": "subvaultNfts Subvaults of NTFs"
        }
      },
      "subvaultOneBasedIndex(uint256)": {
        "params": {
          "nft_": "Nft for getting subvault"
        },
        "returns": {
          "_0": "index Index of subvault"
        }
      },
      "supportsInterface(bytes4)": {
        "details": "Returns true if this contract implements the interface defined by `interfaceId`. See the corresponding https://eips.ethereum.org/EIPS/eip-165#how-interfaces-are-identified[EIP section] to learn more about how these ids are created. This function call must use less than 30 000 gas."
      },
      "tvl()": {
        "details": "Generally it is the underlying token value of this contract in some other DeFi protocol. For example, for USDC Yearn Vault this would be total USDC balance that could be withdrawn for Yearn to this contract. The tvl itself is estimated in some range. Sometimes the range is exact, sometimes it's not",
        "returns": {
          "maxTokenAmounts": "Upper bound for total available balances estimation (nth tokenAmount corresponds to nth token in vaultTokens)",
          "minTokenAmounts": "Lower bound for total available balances estimation (nth tokenAmount corresponds to nth token in vaultTokens)"
        }
      },
      "withdraw(address,uint256,uint256[],bytes[])": {
        "params": {
          "lpTokenAmount": "LP token amount, that requested for withdraw",
          "minTokenAmounts": "Array of minmal remining wtoken amounts after withdrawal",
          "to": "Address to which the withdrawal will be sent",
          "vaultsOptions": "Options of vaults"
        },
        "returns": {
          "actualTokenAmounts": "Arrays of actual token amounts after withdrawal"
        }
      }
    },
    "stateVariables": {
      "totalWithdrawnAmounts": {
        "params": {
          "_index": "The index at which the value will be returned"
        }
      }
    },
    "version": 1
  },
  "userdoc": {
    "events": {
      "Deposit(address,address[],uint256[],uint256)": {
        "notice": "Emitted when liquidity is deposited"
      },
      "DepositCallbackLog(string)": {
        "notice": "Emitted when callback in deposit failed"
      },
      "Initialized(address,address,address[],uint256)": {
        "notice": "Emitted when Vault is intialized"
      },
      "ManagementFeesCharged(address,uint256,uint256)": {
        "notice": "Emitted when management fees are charged"
      },
      "PerformanceFeesCharged(address,uint256,uint256)": {
        "notice": "Emitted when performance fees are charged"
      },
      "ProtocolFeesCharged(address,uint256,uint256)": {
        "notice": "Emitted when protocol fees are charged"
      },
      "Withdraw(address,address[],uint256[],uint256)": {
        "notice": "Emitted when liquidity is withdrawn"
      },
      "WithdrawCallbackLog(string)": {
        "notice": "Emitted when callback in withdraw failed"
      }
    },
    "kind": "user",
    "methods": {
      "addDepositorsToAllowlist(address[])": {
        "notice": "Add new depositors in the depositorsAllowlist"
      },
      "deposit(uint256[],uint256,bytes)": {
        "notice": "The function of depositing the amount of tokens in exchange"
      },
      "depositorsAllowlist()": {
        "notice": "List of addresses of depositors from which interaction with private vaults is allowed"
      },
      "hasSubvault(uint256)": {
        "notice": "Checks if subvault is present"
      },
      "initialize(uint256,address[],address,uint256[],address)": {
        "notice": "Initialized a new contract."
      },
      "initialized()": {
        "notice": "Checks if the vault is initialized"
      },
      "isVaultToken(address)": {
        "notice": "Checks if a token is vault token"
      },
      "lastFeeCharge()": {
        "notice": "The timestamp of last charging of fees"
      },
      "lpPriceHighWaterMarkD18()": {
        "notice": "LP parameter that controls the charge in performance fees"
      },
      "nft()": {
        "notice": "VaultRegistry NFT for this vault"
      },
      "pullExistentials()": {
        "notice": "Existential amounts for each token"
      },
      "removeDepositorsFromAllowlist(address[])": {
        "notice": "Remove depositors from the depositorsAllowlist"
      },
      "subvaultAt(uint256)": {
        "notice": "Get subvault by index"
      },
      "subvaultNfts()": {
        "notice": "Get all subvalutNfts in the current Vault"
      },
      "subvaultOneBasedIndex(uint256)": {
        "notice": "Get index of subvault by nft"
      },
      "totalWithdrawnAmounts(uint256)": {
        "notice": "Returns value from totalWithdrawnAmounts array by _index"
      },
      "totalWithdrawnAmountsTimestamp()": {
        "notice": "The timestamp of last updating totalWithdrawnAmounts array"
      },
      "tvl()": {
        "notice": "Total value locked for this contract."
      },
      "vaultGovernance()": {
        "notice": "Address of the Vault Governance for this contract."
      },
      "vaultTokens()": {
        "notice": "ERC20 tokens under Vault management."
      },
      "withdraw(address,uint256,uint256[],bytes[])": {
        "notice": "The function of withdrawing the amount of tokens in exchange"
      }
    },
    "notice": "Contract that mints and burns LP tokens in exchange for ERC20 liquidity.",
    "version": 1
  },
  "storageLayout": {
    "storage": [
      {
        "astId": 21015,
        "contract": "contracts/vaults/ERC20RootVault.sol:ERC20RootVault",
        "label": "balanceOf",
        "offset": 0,
        "slot": "0",
        "type": "t_mapping(t_address,t_uint256)"
      },
      {
        "astId": 21021,
        "contract": "contracts/vaults/ERC20RootVault.sol:ERC20RootVault",
        "label": "allowance",
        "offset": 0,
        "slot": "1",
        "type": "t_mapping(t_address,t_mapping(t_address,t_uint256))"
      },
      {
        "astId": 21023,
        "contract": "contracts/vaults/ERC20RootVault.sol:ERC20RootVault",
        "label": "totalSupply",
        "offset": 0,
        "slot": "2",
        "type": "t_uint256"
      },
      {
        "astId": 21025,
        "contract": "contracts/vaults/ERC20RootVault.sol:ERC20RootVault",
        "label": "name",
        "offset": 0,
        "slot": "3",
        "type": "t_string_storage"
      },
      {
        "astId": 21027,
        "contract": "contracts/vaults/ERC20RootVault.sol:ERC20RootVault",
        "label": "symbol",
        "offset": 0,
        "slot": "4",
        "type": "t_string_storage"
      },
      {
        "astId": 21031,
        "contract": "contracts/vaults/ERC20RootVault.sol:ERC20RootVault",
        "label": "_cachedDomainSeparator",
        "offset": 0,
        "slot": "5",
        "type": "t_bytes32"
      },
      {
        "astId": 21035,
        "contract": "contracts/vaults/ERC20RootVault.sol:ERC20RootVault",
        "label": "nonces",
        "offset": 0,
        "slot": "6",
        "type": "t_mapping(t_address,t_uint256)"
      },
      {
        "astId": 1491,
        "contract": "contracts/vaults/ERC20RootVault.sol:ERC20RootVault",
        "label": "_status",
        "offset": 0,
        "slot": "7",
        "type": "t_uint256"
      },
      {
        "astId": 31345,
        "contract": "contracts/vaults/ERC20RootVault.sol:ERC20RootVault",
        "label": "_vaultGovernance",
        "offset": 0,
        "slot": "8",
        "type": "t_contract(IVaultGovernance)10179"
      },
      {
        "astId": 31348,
        "contract": "contracts/vaults/ERC20RootVault.sol:ERC20RootVault",
        "label": "_vaultTokens",
        "offset": 0,
        "slot": "9",
        "type": "t_array(t_address)dyn_storage"
      },
      {
        "astId": 31352,
        "contract": "contracts/vaults/ERC20RootVault.sol:ERC20RootVault",
        "label": "_vaultTokensIndex",
        "offset": 0,
        "slot": "10",
        "type": "t_mapping(t_address,t_int256)"
      },
      {
        "astId": 31354,
        "contract": "contracts/vaults/ERC20RootVault.sol:ERC20RootVault",
        "label": "_nft",
        "offset": 0,
        "slot": "11",
        "type": "t_uint256"
      },
      {
        "astId": 31357,
        "contract": "contracts/vaults/ERC20RootVault.sol:ERC20RootVault",
        "label": "_pullExistentials",
        "offset": 0,
        "slot": "12",
        "type": "t_array(t_uint256)dyn_storage"
      },
      {
        "astId": 24337,
        "contract": "contracts/vaults/ERC20RootVault.sol:ERC20RootVault",
        "label": "_subvaultNfts",
        "offset": 0,
        "slot": "13",
        "type": "t_array(t_uint256)dyn_storage"
      },
      {
        "astId": 24341,
        "contract": "contracts/vaults/ERC20RootVault.sol:ERC20RootVault",
        "label": "_subvaultNftsIndex",
        "offset": 0,
        "slot": "14",
        "type": "t_mapping(t_uint256,t_uint256)"
      },
      {
        "astId": 25126,
        "contract": "contracts/vaults/ERC20RootVault.sol:ERC20RootVault",
        "label": "lastFeeCharge",
        "offset": 0,
        "slot": "15",
        "type": "t_uint64"
      },
      {
        "astId": 25129,
        "contract": "contracts/vaults/ERC20RootVault.sol:ERC20RootVault",
        "label": "totalWithdrawnAmountsTimestamp",
        "offset": 8,
        "slot": "15",
        "type": "t_uint64"
      },
      {
        "astId": 25133,
        "contract": "contracts/vaults/ERC20RootVault.sol:ERC20RootVault",
        "label": "totalWithdrawnAmounts",
        "offset": 0,
        "slot": "16",
        "type": "t_array(t_uint256)dyn_storage"
      },
      {
        "astId": 25136,
        "contract": "contracts/vaults/ERC20RootVault.sol:ERC20RootVault",
        "label": "lpPriceHighWaterMarkD18",
        "offset": 0,
        "slot": "17",
        "type": "t_uint256"
      },
      {
        "astId": 25139,
        "contract": "contracts/vaults/ERC20RootVault.sol:ERC20RootVault",
        "label": "_depositorsAllowlist",
        "offset": 0,
        "slot": "18",
        "type": "t_struct(AddressSet)3824_storage"
      },
      {
        "astId": 25142,
        "contract": "contracts/vaults/ERC20RootVault.sol:ERC20RootVault",
        "label": "helper",
        "offset": 0,
        "slot": "20",
        "type": "t_contract(IERC20RootVaultHelper)9254"
      }
    ],
    "types": {
      "t_address": {
        "encoding": "inplace",
        "label": "address",
        "numberOfBytes": "20"
      },
      "t_array(t_address)dyn_storage": {
        "base": "t_address",
        "encoding": "dynamic_array",
        "label": "address[]",
        "numberOfBytes": "32"
      },
      "t_array(t_bytes32)dyn_storage": {
        "base": "t_bytes32",
        "encoding": "dynamic_array",
        "label": "bytes32[]",
        "numberOfBytes": "32"
      },
      "t_array(t_uint256)dyn_storage": {
        "base": "t_uint256",
        "encoding": "dynamic_array",
        "label": "uint256[]",
        "numberOfBytes": "32"
      },
      "t_bytes32": {
        "encoding": "inplace",
        "label": "bytes32",
        "numberOfBytes": "32"
      },
      "t_contract(IERC20RootVaultHelper)9254": {
        "encoding": "inplace",
        "label": "contract IERC20RootVaultHelper",
        "numberOfBytes": "20"
      },
      "t_contract(IVaultGovernance)10179": {
        "encoding": "inplace",
        "label": "contract IVaultGovernance",
        "numberOfBytes": "20"
      },
      "t_int256": {
        "encoding": "inplace",
        "label": "int256",
        "numberOfBytes": "32"
      },
      "t_mapping(t_address,t_int256)": {
        "encoding": "mapping",
        "key": "t_address",
        "label": "mapping(address => int256)",
        "numberOfBytes": "32",
        "value": "t_int256"
      },
      "t_mapping(t_address,t_mapping(t_address,t_uint256))": {
        "encoding": "mapping",
        "key": "t_address",
        "label": "mapping(address => mapping(address => uint256))",
        "numberOfBytes": "32",
        "value": "t_mapping(t_address,t_uint256)"
      },
      "t_mapping(t_address,t_uint256)": {
        "encoding": "mapping",
        "key": "t_address",
        "label": "mapping(address => uint256)",
        "numberOfBytes": "32",
        "value": "t_uint256"
      },
      "t_mapping(t_bytes32,t_uint256)": {
        "encoding": "mapping",
        "key": "t_bytes32",
        "label": "mapping(bytes32 => uint256)",
        "numberOfBytes": "32",
        "value": "t_uint256"
      },
      "t_mapping(t_uint256,t_uint256)": {
        "encoding": "mapping",
        "key": "t_uint256",
        "label": "mapping(uint256 => uint256)",
        "numberOfBytes": "32",
        "value": "t_uint256"
      },
      "t_string_storage": {
        "encoding": "bytes",
        "label": "string",
        "numberOfBytes": "32"
      },
      "t_struct(AddressSet)3824_storage": {
        "encoding": "inplace",
        "label": "struct EnumerableSet.AddressSet",
        "members": [
          {
            "astId": 3823,
            "contract": "contracts/vaults/ERC20RootVault.sol:ERC20RootVault",
            "label": "_inner",
            "offset": 0,
            "slot": "0",
            "type": "t_struct(Set)3523_storage"
          }
        ],
        "numberOfBytes": "64"
      },
      "t_struct(Set)3523_storage": {
        "encoding": "inplace",
        "label": "struct EnumerableSet.Set",
        "members": [
          {
            "astId": 3518,
            "contract": "contracts/vaults/ERC20RootVault.sol:ERC20RootVault",
            "label": "_values",
            "offset": 0,
            "slot": "0",
            "type": "t_array(t_bytes32)dyn_storage"
          },
          {
            "astId": 3522,
            "contract": "contracts/vaults/ERC20RootVault.sol:ERC20RootVault",
            "label": "_indexes",
            "offset": 0,
            "slot": "1",
            "type": "t_mapping(t_bytes32,t_uint256)"
          }
        ],
        "numberOfBytes": "64"
      },
      "t_uint256": {
        "encoding": "inplace",
        "label": "uint256",
        "numberOfBytes": "32"
      },
      "t_uint64": {
        "encoding": "inplace",
        "label": "uint64",
        "numberOfBytes": "8"
      }
    }
  }
}