{
  "address": "0xACEE4A703f27eA1EbCd550511aAE58ad012624CC",
  "abi": [
    {
      "inputs": [
        {
          "internalType": "uint256[]",
          "name": "tvls",
          "type": "uint256[]"
        },
        {
          "internalType": "address[]",
          "name": "tokens",
          "type": "address[]"
        },
        {
          "internalType": "contract IOracle",
          "name": "oracle",
          "type": "address"
        }
      ],
      "name": "getTvlToken0",
      "outputs": [
        {
          "internalType": "uint256",
          "name": "tvl0",
          "type": "uint256"
        }
      ],
      "stateMutability": "view",
      "type": "function"
    }
  ],
  "transactionHash": "0x37d92e56073770ac22c1f5bdbedf3bc3e0a6e7454e4609e22e3d5404ade8e19c",
  "args": [],
  "solcInputHash": "1d49726b754ac7f6cccc3c78633d62a4",
  "bytecode": "0x608060405234801561001057600080fd5b50610637806100206000396000f3fe608060405234801561001057600080fd5b506004361061002b5760003560e01c80634bd8911414610030575b600080fd5b61004361003e366004610375565b610055565b60405190815260200160405180910390f35b60008585600081811061006a5761006a6103f9565b9050602002013590506000600190505b85811015610253576000836001600160a01b0316636d80125b878760008181106100a6576100a66103f9565b90506020020160208101906100bb919061040f565b8888868181106100cd576100cd6103f9565b90506020020160208101906100e2919061040f565b6040516001600160e01b031960e085901b1681526001600160a01b039283166004820152911660248201526030604482015260640160006040518083038186803b15801561012f57600080fd5b505afa158015610143573d6000803e3d6000fd5b505050506040513d6000823e601f3d908101601f1916820160405261016b91908101906104dd565b5090506000815111604051806040016040528060028152602001612b2d60f11b815250906101b55760405162461bcd60e51b81526004016101ac9190610541565b60405180910390fd5b506000805b82518110156101fc578281815181106101d5576101d56103f9565b6020026020010151826101e891906105ac565b9150806101f4816105c4565b9150506101ba565b50815161020990826105df565b9050610232898985818110610220576102206103f9565b90506020020135600160601b8361025d565b61023c90856105ac565b93505050808061024b906105c4565b91505061007a565b5095945050505050565b600080806000198587098587029250828110838203039150508060001415610297576000841161028c57600080fd5b50829004905061030a565b8084116102a357600080fd5b6000848688096000868103871696879004966002600389028118808a02820302808a02820302808a02820302808a02820302808a02820302808a02909103029181900381900460010186841190950394909402919094039290920491909117919091029150505b9392505050565b60008083601f84011261032357600080fd5b50813567ffffffffffffffff81111561033b57600080fd5b6020830191508360208260051b850101111561035657600080fd5b9250929050565b6001600160a01b038116811461037257600080fd5b50565b60008060008060006060868803121561038d57600080fd5b853567ffffffffffffffff808211156103a557600080fd5b6103b189838a01610311565b909750955060208801359150808211156103ca57600080fd5b506103d788828901610311565b90945092505060408601356103eb8161035d565b809150509295509295909350565b634e487b7160e01b600052603260045260246000fd5b60006020828403121561042157600080fd5b813561030a8161035d565b634e487b7160e01b600052604160045260246000fd5b600082601f83011261045357600080fd5b8151602067ffffffffffffffff808311156104705761047061042c565b8260051b604051601f19603f830116810181811084821117156104955761049561042c565b6040529384528581018301938381019250878511156104b357600080fd5b83870191505b848210156104d2578151835291830191908301906104b9565b979650505050505050565b600080604083850312156104f057600080fd5b825167ffffffffffffffff8082111561050857600080fd5b61051486838701610442565b9350602085015191508082111561052a57600080fd5b5061053785828601610442565b9150509250929050565b600060208083528351808285015260005b8181101561056e57858101830151858201604001528201610552565b81811115610580576000604083870101525b50601f01601f1916929092016040019392505050565b634e487b7160e01b600052601160045260246000fd5b600082198211156105bf576105bf610596565b500190565b60006000198214156105d8576105d8610596565b5060010190565b6000826105fc57634e487b7160e01b600052601260045260246000fd5b50049056fea264697066735822122027b7e6819b0a498a63b2f96254ac41fbbdbaa0e0810a91a6cf6643c5c178d0eb64736f6c63430008090033",
  "devdoc": {
    "kind": "dev",
    "methods": {},
    "version": 1
  },
  "userdoc": {
    "kind": "user",
    "methods": {},
    "version": 1
  },
  "storageLayout": {
    "storage": [],
    "types": null
  }
}