{
  "address": "0xDc9C17662133fB865E7bA3198B67c53a617B2153",
  "abi": [
    {
      "inputs": [
        {
          "internalType": "address",
          "name": "admin",
          "type": "address"
        }
      ],
      "stateMutability": "nonpayable",
      "type": "constructor"
    },
    {
      "anonymous": false,
      "inputs": [
        {
          "indexed": true,
          "internalType": "address",
          "name": "origin",
          "type": "address"
        },
        {
          "indexed": true,
          "internalType": "address",
          "name": "sender",
          "type": "address"
        }
      ],
      "name": "AllStagedPermissionGrantsRolledBack",
      "type": "event"
    },
    {
      "anonymous": false,
      "inputs": [
        {
          "indexed": true,
          "internalType": "address",
          "name": "origin",
          "type": "address"
        },
        {
          "indexed": true,
          "internalType": "address",
          "name": "sender",
          "type": "address"
        }
      ],
      "name": "AllStagedValidatorsRolledBack",
      "type": "event"
    },
    {
      "anonymous": false,
      "inputs": [
        {
          "indexed": true,
          "internalType": "address",
          "name": "origin",
          "type": "address"
        },
        {
          "indexed": true,
          "internalType": "address",
          "name": "sender",
          "type": "address"
        },
        {
          "components": [
            {
              "internalType": "uint256",
              "name": "maxTokensPerVault",
              "type": "uint256"
            },
            {
              "internalType": "uint256",
              "name": "governanceDelay",
              "type": "uint256"
            },
            {
              "internalType": "address",
              "name": "protocolTreasury",
              "type": "address"
            },
            {
              "internalType": "uint256",
              "name": "forceAllowMask",
              "type": "uint256"
            },
            {
              "internalType": "uint256",
              "name": "withdrawLimit",
              "type": "uint256"
            }
          ],
          "indexed": false,
          "internalType": "struct IProtocolGovernance.Params",
          "name": "params",
          "type": "tuple"
        }
      ],
      "name": "ParamsCommitted",
      "type": "event"
    },
    {
      "anonymous": false,
      "inputs": [
        {
          "indexed": true,
          "internalType": "address",
          "name": "origin",
          "type": "address"
        },
        {
          "indexed": true,
          "internalType": "address",
          "name": "sender",
          "type": "address"
        },
        {
          "indexed": false,
          "internalType": "uint256",
          "name": "at",
          "type": "uint256"
        },
        {
          "components": [
            {
              "internalType": "uint256",
              "name": "maxTokensPerVault",
              "type": "uint256"
            },
            {
              "internalType": "uint256",
              "name": "governanceDelay",
              "type": "uint256"
            },
            {
              "internalType": "address",
              "name": "protocolTreasury",
              "type": "address"
            },
            {
              "internalType": "uint256",
              "name": "forceAllowMask",
              "type": "uint256"
            },
            {
              "internalType": "uint256",
              "name": "withdrawLimit",
              "type": "uint256"
            }
          ],
          "indexed": false,
          "internalType": "struct IProtocolGovernance.Params",
          "name": "params",
          "type": "tuple"
        }
      ],
      "name": "ParamsStaged",
      "type": "event"
    },
    {
      "anonymous": false,
      "inputs": [
        {
          "indexed": true,
          "internalType": "address",
          "name": "origin",
          "type": "address"
        },
        {
          "indexed": true,
          "internalType": "address",
          "name": "sender",
          "type": "address"
        },
        {
          "indexed": true,
          "internalType": "address",
          "name": "target",
          "type": "address"
        }
      ],
      "name": "PermissionGrantsCommitted",
      "type": "event"
    },
    {
      "anonymous": false,
      "inputs": [
        {
          "indexed": true,
          "internalType": "address",
          "name": "origin",
          "type": "address"
        },
        {
          "indexed": true,
          "internalType": "address",
          "name": "sender",
          "type": "address"
        },
        {
          "indexed": true,
          "internalType": "address",
          "name": "target",
          "type": "address"
        },
        {
          "indexed": false,
          "internalType": "uint8[]",
          "name": "permissionIds",
          "type": "uint8[]"
        },
        {
          "indexed": false,
          "internalType": "uint256",
          "name": "at",
          "type": "uint256"
        }
      ],
      "name": "PermissionGrantsStaged",
      "type": "event"
    },
    {
      "anonymous": false,
      "inputs": [
        {
          "indexed": true,
          "internalType": "address",
          "name": "origin",
          "type": "address"
        },
        {
          "indexed": true,
          "internalType": "address",
          "name": "sender",
          "type": "address"
        },
        {
          "indexed": true,
          "internalType": "address",
          "name": "target",
          "type": "address"
        },
        {
          "indexed": false,
          "internalType": "uint8[]",
          "name": "permissionIds",
          "type": "uint8[]"
        }
      ],
      "name": "PermissionsRevoked",
      "type": "event"
    },
    {
      "anonymous": false,
      "inputs": [
        {
          "indexed": true,
          "internalType": "bytes32",
          "name": "role",
          "type": "bytes32"
        },
        {
          "indexed": true,
          "internalType": "bytes32",
          "name": "previousAdminRole",
          "type": "bytes32"
        },
        {
          "indexed": true,
          "internalType": "bytes32",
          "name": "newAdminRole",
          "type": "bytes32"
        }
      ],
      "name": "RoleAdminChanged",
      "type": "event"
    },
    {
      "anonymous": false,
      "inputs": [
        {
          "indexed": true,
          "internalType": "bytes32",
          "name": "role",
          "type": "bytes32"
        },
        {
          "indexed": true,
          "internalType": "address",
          "name": "account",
          "type": "address"
        },
        {
          "indexed": true,
          "internalType": "address",
          "name": "sender",
          "type": "address"
        }
      ],
      "name": "RoleGranted",
      "type": "event"
    },
    {
      "anonymous": false,
      "inputs": [
        {
          "indexed": true,
          "internalType": "bytes32",
          "name": "role",
          "type": "bytes32"
        },
        {
          "indexed": true,
          "internalType": "address",
          "name": "account",
          "type": "address"
        },
        {
          "indexed": true,
          "internalType": "address",
          "name": "sender",
          "type": "address"
        }
      ],
      "name": "RoleRevoked",
      "type": "event"
    },
    {
      "anonymous": false,
      "inputs": [
        {
          "indexed": true,
          "internalType": "address",
          "name": "origin",
          "type": "address"
        },
        {
          "indexed": true,
          "internalType": "address",
          "name": "sender",
          "type": "address"
        },
        {
          "indexed": false,
          "internalType": "address",
          "name": "token",
          "type": "address"
        },
        {
          "indexed": false,
          "internalType": "uint256",
          "name": "unitPrice",
          "type": "uint256"
        }
      ],
      "name": "UnitPriceCommitted",
      "type": "event"
    },
    {
      "anonymous": false,
      "inputs": [
        {
          "indexed": true,
          "internalType": "address",
          "name": "origin",
          "type": "address"
        },
        {
          "indexed": true,
          "internalType": "address",
          "name": "sender",
          "type": "address"
        },
        {
          "indexed": false,
          "internalType": "address",
          "name": "token",
          "type": "address"
        }
      ],
      "name": "UnitPriceRolledBack",
      "type": "event"
    },
    {
      "anonymous": false,
      "inputs": [
        {
          "indexed": true,
          "internalType": "address",
          "name": "origin",
          "type": "address"
        },
        {
          "indexed": true,
          "internalType": "address",
          "name": "sender",
          "type": "address"
        },
        {
          "indexed": false,
          "internalType": "address",
          "name": "token",
          "type": "address"
        },
        {
          "indexed": false,
          "internalType": "uint256",
          "name": "unitPrice",
          "type": "uint256"
        }
      ],
      "name": "UnitPriceStaged",
      "type": "event"
    },
    {
      "anonymous": false,
      "inputs": [
        {
          "indexed": true,
          "internalType": "address",
          "name": "origin",
          "type": "address"
        },
        {
          "indexed": true,
          "internalType": "address",
          "name": "sender",
          "type": "address"
        },
        {
          "indexed": true,
          "internalType": "address",
          "name": "target",
          "type": "address"
        }
      ],
      "name": "ValidatorCommitted",
      "type": "event"
    },
    {
      "anonymous": false,
      "inputs": [
        {
          "indexed": true,
          "internalType": "address",
          "name": "origin",
          "type": "address"
        },
        {
          "indexed": true,
          "internalType": "address",
          "name": "sender",
          "type": "address"
        },
        {
          "indexed": true,
          "internalType": "address",
          "name": "target",
          "type": "address"
        }
      ],
      "name": "ValidatorRevoked",
      "type": "event"
    },
    {
      "anonymous": false,
      "inputs": [
        {
          "indexed": true,
          "internalType": "address",
          "name": "origin",
          "type": "address"
        },
        {
          "indexed": true,
          "internalType": "address",
          "name": "sender",
          "type": "address"
        },
        {
          "indexed": true,
          "internalType": "address",
          "name": "target",
          "type": "address"
        },
        {
          "indexed": false,
          "internalType": "address",
          "name": "validator",
          "type": "address"
        },
        {
          "indexed": false,
          "internalType": "uint256",
          "name": "at",
          "type": "uint256"
        }
      ],
      "name": "ValidatorStaged",
      "type": "event"
    },
    {
      "inputs": [],
      "name": "ADMIN_DELEGATE_ROLE",
      "outputs": [
        {
          "internalType": "bytes32",
          "name": "",
          "type": "bytes32"
        }
      ],
      "stateMutability": "view",
      "type": "function"
    },
    {
      "inputs": [],
      "name": "ADMIN_ROLE",
      "outputs": [
        {
          "internalType": "bytes32",
          "name": "",
          "type": "bytes32"
        }
      ],
      "stateMutability": "view",
      "type": "function"
    },
    {
      "inputs": [],
      "name": "DEFAULT_ADMIN_ROLE",
      "outputs": [
        {
          "internalType": "bytes32",
          "name": "",
          "type": "bytes32"
        }
      ],
      "stateMutability": "view",
      "type": "function"
    },
    {
      "inputs": [],
      "name": "DELAY",
      "outputs": [
        {
          "internalType": "uint256",
          "name": "",
          "type": "uint256"
        }
      ],
      "stateMutability": "view",
      "type": "function"
    },
    {
      "inputs": [],
      "name": "MAX_GOVERNANCE_DELAY",
      "outputs": [
        {
          "internalType": "uint256",
          "name": "",
          "type": "uint256"
        }
      ],
      "stateMutability": "view",
      "type": "function"
    },
    {
      "inputs": [],
      "name": "MIN_WITHDRAW_LIMIT",
      "outputs": [
        {
          "internalType": "uint256",
          "name": "",
          "type": "uint256"
        }
      ],
      "stateMutability": "view",
      "type": "function"
    },
    {
      "inputs": [],
      "name": "OPERATOR",
      "outputs": [
        {
          "internalType": "bytes32",
          "name": "",
          "type": "bytes32"
        }
      ],
      "stateMutability": "view",
      "type": "function"
    },
    {
      "inputs": [
        {
          "internalType": "uint8",
          "name": "permissionId",
          "type": "uint8"
        }
      ],
      "name": "addressesByPermission",
      "outputs": [
        {
          "internalType": "address[]",
          "name": "addresses",
          "type": "address[]"
        }
      ],
      "stateMutability": "view",
      "type": "function"
    },
    {
      "inputs": [],
      "name": "commitAllPermissionGrantsSurpassedDelay",
      "outputs": [
        {
          "internalType": "address[]",
          "name": "addresses",
          "type": "address[]"
        }
      ],
      "stateMutability": "nonpayable",
      "type": "function"
    },
    {
      "inputs": [],
      "name": "commitAllValidatorsSurpassedDelay",
      "outputs": [
        {
          "internalType": "address[]",
          "name": "addressesCommitted",
          "type": "address[]"
        }
      ],
      "stateMutability": "nonpayable",
      "type": "function"
    },
    {
      "inputs": [],
      "name": "commitParams",
      "outputs": [],
      "stateMutability": "nonpayable",
      "type": "function"
    },
    {
      "inputs": [
        {
          "internalType": "address",
          "name": "stagedAddress",
          "type": "address"
        }
      ],
      "name": "commitPermissionGrants",
      "outputs": [],
      "stateMutability": "nonpayable",
      "type": "function"
    },
    {
      "inputs": [
        {
          "internalType": "address",
          "name": "token",
          "type": "address"
        }
      ],
      "name": "commitUnitPrice",
      "outputs": [],
      "stateMutability": "nonpayable",
      "type": "function"
    },
    {
      "inputs": [
        {
          "internalType": "address",
          "name": "stagedAddress",
          "type": "address"
        }
      ],
      "name": "commitValidator",
      "outputs": [],
      "stateMutability": "nonpayable",
      "type": "function"
    },
    {
      "inputs": [],
      "name": "contractName",
      "outputs": [
        {
          "internalType": "string",
          "name": "",
          "type": "string"
        }
      ],
      "stateMutability": "pure",
      "type": "function"
    },
    {
      "inputs": [],
      "name": "contractNameBytes",
      "outputs": [
        {
          "internalType": "bytes32",
          "name": "",
          "type": "bytes32"
        }
      ],
      "stateMutability": "pure",
      "type": "function"
    },
    {
      "inputs": [],
      "name": "contractVersion",
      "outputs": [
        {
          "internalType": "string",
          "name": "",
          "type": "string"
        }
      ],
      "stateMutability": "pure",
      "type": "function"
    },
    {
      "inputs": [],
      "name": "contractVersionBytes",
      "outputs": [
        {
          "internalType": "bytes32",
          "name": "",
          "type": "bytes32"
        }
      ],
      "stateMutability": "pure",
      "type": "function"
    },
    {
      "inputs": [],
      "name": "forceAllowMask",
      "outputs": [
        {
          "internalType": "uint256",
          "name": "",
          "type": "uint256"
        }
      ],
      "stateMutability": "view",
      "type": "function"
    },
    {
      "inputs": [
        {
          "internalType": "bytes32",
          "name": "role",
          "type": "bytes32"
        }
      ],
      "name": "getRoleAdmin",
      "outputs": [
        {
          "internalType": "bytes32",
          "name": "",
          "type": "bytes32"
        }
      ],
      "stateMutability": "view",
      "type": "function"
    },
    {
      "inputs": [
        {
          "internalType": "bytes32",
          "name": "role",
          "type": "bytes32"
        },
        {
          "internalType": "uint256",
          "name": "index",
          "type": "uint256"
        }
      ],
      "name": "getRoleMember",
      "outputs": [
        {
          "internalType": "address",
          "name": "",
          "type": "address"
        }
      ],
      "stateMutability": "view",
      "type": "function"
    },
    {
      "inputs": [
        {
          "internalType": "bytes32",
          "name": "role",
          "type": "bytes32"
        }
      ],
      "name": "getRoleMemberCount",
      "outputs": [
        {
          "internalType": "uint256",
          "name": "",
          "type": "uint256"
        }
      ],
      "stateMutability": "view",
      "type": "function"
    },
    {
      "inputs": [],
      "name": "governanceDelay",
      "outputs": [
        {
          "internalType": "uint256",
          "name": "",
          "type": "uint256"
        }
      ],
      "stateMutability": "view",
      "type": "function"
    },
    {
      "inputs": [
        {
          "internalType": "bytes32",
          "name": "role",
          "type": "bytes32"
        },
        {
          "internalType": "address",
          "name": "account",
          "type": "address"
        }
      ],
      "name": "grantRole",
      "outputs": [],
      "stateMutability": "nonpayable",
      "type": "function"
    },
    {
      "inputs": [
        {
          "internalType": "address",
          "name": "target",
          "type": "address"
        },
        {
          "internalType": "uint8[]",
          "name": "permissionIds",
          "type": "uint8[]"
        }
      ],
      "name": "hasAllPermissions",
      "outputs": [
        {
          "internalType": "bool",
          "name": "",
          "type": "bool"
        }
      ],
      "stateMutability": "view",
      "type": "function"
    },
    {
      "inputs": [
        {
          "internalType": "address",
          "name": "target",
          "type": "address"
        },
        {
          "internalType": "uint8",
          "name": "permissionId",
          "type": "uint8"
        }
      ],
      "name": "hasPermission",
      "outputs": [
        {
          "internalType": "bool",
          "name": "",
          "type": "bool"
        }
      ],
      "stateMutability": "view",
      "type": "function"
    },
    {
      "inputs": [
        {
          "internalType": "bytes32",
          "name": "role",
          "type": "bytes32"
        },
        {
          "internalType": "address",
          "name": "account",
          "type": "address"
        }
      ],
      "name": "hasRole",
      "outputs": [
        {
          "internalType": "bool",
          "name": "",
          "type": "bool"
        }
      ],
      "stateMutability": "view",
      "type": "function"
    },
    {
      "inputs": [
        {
          "internalType": "address",
          "name": "sender",
          "type": "address"
        }
      ],
      "name": "isAdmin",
      "outputs": [
        {
          "internalType": "bool",
          "name": "",
          "type": "bool"
        }
      ],
      "stateMutability": "view",
      "type": "function"
    },
    {
      "inputs": [
        {
          "internalType": "address",
          "name": "sender",
          "type": "address"
        }
      ],
      "name": "isOperator",
      "outputs": [
        {
          "internalType": "bool",
          "name": "",
          "type": "bool"
        }
      ],
      "stateMutability": "view",
      "type": "function"
    },
    {
      "inputs": [],
      "name": "maxTokensPerVault",
      "outputs": [
        {
          "internalType": "uint256",
          "name": "",
          "type": "uint256"
        }
      ],
      "stateMutability": "view",
      "type": "function"
    },
    {
      "inputs": [
        {
          "internalType": "bytes[]",
          "name": "data",
          "type": "bytes[]"
        }
      ],
      "name": "multicall",
      "outputs": [
        {
          "internalType": "bytes[]",
          "name": "results",
          "type": "bytes[]"
        }
      ],
      "stateMutability": "nonpayable",
      "type": "function"
    },
    {
      "inputs": [],
      "name": "params",
      "outputs": [
        {
          "components": [
            {
              "internalType": "uint256",
              "name": "maxTokensPerVault",
              "type": "uint256"
            },
            {
              "internalType": "uint256",
              "name": "governanceDelay",
              "type": "uint256"
            },
            {
              "internalType": "address",
              "name": "protocolTreasury",
              "type": "address"
            },
            {
              "internalType": "uint256",
              "name": "forceAllowMask",
              "type": "uint256"
            },
            {
              "internalType": "uint256",
              "name": "withdrawLimit",
              "type": "uint256"
            }
          ],
          "internalType": "struct IProtocolGovernance.Params",
          "name": "",
          "type": "tuple"
        }
      ],
      "stateMutability": "view",
      "type": "function"
    },
    {
      "inputs": [],
      "name": "permissionAddresses",
      "outputs": [
        {
          "internalType": "address[]",
          "name": "",
          "type": "address[]"
        }
      ],
      "stateMutability": "view",
      "type": "function"
    },
    {
      "inputs": [
        {
          "internalType": "address",
          "name": "",
          "type": "address"
        }
      ],
      "name": "permissionMasks",
      "outputs": [
        {
          "internalType": "uint256",
          "name": "",
          "type": "uint256"
        }
      ],
      "stateMutability": "view",
      "type": "function"
    },
    {
      "inputs": [],
      "name": "protocolTreasury",
      "outputs": [
        {
          "internalType": "address",
          "name": "",
          "type": "address"
        }
      ],
      "stateMutability": "view",
      "type": "function"
    },
    {
      "inputs": [
        {
          "internalType": "bytes32",
          "name": "role",
          "type": "bytes32"
        },
        {
          "internalType": "address",
          "name": "account",
          "type": "address"
        }
      ],
      "name": "renounceRole",
      "outputs": [],
      "stateMutability": "nonpayable",
      "type": "function"
    },
    {
      "inputs": [
        {
          "internalType": "address",
          "name": "target",
          "type": "address"
        },
        {
          "internalType": "uint8[]",
          "name": "permissionIds",
          "type": "uint8[]"
        }
      ],
      "name": "revokePermissions",
      "outputs": [],
      "stateMutability": "nonpayable",
      "type": "function"
    },
    {
      "inputs": [
        {
          "internalType": "bytes32",
          "name": "role",
          "type": "bytes32"
        },
        {
          "internalType": "address",
          "name": "account",
          "type": "address"
        }
      ],
      "name": "revokeRole",
      "outputs": [],
      "stateMutability": "nonpayable",
      "type": "function"
    },
    {
      "inputs": [
        {
          "internalType": "address",
          "name": "target",
          "type": "address"
        }
      ],
      "name": "revokeValidator",
      "outputs": [],
      "stateMutability": "nonpayable",
      "type": "function"
    },
    {
      "inputs": [],
      "name": "rollbackStagedPermissionGrants",
      "outputs": [],
      "stateMutability": "nonpayable",
      "type": "function"
    },
    {
      "inputs": [],
      "name": "rollbackStagedValidators",
      "outputs": [],
      "stateMutability": "nonpayable",
      "type": "function"
    },
    {
      "inputs": [
        {
          "internalType": "address",
          "name": "token",
          "type": "address"
        }
      ],
      "name": "rollbackUnitPrice",
      "outputs": [],
      "stateMutability": "nonpayable",
      "type": "function"
    },
    {
      "inputs": [
        {
          "components": [
            {
              "internalType": "uint256",
              "name": "maxTokensPerVault",
              "type": "uint256"
            },
            {
              "internalType": "uint256",
              "name": "governanceDelay",
              "type": "uint256"
            },
            {
              "internalType": "address",
              "name": "protocolTreasury",
              "type": "address"
            },
            {
              "internalType": "uint256",
              "name": "forceAllowMask",
              "type": "uint256"
            },
            {
              "internalType": "uint256",
              "name": "withdrawLimit",
              "type": "uint256"
            }
          ],
          "internalType": "struct IProtocolGovernance.Params",
          "name": "newParams",
          "type": "tuple"
        }
      ],
      "name": "stageParams",
      "outputs": [],
      "stateMutability": "nonpayable",
      "type": "function"
    },
    {
      "inputs": [
        {
          "internalType": "address",
          "name": "target",
          "type": "address"
        },
        {
          "internalType": "uint8[]",
          "name": "permissionIds",
          "type": "uint8[]"
        }
      ],
      "name": "stagePermissionGrants",
      "outputs": [],
      "stateMutability": "nonpayable",
      "type": "function"
    },
    {
      "inputs": [
        {
          "internalType": "address",
          "name": "token",
          "type": "address"
        },
        {
          "internalType": "uint256",
          "name": "value",
          "type": "uint256"
        }
      ],
      "name": "stageUnitPrice",
      "outputs": [],
      "stateMutability": "nonpayable",
      "type": "function"
    },
    {
      "inputs": [
        {
          "internalType": "address",
          "name": "target",
          "type": "address"
        },
        {
          "internalType": "address",
          "name": "validator",
          "type": "address"
        }
      ],
      "name": "stageValidator",
      "outputs": [],
      "stateMutability": "nonpayable",
      "type": "function"
    },
    {
      "inputs": [],
      "name": "stagedParams",
      "outputs": [
        {
          "components": [
            {
              "internalType": "uint256",
              "name": "maxTokensPerVault",
              "type": "uint256"
            },
            {
              "internalType": "uint256",
              "name": "governanceDelay",
              "type": "uint256"
            },
            {
              "internalType": "address",
              "name": "protocolTreasury",
              "type": "address"
            },
            {
              "internalType": "uint256",
              "name": "forceAllowMask",
              "type": "uint256"
            },
            {
              "internalType": "uint256",
              "name": "withdrawLimit",
              "type": "uint256"
            }
          ],
          "internalType": "struct IProtocolGovernance.Params",
          "name": "",
          "type": "tuple"
        }
      ],
      "stateMutability": "view",
      "type": "function"
    },
    {
      "inputs": [],
      "name": "stagedParamsTimestamp",
      "outputs": [
        {
          "internalType": "uint256",
          "name": "",
          "type": "uint256"
        }
      ],
      "stateMutability": "view",
      "type": "function"
    },
    {
      "inputs": [],
      "name": "stagedPermissionGrantsAddresses",
      "outputs": [
        {
          "internalType": "address[]",
          "name": "",
          "type": "address[]"
        }
      ],
      "stateMutability": "view",
      "type": "function"
    },
    {
      "inputs": [
        {
          "internalType": "address",
          "name": "",
          "type": "address"
        }
      ],
      "name": "stagedPermissionGrantsMasks",
      "outputs": [
        {
          "internalType": "uint256",
          "name": "",
          "type": "uint256"
        }
      ],
      "stateMutability": "view",
      "type": "function"
    },
    {
      "inputs": [
        {
          "internalType": "address",
          "name": "",
          "type": "address"
        }
      ],
      "name": "stagedPermissionGrantsTimestamps",
      "outputs": [
        {
          "internalType": "uint256",
          "name": "",
          "type": "uint256"
        }
      ],
      "stateMutability": "view",
      "type": "function"
    },
    {
      "inputs": [
        {
          "internalType": "address",
          "name": "",
          "type": "address"
        }
      ],
      "name": "stagedUnitPrices",
      "outputs": [
        {
          "internalType": "uint256",
          "name": "",
          "type": "uint256"
        }
      ],
      "stateMutability": "view",
      "type": "function"
    },
    {
      "inputs": [
        {
          "internalType": "address",
          "name": "",
          "type": "address"
        }
      ],
      "name": "stagedUnitPricesTimestamps",
      "outputs": [
        {
          "internalType": "uint256",
          "name": "",
          "type": "uint256"
        }
      ],
      "stateMutability": "view",
      "type": "function"
    },
    {
      "inputs": [
        {
          "internalType": "address",
          "name": "",
          "type": "address"
        }
      ],
      "name": "stagedValidators",
      "outputs": [
        {
          "internalType": "address",
          "name": "",
          "type": "address"
        }
      ],
      "stateMutability": "view",
      "type": "function"
    },
    {
      "inputs": [],
      "name": "stagedValidatorsAddresses",
      "outputs": [
        {
          "internalType": "address[]",
          "name": "",
          "type": "address[]"
        }
      ],
      "stateMutability": "view",
      "type": "function"
    },
    {
      "inputs": [
        {
          "internalType": "address",
          "name": "",
          "type": "address"
        }
      ],
      "name": "stagedValidatorsTimestamps",
      "outputs": [
        {
          "internalType": "uint256",
          "name": "",
          "type": "uint256"
        }
      ],
      "stateMutability": "view",
      "type": "function"
    },
    {
      "inputs": [
        {
          "internalType": "bytes4",
          "name": "interfaceId",
          "type": "bytes4"
        }
      ],
      "name": "supportsInterface",
      "outputs": [
        {
          "internalType": "bool",
          "name": "",
          "type": "bool"
        }
      ],
      "stateMutability": "view",
      "type": "function"
    },
    {
      "inputs": [
        {
          "internalType": "address",
          "name": "",
          "type": "address"
        }
      ],
      "name": "unitPrices",
      "outputs": [
        {
          "internalType": "uint256",
          "name": "",
          "type": "uint256"
        }
      ],
      "stateMutability": "view",
      "type": "function"
    },
    {
      "inputs": [
        {
          "internalType": "address",
          "name": "",
          "type": "address"
        }
      ],
      "name": "validators",
      "outputs": [
        {
          "internalType": "address",
          "name": "",
          "type": "address"
        }
      ],
      "stateMutability": "view",
      "type": "function"
    },
    {
      "inputs": [
        {
          "internalType": "uint256",
          "name": "i",
          "type": "uint256"
        }
      ],
      "name": "validatorsAddress",
      "outputs": [
        {
          "internalType": "address",
          "name": "",
          "type": "address"
        }
      ],
      "stateMutability": "view",
      "type": "function"
    },
    {
      "inputs": [],
      "name": "validatorsAddresses",
      "outputs": [
        {
          "internalType": "address[]",
          "name": "",
          "type": "address[]"
        }
      ],
      "stateMutability": "view",
      "type": "function"
    },
    {
      "inputs": [
        {
          "internalType": "address",
          "name": "token",
          "type": "address"
        }
      ],
      "name": "withdrawLimit",
      "outputs": [
        {
          "internalType": "uint256",
          "name": "",
          "type": "uint256"
        }
      ],
      "stateMutability": "view",
      "type": "function"
    }
  ],
  "transactionHash": "0xa01d5fc91851c26d5c7c15808d65d02be8f2d414a9ae8b457840f9bd2ef5fa2b",
  "args": [
    "0x57672573c783053ec08657c2F94ad3779ab85bBF"
  ],
  "solcInputHash": "c1e91400a5166b9bcd4a13438127f0f2",
  "bytecode": "0x60806040523480156200001157600080fd5b50604051620030c9380380620030c9833981016040819052620000349162000305565b60408051808201909152600281526120ad60f11b6020820152819081906001600160a01b038216620000845760405162461bcd60e51b81526004016200007b919062000337565b60405180910390fd5b50620000a0600080516020620030a98339815191528262000155565b620000bb600080516020620030898339815191528262000155565b620000d6600080516020620030898339815191528062000165565b620001117fc171260023d22a25a00a2789664c9334017843b831138c8ef03cc8897e5873d76000805160206200308983398151915262000165565b6200014c600080516020620030a98339815191527fc171260023d22a25a00a2789664c9334017843b831138c8ef03cc8897e5873d762000165565b5050506200038f565b620001618282620001b0565b5050565b600082815260208190526040808220600101805490849055905190918391839186917fbd79b86ffe0ab8e8776151514217cd7cacd52c909f66475c3af44e129f0b00ff9190a4505050565b620001c78282620001f360201b62001d0b1760201c565b6000828152600160209081526040909120620001ee91839062001d8f62000293821b17901c565b505050565b6000828152602081815260408083206001600160a01b038516845290915290205460ff1662000161576000828152602081815260408083206001600160a01b03851684529091529020805460ff191660011790556200024f3390565b6001600160a01b0316816001600160a01b0316837f2f8788117e7eff1d82e926ec794901d17c78024a50270940304540a733656f0d60405160405180910390a45050565b6000620002aa836001600160a01b038416620002b3565b90505b92915050565b6000818152600183016020526040812054620002fc57508154600181810184556000848152602080822090930184905584548482528286019093526040902091909155620002ad565b506000620002ad565b6000602082840312156200031857600080fd5b81516001600160a01b03811681146200033057600080fd5b9392505050565b600060208083528351808285015260005b81811015620003665785810183015185820160400152820162000348565b8181111562000379576000604083870101525b50601f01601f1916929092016040019392505050565b612cea806200039f6000396000f3fe608060405234801561001057600080fd5b50600436106103ba5760003560e01c806378546fa2116101f4578063b3ff103c1161011a578063cff0ab96116100ad578063e970164c1161007c578063e970164c146108aa578063f7fcd303146108b2578063fa52c7d8146108db578063fce33f011461090457600080fd5b8063cff0ab9614610867578063d1bf2a6b1461086f578063d547741f14610877578063d65c5e6b1461088a57600080fd5b8063bd674f3a116100e9578063bd674f3a14610831578063bd7692f714610839578063c7e6ab0514610841578063ca15c8731461085457600080fd5b8063b3ff103c146107fa578063b521bf2d1461080d578063bba3293914610820578063bd66b16e1461082857600080fd5b80639348e4ec11610192578063a0a8e46011610161578063a0a8e460146107aa578063a217fddf146107b2578063ac9650d8146107ba578063ae24e14a146107da57600080fd5b80639348e4ec1461076057806395e3a12d14610773578063983d27371461077b57806399fb4234146107a257600080fd5b8063887b812d116101ce578063887b812d146107075780638e35b0281461071a5780639010d07c1461073a57806391d148541461074d57600080fd5b806378546fa2146106d2578063803db96d146106da578063806bc2f1146106ff57600080fd5b806336568abe116102e457806369b411701161027757806373680db41161024657806373680db41461066357806375b238fc1461067657806375d0c0dc1461069d578063768a1bfc146106b257600080fd5b806369b41170146105e55780636d70f7ae146105ef578063717af5ed14610602578063731c01a91461061557600080fd5b80635c1e4448116102b35780635c1e44481461056d57806363d21c751461058057806363e85d2d1461058a57806364cd39af146105c557600080fd5b806336568abe1461052c5780633837a1a31461053f57806356f46d7214610552578063577848ea1461056557600080fd5b806312c2d8741161035c578063248a9ca31161032b578063248a9ca3146104c357806324d7806c146104e65780632a4ebb41146104f95780632f2ff15d1461051957600080fd5b806312c2d874146104735780631c3a2341146104935780631c5afc46146104a65780631dd02197146104bb57600080fd5b806306a462391161039857806306a462391461040f5780630952ff54146104275780630e3e80ac1461044e5780630ea556361461046957600080fd5b80630161c241146103bf57806301ffc9a7146103d4578063047564b7146103fc575b600080fd5b6103d26103cd366004612625565b610917565b005b6103e76103e2366004612642565b610a78565b60405190151581526020015b60405180910390f35b6103d261040a366004612625565b610aa3565b640312e302e360dc1b5b6040519081526020016103f3565b6104197fc171260023d22a25a00a2789664c9334017843b831138c8ef03cc8897e5873d781565b7150726f746f636f6c476f7665726e616e636560701b610419565b61041962093a8081565b610419610481366004612625565b60046020526000908152604090205481565b6103d26104a13660046126b8565b610b60565b6104ae610c4f565b6040516103f3919061270d565b6103d2610c5b565b6104196104d136600461275a565b60009081526020819052604090206001015490565b6103e76104f4366004612625565b610d0a565b610419610507366004612625565b60066020526000908152604090205481565b6103d2610527366004612773565b610d66565b6103d261053a366004612773565b610d91565b6103d261054d366004612625565b610e0f565b6103d26105603660046127a3565b610f22565b6104ae611008565b6103d261057b3660046127cf565b6111b8565b61041962030d4081565b6103e76105983660046127fd565b601c546001600160a01b03831660009081526007602052604090205417600160ff83161b16151592915050565b6104196105d3366004612625565b60076020526000908152604090205481565b6104196212750081565b6103e76105fd366004612625565b61122a565b6104ae610610366004612832565b611256565b61061d611344565b6040516103f3919081518152602080830151908201526040808301516001600160a01b031690820152606080830151908201526080918201519181019190915260a00190565b6103d2610671366004612625565b61138a565b6104197ff23ec0bb4210edd5cba85afd05127efcd2fc6a781bfed49188da1081670b22d881565b6106a56113ec565b6040516103f391906128a9565b6104196106c0366004612625565b60026020526000908152604090205481565b601954610419565b601b546001600160a01b03165b6040516001600160a01b0390911681526020016103f3565b6104ae61140c565b6103d2610715366004612625565b611418565b610419610728366004612625565b60056020526000908152604090205481565b6106e76107483660046128bc565b611558565b6103e761075b366004612773565b611577565b6103e761076e3660046126b8565b6115a0565b6104ae6115d7565b6104197f46a52cf33029de9f84853745a87af28464c80bf0346df1b32e205fc73319f62281565b601c54610419565b6106a56115e3565b610419600081565b6107cd6107c83660046128de565b6115f6565b6040516103f39190612920565b6104196107e8366004612625565b60036020526000908152604090205481565b6106e761080836600461275a565b6116eb565b6103d261081b366004612982565b6116f8565b601a54610419565b610419600b5481565b6103d2611806565b6103d26118aa565b6103d261084f3660046126b8565b6119c6565b61041961086236600461275a565b611ab3565b61061d611aca565b6104ae611b10565b6103d2610885366004612773565b611b1c565b610419610898366004612625565b60086020526000908152604090205481565b6104ae611b42565b6106e76108c0366004612625565b6009602052600090815260409020546001600160a01b031681565b6106e76108e9366004612625565b600a602052600090815260409020546001600160a01b031681565b610419610912366004612625565b611ce5565b61091f611da4565b6001600160a01b0381166000908152600860209081526040918290205482518084019093526002835261545360f01b9183019190915290428211156109805760405162461bcd60e51b815260040161097791906128a9565b60405180910390fd5b506040805180820190915260048152631395531360e21b6020820152816109ba5760405162461bcd60e51b815260040161097791906128a9565b506001600160a01b03808316600090815260096020908152604080832054600a90925290912080546001600160a01b031916919092161790556109fe601083611d8f565b506001600160a01b038216600090815260096020908152604080832080546001600160a01b03191690556008909152812055610a3b601283611dea565b506040516001600160a01b03831690339032907fbed845dc13e95e4cf248e05941119a9e8c8c7e79700599c07a2c86c527d9f78d90600090a45050565b60006001600160e01b0319821663ca11fe0360e01b1480610a9d5750610a9d82611dff565b92915050565b610aab611da4565b6040805180820190915260048152631395531360e21b60208201526001600160a01b038216610aed5760405162461bcd60e51b815260040161097791906128a9565b506001600160a01b0381166000908152600a6020526040902080546001600160a01b0319169055610b1f601082611dea565b506040516001600160a01b03821690339032907f847e483f8de6bf96572128142c4ca8ea6846ac59ee9b73e06a4485157d64924490600090a450565b905090565b610b68611da4565b6040805180820190915260048152631395531360e21b60208201526001600160a01b038416610baa5760405162461bcd60e51b815260040161097791906128a9565b50610bb6600c84611d8f565b50610bc18282611e24565b6001600160a01b038416600090815260066020526040812091909155601a54610bea90426129c6565b6001600160a01b038516600081815260056020526040908190208390555191925090339032907f3e6606f969b1354b7fbac9654238e69d3844c5fc3d90fa6ae9b9d474236908fe90610c4190889088908890612a1f565b60405180910390a450505050565b6060610b5b6012611e73565b610c63611da4565b6000610c6f6012611e80565b905060005b818114610cd9576000610c88601282611e8a565b6001600160a01b038116600090815260096020908152604080832080546001600160a01b031916905560089091528120559050610cc6601282611dea565b505080610cd290612a43565b9050610c74565b50604051339032907f26723c59f9cf42b0dee652fc4fb4c3fca21ccf8d77b988c733fecf8991bda69390600090a350565b6000610d367ff23ec0bb4210edd5cba85afd05127efcd2fc6a781bfed49188da1081670b22d883611577565b80610a9d5750610a9d7fc171260023d22a25a00a2789664c9334017843b831138c8ef03cc8897e5873d783611577565b600082815260208190526040902060010154610d828133611e96565b610d8c8383611efa565b505050565b6001600160a01b0381163314610e015760405162461bcd60e51b815260206004820152602f60248201527f416363657373436f6e74726f6c3a2063616e206f6e6c792072656e6f756e636560448201526e103937b632b9903337b91039b2b63360891b6064820152608401610977565b610e0b8282611f1c565b5050565b610e17611da4565b6001600160a01b038116600090815260046020908152604091829020548251808401909352600583526412539594d560da1b918301919091529081610e6f5760405162461bcd60e51b815260040161097791906128a9565b50604080518082019091526002815261545360f01b602082015242821115610eaa5760405162461bcd60e51b815260040161097791906128a9565b506001600160a01b038216600081815260036020908152604080832080546002845282852081905590849055600483528184209390935580519384529083018290529091339132917f99745c5bf4e5d496dd70013ac2b6bae4262c471986c2b157141d8c4d570bc039910160405180910390a3505050565b60408051808201909152600281526120ad60f11b60208201526001600160a01b038316610f625760405162461bcd60e51b815260040161097791906128a9565b50610f6b611da4565b6001600160a01b0382166000908152600360209081526040808320849055600290915290205415610fa857610fa362127500426129c6565b610faa565b425b6001600160a01b038316600081815260046020908152604091829020939093558051918252918101839052339132917fc8a6c4dcd4038ea437d00baa434c23066bf4cc6cd661a55bcb754f58d670b6e5910160405180910390a35050565b6060611012611da4565b600061101e6012611e80565b90508067ffffffffffffffff81111561103957611039612a5e565b604051908082528060200260200182016040528015611062578160200160208202803683370190505b5091506000805b8281146111b157600061107d601283611e8a565b6001600160a01b038116600090815260086020526040902054909150421061119f576001600160a01b03808216600090815260096020908152604080832054600a90925290912080546001600160a01b031916919092161790556110e2601082611d8f565b506001600160a01b038116600090815260096020908152604080832080546001600160a01b0319169055600890915281205561111f601282611dea565b508085848151811061113357611133612a74565b6001600160a01b039092166020928302919091019091015261115483612a43565b925061115f84612a8a565b6040519094506001600160a01b03821690339032907fbed845dc13e95e4cf248e05941119a9e8c8c7e79700599c07a2c86c527d9f78d90600090a46111ab565b6111a882612a43565b91505b50611069565b5082525090565b6111c0611da4565b6111c981611f3e565b8060146111d68282612aa1565b5050601a546111e590426129c6565b600b819055604051339132917f57d7abf76a9762486b1c294e2ab4c95a80cc2f6b9516cab2e39b060b3d5928b29161121f91601490612b2b565b60405180910390a350565b6000610a9d7f46a52cf33029de9f84853745a87af28464c80bf0346df1b32e205fc73319f62283611577565b60606000611264600e611e80565b90508067ffffffffffffffff81111561127f5761127f612a5e565b6040519080825280602002602001820160405280156112a8578160200160208202803683370190505b5091506000600160ff85161b815b8381101561133a5760006112cb600e83611e8a565b6001600160a01b038116600090815260076020526040902054909150831615611327578086858151811061130157611301612a74565b6001600160a01b03909216602092830291909101909101528361132381612a43565b9450505b508061133281612a43565b9150506112b6565b5050825250919050565b61134c6125d8565b506040805160a081018252601454815260155460208201526016546001600160a01b0316918101919091526017546060820152601854608082015290565b611392611da4565b6001600160a01b038116600081815260036020908152604080832083905560048252808320929092559051918252339132917fe157c01d7fdfb7981107455af06f96f3d8a289a8925529bb12d8a3706f2f9238910161121f565b6060610b5b7150726f746f636f6c476f7665726e616e636560701b612017565b6060610b5b600e611e73565b611420611da4565b6001600160a01b0381166000908152600560209081526040918290205482518084019093526002835261545360f01b9183019190915290428211156114785760405162461bcd60e51b815260040161097791906128a9565b506040805180820190915260048152631395531360e21b6020820152816114b25760405162461bcd60e51b815260040161097791906128a9565b506001600160a01b0382166000908152600660209081526040808320546007909252909120805490911790556114e9600e83611d8f565b506001600160a01b0382166000908152600660209081526040808320839055600590915281205561151b600c83611dea565b506040516001600160a01b03831690339032907f50df548bb5b3a2ff8dd01f8aacf26b88153fba5b749e050b9874e021a6b4a7d190600090a45050565b60008281526001602052604081206115709083611e8a565b9392505050565b6000918252602082815260408084206001600160a01b0393909316845291905290205460ff1690565b6000806115ad8484611e24565b601c546001600160a01b038716600090815260076020526040902054178116149150509392505050565b6060610b5b600c611e73565b6060610b5b640312e302e360dc1b612017565b60608167ffffffffffffffff81111561161157611611612a5e565b60405190808252806020026020018201604052801561164457816020015b606081526020019060019003908161162f5790505b50905060005b828110156116e4576116b43085858481811061166857611668612a74565b905060200281019061167a9190612b3f565b8080601f01602080910402602001604051908101604052809392919081815260200183838082843760009201919091525061208392505050565b8282815181106116c6576116c6612a74565b602002602001018190525080806116dc90612a43565b91505061164a565b5092915050565b6000610a9d601083611e8a565b611700611da4565b6001600160a01b0382161580159061172057506001600160a01b03811615155b6040518060400160405280600281526020016120ad60f11b815250906117595760405162461bcd60e51b815260040161097791906128a9565b50611765601283611d8f565b506001600160a01b03828116600090815260096020526040812080546001600160a01b03191692841692909217909155601a546117a290426129c6565b6001600160a01b0384811660008181526008602090815260409182902085905581519387168452830184905292935091339132917fbd765521cce68f9c3fc8945fb25cb99a6b8a6d0c03f086c1e9a7ea9a24b35d97910160405180910390a4505050565b61180e611da4565b600061181a600c611e80565b905060005b818114611879576000611833600c82611e8a565b6001600160a01b038116600090815260066020908152604080832083905560059091528120559050611866600c82611dea565b50508061187290612a43565b905061181f565b50604051339032907fe65fa0190ef93820f93988cc16cbbdd3a9615c87920a2ad4de5f6610d6e2710290600090a350565b6118b2611da4565b600b546040805180820190915260048152631395531360e21b6020820152906118ee5760405162461bcd60e51b815260040161097791906128a9565b50600b5442101560405180604001604052806002815260200161545360f01b8152509061192e5760405162461bcd60e51b815260040161097791906128a9565b5060148054601990815560158054601a5560168054601b80546001600160a01b03199081166001600160a01b0384161790915560178054601c5560188054601d55600097889055948790559116909155839055829055600b91909155604051339132917f9450ccd09ec91c0d60e02db0ad62489853f47c9d2312b4db049030912e45c82f916119bc91612b86565b60405180910390a3565b6119ce611da4565b6040805180820190915260048152631395531360e21b60208201526001600160a01b038416611a105760405162461bcd60e51b815260040161097791906128a9565b506000611a1d8383611e24565b6001600160a01b03851660009081526007602052604090208054821981169182905591925080611a5457611a52600e87611dea565b505b856001600160a01b0316336001600160a01b0316326001600160a01b03167ff9133af9d3bddecefe06913c77827dcd75c3aba24b56e67afa215ef087598c9a8888604051611aa3929190612b94565b60405180910390a4505050505050565b6000818152600160205260408120610a9d90611e80565b611ad26125d8565b506040805160a0810182526019548152601a546020820152601b546001600160a01b031691810191909152601c546060820152601d54608082015290565b6060610b5b6010611e73565b600082815260208190526040902060010154611b388133611e96565b610d8c8383611f1c565b6060611b4c611da4565b6000611b58600c611e80565b9050808067ffffffffffffffff811115611b7457611b74612a5e565b604051908082528060200260200182016040528015611b9d578160200160208202803683370190505b50925060005b818114611cd1576000611bb7600c83611e8a565b6001600160a01b0381166000908152600560205260409020549091504210611cbf576001600160a01b038116600090815260066020908152604080832054600790925290912080549091179055611c0f600e82611d8f565b506001600160a01b03811660009081526006602090815260408083208390556005909152812055611c41600c82611dea565b508085611c4e8587612bb0565b81518110611c5e57611c5e612a74565b6001600160a01b0390921660209283029190910190910152611c7f83612a8a565b6040519093506001600160a01b03821690339032907f50df548bb5b3a2ff8dd01f8aacf26b88153fba5b749e050b9874e021a6b4a7d190600090a4611ccb565b611cc882612a43565b91505b50611ba3565b50611cdc8183612bb0565b83525090919050565b6001600160a01b038116600090815260026020526040812054601d54610a9d9190612bc7565b611d158282611577565b610e0b576000828152602081815260408083206001600160a01b03851684529091529020805460ff19166001179055611d4b3390565b6001600160a01b0316816001600160a01b0316837f2f8788117e7eff1d82e926ec794901d17c78024a50270940304540a733656f0d60405160405180910390a45050565b6000611570836001600160a01b0384166120a8565b611dad33610d0a565b6040518060400160405280600381526020016223292160e91b81525090611de75760405162461bcd60e51b815260040161097791906128a9565b50565b6000611570836001600160a01b0384166120f7565b60006001600160e01b0319821663d7c7e3a760e01b1480610a9d5750610a9d826121ea565b6000805b828110156116e457838382818110611e4257611e42612a74565b9050602002016020810190611e579190612832565b60ff166001901b8217915080611e6c90612a43565b9050611e28565b606060006115708361220f565b6000610a9d825490565b6000611570838361226b565b611ea08282611577565b610e0b57611eb8816001600160a01b03166014612295565b611ec3836020612295565b604051602001611ed4929190612be6565b60408051601f198184030181529082905262461bcd60e51b8252610977916004016128a9565b611f048282611d0b565b6000828152600160205260409020610d8c9082611d8f565b611f268282612431565b6000828152600160205260409020610d8c9082611dea565b803515801590611f515750602081013515155b604051806040016040528060048152602001631395531360e21b81525090611f8c5760405162461bcd60e51b815260040161097791906128a9565b5062093a8081602001351115604051806040016040528060048152602001634c494d4f60e01b81525090611fd35760405162461bcd60e51b815260040161097791906128a9565b506040805180820190915260048152634c494d4f60e01b602082015262030d4060808301351015610e0b5760405162461bcd60e51b815260040161097791906128a9565b604080516020808252818301909252606091602082018180368337019050509050602060005b60208110156120755783816020811061205857612058612a74565b1a61206557809150612075565b61206e81612a43565b905061203d565b508152602081019190915290565b60606115708383604051806060016040528060278152602001612c8e60279139612496565b60008181526001830160205260408120546120ef57508154600181810184556000848152602080822090930184905584548482528286019093526040902091909155610a9d565b506000610a9d565b600081815260018301602052604081205480156121e057600061211b600183612bb0565b855490915060009061212f90600190612bb0565b905081811461219457600086600001828154811061214f5761214f612a74565b906000526020600020015490508087600001848154811061217257612172612a74565b6000918252602080832090910192909255918252600188019052604090208390555b85548690806121a5576121a5612c5b565b600190038181906000526020600020016000905590558560010160008681526020019081526020016000206000905560019350505050610a9d565b6000915050610a9d565b60006001600160e01b03198216635a05180f60e01b1480610a9d5750610a9d8261256a565b60608160000180548060200260200160405190810160405280929190818152602001828054801561225f57602002820191906000526020600020905b81548152602001906001019080831161224b575b50505050509050919050565b600082600001828154811061228257612282612a74565b9060005260206000200154905092915050565b606060006122a4836002612bc7565b6122af9060026129c6565b67ffffffffffffffff8111156122c7576122c7612a5e565b6040519080825280601f01601f1916602001820160405280156122f1576020820181803683370190505b509050600360fc1b8160008151811061230c5761230c612a74565b60200101906001600160f81b031916908160001a905350600f60fb1b8160018151811061233b5761233b612a74565b60200101906001600160f81b031916908160001a905350600061235f846002612bc7565b61236a9060016129c6565b90505b60018111156123e2576f181899199a1a9b1b9c1cb0b131b232b360811b85600f166010811061239e5761239e612a74565b1a60f81b8282815181106123b4576123b4612a74565b60200101906001600160f81b031916908160001a90535060049490941c936123db81612a8a565b905061236d565b5083156115705760405162461bcd60e51b815260206004820181905260248201527f537472696e67733a20686578206c656e67746820696e73756666696369656e746044820152606401610977565b61243b8282611577565b15610e0b576000828152602081815260408083206001600160a01b0385168085529252808320805460ff1916905551339285917ff6391f5c32d9c69d2a47ea670b442974b53935d1edc7fd64eb21e047a839171b9190a45050565b6060833b6124f55760405162461bcd60e51b815260206004820152602660248201527f416464726573733a2064656c65676174652063616c6c20746f206e6f6e2d636f6044820152651b9d1c9858dd60d21b6064820152608401610977565b600080856001600160a01b0316856040516125109190612c71565b600060405180830381855af49150503d806000811461254b576040519150601f19603f3d011682016040523d82523d6000602084013e612550565b606091505b509150915061256082828661259f565b9695505050505050565b60006001600160e01b03198216637965db0b60e01b1480610a9d57506301ffc9a760e01b6001600160e01b0319831614610a9d565b606083156125ae575081611570565b8251156125be5782518084602001fd5b8160405162461bcd60e51b815260040161097791906128a9565b6040518060a00160405280600081526020016000815260200160006001600160a01b0316815260200160008152602001600081525090565b6001600160a01b0381168114611de757600080fd5b60006020828403121561263757600080fd5b813561157081612610565b60006020828403121561265457600080fd5b81356001600160e01b03198116811461157057600080fd5b60008083601f84011261267e57600080fd5b50813567ffffffffffffffff81111561269657600080fd5b6020830191508360208260051b85010111156126b157600080fd5b9250929050565b6000806000604084860312156126cd57600080fd5b83356126d881612610565b9250602084013567ffffffffffffffff8111156126f457600080fd5b6127008682870161266c565b9497909650939450505050565b6020808252825182820181905260009190848201906040850190845b8181101561274e5783516001600160a01b031683529284019291840191600101612729565b50909695505050505050565b60006020828403121561276c57600080fd5b5035919050565b6000806040838503121561278657600080fd5b82359150602083013561279881612610565b809150509250929050565b600080604083850312156127b657600080fd5b82356127c181612610565b946020939093013593505050565b600060a082840312156127e157600080fd5b50919050565b803560ff811681146127f857600080fd5b919050565b6000806040838503121561281057600080fd5b823561281b81612610565b9150612829602084016127e7565b90509250929050565b60006020828403121561284457600080fd5b611570826127e7565b60005b83811015612868578181015183820152602001612850565b83811115612877576000848401525b50505050565b6000815180845261289581602086016020860161284d565b601f01601f19169290920160200192915050565b602081526000611570602083018461287d565b600080604083850312156128cf57600080fd5b50508035926020909101359150565b600080602083850312156128f157600080fd5b823567ffffffffffffffff81111561290857600080fd5b6129148582860161266c565b90969095509350505050565b6000602080830181845280855180835260408601915060408160051b870101925083870160005b8281101561297557603f1988860301845261296385835161287d565b94509285019290850190600101612947565b5092979650505050505050565b6000806040838503121561299557600080fd5b82356129a081612610565b9150602083013561279881612610565b634e487b7160e01b600052601160045260246000fd5b600082198211156129d9576129d96129b0565b500190565b8183526000602080850194508260005b85811015612a145760ff612a01836127e7565b16875295820195908201906001016129ee565b509495945050505050565b604081526000612a336040830185876129de565b9050826020830152949350505050565b6000600019821415612a5757612a576129b0565b5060010190565b634e487b7160e01b600052604160045260246000fd5b634e487b7160e01b600052603260045260246000fd5b600081612a9957612a996129b0565b506000190190565b8135815560208201356001820155600281016040830135612ac181612610565b81546001600160a01b0319166001600160a01b039190911617905560608201356003820155608090910135600490910155565b805482526001810154602083015260028101546001600160a01b031660408301526003810154606083015260040154608090910152565b82815260c081016115706020830184612af4565b6000808335601e19843603018112612b5657600080fd5b83018035915067ffffffffffffffff821115612b7157600080fd5b6020019150368190038213156126b157600080fd5b60a08101610a9d8284612af4565b602081526000612ba86020830184866129de565b949350505050565b600082821015612bc257612bc26129b0565b500390565b6000816000190483118215151615612be157612be16129b0565b500290565b7f416363657373436f6e74726f6c3a206163636f756e7420000000000000000000815260008351612c1e81601785016020880161284d565b7001034b99036b4b9b9b4b733903937b6329607d1b6017918401918201528351612c4f81602884016020880161284d565b01602801949350505050565b634e487b7160e01b600052603160045260246000fd5b60008251612c8381846020870161284d565b919091019291505056fe416464726573733a206c6f772d6c6576656c2064656c65676174652063616c6c206661696c6564a264697066735822122041a9bdf311cb8812b3b8422eae2ba116e095eb6a62860f0a0f13ff01f3b10ccc64736f6c63430008090033f23ec0bb4210edd5cba85afd05127efcd2fc6a781bfed49188da1081670b22d846a52cf33029de9f84853745a87af28464c80bf0346df1b32e205fc73319f622",
  "devdoc": {
    "events": {
      "AllStagedPermissionGrantsRolledBack(address,address)": {
        "params": {
          "origin": "Origin of the transaction (tx.origin)",
          "sender": "Sender of the call (msg.sender)"
        }
      },
      "AllStagedValidatorsRolledBack(address,address)": {
        "params": {
          "origin": "Origin of the transaction (tx.origin)",
          "sender": "Sender of the call (msg.sender)"
        }
      },
      "ParamsCommitted(address,address,(uint256,uint256,address,uint256,uint256))": {
        "params": {
          "origin": "Origin of the transaction (tx.origin)",
          "params": "Committed parameters",
          "sender": "Sender of the call (msg.sender)"
        }
      },
      "ParamsStaged(address,address,uint256,(uint256,uint256,address,uint256,uint256))": {
        "params": {
          "at": "Timestamp when the pending parameters could be committed",
          "origin": "Origin of the transaction (tx.origin)",
          "params": "Pending parameters",
          "sender": "Sender of the call (msg.sender)"
        }
      },
      "PermissionGrantsCommitted(address,address,address)": {
        "params": {
          "origin": "Origin of the transaction (tx.origin)",
          "sender": "Sender of the call (msg.sender)",
          "target": "Target address"
        }
      },
      "PermissionGrantsStaged(address,address,address,uint8[],uint256)": {
        "params": {
          "at": "Timestamp when the staged permissions could be committed",
          "origin": "Origin of the transaction (tx.origin)",
          "permissionIds": "Permission IDs to be granted",
          "sender": "Sender of the call (msg.sender)",
          "target": "Target address"
        }
      },
      "PermissionsRevoked(address,address,address,uint8[])": {
        "params": {
          "origin": "Origin of the transaction (tx.origin)",
          "permissionIds": "Permission IDs to be revoked",
          "sender": "Sender of the call (msg.sender)",
          "target": "Target address"
        }
      },
      "ValidatorCommitted(address,address,address)": {
        "params": {
          "origin": "Origin of the transaction (tx.origin)",
          "sender": "Sender of the call (msg.sender)",
          "target": "Target address"
        }
      },
      "ValidatorRevoked(address,address,address)": {
        "params": {
          "origin": "Origin of the transaction (tx.origin)",
          "sender": "Sender of the call (msg.sender)",
          "target": "Target address"
        }
      },
      "ValidatorStaged(address,address,address,address,uint256)": {
        "params": {
          "at": "Timestamp when the staged permissions could be committed",
          "origin": "Origin of the transaction (tx.origin)",
          "sender": "Sender of the call (msg.sender)",
          "target": "Target address",
          "validator": "Staged validator"
        }
      }
    },
    "kind": "dev",
    "methods": {
      "addressesByPermission(uint8)": {
        "params": {
          "permissionId": "Id of the permission to check."
        },
        "returns": {
          "addresses": "A list of dirty addresses."
        }
      },
      "commitAllPermissionGrantsSurpassedDelay()": {
        "returns": {
          "addresses": "An array of addresses for which permission grants were committed."
        }
      },
      "commitAllValidatorsSurpassedDelay()": {
        "returns": {
          "addressesCommitted": "Addresses for which validators were committed"
        }
      },
      "commitPermissionGrants(address)": {
        "details": "Reverts if governance delay has not passed yet.",
        "params": {
          "target": "The given address."
        }
      },
      "commitUnitPrice(address)": {
        "params": {
          "token": "Address of the token"
        }
      },
      "commitValidator(address)": {
        "details": "Reverts if governance delay has not passed yet.",
        "params": {
          "target": "The given address."
        }
      },
      "constructor": {
        "params": {
          "admin": "Initial admin of the contract"
        }
      },
      "getRoleAdmin(bytes32)": {
        "details": "Returns the admin role that controls `role`. See {grantRole} and {revokeRole}. To change a role's admin, use {_setRoleAdmin}."
      },
      "getRoleMember(bytes32,uint256)": {
        "details": "Returns one of the accounts that have `role`. `index` must be a value between 0 and {getRoleMemberCount}, non-inclusive. Role bearers are not sorted in any particular way, and their ordering may change at any point. WARNING: When using {getRoleMember} and {getRoleMemberCount}, make sure you perform all queries on the same block. See the following https://forum.openzeppelin.com/t/iterating-over-elements-on-enumerableset-in-openzeppelin-contracts/2296[forum post] for more information."
      },
      "getRoleMemberCount(bytes32)": {
        "details": "Returns the number of accounts that have `role`. Can be used together with {getRoleMember} to enumerate all bearers of a role."
      },
      "grantRole(bytes32,address)": {
        "details": "Grants `role` to `account`. If `account` had not been already granted `role`, emits a {RoleGranted} event. Requirements: - the caller must have ``role``'s admin role."
      },
      "hasAllPermissions(address,uint8[])": {
        "params": {
          "permissionIds": "A list of permissions to check",
          "target": "Address to check"
        }
      },
      "hasPermission(address,uint8)": {
        "params": {
          "addr": "Address to check",
          "permissionId": "Permission to check"
        }
      },
      "hasRole(bytes32,address)": {
        "details": "Returns `true` if `account` has been granted `role`."
      },
      "isAdmin(address)": {
        "params": {
          "sender": "Adddress to check"
        },
        "returns": {
          "_0": "`true` if sender is an admin, `false` otherwise"
        }
      },
      "isOperator(address)": {
        "params": {
          "sender": "Adddress to check"
        },
        "returns": {
          "_0": "`true` if sender is an admin, `false` otherwise"
        }
      },
      "multicall(bytes[])": {
        "details": "Receives and executes a batch of function calls on this contract."
      },
      "renounceRole(bytes32,address)": {
        "details": "Revokes `role` from the calling account. Roles are often managed via {grantRole} and {revokeRole}: this function's purpose is to provide a mechanism for accounts to lose their privileges if they are compromised (such as when a trusted device is misplaced). If the calling account had been revoked `role`, emits a {RoleRevoked} event. Requirements: - the caller must be `account`."
      },
      "revokePermissions(address,uint8[])": {
        "params": {
          "permissionIds": "A list of permission ids to revoke.",
          "target": "The given address."
        }
      },
      "revokeRole(bytes32,address)": {
        "details": "Revokes `role` from `account`. If `account` had been granted `role`, emits a {RoleRevoked} event. Requirements: - the caller must have ``role``'s admin role."
      },
      "revokeValidator(address)": {
        "params": {
          "target": "The given address"
        }
      },
      "rollbackUnitPrice(address)": {
        "params": {
          "token": "Address of the token"
        }
      },
      "stageParams((uint256,uint256,address,uint256,uint256))": {
        "params": {
          "newParams": "New protocol parameters to set."
        }
      },
      "stagePermissionGrants(address,uint8[])": {
        "params": {
          "permissionIds": "A list of permission ids to grant",
          "target": "Target address"
        }
      },
      "stageUnitPrice(address,uint256)": {
        "params": {
          "token": "Address of the token",
          "value": "The amount of token"
        }
      },
      "stageValidator(address,address)": {
        "params": {
          "target": "The given address",
          "validator": "The validator for the given address"
        }
      },
      "validatorsAddress(uint256)": {
        "params": {
          "i": "The number of address"
        },
        "returns": {
          "_0": "Validator address"
        }
      },
      "withdrawLimit(address)": {
        "params": {
          "token": "Address of the token"
        },
        "returns": {
          "_0": "Withdraw limit per token per block"
        }
      }
    },
    "stateVariables": {
      "permissionMasks": {
        "params": {
          "target": "The given address"
        },
        "return": "Bitmask",
        "returns": {
          "_0": "Bitmask"
        }
      },
      "stagedParamsTimestamp": {
        "return": "Zero if there are no staged parameters, timestamp otherwise.",
        "returns": {
          "_0": "Zero if there are no staged parameters, timestamp otherwise."
        }
      },
      "stagedPermissionGrantsMasks": {
        "params": {
          "target": "The given address"
        },
        "return": "Bitmask",
        "returns": {
          "_0": "Bitmask"
        }
      },
      "stagedPermissionGrantsTimestamps": {
        "params": {
          "target": "The given address"
        },
        "return": "Zero if there are no staged permission grants, timestamp otherwise",
        "returns": {
          "_0": "Zero if there are no staged permission grants, timestamp otherwise"
        }
      },
      "stagedValidators": {
        "params": {
          "target": "The given address"
        },
        "return": "Validator",
        "returns": {
          "_0": "Validator"
        }
      },
      "stagedValidatorsTimestamps": {
        "params": {
          "target": "The given address"
        },
        "return": "Zero if there are no staged permission grants, timestamp otherwise",
        "returns": {
          "_0": "Zero if there are no staged permission grants, timestamp otherwise"
        }
      },
      "validators": {
        "params": {
          "target": "The given address"
        },
        "return": "Validator",
        "returns": {
          "_0": "Validator"
        }
      }
    },
    "version": 1
  },
  "userdoc": {
    "events": {
      "AllStagedPermissionGrantsRolledBack(address,address)": {
        "notice": "Emitted when staged permissions are rolled back"
      },
      "AllStagedValidatorsRolledBack(address,address)": {
        "notice": "Emitted when staged validators are rolled back"
      },
      "ParamsCommitted(address,address,(uint256,uint256,address,uint256,uint256))": {
        "notice": "Emitted when pending parameters are committed"
      },
      "ParamsStaged(address,address,uint256,(uint256,uint256,address,uint256,uint256))": {
        "notice": "Emitted when pending parameters are set"
      },
      "PermissionGrantsCommitted(address,address,address)": {
        "notice": "Emitted when staged permissions are comitted for specific address"
      },
      "PermissionGrantsStaged(address,address,address,uint8[],uint256)": {
        "notice": "Emitted when new permissions are staged to be granted for specific address."
      },
      "PermissionsRevoked(address,address,address,uint8[])": {
        "notice": "Emitted when permissions are revoked"
      },
      "UnitPriceCommitted(address,address,address,uint256)": {
        "notice": "UnitPrice committed"
      },
      "UnitPriceRolledBack(address,address,address)": {
        "notice": "UnitPrice rolled back"
      },
      "UnitPriceStaged(address,address,address,uint256)": {
        "notice": "UnitPrice staged for commit"
      },
      "ValidatorCommitted(address,address,address)": {
        "notice": "Emitted when staged validators are comitted for specific address"
      },
      "ValidatorRevoked(address,address,address)": {
        "notice": "Validator revoked"
      },
      "ValidatorStaged(address,address,address,address,uint256)": {
        "notice": "Emitted when validators are staged to be granted for specific address."
      }
    },
    "kind": "user",
    "methods": {
      "addressesByPermission(uint8)": {
        "notice": "Return all addresses where rawPermissionMask bit for permissionId is set to 1."
      },
      "commitAllPermissionGrantsSurpassedDelay()": {
        "notice": "Commites all staged permission grants for which governance delay passed."
      },
      "commitAllValidatorsSurpassedDelay()": {
        "notice": "Commites all staged validators for which governance delay passed"
      },
      "commitParams()": {
        "notice": "Commits staged protocol params. Reverts if governance delay has not passed yet."
      },
      "commitPermissionGrants(address)": {
        "notice": "Commits permission grants for the given address."
      },
      "commitUnitPrice(address)": {
        "notice": "Commit staged unit price"
      },
      "commitValidator(address)": {
        "notice": "Commits validator for the given address."
      },
      "constructor": {
        "notice": "Creates a new contract"
      },
      "forceAllowMask()": {
        "notice": "Permissions mask which defines if ordinary permission should be reverted. This bitmask is xored with ordinary mask."
      },
      "governanceDelay()": {
        "notice": "The delay for committing any governance params."
      },
      "hasAllPermissions(address,uint8[])": {
        "notice": "Checks if address has all permissions."
      },
      "hasPermission(address,uint8)": {
        "notice": "Checks if address has permission or given permission is force allowed for any address."
      },
      "isAdmin(address)": {
        "notice": "Checks if the address is ADMIN or ADMIN_DELEGATE."
      },
      "isOperator(address)": {
        "notice": "Checks if the address is OPERATOR."
      },
      "maxTokensPerVault()": {
        "notice": "Max different ERC20 token addresses that could be managed by the protocol."
      },
      "params()": {
        "notice": "Current protocol parameters."
      },
      "permissionAddresses()": {
        "notice": "Addresses for which non-zero permissions are set."
      },
      "permissionMasks(address)": {
        "notice": "Permission bitmask for the given address."
      },
      "protocolTreasury()": {
        "notice": "The address of the protocol treasury."
      },
      "revokePermissions(address,uint8[])": {
        "notice": "Revoke permission instantly from the given address."
      },
      "revokeValidator(address)": {
        "notice": "Revoke validator instantly from the given address."
      },
      "rollbackStagedPermissionGrants()": {
        "notice": "Rollback all staged granted permission grant."
      },
      "rollbackStagedValidators()": {
        "notice": "Rollback all staged validators."
      },
      "rollbackUnitPrice(address)": {
        "notice": "Reset staged value"
      },
      "stageParams((uint256,uint256,address,uint256,uint256))": {
        "notice": "Sets new pending params that could have been committed after governance delay expires."
      },
      "stagePermissionGrants(address,uint8[])": {
        "notice": "Stage granted permissions that could have been committed after governance delay expires. Resets commit delay and permissions if there are already staged permissions for this address."
      },
      "stageUnitPrice(address,uint256)": {
        "notice": "Stage estimated amount of token worth 1 USD staged for commit."
      },
      "stageValidator(address,address)": {
        "notice": "Stages a new validator for the given address"
      },
      "stagedParams()": {
        "notice": "Staged pending protocol parameters."
      },
      "stagedParamsTimestamp()": {
        "notice": "Timestamp after which staged pending protocol parameters can be committed"
      },
      "stagedPermissionGrantsAddresses()": {
        "notice": "Permission addresses staged for commit."
      },
      "stagedPermissionGrantsMasks(address)": {
        "notice": "Staged granted permission bitmask for the given address."
      },
      "stagedPermissionGrantsTimestamps(address)": {
        "notice": "Timestamp after which staged granted permissions for the given address can be committed."
      },
      "stagedUnitPrices(address)": {
        "notice": "Estimated amount of token worth 1 USD staged for commit."
      },
      "stagedUnitPricesTimestamps(address)": {
        "notice": "Timestamp after which staged unit prices for the given token can be committed."
      },
      "stagedValidators(address)": {
        "notice": "Staged validator for the given address."
      },
      "stagedValidatorsAddresses()": {
        "notice": "Addresses that has staged validators."
      },
      "stagedValidatorsTimestamps(address)": {
        "notice": "Timestamp after which staged granted permissions for the given address can be committed."
      },
      "unitPrices(address)": {
        "notice": "Estimated amount of token worth 1 USD."
      },
      "validators(address)": {
        "notice": "Validator for the given address."
      },
      "validatorsAddress(uint256)": {
        "notice": "Address that has validators."
      },
      "validatorsAddresses()": {
        "notice": "Addresses that has validators."
      },
      "withdrawLimit(address)": {
        "notice": "Withdraw limit per token per block."
      }
    },
    "notice": "Governance that manages all params common for Mellow Permissionless Vaults protocol.",
    "version": 1
  },
  "storageLayout": {
    "storage": [
      {
        "astId": 24,
        "contract": "contracts/ProtocolGovernance.sol:ProtocolGovernance",
        "label": "_roles",
        "offset": 0,
        "slot": "0",
        "type": "t_mapping(t_bytes32,t_struct(RoleData)19_storage)"
      },
      {
        "astId": 327,
        "contract": "contracts/ProtocolGovernance.sol:ProtocolGovernance",
        "label": "_roleMembers",
        "offset": 0,
        "slot": "1",
        "type": "t_mapping(t_bytes32,t_struct(AddressSet)3824_storage)"
      },
      {
        "astId": 6026,
        "contract": "contracts/ProtocolGovernance.sol:ProtocolGovernance",
        "label": "unitPrices",
        "offset": 0,
        "slot": "2",
        "type": "t_mapping(t_address,t_uint256)"
      },
      {
        "astId": 6031,
        "contract": "contracts/ProtocolGovernance.sol:ProtocolGovernance",
        "label": "stagedUnitPrices",
        "offset": 0,
        "slot": "3",
        "type": "t_mapping(t_address,t_uint256)"
      },
      {
        "astId": 6036,
        "contract": "contracts/ProtocolGovernance.sol:ProtocolGovernance",
        "label": "stagedUnitPricesTimestamps",
        "offset": 0,
        "slot": "4",
        "type": "t_mapping(t_address,t_uint256)"
      },
      {
        "astId": 4677,
        "contract": "contracts/ProtocolGovernance.sol:ProtocolGovernance",
        "label": "stagedPermissionGrantsTimestamps",
        "offset": 0,
        "slot": "5",
        "type": "t_mapping(t_address,t_uint256)"
      },
      {
        "astId": 4682,
        "contract": "contracts/ProtocolGovernance.sol:ProtocolGovernance",
        "label": "stagedPermissionGrantsMasks",
        "offset": 0,
        "slot": "6",
        "type": "t_mapping(t_address,t_uint256)"
      },
      {
        "astId": 4687,
        "contract": "contracts/ProtocolGovernance.sol:ProtocolGovernance",
        "label": "permissionMasks",
        "offset": 0,
        "slot": "7",
        "type": "t_mapping(t_address,t_uint256)"
      },
      {
        "astId": 4692,
        "contract": "contracts/ProtocolGovernance.sol:ProtocolGovernance",
        "label": "stagedValidatorsTimestamps",
        "offset": 0,
        "slot": "8",
        "type": "t_mapping(t_address,t_uint256)"
      },
      {
        "astId": 4697,
        "contract": "contracts/ProtocolGovernance.sol:ProtocolGovernance",
        "label": "stagedValidators",
        "offset": 0,
        "slot": "9",
        "type": "t_mapping(t_address,t_address)"
      },
      {
        "astId": 4702,
        "contract": "contracts/ProtocolGovernance.sol:ProtocolGovernance",
        "label": "validators",
        "offset": 0,
        "slot": "10",
        "type": "t_mapping(t_address,t_address)"
      },
      {
        "astId": 4705,
        "contract": "contracts/ProtocolGovernance.sol:ProtocolGovernance",
        "label": "stagedParamsTimestamp",
        "offset": 0,
        "slot": "11",
        "type": "t_uint256"
      },
      {
        "astId": 4708,
        "contract": "contracts/ProtocolGovernance.sol:ProtocolGovernance",
        "label": "_stagedPermissionGrantsAddresses",
        "offset": 0,
        "slot": "12",
        "type": "t_struct(AddressSet)3824_storage"
      },
      {
        "astId": 4711,
        "contract": "contracts/ProtocolGovernance.sol:ProtocolGovernance",
        "label": "_permissionAddresses",
        "offset": 0,
        "slot": "14",
        "type": "t_struct(AddressSet)3824_storage"
      },
      {
        "astId": 4714,
        "contract": "contracts/ProtocolGovernance.sol:ProtocolGovernance",
        "label": "_validatorsAddresses",
        "offset": 0,
        "slot": "16",
        "type": "t_struct(AddressSet)3824_storage"
      },
      {
        "astId": 4717,
        "contract": "contracts/ProtocolGovernance.sol:ProtocolGovernance",
        "label": "_stagedValidatorsAddresses",
        "offset": 0,
        "slot": "18",
        "type": "t_struct(AddressSet)3824_storage"
      },
      {
        "astId": 4720,
        "contract": "contracts/ProtocolGovernance.sol:ProtocolGovernance",
        "label": "_stagedParams",
        "offset": 0,
        "slot": "20",
        "type": "t_struct(Params)6831_storage"
      },
      {
        "astId": 4723,
        "contract": "contracts/ProtocolGovernance.sol:ProtocolGovernance",
        "label": "_params",
        "offset": 0,
        "slot": "25",
        "type": "t_struct(Params)6831_storage"
      }
    ],
    "types": {
      "t_address": {
        "encoding": "inplace",
        "label": "address",
        "numberOfBytes": "20"
      },
      "t_array(t_bytes32)dyn_storage": {
        "base": "t_bytes32",
        "encoding": "dynamic_array",
        "label": "bytes32[]",
        "numberOfBytes": "32"
      },
      "t_bool": {
        "encoding": "inplace",
        "label": "bool",
        "numberOfBytes": "1"
      },
      "t_bytes32": {
        "encoding": "inplace",
        "label": "bytes32",
        "numberOfBytes": "32"
      },
      "t_mapping(t_address,t_address)": {
        "encoding": "mapping",
        "key": "t_address",
        "label": "mapping(address => address)",
        "numberOfBytes": "32",
        "value": "t_address"
      },
      "t_mapping(t_address,t_bool)": {
        "encoding": "mapping",
        "key": "t_address",
        "label": "mapping(address => bool)",
        "numberOfBytes": "32",
        "value": "t_bool"
      },
      "t_mapping(t_address,t_uint256)": {
        "encoding": "mapping",
        "key": "t_address",
        "label": "mapping(address => uint256)",
        "numberOfBytes": "32",
        "value": "t_uint256"
      },
      "t_mapping(t_bytes32,t_struct(AddressSet)3824_storage)": {
        "encoding": "mapping",
        "key": "t_bytes32",
        "label": "mapping(bytes32 => struct EnumerableSet.AddressSet)",
        "numberOfBytes": "32",
        "value": "t_struct(AddressSet)3824_storage"
      },
      "t_mapping(t_bytes32,t_struct(RoleData)19_storage)": {
        "encoding": "mapping",
        "key": "t_bytes32",
        "label": "mapping(bytes32 => struct AccessControl.RoleData)",
        "numberOfBytes": "32",
        "value": "t_struct(RoleData)19_storage"
      },
      "t_mapping(t_bytes32,t_uint256)": {
        "encoding": "mapping",
        "key": "t_bytes32",
        "label": "mapping(bytes32 => uint256)",
        "numberOfBytes": "32",
        "value": "t_uint256"
      },
      "t_struct(AddressSet)3824_storage": {
        "encoding": "inplace",
        "label": "struct EnumerableSet.AddressSet",
        "members": [
          {
            "astId": 3823,
            "contract": "contracts/ProtocolGovernance.sol:ProtocolGovernance",
            "label": "_inner",
            "offset": 0,
            "slot": "0",
            "type": "t_struct(Set)3523_storage"
          }
        ],
        "numberOfBytes": "64"
      },
      "t_struct(Params)6831_storage": {
        "encoding": "inplace",
        "label": "struct IProtocolGovernance.Params",
        "members": [
          {
            "astId": 6822,
            "contract": "contracts/ProtocolGovernance.sol:ProtocolGovernance",
            "label": "maxTokensPerVault",
            "offset": 0,
            "slot": "0",
            "type": "t_uint256"
          },
          {
            "astId": 6824,
            "contract": "contracts/ProtocolGovernance.sol:ProtocolGovernance",
            "label": "governanceDelay",
            "offset": 0,
            "slot": "1",
            "type": "t_uint256"
          },
          {
            "astId": 6826,
            "contract": "contracts/ProtocolGovernance.sol:ProtocolGovernance",
            "label": "protocolTreasury",
            "offset": 0,
            "slot": "2",
            "type": "t_address"
          },
          {
            "astId": 6828,
            "contract": "contracts/ProtocolGovernance.sol:ProtocolGovernance",
            "label": "forceAllowMask",
            "offset": 0,
            "slot": "3",
            "type": "t_uint256"
          },
          {
            "astId": 6830,
            "contract": "contracts/ProtocolGovernance.sol:ProtocolGovernance",
            "label": "withdrawLimit",
            "offset": 0,
            "slot": "4",
            "type": "t_uint256"
          }
        ],
        "numberOfBytes": "160"
      },
      "t_struct(RoleData)19_storage": {
        "encoding": "inplace",
        "label": "struct AccessControl.RoleData",
        "members": [
          {
            "astId": 16,
            "contract": "contracts/ProtocolGovernance.sol:ProtocolGovernance",
            "label": "members",
            "offset": 0,
            "slot": "0",
            "type": "t_mapping(t_address,t_bool)"
          },
          {
            "astId": 18,
            "contract": "contracts/ProtocolGovernance.sol:ProtocolGovernance",
            "label": "adminRole",
            "offset": 0,
            "slot": "1",
            "type": "t_bytes32"
          }
        ],
        "numberOfBytes": "64"
      },
      "t_struct(Set)3523_storage": {
        "encoding": "inplace",
        "label": "struct EnumerableSet.Set",
        "members": [
          {
            "astId": 3518,
            "contract": "contracts/ProtocolGovernance.sol:ProtocolGovernance",
            "label": "_values",
            "offset": 0,
            "slot": "0",
            "type": "t_array(t_bytes32)dyn_storage"
          },
          {
            "astId": 3522,
            "contract": "contracts/ProtocolGovernance.sol:ProtocolGovernance",
            "label": "_indexes",
            "offset": 0,
            "slot": "1",
            "type": "t_mapping(t_bytes32,t_uint256)"
          }
        ],
        "numberOfBytes": "64"
      },
      "t_uint256": {
        "encoding": "inplace",
        "label": "uint256",
        "numberOfBytes": "32"
      }
    }
  }
}