{
  "address": "0x07c22b9DB88cB4B1f0763B8C6CE05F8794b14f4E",
  "abi": [
    {
      "inputs": [
        {
          "internalType": "contract IProtocolGovernance",
          "name": "protocolGovernance_",
          "type": "address"
        },
        {
          "internalType": "address",
          "name": "swapRouter_",
          "type": "address"
        },
        {
          "internalType": "contract IUniswapV3Factory",
          "name": "factory_",
          "type": "address"
        }
      ],
      "stateMutability": "nonpayable",
      "type": "constructor"
    },
    {
      "anonymous": false,
      "inputs": [
        {
          "indexed": true,
          "internalType": "address",
          "name": "origin",
          "type": "address"
        },
        {
          "indexed": true,
          "internalType": "address",
          "name": "sender",
          "type": "address"
        },
        {
          "components": [
            {
              "internalType": "contract IProtocolGovernance",
              "name": "protocolGovernance",
              "type": "address"
            }
          ],
          "indexed": false,
          "internalType": "struct IBaseValidator.ValidatorParams",
          "name": "params",
          "type": "tuple"
        }
      ],
      "name": "CommittedValidatorParams",
      "type": "event"
    },
    {
      "anonymous": false,
      "inputs": [
        {
          "indexed": true,
          "internalType": "address",
          "name": "origin",
          "type": "address"
        },
        {
          "indexed": true,
          "internalType": "address",
          "name": "sender",
          "type": "address"
        },
        {
          "components": [
            {
              "internalType": "contract IProtocolGovernance",
              "name": "protocolGovernance",
              "type": "address"
            }
          ],
          "indexed": false,
          "internalType": "struct IBaseValidator.ValidatorParams",
          "name": "newParams",
          "type": "tuple"
        },
        {
          "indexed": false,
          "internalType": "uint256",
          "name": "when",
          "type": "uint256"
        }
      ],
      "name": "StagedValidatorParams",
      "type": "event"
    },
    {
      "inputs": [],
      "name": "EXACT_INPUT_SELECTOR",
      "outputs": [
        {
          "internalType": "bytes4",
          "name": "",
          "type": "bytes4"
        }
      ],
      "stateMutability": "view",
      "type": "function"
    },
    {
      "inputs": [],
      "name": "EXACT_INPUT_SINGLE_SELECTOR",
      "outputs": [
        {
          "internalType": "bytes4",
          "name": "",
          "type": "bytes4"
        }
      ],
      "stateMutability": "view",
      "type": "function"
    },
    {
      "inputs": [],
      "name": "EXACT_OUTPUT_SELECTOR",
      "outputs": [
        {
          "internalType": "bytes4",
          "name": "",
          "type": "bytes4"
        }
      ],
      "stateMutability": "view",
      "type": "function"
    },
    {
      "inputs": [],
      "name": "EXACT_OUTPUT_SINGLE_SELECTOR",
      "outputs": [
        {
          "internalType": "bytes4",
          "name": "",
          "type": "bytes4"
        }
      ],
      "stateMutability": "view",
      "type": "function"
    },
    {
      "inputs": [],
      "name": "commitValidatorParams",
      "outputs": [],
      "stateMutability": "nonpayable",
      "type": "function"
    },
    {
      "inputs": [],
      "name": "contractName",
      "outputs": [
        {
          "internalType": "string",
          "name": "",
          "type": "string"
        }
      ],
      "stateMutability": "pure",
      "type": "function"
    },
    {
      "inputs": [],
      "name": "contractNameBytes",
      "outputs": [
        {
          "internalType": "bytes32",
          "name": "",
          "type": "bytes32"
        }
      ],
      "stateMutability": "pure",
      "type": "function"
    },
    {
      "inputs": [],
      "name": "contractVersion",
      "outputs": [
        {
          "internalType": "string",
          "name": "",
          "type": "string"
        }
      ],
      "stateMutability": "pure",
      "type": "function"
    },
    {
      "inputs": [],
      "name": "contractVersionBytes",
      "outputs": [
        {
          "internalType": "bytes32",
          "name": "",
          "type": "bytes32"
        }
      ],
      "stateMutability": "pure",
      "type": "function"
    },
    {
      "inputs": [],
      "name": "factory",
      "outputs": [
        {
          "internalType": "contract IUniswapV3Factory",
          "name": "",
          "type": "address"
        }
      ],
      "stateMutability": "view",
      "type": "function"
    },
    {
      "inputs": [
        {
          "components": [
            {
              "internalType": "contract IProtocolGovernance",
              "name": "protocolGovernance",
              "type": "address"
            }
          ],
          "internalType": "struct IBaseValidator.ValidatorParams",
          "name": "newParams",
          "type": "tuple"
        }
      ],
      "name": "stageValidatorParams",
      "outputs": [],
      "stateMutability": "nonpayable",
      "type": "function"
    },
    {
      "inputs": [],
      "name": "stagedValidatorParams",
      "outputs": [
        {
          "components": [
            {
              "internalType": "contract IProtocolGovernance",
              "name": "protocolGovernance",
              "type": "address"
            }
          ],
          "internalType": "struct IBaseValidator.ValidatorParams",
          "name": "",
          "type": "tuple"
        }
      ],
      "stateMutability": "view",
      "type": "function"
    },
    {
      "inputs": [],
      "name": "stagedValidatorParamsTimestamp",
      "outputs": [
        {
          "internalType": "uint256",
          "name": "",
          "type": "uint256"
        }
      ],
      "stateMutability": "view",
      "type": "function"
    },
    {
      "inputs": [
        {
          "internalType": "bytes4",
          "name": "interfaceId",
          "type": "bytes4"
        }
      ],
      "name": "supportsInterface",
      "outputs": [
        {
          "internalType": "bool",
          "name": "",
          "type": "bool"
        }
      ],
      "stateMutability": "view",
      "type": "function"
    },
    {
      "inputs": [],
      "name": "swapRouter",
      "outputs": [
        {
          "internalType": "address",
          "name": "",
          "type": "address"
        }
      ],
      "stateMutability": "view",
      "type": "function"
    },
    {
      "inputs": [
        {
          "internalType": "address",
          "name": "",
          "type": "address"
        },
        {
          "internalType": "address",
          "name": "addr",
          "type": "address"
        },
        {
          "internalType": "uint256",
          "name": "value",
          "type": "uint256"
        },
        {
          "internalType": "bytes4",
          "name": "selector",
          "type": "bytes4"
        },
        {
          "internalType": "bytes",
          "name": "data",
          "type": "bytes"
        }
      ],
      "name": "validate",
      "outputs": [],
      "stateMutability": "view",
      "type": "function"
    },
    {
      "inputs": [],
      "name": "validatorParams",
      "outputs": [
        {
          "components": [
            {
              "internalType": "contract IProtocolGovernance",
              "name": "protocolGovernance",
              "type": "address"
            }
          ],
          "internalType": "struct IBaseValidator.ValidatorParams",
          "name": "",
          "type": "tuple"
        }
      ],
      "stateMutability": "view",
      "type": "function"
    }
  ],
  "transactionHash": "0xe499a78ca05efbdacbe7f011d8b5485405c3b888db3479ff76f77bf3b29aea62",
  "args": [
    "0xDc9C17662133fB865E7bA3198B67c53a617B2153",
    "0xE592427A0AEce92De3Edee1F18E0157C05861564",
    "0x1F98431c8aD98523631AE4a59f267346ea31F984"
  ],
  "solcInputHash": "1d49726b754ac7f6cccc3c78633d62a4",
  "bytecode": "0x60c060405234801561001057600080fd5b50604051620013b9380380620013b983398101604081905261003191610085565b60408051602081019091526001600160a01b0393841690819052600080546001600160a01b03191690911790559082166080521660a0526100d2565b6001600160a01b038116811461008257600080fd5b50565b60008060006060848603121561009a57600080fd5b83516100a58161006d565b60208501519093506100b68161006d565b60408501519092506100c78161006d565b809150509250925092565b60805160a0516112b362000106600039600081816102960152610c1701526000818161025701526104b601526112b36000f3fe608060405234801561001057600080fd5b506004361061010b5760003560e01c806370655fa0116100a2578063c31c9c0711610071578063c31c9c0714610252578063c45a015514610291578063c8991b9e146102b8578063e6ab042c146102c6578063feca4a1d146102ce57600080fd5b806370655fa0146102005780637183d7f61461022757806375d0c0dc14610235578063a0a8e4601461024a57600080fd5b806347c0a4ed116100de57806347c0a4ed1461016f5780634c39da1b1461018457806357acc302146101c35780635e585c34146101ed57600080fd5b806301ffc9a71461011057806306a46239146101385780630768b496146101505780630e3e80ac14610158575b600080fd5b61012361011e366004610d76565b6102dc565b60405190151581526020015b60405180910390f35b640312e302e360dc1b5b60405190815260200161012f565b600254610142565b6d2ab734ab19ab30b634b230ba37b960911b610142565b61018261017d366004610d98565b610318565b005b6040805160208082018352600090915281519081019091526001546001600160a01b031681525b60405190516001600160a01b0316815260200161012f565b60408051602080820183526000918290528251908101909252546001600160a01b031681526101ab565b6101826101fb366004610dd3565b6104aa565b61020e631e51809360e31b81565b6040516001600160e01b0319909116815260200161012f565b61020e631b67c43360e31b81565b61023d610666565b60405161012f9190610e84565b61023d610682565b6102797f000000000000000000000000000000000000000000000000000000000000000081565b6040516001600160a01b03909116815260200161012f565b6102797f000000000000000000000000000000000000000000000000000000000000000081565b61020e63c04b8d5960e01b81565b610182610695565b61020e63414bf38960e01b81565b60006001600160e01b03198216631796170d60e21b148061030d57506301ffc9a760e01b6001600160e01b03198316145b92915050565b905090565b600054604051630935e01b60e21b81523360048201526001600160a01b039091169081906324d7806c9060240160206040518083038186803b15801561035d57600080fd5b505afa158015610371573d6000803e3d6000fd5b505050506040513d601f19601f820116820180604052508101906103959190610ed9565b6040518060400160405280600381526020016223292160e91b815250906103d85760405162461bcd60e51b81526004016103cf9190610e84565b60405180910390fd5b508160016103e68282610efb565b905050806001600160a01b031663bba329396040518163ffffffff1660e01b815260040160206040518083038186803b15801561042257600080fd5b505afa158015610436573d6000803e3d6000fd5b505050506040513d601f19601f8201168201806040525081019061045a9190610f24565b6104649042610f53565b6002819055604051339132917f660ad6a797f71286627569396d4046567822701c6afd27f47d280dee5e2ce1819161049e91879190610f6b565b60405180910390a35050565b846001600160a01b03167f00000000000000000000000000000000000000000000000000000000000000006001600160a01b0316146040518060400160405280600581526020016424a72b2a2960d91b8152509061051b5760405162461bcd60e51b81526004016103cf9190610e84565b5060408051808201909152600381526224a72b60e91b602082015284156105555760405162461bcd60e51b81526004016103cf9190610e84565b50336001600160e01b0319841663414bf38960e01b14156105a357600061057e838501856110ce565b905061059d828260600151836000015184602001518560400151610832565b5061065d565b6001600160e01b03198416631b67c43360e31b14156105ca57600061057e838501856110ce565b6001600160e01b0319841663c04b8d5960e01b14156106065760006105f1838501856111b9565b905061059d828260200151836000015161094c565b6001600160e01b03198416631e51809360e31b141561062d5760006105f1838501856111b9565b604080518082018252600480825263494e565360e01b6020830152915162461bcd60e51b81526103cf9201610e84565b50505050505050565b60606103136d2ab734ab19ab30b634b230ba37b960911b610b1d565b6060610313640312e302e360dc1b610b1d565b60025460408051808201909152600581526412539594d560da1b6020820152906106d25760405162461bcd60e51b81526004016103cf9190610e84565b50600054604051630935e01b60e21b81523360048201526001600160a01b039091169081906324d7806c9060240160206040518083038186803b15801561071857600080fd5b505afa15801561072c573d6000803e3d6000fd5b505050506040513d601f19601f820116820180604052508101906107509190610ed9565b6040518060400160405280600381526020016223292160e91b8152509061078a5760405162461bcd60e51b81526004016103cf9190610e84565b5060025442101560405180604001604052806002815260200161545360f01b815250906107ca5760405162461bcd60e51b81526004016103cf9190610e84565b5060018054600080546001600160a01b0383166001600160a01b0319918216811783559216909255600291909155604051908152339032907f15f858bb04b5aa79f0fafddd94b014ab8bf8ceae94724b7074c7b4940be688b49060200160405180910390a350565b846001600160a01b0316846001600160a01b0316146040518060400160405280600581526020016424a72b2a2960d91b815250906108835760405162461bcd60e51b81526004016103cf9190610e84565b5060405163338c4ccb60e01b81526001600160a01b03838116600483015286169063338c4ccb9060240160206040518083038186803b1580156108c557600080fd5b505afa1580156108d9573d6000803e3d6000fd5b505050506040513d601f19601f820116820180604052508101906108fd9190610ed9565b60405180604001604052806005815260200164494e56544f60d81b815250906109395760405162461bcd60e51b81526004016103cf9190610e84565b50610945838383610b89565b5050505050565b60408051808201909152600581526424a72b2a2960d91b602082015260009081908190819062ffffff906001600160a01b03908882168a8316146109a35760405162461bcd60e51b81526004016103cf9190610e84565b506017875160036109b49190610f53565b6109be91906111f6565b1580156109cd5750602b875110155b604051806040016040528060048152602001631253959360e21b81525090610a085760405162461bcd60e51b81526004016103cf9190610e84565b505b6014868851610a199190611218565b1115610a5c578686016020810151602b90910151606082901c96508216945060481c82169250610a4a858585610b89565b610a55601787610f53565b9550610a0a565b60405163338c4ccb60e01b81526001600160a01b0385811660048301528a169063338c4ccb9060240160206040518083038186803b158015610a9d57600080fd5b505afa158015610ab1573d6000803e3d6000fd5b505050506040513d601f19601f82011682018060405250810190610ad59190610ed9565b60405180604001604052806005815260200164494e56544f60d81b81525090610b115760405162461bcd60e51b81526004016103cf9190610e84565b50505050505050505050565b604080516020808252818301909252606091602082018180368337019050509050602060005b6020811015610b7b57838160208110610b5e57610b5e61122f565b1a610b6b57809150610b7b565b610b7481611245565b9050610b43565b508152602081019190915290565b816001600160a01b0316836001600160a01b0316141560405180604001604052806005815260200164494e56544f60d81b81525090610bdb5760405162461bcd60e51b81526004016103cf9190610e84565b5060008054604051630b4c774160e11b81526001600160a01b038681166004830152858116602483015262ffffff8516604483015291821692917f00000000000000000000000000000000000000000000000000000000000000001690631698ee829060640160206040518083038186803b158015610c5957600080fd5b505afa158015610c6d573d6000803e3d6000fd5b505050506040513d601f19601f82011682018060405250810190610c919190611260565b6040516363e85d2d60e01b81526001600160a01b038083166004808401919091526024830152919250908316906363e85d2d9060440160206040518083038186803b158015610cdf57600080fd5b505afa158015610cf3573d6000803e3d6000fd5b505050506040513d601f19601f82011682018060405250810190610d179190610ed9565b6040518060400160405280600381526020016223292160e91b81525090610d515760405162461bcd60e51b81526004016103cf9190610e84565b505050505050565b80356001600160e01b031981168114610d7157600080fd5b919050565b600060208284031215610d8857600080fd5b610d9182610d59565b9392505050565b600060208284031215610daa57600080fd5b50919050565b6001600160a01b0381168114610dc557600080fd5b50565b8035610d7181610db0565b60008060008060008060a08789031215610dec57600080fd5b8635610df781610db0565b95506020870135610e0781610db0565b945060408701359350610e1c60608801610d59565b9250608087013567ffffffffffffffff80821115610e3957600080fd5b818901915089601f830112610e4d57600080fd5b813581811115610e5c57600080fd5b8a6020828501011115610e6e57600080fd5b6020830194508093505050509295509295509295565b600060208083528351808285015260005b81811015610eb157858101830151858201604001528201610e95565b81811115610ec3576000604083870101525b50601f01601f1916929092016040019392505050565b600060208284031215610eeb57600080fd5b81518015158114610d9157600080fd5b8135610f0681610db0565b81546001600160a01b0319166001600160a01b039190911617905550565b600060208284031215610f3657600080fd5b5051919050565b634e487b7160e01b600052601160045260246000fd5b60008219821115610f6657610f66610f3d565b500190565b604081018335610f7a81610db0565b6001600160a01b03168252602090910191909152919050565b634e487b7160e01b600052604160045260246000fd5b60405160a0810167ffffffffffffffff81118282101715610fcc57610fcc610f93565b60405290565b604051601f8201601f1916810167ffffffffffffffff81118282101715610ffb57610ffb610f93565b604052919050565b803562ffffff81168114610d7157600080fd5b600061010080838503121561102a57600080fd5b6040519081019067ffffffffffffffff8211818310171561104d5761104d610f93565b816040528092508335915061106182610db0565b81815261107060208501610dc8565b602082015261108160408501611003565b604082015261109260608501610dc8565b60608201526080840135608082015260a084013560a082015260c084013560c08201526110c160e08501610dc8565b60e0820152505092915050565b600061010082840312156110e157600080fd5b610d918383611016565b600060a082840312156110fd57600080fd5b611105610fa9565b9050813567ffffffffffffffff8082111561111f57600080fd5b818401915084601f83011261113357600080fd5b813560208282111561114757611147610f93565b611159601f8301601f19168201610fd2565b9250818352868183860101111561116f57600080fd5b8181850182850137600081838501015282855261118d818701610dc8565b818601525050505060408201356040820152606082013560608201526080820135608082015292915050565b6000602082840312156111cb57600080fd5b813567ffffffffffffffff8111156111e257600080fd5b6111ee848285016110eb565b949350505050565b60008261121357634e487b7160e01b600052601260045260246000fd5b500690565b60008282101561122a5761122a610f3d565b500390565b634e487b7160e01b600052603260045260246000fd5b600060001982141561125957611259610f3d565b5060010190565b60006020828403121561127257600080fd5b8151610d9181610db056fea2646970667358221220ff7d84a0db0122c26c74f42274443bc17de55ceee688c719e5ca2bf096c7243064736f6c63430008090033",
  "devdoc": {
    "kind": "dev",
    "methods": {
      "stageValidatorParams((address))": {
        "params": {
          "newParams": "Params to stage"
        }
      },
      "supportsInterface(bytes4)": {
        "details": "Returns true if this contract implements the interface defined by `interfaceId`. See the corresponding https://eips.ethereum.org/EIPS/eip-165#how-interfaces-are-identified[EIP section] to learn more about how these ids are created. This function call must use less than 30 000 gas."
      }
    },
    "version": 1
  },
  "userdoc": {
    "events": {
      "CommittedValidatorParams(address,address,(address))": {
        "notice": "Emitted when new params are staged for commit"
      },
      "StagedValidatorParams(address,address,(address),uint256)": {
        "notice": "Emitted when new params are staged for commit"
      }
    },
    "kind": "user",
    "methods": {
      "commitValidatorParams()": {
        "notice": "Commits staged params"
      },
      "stageValidatorParams((address))": {
        "notice": "Stages params that could have been committed after governance delay expires."
      },
      "stagedValidatorParams()": {
        "notice": "Validator params staged to commit."
      },
      "stagedValidatorParamsTimestamp()": {
        "notice": "Timestamp after which validator params can be committed."
      },
      "validatorParams()": {
        "notice": "Current validator params."
      }
    },
    "version": 1
  },
  "storageLayout": {
    "storage": [
      {
        "astId": 22051,
        "contract": "contracts/validators/UniV3Validator.sol:UniV3Validator",
        "label": "_validatorParams",
        "offset": 0,
        "slot": "0",
        "type": "t_struct(ValidatorParams)9305_storage"
      },
      {
        "astId": 22054,
        "contract": "contracts/validators/UniV3Validator.sol:UniV3Validator",
        "label": "_stagedValidatorParams",
        "offset": 0,
        "slot": "1",
        "type": "t_struct(ValidatorParams)9305_storage"
      },
      {
        "astId": 22056,
        "contract": "contracts/validators/UniV3Validator.sol:UniV3Validator",
        "label": "_stagedValidatorParamsTimestamp",
        "offset": 0,
        "slot": "2",
        "type": "t_uint256"
      }
    ],
    "types": {
      "t_contract(IProtocolGovernance)7075": {
        "encoding": "inplace",
        "label": "contract IProtocolGovernance",
        "numberOfBytes": "20"
      },
      "t_struct(ValidatorParams)9305_storage": {
        "encoding": "inplace",
        "label": "struct IBaseValidator.ValidatorParams",
        "members": [
          {
            "astId": 9304,
            "contract": "contracts/validators/UniV3Validator.sol:UniV3Validator",
            "label": "protocolGovernance",
            "offset": 0,
            "slot": "0",
            "type": "t_contract(IProtocolGovernance)7075"
          }
        ],
        "numberOfBytes": "32"
      },
      "t_uint256": {
        "encoding": "inplace",
        "label": "uint256",
        "numberOfBytes": "32"
      }
    }
  }
}