{
  "address": "0x50231ED5091B5E68e3c9eeE93264F3F9A9Cf1BF4",
  "abi": [
    {
      "inputs": [
        {
          "internalType": "contract IProtocolGovernance",
          "name": "protocolGovernance_",
          "type": "address"
        }
      ],
      "stateMutability": "nonpayable",
      "type": "constructor"
    },
    {
      "anonymous": false,
      "inputs": [
        {
          "indexed": true,
          "internalType": "address",
          "name": "origin",
          "type": "address"
        },
        {
          "indexed": true,
          "internalType": "address",
          "name": "sender",
          "type": "address"
        },
        {
          "components": [
            {
              "internalType": "contract IProtocolGovernance",
              "name": "protocolGovernance",
              "type": "address"
            }
          ],
          "indexed": false,
          "internalType": "struct IBaseValidator.ValidatorParams",
          "name": "params",
          "type": "tuple"
        }
      ],
      "name": "CommittedValidatorParams",
      "type": "event"
    },
    {
      "anonymous": false,
      "inputs": [
        {
          "indexed": true,
          "internalType": "address",
          "name": "origin",
          "type": "address"
        },
        {
          "indexed": true,
          "internalType": "address",
          "name": "sender",
          "type": "address"
        },
        {
          "components": [
            {
              "internalType": "contract IProtocolGovernance",
              "name": "protocolGovernance",
              "type": "address"
            }
          ],
          "indexed": false,
          "internalType": "struct IBaseValidator.ValidatorParams",
          "name": "newParams",
          "type": "tuple"
        },
        {
          "indexed": false,
          "internalType": "uint256",
          "name": "when",
          "type": "uint256"
        }
      ],
      "name": "StagedValidatorParams",
      "type": "event"
    },
    {
      "inputs": [],
      "name": "commitValidatorParams",
      "outputs": [],
      "stateMutability": "nonpayable",
      "type": "function"
    },
    {
      "inputs": [],
      "name": "contractName",
      "outputs": [
        {
          "internalType": "string",
          "name": "",
          "type": "string"
        }
      ],
      "stateMutability": "pure",
      "type": "function"
    },
    {
      "inputs": [],
      "name": "contractNameBytes",
      "outputs": [
        {
          "internalType": "bytes32",
          "name": "",
          "type": "bytes32"
        }
      ],
      "stateMutability": "pure",
      "type": "function"
    },
    {
      "inputs": [],
      "name": "contractVersion",
      "outputs": [
        {
          "internalType": "string",
          "name": "",
          "type": "string"
        }
      ],
      "stateMutability": "pure",
      "type": "function"
    },
    {
      "inputs": [],
      "name": "contractVersionBytes",
      "outputs": [
        {
          "internalType": "bytes32",
          "name": "",
          "type": "bytes32"
        }
      ],
      "stateMutability": "pure",
      "type": "function"
    },
    {
      "inputs": [
        {
          "components": [
            {
              "internalType": "contract IProtocolGovernance",
              "name": "protocolGovernance",
              "type": "address"
            }
          ],
          "internalType": "struct IBaseValidator.ValidatorParams",
          "name": "newParams",
          "type": "tuple"
        }
      ],
      "name": "stageValidatorParams",
      "outputs": [],
      "stateMutability": "nonpayable",
      "type": "function"
    },
    {
      "inputs": [],
      "name": "stagedValidatorParams",
      "outputs": [
        {
          "components": [
            {
              "internalType": "contract IProtocolGovernance",
              "name": "protocolGovernance",
              "type": "address"
            }
          ],
          "internalType": "struct IBaseValidator.ValidatorParams",
          "name": "",
          "type": "tuple"
        }
      ],
      "stateMutability": "view",
      "type": "function"
    },
    {
      "inputs": [],
      "name": "stagedValidatorParamsTimestamp",
      "outputs": [
        {
          "internalType": "uint256",
          "name": "",
          "type": "uint256"
        }
      ],
      "stateMutability": "view",
      "type": "function"
    },
    {
      "inputs": [
        {
          "internalType": "bytes4",
          "name": "interfaceId",
          "type": "bytes4"
        }
      ],
      "name": "supportsInterface",
      "outputs": [
        {
          "internalType": "bool",
          "name": "",
          "type": "bool"
        }
      ],
      "stateMutability": "view",
      "type": "function"
    },
    {
      "inputs": [
        {
          "internalType": "address",
          "name": "",
          "type": "address"
        },
        {
          "internalType": "address",
          "name": "",
          "type": "address"
        },
        {
          "internalType": "uint256",
          "name": "",
          "type": "uint256"
        },
        {
          "internalType": "bytes4",
          "name": "",
          "type": "bytes4"
        },
        {
          "internalType": "bytes",
          "name": "",
          "type": "bytes"
        }
      ],
      "name": "validate",
      "outputs": [],
      "stateMutability": "view",
      "type": "function"
    },
    {
      "inputs": [],
      "name": "validatorParams",
      "outputs": [
        {
          "components": [
            {
              "internalType": "contract IProtocolGovernance",
              "name": "protocolGovernance",
              "type": "address"
            }
          ],
          "internalType": "struct IBaseValidator.ValidatorParams",
          "name": "",
          "type": "tuple"
        }
      ],
      "stateMutability": "view",
      "type": "function"
    }
  ],
  "transactionHash": "0x86ea07839c1189935209e7c268246a474539d371bf3a73a8a8cb9fcf0106d774",
  "args": [
    "0xba78C2E8914074A87d32c41c6C49b8a924e60b6D"
  ],
  "solcInputHash": "1984535d51a55304aed3f058b4264cb9",
  "bytecode": "0x608060405234801561001057600080fd5b5060405161090838038061090883398101604081905261002f91610061565b60408051602081019091526001600160a01b0390911690819052600080546001600160a01b0319169091179055610091565b60006020828403121561007357600080fd5b81516001600160a01b038116811461008a57600080fd5b9392505050565b610868806100a06000396000f3fe608060405234801561001057600080fd5b50600436106100a95760003560e01c80634c39da1b116100715780634c39da1b1461012557806357acc302146101645780635e585c341461018e57806375d0c0dc146101a4578063a0a8e460146101b9578063e6ab042c146101c157600080fd5b806301ffc9a7146100ae57806306a46239146100d65780630768b496146100ee5780630e3e80ac146100f657806347c0a4ed14610110575b600080fd5b6100c16100bc3660046105ef565b6101c9565b60405190151581526020015b60405180910390f35b640312e302e360dc1b5b6040519081526020016100cd565b6002546100e0565b7020b63637bba0b6362b30b634b230ba37b960791b6100e0565b61012361011e366004610611565b610205565b005b6040805160208082018352600090915281519081019091526001546001600160a01b031681525b60405190516001600160a01b031681526020016100cd565b60408051602080820183526000918290528251908101909252546001600160a01b0316815261014c565b61012361019c366004610641565b505050505050565b6101ac610397565b6040516100cd91906106f2565b6101ac6103b6565b6101236103c9565b60006001600160e01b03198216631796170d60e21b14806101fa57506301ffc9a760e01b6001600160e01b03198316145b92915050565b905090565b600054604051630935e01b60e21b81523360048201526001600160a01b039091169081906324d7806c9060240160206040518083038186803b15801561024a57600080fd5b505afa15801561025e573d6000803e3d6000fd5b505050506040513d601f19601f820116820180604052508101906102829190610747565b6040518060400160405280600381526020016223292160e91b815250906102c55760405162461bcd60e51b81526004016102bc91906106f2565b60405180910390fd5b508160016102d38282610769565b905050806001600160a01b031663bba329396040518163ffffffff1660e01b815260040160206040518083038186803b15801561030f57600080fd5b505afa158015610323573d6000803e3d6000fd5b505050506040513d601f19601f820116820180604052508101906103479190610792565b61035190426107c1565b6002819055604051339132917f660ad6a797f71286627569396d4046567822701c6afd27f47d280dee5e2ce1819161038b918791906107d9565b60405180910390a35050565b60606102007020b63637bba0b6362b30b634b230ba37b960791b610566565b6060610200640312e302e360dc1b610566565b60025460408051808201909152600581526412539594d560da1b6020820152906104065760405162461bcd60e51b81526004016102bc91906106f2565b50600054604051630935e01b60e21b81523360048201526001600160a01b039091169081906324d7806c9060240160206040518083038186803b15801561044c57600080fd5b505afa158015610460573d6000803e3d6000fd5b505050506040513d601f19601f820116820180604052508101906104849190610747565b6040518060400160405280600381526020016223292160e91b815250906104be5760405162461bcd60e51b81526004016102bc91906106f2565b5060025442101560405180604001604052806002815260200161545360f01b815250906104fe5760405162461bcd60e51b81526004016102bc91906106f2565b5060018054600080546001600160a01b0383166001600160a01b0319918216811783559216909255600291909155604051908152339032907f15f858bb04b5aa79f0fafddd94b014ab8bf8ceae94724b7074c7b4940be688b49060200160405180910390a350565b604080516020808252818301909252606091602082018180368337019050509050602060005b60208110156105c4578381602081106105a7576105a7610801565b1a6105b4578091506105c4565b6105bd81610817565b905061058c565b508152602081019190915290565b80356001600160e01b0319811681146105ea57600080fd5b919050565b60006020828403121561060157600080fd5b61060a826105d2565b9392505050565b60006020828403121561062357600080fd5b50919050565b6001600160a01b038116811461063e57600080fd5b50565b60008060008060008060a0878903121561065a57600080fd5b863561066581610629565b9550602087013561067581610629565b94506040870135935061068a606088016105d2565b9250608087013567ffffffffffffffff808211156106a757600080fd5b818901915089601f8301126106bb57600080fd5b8135818111156106ca57600080fd5b8a60208285010111156106dc57600080fd5b6020830194508093505050509295509295509295565b600060208083528351808285015260005b8181101561071f57858101830151858201604001528201610703565b81811115610731576000604083870101525b50601f01601f1916929092016040019392505050565b60006020828403121561075957600080fd5b8151801515811461060a57600080fd5b813561077481610629565b81546001600160a01b0319166001600160a01b039190911617905550565b6000602082840312156107a457600080fd5b5051919050565b634e487b7160e01b600052601160045260246000fd5b600082198211156107d4576107d46107ab565b500190565b6040810183356107e881610629565b6001600160a01b03168252602090910191909152919050565b634e487b7160e01b600052603260045260246000fd5b600060001982141561082b5761082b6107ab565b506001019056fea26469706673582212209f2fb89b70988732285074c0bb132dd71d32968e906d8cc46bc8ed52718777c864736f6c63430008090033",
  "devdoc": {
    "kind": "dev",
    "methods": {
      "stageValidatorParams((address))": {
        "params": {
          "newParams": "Params to stage"
        }
      },
      "supportsInterface(bytes4)": {
        "details": "Returns true if this contract implements the interface defined by `interfaceId`. See the corresponding https://eips.ethereum.org/EIPS/eip-165#how-interfaces-are-identified[EIP section] to learn more about how these ids are created. This function call must use less than 30 000 gas."
      }
    },
    "version": 1
  },
  "userdoc": {
    "events": {
      "CommittedValidatorParams(address,address,(address))": {
        "notice": "Emitted when new params are staged for commit"
      },
      "StagedValidatorParams(address,address,(address),uint256)": {
        "notice": "Emitted when new params are staged for commit"
      }
    },
    "kind": "user",
    "methods": {
      "commitValidatorParams()": {
        "notice": "Commits staged params"
      },
      "stageValidatorParams((address))": {
        "notice": "Stages params that could have been committed after governance delay expires."
      },
      "stagedValidatorParams()": {
        "notice": "Validator params staged to commit."
      },
      "stagedValidatorParamsTimestamp()": {
        "notice": "Timestamp after which validator params can be committed."
      },
      "validatorParams()": {
        "notice": "Current validator params."
      }
    },
    "version": 1
  },
  "storageLayout": {
    "storage": [
      {
        "astId": 31542,
        "contract": "contracts/validators/AllowAllValidator.sol:AllowAllValidator",
        "label": "_validatorParams",
        "offset": 0,
        "slot": "0",
        "type": "t_struct(ValidatorParams)17215_storage"
      },
      {
        "astId": 31545,
        "contract": "contracts/validators/AllowAllValidator.sol:AllowAllValidator",
        "label": "_stagedValidatorParams",
        "offset": 0,
        "slot": "1",
        "type": "t_struct(ValidatorParams)17215_storage"
      },
      {
        "astId": 31547,
        "contract": "contracts/validators/AllowAllValidator.sol:AllowAllValidator",
        "label": "_stagedValidatorParamsTimestamp",
        "offset": 0,
        "slot": "2",
        "type": "t_uint256"
      }
    ],
    "types": {
      "t_contract(IProtocolGovernance)11058": {
        "encoding": "inplace",
        "label": "contract IProtocolGovernance",
        "numberOfBytes": "20"
      },
      "t_struct(ValidatorParams)17215_storage": {
        "encoding": "inplace",
        "label": "struct IBaseValidator.ValidatorParams",
        "members": [
          {
            "astId": 17214,
            "contract": "contracts/validators/AllowAllValidator.sol:AllowAllValidator",
            "label": "protocolGovernance",
            "offset": 0,
            "slot": "0",
            "type": "t_contract(IProtocolGovernance)11058"
          }
        ],
        "numberOfBytes": "32"
      },
      "t_uint256": {
        "encoding": "inplace",
        "label": "uint256",
        "numberOfBytes": "32"
      }
    }
  }
}