{
  "address": "0x4DCc9Ad7ff5964d13ee4A6932922f1a24f3f8e25",
  "abi": [
    {
      "inputs": [
        {
          "components": [
            {
              "internalType": "contract IProtocolGovernance",
              "name": "protocolGovernance",
              "type": "address"
            },
            {
              "internalType": "contract IVaultRegistry",
              "name": "registry",
              "type": "address"
            },
            {
              "internalType": "contract IVault",
              "name": "singleton",
              "type": "address"
            }
          ],
          "internalType": "struct IVaultGovernance.InternalParams",
          "name": "internalParams_",
          "type": "tuple"
        },
        {
          "components": [
            {
              "internalType": "uint256",
              "name": "managementFeeChargeDelay",
              "type": "uint256"
            },
            {
              "internalType": "contract IOracle",
              "name": "oracle",
              "type": "address"
            }
          ],
          "internalType": "struct IERC20RootVaultGovernance.DelayedProtocolParams",
          "name": "delayedProtocolParams_",
          "type": "tuple"
        },
        {
          "internalType": "contract IERC20RootVaultHelper",
          "name": "helper_",
          "type": "address"
        }
      ],
      "stateMutability": "nonpayable",
      "type": "constructor"
    },
    {
      "anonymous": false,
      "inputs": [
        {
          "indexed": true,
          "internalType": "address",
          "name": "origin",
          "type": "address"
        },
        {
          "indexed": true,
          "internalType": "address",
          "name": "sender",
          "type": "address"
        },
        {
          "components": [
            {
              "internalType": "uint256",
              "name": "managementFeeChargeDelay",
              "type": "uint256"
            },
            {
              "internalType": "contract IOracle",
              "name": "oracle",
              "type": "address"
            }
          ],
          "indexed": false,
          "internalType": "struct IERC20RootVaultGovernance.DelayedProtocolParams",
          "name": "params",
          "type": "tuple"
        }
      ],
      "name": "CommitDelayedProtocolParams",
      "type": "event"
    },
    {
      "anonymous": false,
      "inputs": [
        {
          "indexed": true,
          "internalType": "address",
          "name": "origin",
          "type": "address"
        },
        {
          "indexed": true,
          "internalType": "address",
          "name": "sender",
          "type": "address"
        },
        {
          "indexed": true,
          "internalType": "uint256",
          "name": "nft",
          "type": "uint256"
        },
        {
          "components": [
            {
              "internalType": "uint256",
              "name": "protocolFee",
              "type": "uint256"
            }
          ],
          "indexed": false,
          "internalType": "struct IERC20RootVaultGovernance.DelayedProtocolPerVaultParams",
          "name": "params",
          "type": "tuple"
        }
      ],
      "name": "CommitDelayedProtocolPerVaultParams",
      "type": "event"
    },
    {
      "anonymous": false,
      "inputs": [
        {
          "indexed": true,
          "internalType": "address",
          "name": "origin",
          "type": "address"
        },
        {
          "indexed": true,
          "internalType": "address",
          "name": "sender",
          "type": "address"
        },
        {
          "indexed": true,
          "internalType": "uint256",
          "name": "nft",
          "type": "uint256"
        },
        {
          "components": [
            {
              "internalType": "address",
              "name": "strategyTreasury",
              "type": "address"
            },
            {
              "internalType": "address",
              "name": "strategyPerformanceTreasury",
              "type": "address"
            },
            {
              "internalType": "bool",
              "name": "privateVault",
              "type": "bool"
            },
            {
              "internalType": "uint256",
              "name": "managementFee",
              "type": "uint256"
            },
            {
              "internalType": "uint256",
              "name": "performanceFee",
              "type": "uint256"
            },
            {
              "internalType": "address",
              "name": "depositCallbackAddress",
              "type": "address"
            },
            {
              "internalType": "address",
              "name": "withdrawCallbackAddress",
              "type": "address"
            }
          ],
          "indexed": false,
          "internalType": "struct IERC20RootVaultGovernance.DelayedStrategyParams",
          "name": "params",
          "type": "tuple"
        }
      ],
      "name": "CommitDelayedStrategyParams",
      "type": "event"
    },
    {
      "anonymous": false,
      "inputs": [
        {
          "indexed": true,
          "internalType": "address",
          "name": "origin",
          "type": "address"
        },
        {
          "indexed": true,
          "internalType": "address",
          "name": "sender",
          "type": "address"
        },
        {
          "components": [
            {
              "internalType": "contract IProtocolGovernance",
              "name": "protocolGovernance",
              "type": "address"
            },
            {
              "internalType": "contract IVaultRegistry",
              "name": "registry",
              "type": "address"
            },
            {
              "internalType": "contract IVault",
              "name": "singleton",
              "type": "address"
            }
          ],
          "indexed": false,
          "internalType": "struct IVaultGovernance.InternalParams",
          "name": "params",
          "type": "tuple"
        }
      ],
      "name": "CommitedInternalParams",
      "type": "event"
    },
    {
      "anonymous": false,
      "inputs": [
        {
          "indexed": true,
          "internalType": "address",
          "name": "origin",
          "type": "address"
        },
        {
          "indexed": true,
          "internalType": "address",
          "name": "sender",
          "type": "address"
        },
        {
          "indexed": false,
          "internalType": "address[]",
          "name": "vaultTokens",
          "type": "address[]"
        },
        {
          "indexed": false,
          "internalType": "bytes",
          "name": "options",
          "type": "bytes"
        },
        {
          "indexed": false,
          "internalType": "address",
          "name": "owner",
          "type": "address"
        },
        {
          "indexed": false,
          "internalType": "address",
          "name": "vaultAddress",
          "type": "address"
        },
        {
          "indexed": false,
          "internalType": "uint256",
          "name": "vaultNft",
          "type": "uint256"
        }
      ],
      "name": "DeployedVault",
      "type": "event"
    },
    {
      "anonymous": false,
      "inputs": [
        {
          "indexed": true,
          "internalType": "address",
          "name": "origin",
          "type": "address"
        },
        {
          "indexed": true,
          "internalType": "address",
          "name": "sender",
          "type": "address"
        },
        {
          "components": [
            {
              "internalType": "bool",
              "name": "disableDeposit",
              "type": "bool"
            }
          ],
          "indexed": false,
          "internalType": "struct IERC20RootVaultGovernance.OperatorParams",
          "name": "params",
          "type": "tuple"
        }
      ],
      "name": "SetOperatorParams",
      "type": "event"
    },
    {
      "anonymous": false,
      "inputs": [
        {
          "indexed": true,
          "internalType": "address",
          "name": "origin",
          "type": "address"
        },
        {
          "indexed": true,
          "internalType": "address",
          "name": "sender",
          "type": "address"
        },
        {
          "indexed": true,
          "internalType": "uint256",
          "name": "nft",
          "type": "uint256"
        },
        {
          "components": [
            {
              "internalType": "uint256",
              "name": "tokenLimitPerAddress",
              "type": "uint256"
            },
            {
              "internalType": "uint256",
              "name": "tokenLimit",
              "type": "uint256"
            }
          ],
          "indexed": false,
          "internalType": "struct IERC20RootVaultGovernance.StrategyParams",
          "name": "params",
          "type": "tuple"
        }
      ],
      "name": "SetStrategyParams",
      "type": "event"
    },
    {
      "anonymous": false,
      "inputs": [
        {
          "indexed": true,
          "internalType": "address",
          "name": "origin",
          "type": "address"
        },
        {
          "indexed": true,
          "internalType": "address",
          "name": "sender",
          "type": "address"
        },
        {
          "components": [
            {
              "internalType": "uint256",
              "name": "managementFeeChargeDelay",
              "type": "uint256"
            },
            {
              "internalType": "contract IOracle",
              "name": "oracle",
              "type": "address"
            }
          ],
          "indexed": false,
          "internalType": "struct IERC20RootVaultGovernance.DelayedProtocolParams",
          "name": "params",
          "type": "tuple"
        },
        {
          "indexed": false,
          "internalType": "uint256",
          "name": "when",
          "type": "uint256"
        }
      ],
      "name": "StageDelayedProtocolParams",
      "type": "event"
    },
    {
      "anonymous": false,
      "inputs": [
        {
          "indexed": true,
          "internalType": "address",
          "name": "origin",
          "type": "address"
        },
        {
          "indexed": true,
          "internalType": "address",
          "name": "sender",
          "type": "address"
        },
        {
          "indexed": true,
          "internalType": "uint256",
          "name": "nft",
          "type": "uint256"
        },
        {
          "components": [
            {
              "internalType": "uint256",
              "name": "protocolFee",
              "type": "uint256"
            }
          ],
          "indexed": false,
          "internalType": "struct IERC20RootVaultGovernance.DelayedProtocolPerVaultParams",
          "name": "params",
          "type": "tuple"
        },
        {
          "indexed": false,
          "internalType": "uint256",
          "name": "when",
          "type": "uint256"
        }
      ],
      "name": "StageDelayedProtocolPerVaultParams",
      "type": "event"
    },
    {
      "anonymous": false,
      "inputs": [
        {
          "indexed": true,
          "internalType": "address",
          "name": "origin",
          "type": "address"
        },
        {
          "indexed": true,
          "internalType": "address",
          "name": "sender",
          "type": "address"
        },
        {
          "indexed": true,
          "internalType": "uint256",
          "name": "nft",
          "type": "uint256"
        },
        {
          "components": [
            {
              "internalType": "address",
              "name": "strategyTreasury",
              "type": "address"
            },
            {
              "internalType": "address",
              "name": "strategyPerformanceTreasury",
              "type": "address"
            },
            {
              "internalType": "bool",
              "name": "privateVault",
              "type": "bool"
            },
            {
              "internalType": "uint256",
              "name": "managementFee",
              "type": "uint256"
            },
            {
              "internalType": "uint256",
              "name": "performanceFee",
              "type": "uint256"
            },
            {
              "internalType": "address",
              "name": "depositCallbackAddress",
              "type": "address"
            },
            {
              "internalType": "address",
              "name": "withdrawCallbackAddress",
              "type": "address"
            }
          ],
          "indexed": false,
          "internalType": "struct IERC20RootVaultGovernance.DelayedStrategyParams",
          "name": "params",
          "type": "tuple"
        },
        {
          "indexed": false,
          "internalType": "uint256",
          "name": "when",
          "type": "uint256"
        }
      ],
      "name": "StageDelayedStrategyParams",
      "type": "event"
    },
    {
      "anonymous": false,
      "inputs": [
        {
          "indexed": true,
          "internalType": "address",
          "name": "origin",
          "type": "address"
        },
        {
          "indexed": true,
          "internalType": "address",
          "name": "sender",
          "type": "address"
        },
        {
          "components": [
            {
              "internalType": "contract IProtocolGovernance",
              "name": "protocolGovernance",
              "type": "address"
            },
            {
              "internalType": "contract IVaultRegistry",
              "name": "registry",
              "type": "address"
            },
            {
              "internalType": "contract IVault",
              "name": "singleton",
              "type": "address"
            }
          ],
          "indexed": false,
          "internalType": "struct IVaultGovernance.InternalParams",
          "name": "params",
          "type": "tuple"
        },
        {
          "indexed": false,
          "internalType": "uint256",
          "name": "when",
          "type": "uint256"
        }
      ],
      "name": "StagedInternalParams",
      "type": "event"
    },
    {
      "inputs": [],
      "name": "MAX_MANAGEMENT_FEE",
      "outputs": [
        {
          "internalType": "uint256",
          "name": "",
          "type": "uint256"
        }
      ],
      "stateMutability": "view",
      "type": "function"
    },
    {
      "inputs": [],
      "name": "MAX_PERFORMANCE_FEE",
      "outputs": [
        {
          "internalType": "uint256",
          "name": "",
          "type": "uint256"
        }
      ],
      "stateMutability": "view",
      "type": "function"
    },
    {
      "inputs": [],
      "name": "MAX_PROTOCOL_FEE",
      "outputs": [
        {
          "internalType": "uint256",
          "name": "",
          "type": "uint256"
        }
      ],
      "stateMutability": "view",
      "type": "function"
    },
    {
      "inputs": [],
      "name": "commitDelayedProtocolParams",
      "outputs": [],
      "stateMutability": "nonpayable",
      "type": "function"
    },
    {
      "inputs": [
        {
          "internalType": "uint256",
          "name": "nft",
          "type": "uint256"
        }
      ],
      "name": "commitDelayedProtocolPerVaultParams",
      "outputs": [],
      "stateMutability": "nonpayable",
      "type": "function"
    },
    {
      "inputs": [
        {
          "internalType": "uint256",
          "name": "nft",
          "type": "uint256"
        }
      ],
      "name": "commitDelayedStrategyParams",
      "outputs": [],
      "stateMutability": "nonpayable",
      "type": "function"
    },
    {
      "inputs": [],
      "name": "commitInternalParams",
      "outputs": [],
      "stateMutability": "nonpayable",
      "type": "function"
    },
    {
      "inputs": [],
      "name": "contractName",
      "outputs": [
        {
          "internalType": "string",
          "name": "",
          "type": "string"
        }
      ],
      "stateMutability": "pure",
      "type": "function"
    },
    {
      "inputs": [],
      "name": "contractNameBytes",
      "outputs": [
        {
          "internalType": "bytes32",
          "name": "",
          "type": "bytes32"
        }
      ],
      "stateMutability": "pure",
      "type": "function"
    },
    {
      "inputs": [],
      "name": "contractVersion",
      "outputs": [
        {
          "internalType": "string",
          "name": "",
          "type": "string"
        }
      ],
      "stateMutability": "pure",
      "type": "function"
    },
    {
      "inputs": [],
      "name": "contractVersionBytes",
      "outputs": [
        {
          "internalType": "bytes32",
          "name": "",
          "type": "bytes32"
        }
      ],
      "stateMutability": "pure",
      "type": "function"
    },
    {
      "inputs": [
        {
          "internalType": "address[]",
          "name": "vaultTokens_",
          "type": "address[]"
        },
        {
          "internalType": "address",
          "name": "strategy_",
          "type": "address"
        },
        {
          "internalType": "uint256[]",
          "name": "subvaultNfts_",
          "type": "uint256[]"
        },
        {
          "internalType": "address",
          "name": "owner_",
          "type": "address"
        }
      ],
      "name": "createVault",
      "outputs": [
        {
          "internalType": "contract IERC20RootVault",
          "name": "vault",
          "type": "address"
        },
        {
          "internalType": "uint256",
          "name": "nft",
          "type": "uint256"
        }
      ],
      "stateMutability": "nonpayable",
      "type": "function"
    },
    {
      "inputs": [],
      "name": "delayedProtocolParams",
      "outputs": [
        {
          "components": [
            {
              "internalType": "uint256",
              "name": "managementFeeChargeDelay",
              "type": "uint256"
            },
            {
              "internalType": "contract IOracle",
              "name": "oracle",
              "type": "address"
            }
          ],
          "internalType": "struct IERC20RootVaultGovernance.DelayedProtocolParams",
          "name": "",
          "type": "tuple"
        }
      ],
      "stateMutability": "view",
      "type": "function"
    },
    {
      "inputs": [],
      "name": "delayedProtocolParamsTimestamp",
      "outputs": [
        {
          "internalType": "uint256",
          "name": "",
          "type": "uint256"
        }
      ],
      "stateMutability": "view",
      "type": "function"
    },
    {
      "inputs": [
        {
          "internalType": "uint256",
          "name": "nft",
          "type": "uint256"
        }
      ],
      "name": "delayedProtocolPerVaultParams",
      "outputs": [
        {
          "components": [
            {
              "internalType": "uint256",
              "name": "protocolFee",
              "type": "uint256"
            }
          ],
          "internalType": "struct IERC20RootVaultGovernance.DelayedProtocolPerVaultParams",
          "name": "",
          "type": "tuple"
        }
      ],
      "stateMutability": "view",
      "type": "function"
    },
    {
      "inputs": [
        {
          "internalType": "uint256",
          "name": "nft",
          "type": "uint256"
        }
      ],
      "name": "delayedProtocolPerVaultParamsTimestamp",
      "outputs": [
        {
          "internalType": "uint256",
          "name": "",
          "type": "uint256"
        }
      ],
      "stateMutability": "view",
      "type": "function"
    },
    {
      "inputs": [
        {
          "internalType": "uint256",
          "name": "nft",
          "type": "uint256"
        }
      ],
      "name": "delayedStrategyParams",
      "outputs": [
        {
          "components": [
            {
              "internalType": "address",
              "name": "strategyTreasury",
              "type": "address"
            },
            {
              "internalType": "address",
              "name": "strategyPerformanceTreasury",
              "type": "address"
            },
            {
              "internalType": "bool",
              "name": "privateVault",
              "type": "bool"
            },
            {
              "internalType": "uint256",
              "name": "managementFee",
              "type": "uint256"
            },
            {
              "internalType": "uint256",
              "name": "performanceFee",
              "type": "uint256"
            },
            {
              "internalType": "address",
              "name": "depositCallbackAddress",
              "type": "address"
            },
            {
              "internalType": "address",
              "name": "withdrawCallbackAddress",
              "type": "address"
            }
          ],
          "internalType": "struct IERC20RootVaultGovernance.DelayedStrategyParams",
          "name": "",
          "type": "tuple"
        }
      ],
      "stateMutability": "view",
      "type": "function"
    },
    {
      "inputs": [
        {
          "internalType": "uint256",
          "name": "nft",
          "type": "uint256"
        }
      ],
      "name": "delayedStrategyParamsTimestamp",
      "outputs": [
        {
          "internalType": "uint256",
          "name": "",
          "type": "uint256"
        }
      ],
      "stateMutability": "view",
      "type": "function"
    },
    {
      "inputs": [],
      "name": "helper",
      "outputs": [
        {
          "internalType": "contract IERC20RootVaultHelper",
          "name": "",
          "type": "address"
        }
      ],
      "stateMutability": "view",
      "type": "function"
    },
    {
      "inputs": [],
      "name": "internalParams",
      "outputs": [
        {
          "components": [
            {
              "internalType": "contract IProtocolGovernance",
              "name": "protocolGovernance",
              "type": "address"
            },
            {
              "internalType": "contract IVaultRegistry",
              "name": "registry",
              "type": "address"
            },
            {
              "internalType": "contract IVault",
              "name": "singleton",
              "type": "address"
            }
          ],
          "internalType": "struct IVaultGovernance.InternalParams",
          "name": "",
          "type": "tuple"
        }
      ],
      "stateMutability": "view",
      "type": "function"
    },
    {
      "inputs": [],
      "name": "internalParamsTimestamp",
      "outputs": [
        {
          "internalType": "uint256",
          "name": "",
          "type": "uint256"
        }
      ],
      "stateMutability": "view",
      "type": "function"
    },
    {
      "inputs": [],
      "name": "operatorParams",
      "outputs": [
        {
          "components": [
            {
              "internalType": "bool",
              "name": "disableDeposit",
              "type": "bool"
            }
          ],
          "internalType": "struct IERC20RootVaultGovernance.OperatorParams",
          "name": "",
          "type": "tuple"
        }
      ],
      "stateMutability": "view",
      "type": "function"
    },
    {
      "inputs": [
        {
          "components": [
            {
              "internalType": "bool",
              "name": "disableDeposit",
              "type": "bool"
            }
          ],
          "internalType": "struct IERC20RootVaultGovernance.OperatorParams",
          "name": "params",
          "type": "tuple"
        }
      ],
      "name": "setOperatorParams",
      "outputs": [],
      "stateMutability": "nonpayable",
      "type": "function"
    },
    {
      "inputs": [
        {
          "internalType": "uint256",
          "name": "nft",
          "type": "uint256"
        },
        {
          "components": [
            {
              "internalType": "uint256",
              "name": "tokenLimitPerAddress",
              "type": "uint256"
            },
            {
              "internalType": "uint256",
              "name": "tokenLimit",
              "type": "uint256"
            }
          ],
          "internalType": "struct IERC20RootVaultGovernance.StrategyParams",
          "name": "params",
          "type": "tuple"
        }
      ],
      "name": "setStrategyParams",
      "outputs": [],
      "stateMutability": "nonpayable",
      "type": "function"
    },
    {
      "inputs": [
        {
          "components": [
            {
              "internalType": "uint256",
              "name": "managementFeeChargeDelay",
              "type": "uint256"
            },
            {
              "internalType": "contract IOracle",
              "name": "oracle",
              "type": "address"
            }
          ],
          "internalType": "struct IERC20RootVaultGovernance.DelayedProtocolParams",
          "name": "params",
          "type": "tuple"
        }
      ],
      "name": "stageDelayedProtocolParams",
      "outputs": [],
      "stateMutability": "nonpayable",
      "type": "function"
    },
    {
      "inputs": [
        {
          "internalType": "uint256",
          "name": "nft",
          "type": "uint256"
        },
        {
          "components": [
            {
              "internalType": "uint256",
              "name": "protocolFee",
              "type": "uint256"
            }
          ],
          "internalType": "struct IERC20RootVaultGovernance.DelayedProtocolPerVaultParams",
          "name": "params",
          "type": "tuple"
        }
      ],
      "name": "stageDelayedProtocolPerVaultParams",
      "outputs": [],
      "stateMutability": "nonpayable",
      "type": "function"
    },
    {
      "inputs": [
        {
          "internalType": "uint256",
          "name": "nft",
          "type": "uint256"
        },
        {
          "components": [
            {
              "internalType": "address",
              "name": "strategyTreasury",
              "type": "address"
            },
            {
              "internalType": "address",
              "name": "strategyPerformanceTreasury",
              "type": "address"
            },
            {
              "internalType": "bool",
              "name": "privateVault",
              "type": "bool"
            },
            {
              "internalType": "uint256",
              "name": "managementFee",
              "type": "uint256"
            },
            {
              "internalType": "uint256",
              "name": "performanceFee",
              "type": "uint256"
            },
            {
              "internalType": "address",
              "name": "depositCallbackAddress",
              "type": "address"
            },
            {
              "internalType": "address",
              "name": "withdrawCallbackAddress",
              "type": "address"
            }
          ],
          "internalType": "struct IERC20RootVaultGovernance.DelayedStrategyParams",
          "name": "params",
          "type": "tuple"
        }
      ],
      "name": "stageDelayedStrategyParams",
      "outputs": [],
      "stateMutability": "nonpayable",
      "type": "function"
    },
    {
      "inputs": [
        {
          "components": [
            {
              "internalType": "contract IProtocolGovernance",
              "name": "protocolGovernance",
              "type": "address"
            },
            {
              "internalType": "contract IVaultRegistry",
              "name": "registry",
              "type": "address"
            },
            {
              "internalType": "contract IVault",
              "name": "singleton",
              "type": "address"
            }
          ],
          "internalType": "struct IVaultGovernance.InternalParams",
          "name": "newParams",
          "type": "tuple"
        }
      ],
      "name": "stageInternalParams",
      "outputs": [],
      "stateMutability": "nonpayable",
      "type": "function"
    },
    {
      "inputs": [],
      "name": "stagedDelayedProtocolParams",
      "outputs": [
        {
          "components": [
            {
              "internalType": "uint256",
              "name": "managementFeeChargeDelay",
              "type": "uint256"
            },
            {
              "internalType": "contract IOracle",
              "name": "oracle",
              "type": "address"
            }
          ],
          "internalType": "struct IERC20RootVaultGovernance.DelayedProtocolParams",
          "name": "",
          "type": "tuple"
        }
      ],
      "stateMutability": "view",
      "type": "function"
    },
    {
      "inputs": [
        {
          "internalType": "uint256",
          "name": "nft",
          "type": "uint256"
        }
      ],
      "name": "stagedDelayedProtocolPerVaultParams",
      "outputs": [
        {
          "components": [
            {
              "internalType": "uint256",
              "name": "protocolFee",
              "type": "uint256"
            }
          ],
          "internalType": "struct IERC20RootVaultGovernance.DelayedProtocolPerVaultParams",
          "name": "",
          "type": "tuple"
        }
      ],
      "stateMutability": "view",
      "type": "function"
    },
    {
      "inputs": [
        {
          "internalType": "uint256",
          "name": "nft",
          "type": "uint256"
        }
      ],
      "name": "stagedDelayedStrategyParams",
      "outputs": [
        {
          "components": [
            {
              "internalType": "address",
              "name": "strategyTreasury",
              "type": "address"
            },
            {
              "internalType": "address",
              "name": "strategyPerformanceTreasury",
              "type": "address"
            },
            {
              "internalType": "bool",
              "name": "privateVault",
              "type": "bool"
            },
            {
              "internalType": "uint256",
              "name": "managementFee",
              "type": "uint256"
            },
            {
              "internalType": "uint256",
              "name": "performanceFee",
              "type": "uint256"
            },
            {
              "internalType": "address",
              "name": "depositCallbackAddress",
              "type": "address"
            },
            {
              "internalType": "address",
              "name": "withdrawCallbackAddress",
              "type": "address"
            }
          ],
          "internalType": "struct IERC20RootVaultGovernance.DelayedStrategyParams",
          "name": "",
          "type": "tuple"
        }
      ],
      "stateMutability": "view",
      "type": "function"
    },
    {
      "inputs": [],
      "name": "stagedInternalParams",
      "outputs": [
        {
          "components": [
            {
              "internalType": "contract IProtocolGovernance",
              "name": "protocolGovernance",
              "type": "address"
            },
            {
              "internalType": "contract IVaultRegistry",
              "name": "registry",
              "type": "address"
            },
            {
              "internalType": "contract IVault",
              "name": "singleton",
              "type": "address"
            }
          ],
          "internalType": "struct IVaultGovernance.InternalParams",
          "name": "",
          "type": "tuple"
        }
      ],
      "stateMutability": "view",
      "type": "function"
    },
    {
      "inputs": [
        {
          "internalType": "uint256",
          "name": "nft",
          "type": "uint256"
        }
      ],
      "name": "strategyParams",
      "outputs": [
        {
          "components": [
            {
              "internalType": "uint256",
              "name": "tokenLimitPerAddress",
              "type": "uint256"
            },
            {
              "internalType": "uint256",
              "name": "tokenLimit",
              "type": "uint256"
            }
          ],
          "internalType": "struct IERC20RootVaultGovernance.StrategyParams",
          "name": "",
          "type": "tuple"
        }
      ],
      "stateMutability": "view",
      "type": "function"
    },
    {
      "inputs": [
        {
          "internalType": "bytes4",
          "name": "interfaceId",
          "type": "bytes4"
        }
      ],
      "name": "supportsInterface",
      "outputs": [
        {
          "internalType": "bool",
          "name": "",
          "type": "bool"
        }
      ],
      "stateMutability": "view",
      "type": "function"
    }
  ],
  "transactionHash": "0x548fd1453b3d957132aca4cf387b07cca79f5e0728f7d458f746e6c66baedbae",
  "args": [
    {
      "protocolGovernance": "0xba78C2E8914074A87d32c41c6C49b8a924e60b6D",
      "registry": "0x43EBC6D7505d0225992445351d2eEAF9B53bC1A2",
      "singleton": "0x7409e2E91EDa166a2E793E143E0892F3F55d3445"
    },
    {
      "managementFeeChargeDelay": 86400,
      "oracle": "0xe52C64B3C782F02bD1AFF33027C899132ECa7345"
    },
    "0x3C4761f50ebE47269701Bc04517F8ab39F195A42"
  ],
  "solcInputHash": "1984535d51a55304aed3f058b4264cb9",
  "bytecode": "0x60a06040523480156200001157600080fd5b506040516200382238038062003822833981016040819052620000349162000379565b825160408051808201909152600281526120ad60f11b602082015284916001600160a01b0316620000835760405162461bcd60e51b81526004016200007a91906200043a565b60405180910390fd5b5060006001600160a01b031681602001516001600160a01b031614156040518060400160405280600281526020016120ad60f11b81525090620000db5760405162461bcd60e51b81526004016200007a91906200043a565b506040808201518151808301909252600282526120ad60f11b60208301526001600160a01b0316620001225760405162461bcd60e51b81526004016200007a91906200043a565b508051600080546001600160a01b03199081166001600160a01b0393841617909155602080840151600180548416918516919091179055604093840151600280549093169084161782558581015184518086019095529184526120ad60f11b9084015216620001a65760405162461bcd60e51b81526004016200007a91906200043a565b5060408051808201909152600281526120ad60f11b60208201526001600160a01b038216620001ea5760405162461bcd60e51b81526004016200007a91906200043a565b506001600160a01b038181166080526040805184516020808301919091528086015190931681830152815180820383018152606090910190915280516200023692600d92019062000240565b50505050620004cf565b8280546200024e9062000492565b90600052602060002090601f016020900481019282620002725760008555620002bd565b82601f106200028d57805160ff1916838001178555620002bd565b82800160010185558215620002bd579182015b82811115620002bd578251825591602001919060010190620002a0565b50620002cb929150620002cf565b5090565b5b80821115620002cb5760008155600101620002d0565b604051606081016001600160401b03811182821017156200031757634e487b7160e01b600052604160045260246000fd5b60405290565b604080519081016001600160401b03811182821017156200031757634e487b7160e01b600052604160045260246000fd5b6001600160a01b03811681146200036457600080fd5b50565b805162000374816200034e565b919050565b600080600083850360c08112156200039057600080fd5b60608112156200039f57600080fd5b620003a9620002e6565b8551620003b6816200034e565b81526020860151620003c8816200034e565b60208201526040860151620003dd816200034e565b604082810191909152909450605f1982011215620003fa57600080fd5b50620004056200031d565b6060850151815260808501516200041c816200034e565b602082015291506200043160a0850162000367565b90509250925092565b600060208083528351808285015260005b8181101562000469578581018301518582016040015282016200044b565b818111156200047c576000604083870101525b50601f01601f1916929092016040019392505050565b600181811c90821680620004a757607f821691505b60208210811415620004c957634e487b7160e01b600052602260045260246000fd5b50919050565b608051613330620004f2600039600081816103480152611abe01526133306000f3fe608060405234801561001057600080fd5b50600436106102065760003560e01c80638860d2481161011a578063c2cbdc67116100ad578063db2030aa1161007c578063db2030aa14610532578063dbb1c35f1461054b578063e4af6e791461055e578063ee2d59f414610566578063f699a6071461057957600080fd5b8063c2cbdc67146104e3578063c8e8a7661461050f578063d34cc38014610522578063d4a07d341461052a57600080fd5b8063a0a8e460116100e9578063a0a8e460146104b2578063afd2c7e9146104ba578063b8ca3b83146104cd578063bdca9165146104d857600080fd5b80638860d2481461046a5780638e207dda1461047d57806398347a5d1461049f5780639908840c146104a757600080fd5b80633d8c08b91161019d57806363b0e66a1161016c57806363b0e66a146103435780636707acee1461038257806375d0c0dc146103a25780637ac46fbb146103b757806386c6be3e1461041757600080fd5b80633d8c08b9146102dd578063511ce798146102f057806359331d781461031057806359f3dae71461032357600080fd5b80630e3e80ac116101d95780630e3e80ac1461027357806312466b68146102945780631c7f4c73146102c2578063221cc263146102ca57600080fd5b806301ffc9a71461020b57806306a4623914610233578063099465381461024b5780630bdedd5614610260575b600080fd5b61021e6102193660046128f8565b6105ab565b60405190151581526020015b60405180910390f35b640312e302e360dc1b5b60405190815260200161022a565b61025e6102593660046129d1565b6105dc565b005b61025e61026e366004612a43565b6107ce565b774552433230526f6f745661756c74476f7665726e616e636560401b61023d565b6102a76102a2366004612a43565b6108c1565b6040805182518152602092830151928101929092520161022a565b60065461023d565b61025e6102d8366004612a5c565b6109b9565b61025e6102eb366004612aad565b610abe565b61023d6102fe366004612a43565b6000908152600c602052604090205490565b61025e61031e366004612adb565b610b75565b610336610331366004612a43565b610c2e565b60405161022a9190612b08565b61036a7f000000000000000000000000000000000000000000000000000000000000000081565b6040516001600160a01b03909116815260200161022a565b61023d610390366004612a43565b60009081526009602052604090205490565b6103aa610d70565b60405161022a9190612b63565b61040a604080516060810182526000808252602082018190529181019190915250604080516060810182526000546001600160a01b03908116825260015481166020830152600254169181019190915290565b60405161022a9190612bb8565b61040a604080516060810182526000808252602082018190529181019190915250604080516060810182526003546001600160a01b03908116825260045481166020830152600554169181019190915290565b610336610478366004612a43565b610d96565b61049061048b366004612a43565b610e47565b6040519051815260200161022a565b61025e610f35565b61023d6305f5e10081565b6103aa61103a565b61025e6104c8366004612be8565b61104d565b61023d6302faf08081565b61023d631dcd650081565b6104eb6110c8565b60408051825181526020928301516001600160a01b0316928101929092520161022a565b61025e61051d366004612c0c565b6111a7565b6104eb611203565b61025e611224565b61053a611349565b60405190511515815260200161022a565b610490610559366004612a43565b61141e565b600f5461023d565b61025e610574366004612a43565b61147b565b61058c610587366004612cc7565b611565565b604080516001600160a01b03909316835260208301919091520161022a565b60006105b682611b23565b806105d157506306a2c33360e41b6001600160e01b03198316145b92915050565b905090565b6105e4611b59565b805160408051808201909152600281526120ad60f11b6020820152906001600160a01b031661062f5760405162461bcd60e51b81526004016106269190612b63565b60405180910390fd5b5060006001600160a01b031681602001516001600160a01b031614156040518060400160405280600281526020016120ad60f11b815250906106845760405162461bcd60e51b81526004016106269190612b63565b506040808201518151808301909252600282526120ad60f11b60208301526001600160a01b03166106c85760405162461bcd60e51b81526004016106269190612b63565b508051600380546001600160a01b03199081166001600160a01b03938416179091556020808401516004805484169185169190911781556040808601516005805490951690861617909355600054835163bba3293960e01b8152935194169363bba3293993808301939290829003018186803b15801561074757600080fd5b505afa15801561075b573d6000803e3d6000fd5b505050506040513d601f19601f8201168201806040525081019061077f9190612dad565b6107899042612ddc565b6006819055604051339132917f0887cab3184f7c02b16978ab31f8acee05979f59fc3da6abe5bf71105ec3179d916107c391869190612df4565b60405180910390a350565b6107d781611c11565b600081815260076020526040902080548291339132917fece5c2f5548f6b356ee66c404a736c4a1393d2d7f339f1b11325ccf9ed7da3bb9161081890612e31565b80601f016020809104026020016040519081016040528092919081815260200182805461084490612e31565b80156108915780601f1061086657610100808354040283529160200191610891565b820191906000526020600020905b81548152906001019060200180831161087457829003601f168201915b50505050508060200190518101906108a99190612e7f565b6040516108b69190612b08565b60405180910390a450565b6040805180820190915260008082526020820152600082815260106020526040902080546108ee90612e31565b1515905061090f575050604080518082019091526000808252602082015290565b6000828152601060205260409020805461092890612e31565b80601f016020809104026020016040519081016040528092919081815260200182805461095490612e31565b80156109a15780601f10610976576101008083540402835291602001916109a1565b820191906000526020600020905b81548152906001019060200180831161098457829003601f168201915b50505050508060200190518101906105d19190612f2b565b6040805180820190915260048152634c494d4f60e01b60208201526305f5e100606083013511156109fd5760405162461bcd60e51b81526004016106269190612b63565b506040805180820190915260048152634c494d4f60e01b6020820152631dcd650060808301351115610a425760405162461bcd60e51b81526004016106269190612b63565b50610a6c8282604051602001610a589190612fec565b604051602081830303815290604052611d02565b600082815260096020526040908190205490518391339132917f92bc1d5a0a50d53c2c8b67ee363258770588cb71b912dc79c9193e57a3559cef91610ab2918791612ffa565b60405180910390a45050565b6000610ad06040830160208401613016565b6001600160a01b031614156040518060400160405280600281526020016120ad60f11b81525090610b145760405162461bcd60e51b81526004016106269190612b63565b50610b3d81604051602001610b29919061305b565b604051602081830303815290604052611e0e565b600f54604051339132917f5893284b3bc8dc03f4a5b1fc07b4ffa5a43c8db93e0d265da78879b701c9352c916107c391869190613069565b6040805180820190915260048152634c494d4f60e01b60208201526302faf08082351115610bb65760405162461bcd60e51b81526004016106269190612b63565b50610be38282604051602001610bcf9135815260200190565b604051602081830303815290604052611ee9565b60008281526009602090815260409182902054825184358152918201528391339132917fcd7599c34365da52fcd641b487f51044152e43bf05893c1ef6d2a2259de7252a9101610ab2565b6040805160e081018252600080825260208201819052918101829052606081018290526080810182905260a0810182905260c081019190915260008281526008602052604090208054610c8090612e31565b15159050610cc65750506040805160e081018252600080825260208201819052918101829052606081018290526080810182905260a0810182905260c081019190915290565b60008281526008602052604090208054610cdf90612e31565b80601f0160208091040260200160405190810160405280929190818152602001828054610d0b90612e31565b8015610d585780601f10610d2d57610100808354040283529160200191610d58565b820191906000526020600020905b815481529060010190602001808311610d3b57829003601f168201915b50505050508060200190518101906105d19190612e7f565b60606105d7774552433230526f6f745661756c74476f7665726e616e636560401b611ff4565b6040805160e081018252600080825260208201819052918101829052606081018290526080810182905260a0810182905260c081019190915260008281526007602052604090208054610de890612e31565b15159050610e2e5750506040805160e081018252600080825260208201819052918101829052606081018290526080810182905260a0810182905260c081019190915290565b60008281526007602052604090208054610cdf90612e31565b6040805160208101909152600081526000828152600b602052604090208054610e6f90612e31565b15159050610e8b57505060408051602081019091526000815290565b6000828152600b602052604090208054610ea490612e31565b80601f0160208091040260200160405190810160405280929190818152602001828054610ed090612e31565b8015610f1d5780601f10610ef257610100808354040283529160200191610f1d565b820191906000526020600020905b815481529060010190602001808311610f0057829003601f168201915b50505050508060200190518101906105d19190613084565b610f3d612060565b336001600160a01b0316326001600160a01b03167f862320404e037e2174ac01f6e43fc8b06acda312b671b182dcbe75b50ebd8552600d8054610f7f90612e31565b80601f0160208091040260200160405190810160405280929190818152602001828054610fab90612e31565b8015610ff85780601f10610fcd57610100808354040283529160200191610ff8565b820191906000526020600020905b815481529060010190602001808311610fdb57829003601f168201915b505050505080602001905181019061101091906130a8565b60408051825181526020928301516001600160a01b031692810192909252015b60405180910390a3565b60606105d7640312e302e360dc1b611ff4565b61108882826040516020016110749190813581526020918201359181019190915260400190565b604051602081830303815290604052612114565b6040805182358152602080840135908201528391339132917f0b53196f4acc3a02d05123ed8bfe722836dbafff5ca4ce33e7e974117cfb72509101610ab2565b6040805180820190915260008082526020820152600e80546110e990612e31565b151590506111095750604080518082019091526000808252602082015290565b600e805461111690612e31565b80601f016020809104026020016040519081016040528092919081815260200182805461114290612e31565b801561118f5780601f106111645761010080835404028352916020019161118f565b820191906000526020600020905b81548152906001019060200180831161117257829003601f168201915b50505050508060200190518101906105d791906130a8565b6111cf816040516020016111bb91906130e0565b604051602081830303815290604052612141565b604051339032907f87b5b7afdaff1296d279be13a11697acc1b85af123290db06b274bd3823e3c8b906107c39085906130e0565b6040805180820190915260008082526020820152600d805461111690612e31565b61122c611b59565b6006546040805180820190915260048152631395531360e21b6020820152906112685760405162461bcd60e51b81526004016106269190612b63565b5060065442101560405180604001604052806002815260200161545360f01b815250906112a85760405162461bcd60e51b81526004016106269190612b63565b5060038054600080546001600160a01b038084166001600160a01b03199283168117845560048054600180548286169087168117909155600580546002805497821697891688179055600698909855978616909855841690559290911690925560408051918252602082019390935291820152339032907fef3e4bc9725fa684957d7de03c6dcd01078ee86cf78ceef25c5f8346df69cc9990606001611030565b6040805160208101909152600081526012805461136590612e31565b15159050611380575060408051602081019091526000815290565b6012805461138d90612e31565b80601f01602080910402602001604051908101604052809291908181526020018280546113b990612e31565b80156114065780601f106113db57610100808354040283529160200191611406565b820191906000526020600020905b8154815290600101906020018083116113e957829003601f168201915b50505050508060200190518101906105d791906130f9565b6040805160208101909152600081526000828152600a60205260409020805461144690612e31565b1515905061146257505060408051602081019091526000815290565b6000828152600a602052604090208054610ea490612e31565b61148481612160565b6000818152600a6020526040902080548291339132917f813fb1cc9255f5a8d21316ecd3e0cc533da05634409ca6b43f4db5ee1cc4cdf8916114c590612e31565b80601f01602080910402602001604051908101604052809291908181526020018280546114f190612e31565b801561153e5780601f106115135761010080835404028352916020019161153e565b820191906000526020600020905b81548152906001019060200180831161152157829003601f168201915b50505050508060200190518101906115569190613084565b604051905181526020016108b6565b600154600090819081906001600160a01b031661158185612250565b87516040805180820190915260048152631153541360e21b60208201529296509094508593506115c45760405162461bcd60e51b81526004016106269190612b63565b5060005b8651811015611a915760008782815181106115e5576115e5613127565b6020026020010151905060008111604051806040016040528060028152602001612b2d60f11b8152509061162c5760405162461bcd60e51b81526004016106269190612b63565b50604051639c94d85360e01b8152600481018290526000906001600160a01b03851690639c94d8539060240160206040518083038186803b15801561167057600080fd5b505afa158015611684573d6000803e3d6000fd5b505050506040513d601f19601f820116820180604052508101906116a8919061313d565b60408051808201909152600281526120ad60f11b60208201529091506001600160a01b0382166116eb5760405162461bcd60e51b81526004016106269190612b63565b506040516301ffc9a760e01b8152633d31d51d60e11b60048201526001600160a01b038216906301ffc9a79060240160206040518083038186803b15801561173257600080fd5b505afa158015611746573d6000803e3d6000fd5b505050506040513d601f19601f8201168201806040525081019061176a919061315a565b60405180604001604052806004815260200163494e564960e01b815250906117a55760405162461bcd60e51b81526004016106269190612b63565b506000816001600160a01b031663697222336040518163ffffffff1660e01b815260040160006040518083038186803b1580156117e157600080fd5b505afa1580156117f5573d6000803e3d6000fd5b505050506040513d6000823e601f3d908101601f1916820160405261181d9190810190613177565b9050836119205780518c5114604051806040016040528060048152602001631253959360e21b815250906118645760405162461bcd60e51b81526004016106269190612b63565b506040516301ffc9a760e01b8152632a482de360e21b60048201526001600160a01b038316906301ffc9a79060240160206040518083038186803b1580156118ab57600080fd5b505afa1580156118bf573d6000803e3d6000fd5b505050506040513d601f19601f820116820180604052508101906118e3919061315a565b60405180604001604052806004815260200163494e564960e01b8152509061191e5760405162461bcd60e51b81526004016106269190612b63565b505b6000805b8d51811080156119345750825182105b156119a3578d818151811061194b5761194b613127565b60200260200101516001600160a01b031683838151811061196e5761196e613127565b60200260200101516001600160a01b03161415611993578161198f81613211565b9250505b61199c81613211565b9050611924565b508151811460405180604001604052806005815260200164494e56544f60d81b815250906119e45760405162461bcd60e51b81526004016106269190612b63565b50856001600160a01b03166323b872dd33898e8981518110611a0857611a08613127565b60209081029190910101516040516001600160e01b031960e086901b1681526001600160a01b0393841660048201529290911660248301526044820152606401600060405180830381600087803b158015611a6257600080fd5b505af1158015611a76573d6000803e3d6000fd5b50505050505050508080611a8990613211565b9150506115c8565b50604051631a9caa0160e21b81526001600160a01b03851690636a72a80490611ae69086908c908c908c907f00000000000000000000000000000000000000000000000000000000000000009060040161322c565b600060405180830381600087803b158015611b0057600080fd5b505af1158015611b14573d6000803e3d6000fd5b50505050505094509492505050565b60006301ffc9a760e01b6001600160e01b0319831614806105d157506001600160e01b0319821663effda0f560e01b1492915050565b600054604051630935e01b60e21b81523360048201526001600160a01b03909116906324d7806c9060240160206040518083038186803b158015611b9c57600080fd5b505afa158015611bb0573d6000803e3d6000fd5b505050506040513d601f19601f82011682018060405250810190611bd4919061315a565b6040518060400160405280600381526020016223292160e91b81525090611c0e5760405162461bcd60e51b81526004016106269190612b63565b50565b611c1a81612441565b60008181526009602090815260409182902054825180840190935260048352631395531360e21b918301919091529081611c675760405162461bcd60e51b81526004016106269190612b63565b508042101560405180604001604052806002815260200161545360f01b81525090611ca55760405162461bcd60e51b81526004016106269190612b63565b50600082815260086020908152604080832060079092529091208154909190611ccd90612e31565b611cd89291906127aa565b506000828152600860205260408120611cf091612835565b50600090815260096020526040812055565b611d0b82612441565b60008281526008602090815260409091208251611d2a9284019061286f565b5060008281526007602052604081208054611d4490612e31565b159050611d52576001611d55565b60005b60ff169050806000800160009054906101000a90046001600160a01b03166001600160a01b031663bba329396040518163ffffffff1660e01b815260040160206040518083038186803b158015611dab57600080fd5b505afa158015611dbf573d6000803e3d6000fd5b505050506040513d601f19601f82011682018060405250810190611de39190612dad565b611ded91906132db565b611df79042612ddc565b600093845260096020526040909320929092555050565b611e16611b59565b6000600d8054611e2590612e31565b159050611e33576001611e36565b60005b60ff16905081600e9080519060200190611e5192919061286f565b506000546040805163bba3293960e01b8152905183926001600160a01b03169163bba32939916004808301926020929190829003018186803b158015611e9657600080fd5b505afa158015611eaa573d6000803e3d6000fd5b505050506040513d601f19601f82011682018060405250810190611ece9190612dad565b611ed891906132db565b611ee29042612ddc565b600f555050565b611ef1611b59565b6000828152600b602090815260409091208251611f109284019061286f565b506000828152600a602052604081208054611f2a90612e31565b159050611f38576001611f3b565b60005b60ff169050806000800160009054906101000a90046001600160a01b03166001600160a01b031663bba329396040518163ffffffff1660e01b815260040160206040518083038186803b158015611f9157600080fd5b505afa158015611fa5573d6000803e3d6000fd5b505050506040513d601f19601f82011682018060405250810190611fc99190612dad565b611fd391906132db565b611fdd9042612ddc565b6000938452600c6020526040909320929092555050565b604080516020808252818301909252606091602082018180368337019050509050602060005b60208110156120525783816020811061203557612035613127565b1a61204257809150612052565b61204b81613211565b905061201a565b508152602081019190915290565b612068611b59565b600f546040805180820190915260048152631395531360e21b6020820152906120a45760405162461bcd60e51b81526004016106269190612b63565b50600f5442101560405180604001604052806002815260200161545360f01b815250906120e45760405162461bcd60e51b81526004016106269190612b63565b50600e600d9080546120f590612e31565b6121009291906127aa565b5061210d600e6000612835565b6000600f55565b61211d82612441565b6000828152601060209081526040909120825161213c9284019061286f565b505050565b612149612610565b805161215c90601290602084019061286f565b5050565b612168611b59565b6000818152600c602090815260409182902054825180840190935260048352631395531360e21b9183019190915290816121b55760405162461bcd60e51b81526004016106269190612b63565b508042101560405180604001604052806002815260200161545360f01b815250906121f35760405162461bcd60e51b81526004016106269190612b63565b506000828152600b60209081526040808320600a909252909120815490919061221b90612e31565b6122269291906127aa565b506000828152600b6020526040812061223e91612835565b506000908152600c6020526040812055565b600080546040516363e85d2d60e01b81523360048201526001602482015282916001600160a01b03169081906363e85d2d9060440160206040518083038186803b15801561229d57600080fd5b505afa1580156122b1573d6000803e3d6000fd5b505050506040513d601f19601f820116820180604052508101906122d5919061315a565b6040518060400160405280600381526020016223292160e91b8152509061230f5760405162461bcd60e51b81526004016106269190612b63565b5060015460408051631112eee760e31b815290516001600160a01b039092169182916388977738916004808301926020929190829003018186803b15801561235657600080fd5b505afa15801561236a573d6000803e3d6000fd5b505050506040513d601f19601f8201168201806040525081019061238e9190612dad565b612399906001612ddc565b6002549093506123b2906001600160a01b03168461270a565b6040516305c4fdf960e01b81526001600160a01b0380831660048301528781166024830152919550908216906305c4fdf990604401602060405180830381600087803b15801561240157600080fd5b505af1158015612415573d6000803e3d6000fd5b505050506040513d601f19601f820116820180604052508101906124399190612dad565b505050915091565b600054604051630935e01b60e21b81523360048201526001600160a01b03909116906324d7806c9060240160206040518083038186803b15801561248457600080fd5b505afa158015612498573d6000803e3d6000fd5b505050506040513d601f19601f820116820180604052508101906124bc919061315a565b80612549575060015460405163020604bf60e21b81526004810183905233916001600160a01b03169063081812fc9060240160206040518083038186803b15801561250657600080fd5b505afa15801561251a573d6000803e3d6000fd5b505050506040513d601f19601f8201168201806040525081019061253e919061313d565b6001600160a01b0316145b806125d657506001546040516331a9108f60e11b81526004810183905233916001600160a01b031690636352211e9060240160206040518083038186803b15801561259357600080fd5b505afa1580156125a7573d6000803e3d6000fd5b505050506040513d601f19601f820116820180604052508101906125cb919061313d565b6001600160a01b0316145b6040518060400160405280600381526020016223292160e91b8152509061215c5760405162461bcd60e51b81526004016106269190612b63565b600054604051630935e01b60e21b81523360048201526001600160a01b039091169081906324d7806c9060240160206040518083038186803b15801561265557600080fd5b505afa158015612669573d6000803e3d6000fd5b505050506040513d601f19601f8201168201806040525081019061268d919061315a565b806125d657506040516336b87bd760e11b81523360048201526001600160a01b03821690636d70f7ae9060240160206040518083038186803b1580156126d257600080fd5b505afa1580156126e6573d6000803e3d6000fd5b505050506040513d601f19601f820116820180604052508101906125d6919061315a565b6000604051733d602d80600a3d3981f3363d3d373d3d3d363d7360601b81528360601b60148201526e5af43d82803e903d91602b57fd5bf360881b6028820152826037826000f59150506001600160a01b0381166105d15760405162461bcd60e51b815260206004820152601760248201527f455243313136373a2063726561746532206661696c65640000000000000000006044820152606401610626565b8280546127b690612e31565b90600052602060002090601f0160209004810192826127d85760008555612825565b82601f106127e95780548555612825565b8280016001018555821561282557600052602060002091601f016020900482015b8281111561282557825482559160010191906001019061280a565b506128319291506128e3565b5090565b50805461284190612e31565b6000825580601f10612851575050565b601f016020900490600052602060002090810190611c0e91906128e3565b82805461287b90612e31565b90600052602060002090601f01602090048101928261289d5760008555612825565b82601f106128b657805160ff1916838001178555612825565b82800160010185558215612825579182015b828111156128255782518255916020019190600101906128c8565b5b8082111561283157600081556001016128e4565b60006020828403121561290a57600080fd5b81356001600160e01b03198116811461292257600080fd5b9392505050565b634e487b7160e01b600052604160045260246000fd5b6040805190810167ffffffffffffffff8111828210171561296257612962612929565b60405290565b6040516020810167ffffffffffffffff8111828210171561296257612962612929565b604051601f8201601f1916810167ffffffffffffffff811182821017156129b4576129b4612929565b604052919050565b6001600160a01b0381168114611c0e57600080fd5b6000606082840312156129e357600080fd5b6040516060810181811067ffffffffffffffff82111715612a0657612a06612929565b6040528235612a14816129bc565b81526020830135612a24816129bc565b60208201526040830135612a37816129bc565b60408201529392505050565b600060208284031215612a5557600080fd5b5035919050565b600080828403610100811215612a7157600080fd5b8335925060e0601f1982011215612a8757600080fd5b506020830190509250929050565b600060408284031215612aa757600080fd5b50919050565b600060408284031215612abf57600080fd5b6129228383612a95565b600060208284031215612aa757600080fd5b60008060408385031215612aee57600080fd5b82359150612aff8460208501612ac9565b90509250929050565b81516001600160a01b039081168252602080840151821690830152604080840151151590830152606080840151908301526080808401519083015260a08381015182169083015260c092830151169181019190915260e00190565b600060208083528351808285015260005b81811015612b9057858101830151858201604001528201612b74565b81811115612ba2576000604083870101525b50601f01601f1916929092016040019392505050565b606081016105d1828480516001600160a01b03908116835260208083015182169084015260409182015116910152565b60008060608385031215612bfb57600080fd5b82359150612aff8460208501612a95565b600060208284031215612c1e57600080fd5b6129228383612ac9565b600067ffffffffffffffff821115612c4257612c42612929565b5060051b60200190565b8035612c57816129bc565b919050565b600082601f830112612c6d57600080fd5b81356020612c82612c7d83612c28565b61298b565b82815260059290921b84018101918181019086841115612ca157600080fd5b8286015b84811015612cbc5780358352918301918301612ca5565b509695505050505050565b60008060008060808587031215612cdd57600080fd5b843567ffffffffffffffff80821115612cf557600080fd5b818701915087601f830112612d0957600080fd5b81356020612d19612c7d83612c28565b82815260059290921b8401810191818101908b841115612d3857600080fd5b948201945b83861015612d5f578535612d50816129bc565b82529482019490820190612d3d565b9850612d6e9050898201612c4c565b965050506040870135915080821115612d8657600080fd5b50612d9387828801612c5c565b925050612da260608601612c4c565b905092959194509250565b600060208284031215612dbf57600080fd5b5051919050565b634e487b7160e01b600052601160045260246000fd5b60008219821115612def57612def612dc6565b500190565b60808101612e24828580516001600160a01b03908116835260208083015182169084015260409182015116910152565b8260608301529392505050565b600181811c90821680612e4557607f821691505b60208210811415612aa757634e487b7160e01b600052602260045260246000fd5b8051612c57816129bc565b8015158114611c0e57600080fd5b600060e08284031215612e9157600080fd5b60405160e0810181811067ffffffffffffffff82111715612eb457612eb4612929565b6040528251612ec2816129bc565b81526020830151612ed2816129bc565b60208201526040830151612ee581612e71565b80604083015250606083015160608201526080830151608082015260a0830151612f0e816129bc565b60a0820152612f1f60c08401612e66565b60c08201529392505050565b600060408284031215612f3d57600080fd5b612f4561293f565b82518152602083015160208201528091505092915050565b8035612f68816129bc565b6001600160a01b039081168352602082013590612f84826129bc565b9081166020840152604082013590612f9b82612e71565b8115156040850152606083013560608501526080830135608085015260a08301359150612fc7826129bc565b90811660a084015260c082013590612fde826129bc565b80821660c085015250505050565b60e081016105d18284612f5d565b61010081016130098285612f5d565b8260e08301529392505050565b60006020828403121561302857600080fd5b8135612922816129bc565b803582526020810135613045816129bc565b6001600160a01b03166020929092019190915250565b604081016105d18284613033565b606081016130778285613033565b8260408301529392505050565b60006020828403121561309657600080fd5b61309e612968565b9151825250919050565b6000604082840312156130ba57600080fd5b6130c261293f565b8251815260208301516130d4816129bc565b60208201529392505050565b6020810182356130ef81612e71565b1515909152919050565b60006020828403121561310b57600080fd5b613113612968565b825161311e81612e71565b81529392505050565b634e487b7160e01b600052603260045260246000fd5b60006020828403121561314f57600080fd5b8151612922816129bc565b60006020828403121561316c57600080fd5b815161292281612e71565b6000602080838503121561318a57600080fd5b825167ffffffffffffffff8111156131a157600080fd5b8301601f810185136131b257600080fd5b80516131c0612c7d82612c28565b81815260059190911b820183019083810190878311156131df57600080fd5b928401925b828410156132065783516131f7816129bc565b825292840192908401906131e4565b979650505050505050565b600060001982141561322557613225612dc6565b5060010190565b600060a08201878352602060a08185015281885180845260c086019150828a01935060005b818110156132765784516001600160a01b031683529383019391830191600101613251565b50506001600160a01b03881660408601528481036060860152865180825290820192508187019060005b818110156132bc578251855293830193918301916001016132a0565b5050506001600160a01b03851660808501525090509695505050505050565b60008160001904831182151516156132f5576132f5612dc6565b50029056fea264697066735822122062b8f7ee2cdb844e3ff298653da3f29615ece6e082581dc20fa3736e94de2d4964736f6c63430008090033",
  "devdoc": {
    "events": {
      "CommitDelayedProtocolParams(address,address,(uint256,address))": {
        "params": {
          "origin": "Origin of the transaction (tx.origin)",
          "params": "New params that are committed",
          "sender": "Sender of the call (msg.sender)"
        }
      },
      "CommitDelayedProtocolPerVaultParams(address,address,uint256,(uint256))": {
        "params": {
          "nft": "VaultRegistry NFT of the vault",
          "origin": "Origin of the transaction (tx.origin)",
          "params": "New params that are committed",
          "sender": "Sender of the call (msg.sender)"
        }
      },
      "CommitDelayedStrategyParams(address,address,uint256,(address,address,bool,uint256,uint256,address,address))": {
        "params": {
          "nft": "VaultRegistry NFT of the vault",
          "origin": "Origin of the transaction (tx.origin)",
          "params": "New params that are committed",
          "sender": "Sender of the call (msg.sender)"
        }
      },
      "SetOperatorParams(address,address,(bool))": {
        "params": {
          "origin": "Origin of the transaction (tx.origin)",
          "params": "New params that are set",
          "sender": "Sender of the call (msg.sender)"
        }
      },
      "SetStrategyParams(address,address,uint256,(uint256,uint256))": {
        "params": {
          "nft": "VaultRegistry NFT of the vault",
          "origin": "Origin of the transaction (tx.origin)",
          "params": "New params that are set",
          "sender": "Sender of the call (msg.sender)"
        }
      },
      "StageDelayedProtocolParams(address,address,(uint256,address),uint256)": {
        "params": {
          "origin": "Origin of the transaction (tx.origin)",
          "params": "New params that were staged for commit",
          "sender": "Sender of the call (msg.sender)",
          "when": "When the params could be committed"
        }
      },
      "StageDelayedProtocolPerVaultParams(address,address,uint256,(uint256),uint256)": {
        "params": {
          "nft": "VaultRegistry NFT of the vault",
          "origin": "Origin of the transaction (tx.origin)",
          "params": "New params that were staged for commit",
          "sender": "Sender of the call (msg.sender)",
          "when": "When the params could be committed"
        }
      },
      "StageDelayedStrategyParams(address,address,uint256,(address,address,bool,uint256,uint256,address,address),uint256)": {
        "params": {
          "nft": "VaultRegistry NFT of the vault",
          "origin": "Origin of the transaction (tx.origin)",
          "params": "New params that were staged for commit",
          "sender": "Sender of the call (msg.sender)",
          "when": "When the params could be committed"
        }
      }
    },
    "kind": "dev",
    "methods": {
      "commitDelayedProtocolPerVaultParams(uint256)": {
        "details": "Can only be called after delayedProtocolPerVaultParamsTimestamp",
        "params": {
          "nft": "VaultRegistry NFT of the vault"
        }
      },
      "commitDelayedStrategyParams(uint256)": {
        "details": "Can only be called after delayedStrategyParamsTimestamp",
        "params": {
          "nft": "VaultRegistry NFT of the vault"
        }
      },
      "constructor": {
        "params": {
          "delayedProtocolParams_": "Initial Protocol Params",
          "internalParams_": "Initial Internal Params"
        }
      },
      "createVault(address[],address,uint256[],address)": {
        "params": {
          "owner_": "Owner of the vault NFT",
          "strategy_": "The address that will have approvals for subvaultNfts",
          "subvaultNfts_": "The NFTs of the subvaults that will be aggregated by this ERC20RootVault",
          "vaultTokens_": "ERC20 tokens that will be managed by this Vault"
        }
      },
      "delayedProtocolPerVaultParams(uint256)": {
        "params": {
          "nft": "VaultRegistry NFT of the vault"
        }
      },
      "delayedProtocolPerVaultParamsTimestamp(uint256)": {
        "params": {
          "nft": "Nft of the vault"
        }
      },
      "delayedStrategyParams(uint256)": {
        "params": {
          "nft": "VaultRegistry NFT of the vault"
        }
      },
      "delayedStrategyParamsTimestamp(uint256)": {
        "params": {
          "nft": "Nft of the vault"
        }
      },
      "setOperatorParams((bool))": {
        "params": {
          "params": "New params"
        }
      },
      "setStrategyParams(uint256,(uint256,uint256))": {
        "params": {
          "nft": "Nft of the vault",
          "params": "New params"
        }
      },
      "stageDelayedProtocolParams((uint256,address))": {
        "details": "Can only be called after delayedProtocolParamsTimestamp.",
        "params": {
          "params": "New params"
        }
      },
      "stageDelayedProtocolPerVaultParams(uint256,(uint256))": {
        "params": {
          "nft": "VaultRegistry NFT of the vault",
          "params": "New params"
        }
      },
      "stageDelayedStrategyParams(uint256,(address,address,bool,uint256,uint256,address,address))": {
        "params": {
          "nft": "VaultRegistry NFT of the vault",
          "params": "New params"
        }
      },
      "stageInternalParams((address,address,address))": {
        "params": {
          "newParams": "New Internal Params"
        }
      },
      "stagedDelayedProtocolPerVaultParams(uint256)": {
        "params": {
          "nft": "VaultRegistry NFT of the vault"
        }
      },
      "stagedDelayedStrategyParams(uint256)": {
        "params": {
          "nft": "VaultRegistry NFT of the vault"
        }
      },
      "stagedInternalParams()": {
        "details": "The Internal Params could be committed after internalParamsTimestamp"
      },
      "strategyParams(uint256)": {
        "params": {
          "nft": "VaultRegistry NFT of the vault"
        }
      }
    },
    "version": 1
  },
  "userdoc": {
    "events": {
      "CommitDelayedProtocolParams(address,address,(uint256,address))": {
        "notice": "Emitted when new DelayedProtocolParams are committed"
      },
      "CommitDelayedProtocolPerVaultParams(address,address,uint256,(uint256))": {
        "notice": "Emitted when new DelayedProtocolPerVaultParams are committed"
      },
      "CommitDelayedStrategyParams(address,address,uint256,(address,address,bool,uint256,uint256,address,address))": {
        "notice": "Emitted when new DelayedStrategyParams are committed"
      },
      "CommitedInternalParams(address,address,(address,address,address))": {
        "notice": "Emitted when InternalParams are staged for commit"
      },
      "DeployedVault(address,address,address[],bytes,address,address,uint256)": {
        "notice": "Emitted when New Vault is deployed"
      },
      "SetOperatorParams(address,address,(bool))": {
        "notice": "Emitted when new OperatorParams are set."
      },
      "SetStrategyParams(address,address,uint256,(uint256,uint256))": {
        "notice": "Emitted when new StrategyParams are set."
      },
      "StageDelayedProtocolParams(address,address,(uint256,address),uint256)": {
        "notice": "Emitted when new DelayedProtocolParams are staged for commit"
      },
      "StageDelayedProtocolPerVaultParams(address,address,uint256,(uint256),uint256)": {
        "notice": "Emitted when new DelayedProtocolPerVaultParams are staged for commit"
      },
      "StageDelayedStrategyParams(address,address,uint256,(address,address,bool,uint256,uint256,address,address),uint256)": {
        "notice": "Emitted when new DelayedStrategyParams are staged for commit"
      },
      "StagedInternalParams(address,address,(address,address,address),uint256)": {
        "notice": "Emitted when InternalParams are staged for commit"
      }
    },
    "kind": "user",
    "methods": {
      "MAX_MANAGEMENT_FEE()": {
        "notice": "Number of maximum management fee"
      },
      "MAX_PERFORMANCE_FEE()": {
        "notice": "Number of maximum performance fee"
      },
      "MAX_PROTOCOL_FEE()": {
        "notice": "Number of maximum protocol fee"
      },
      "commitDelayedProtocolParams()": {
        "notice": "Commit Delayed Protocol Params, i.e. Params that could be changed by Protocol Governance with Protocol Governance delay."
      },
      "commitDelayedProtocolPerVaultParams(uint256)": {
        "notice": "Commit Delayed Protocol Per Vault Params, i.e. Params that could be changed by Protocol Governance with Protocol Governance delay."
      },
      "commitDelayedStrategyParams(uint256)": {
        "notice": "Commit Delayed Strategy Params, i.e. Params that could be changed by Strategy or Protocol Governance with Protocol Governance delay."
      },
      "commitInternalParams()": {
        "notice": "Commit staged Internal Params."
      },
      "constructor": {
        "notice": "Creates a new contract."
      },
      "createVault(address[],address,uint256[],address)": {
        "notice": "Deploys a new vault."
      },
      "delayedProtocolParams()": {
        "notice": "Delayed Protocol Params, i.e. Params that could be changed by Protocol Governance with Protocol Governance delay."
      },
      "delayedProtocolParamsTimestamp()": {
        "notice": "Timestamp in unix time seconds after which staged Delayed Protocol Params could be committed."
      },
      "delayedProtocolPerVaultParams(uint256)": {
        "notice": "Delayed Protocol Per Vault Params, i.e. Params that could be changed by Protocol Governance with Protocol Governance delay."
      },
      "delayedProtocolPerVaultParamsTimestamp(uint256)": {
        "notice": "Timestamp in unix time seconds after which staged Delayed Protocol Params Per Vault could be committed."
      },
      "delayedStrategyParams(uint256)": {
        "notice": "Delayed Strategy Params"
      },
      "delayedStrategyParamsTimestamp(uint256)": {
        "notice": "Timestamp in unix time seconds after which staged Delayed Strategy Params could be committed."
      },
      "internalParams()": {
        "notice": "Internal Params of the contract."
      },
      "internalParamsTimestamp()": {
        "notice": "Timestamp in unix time seconds after which staged Internal Params could be committed."
      },
      "operatorParams()": {
        "notice": "Operator Params."
      },
      "setOperatorParams((bool))": {
        "notice": "Set Operator params, i.e. Params that could be changed by Operator or Protocol Governance immediately."
      },
      "setStrategyParams(uint256,(uint256,uint256))": {
        "notice": "Set Strategy params, i.e. Params that could be changed by Strategy or Protocol Governance immediately."
      },
      "stageDelayedProtocolParams((uint256,address))": {
        "notice": "Stage Delayed Protocol Params, i.e. Params that could be changed by Protocol Governance with Protocol Governance delay."
      },
      "stageDelayedProtocolPerVaultParams(uint256,(uint256))": {
        "notice": "Stage Delayed Protocol Per Vault Params, i.e. Params that could be changed by Protocol Governance with Protocol Governance delay."
      },
      "stageDelayedStrategyParams(uint256,(address,address,bool,uint256,uint256,address,address))": {
        "notice": "Stage Delayed Strategy Params, i.e. Params that could be changed by Strategy or Protocol Governance with Protocol Governance delay."
      },
      "stageInternalParams((address,address,address))": {
        "notice": "Stage new Internal Params."
      },
      "stagedDelayedProtocolParams()": {
        "notice": "Delayed Protocol Params staged for commit after delay."
      },
      "stagedDelayedProtocolPerVaultParams(uint256)": {
        "notice": "Delayed Protocol Per Vault Params staged for commit after delay."
      },
      "stagedDelayedStrategyParams(uint256)": {
        "notice": "Delayed Strategy Params staged for commit after delay."
      },
      "stagedInternalParams()": {
        "notice": "Staged new Internal Params."
      },
      "strategyParams(uint256)": {
        "notice": "Strategy Params."
      }
    },
    "notice": "Governance that manages all Lp Issuers params and can deploy a new LpIssuer Vault.",
    "version": 1
  },
  "storageLayout": {
    "storage": [
      {
        "astId": 41152,
        "contract": "contracts/vaults/ERC20RootVaultGovernance.sol:ERC20RootVaultGovernance",
        "label": "_internalParams",
        "offset": 0,
        "slot": "0",
        "type": "t_struct(InternalParams)18035_storage"
      },
      {
        "astId": 41155,
        "contract": "contracts/vaults/ERC20RootVaultGovernance.sol:ERC20RootVaultGovernance",
        "label": "_stagedInternalParams",
        "offset": 0,
        "slot": "3",
        "type": "t_struct(InternalParams)18035_storage"
      },
      {
        "astId": 41157,
        "contract": "contracts/vaults/ERC20RootVaultGovernance.sol:ERC20RootVaultGovernance",
        "label": "_internalParamsTimestamp",
        "offset": 0,
        "slot": "6",
        "type": "t_uint256"
      },
      {
        "astId": 41161,
        "contract": "contracts/vaults/ERC20RootVaultGovernance.sol:ERC20RootVaultGovernance",
        "label": "_delayedStrategyParams",
        "offset": 0,
        "slot": "7",
        "type": "t_mapping(t_uint256,t_bytes_storage)"
      },
      {
        "astId": 41165,
        "contract": "contracts/vaults/ERC20RootVaultGovernance.sol:ERC20RootVaultGovernance",
        "label": "_stagedDelayedStrategyParams",
        "offset": 0,
        "slot": "8",
        "type": "t_mapping(t_uint256,t_bytes_storage)"
      },
      {
        "astId": 41169,
        "contract": "contracts/vaults/ERC20RootVaultGovernance.sol:ERC20RootVaultGovernance",
        "label": "_delayedStrategyParamsTimestamp",
        "offset": 0,
        "slot": "9",
        "type": "t_mapping(t_uint256,t_uint256)"
      },
      {
        "astId": 41173,
        "contract": "contracts/vaults/ERC20RootVaultGovernance.sol:ERC20RootVaultGovernance",
        "label": "_delayedProtocolPerVaultParams",
        "offset": 0,
        "slot": "10",
        "type": "t_mapping(t_uint256,t_bytes_storage)"
      },
      {
        "astId": 41177,
        "contract": "contracts/vaults/ERC20RootVaultGovernance.sol:ERC20RootVaultGovernance",
        "label": "_stagedDelayedProtocolPerVaultParams",
        "offset": 0,
        "slot": "11",
        "type": "t_mapping(t_uint256,t_bytes_storage)"
      },
      {
        "astId": 41181,
        "contract": "contracts/vaults/ERC20RootVaultGovernance.sol:ERC20RootVaultGovernance",
        "label": "_delayedProtocolPerVaultParamsTimestamp",
        "offset": 0,
        "slot": "12",
        "type": "t_mapping(t_uint256,t_uint256)"
      },
      {
        "astId": 41183,
        "contract": "contracts/vaults/ERC20RootVaultGovernance.sol:ERC20RootVaultGovernance",
        "label": "_delayedProtocolParams",
        "offset": 0,
        "slot": "13",
        "type": "t_bytes_storage"
      },
      {
        "astId": 41185,
        "contract": "contracts/vaults/ERC20RootVaultGovernance.sol:ERC20RootVaultGovernance",
        "label": "_stagedDelayedProtocolParams",
        "offset": 0,
        "slot": "14",
        "type": "t_bytes_storage"
      },
      {
        "astId": 41187,
        "contract": "contracts/vaults/ERC20RootVaultGovernance.sol:ERC20RootVaultGovernance",
        "label": "_delayedProtocolParamsTimestamp",
        "offset": 0,
        "slot": "15",
        "type": "t_uint256"
      },
      {
        "astId": 41191,
        "contract": "contracts/vaults/ERC20RootVaultGovernance.sol:ERC20RootVaultGovernance",
        "label": "_strategyParams",
        "offset": 0,
        "slot": "16",
        "type": "t_mapping(t_uint256,t_bytes_storage)"
      },
      {
        "astId": 41193,
        "contract": "contracts/vaults/ERC20RootVaultGovernance.sol:ERC20RootVaultGovernance",
        "label": "_protocolParams",
        "offset": 0,
        "slot": "17",
        "type": "t_bytes_storage"
      },
      {
        "astId": 41195,
        "contract": "contracts/vaults/ERC20RootVaultGovernance.sol:ERC20RootVaultGovernance",
        "label": "_operatorParams",
        "offset": 0,
        "slot": "18",
        "type": "t_bytes_storage"
      }
    ],
    "types": {
      "t_bytes_storage": {
        "encoding": "bytes",
        "label": "bytes",
        "numberOfBytes": "32"
      },
      "t_contract(IProtocolGovernance)11058": {
        "encoding": "inplace",
        "label": "contract IProtocolGovernance",
        "numberOfBytes": "20"
      },
      "t_contract(IVault)18020": {
        "encoding": "inplace",
        "label": "contract IVault",
        "numberOfBytes": "20"
      },
      "t_contract(IVaultRegistry)11202": {
        "encoding": "inplace",
        "label": "contract IVaultRegistry",
        "numberOfBytes": "20"
      },
      "t_mapping(t_uint256,t_bytes_storage)": {
        "encoding": "mapping",
        "key": "t_uint256",
        "label": "mapping(uint256 => bytes)",
        "numberOfBytes": "32",
        "value": "t_bytes_storage"
      },
      "t_mapping(t_uint256,t_uint256)": {
        "encoding": "mapping",
        "key": "t_uint256",
        "label": "mapping(uint256 => uint256)",
        "numberOfBytes": "32",
        "value": "t_uint256"
      },
      "t_struct(InternalParams)18035_storage": {
        "encoding": "inplace",
        "label": "struct IVaultGovernance.InternalParams",
        "members": [
          {
            "astId": 18028,
            "contract": "contracts/vaults/ERC20RootVaultGovernance.sol:ERC20RootVaultGovernance",
            "label": "protocolGovernance",
            "offset": 0,
            "slot": "0",
            "type": "t_contract(IProtocolGovernance)11058"
          },
          {
            "astId": 18031,
            "contract": "contracts/vaults/ERC20RootVaultGovernance.sol:ERC20RootVaultGovernance",
            "label": "registry",
            "offset": 0,
            "slot": "1",
            "type": "t_contract(IVaultRegistry)11202"
          },
          {
            "astId": 18034,
            "contract": "contracts/vaults/ERC20RootVaultGovernance.sol:ERC20RootVaultGovernance",
            "label": "singleton",
            "offset": 0,
            "slot": "2",
            "type": "t_contract(IVault)18020"
          }
        ],
        "numberOfBytes": "96"
      },
      "t_uint256": {
        "encoding": "inplace",
        "label": "uint256",
        "numberOfBytes": "32"
      }
    }
  }
}