{
  "address": "0x1e710286320dcd3458B9194Eb2DfB395b67551Cc",
  "abi": [
    {
      "inputs": [
        {
          "components": [
            {
              "internalType": "contract IProtocolGovernance",
              "name": "protocolGovernance",
              "type": "address"
            },
            {
              "internalType": "contract IVaultRegistry",
              "name": "registry",
              "type": "address"
            },
            {
              "internalType": "contract IVault",
              "name": "singleton",
              "type": "address"
            }
          ],
          "internalType": "struct IVaultGovernance.InternalParams",
          "name": "internalParams_",
          "type": "tuple"
        }
      ],
      "stateMutability": "nonpayable",
      "type": "constructor"
    },
    {
      "anonymous": false,
      "inputs": [
        {
          "indexed": true,
          "internalType": "address",
          "name": "origin",
          "type": "address"
        },
        {
          "indexed": true,
          "internalType": "address",
          "name": "sender",
          "type": "address"
        },
        {
          "components": [
            {
              "internalType": "contract IProtocolGovernance",
              "name": "protocolGovernance",
              "type": "address"
            },
            {
              "internalType": "contract IVaultRegistry",
              "name": "registry",
              "type": "address"
            },
            {
              "internalType": "contract IVault",
              "name": "singleton",
              "type": "address"
            }
          ],
          "indexed": false,
          "internalType": "struct IVaultGovernance.InternalParams",
          "name": "params",
          "type": "tuple"
        }
      ],
      "name": "CommitedInternalParams",
      "type": "event"
    },
    {
      "anonymous": false,
      "inputs": [
        {
          "indexed": true,
          "internalType": "address",
          "name": "origin",
          "type": "address"
        },
        {
          "indexed": true,
          "internalType": "address",
          "name": "sender",
          "type": "address"
        },
        {
          "indexed": false,
          "internalType": "address[]",
          "name": "vaultTokens",
          "type": "address[]"
        },
        {
          "indexed": false,
          "internalType": "bytes",
          "name": "options",
          "type": "bytes"
        },
        {
          "indexed": false,
          "internalType": "address",
          "name": "owner",
          "type": "address"
        },
        {
          "indexed": false,
          "internalType": "address",
          "name": "vaultAddress",
          "type": "address"
        },
        {
          "indexed": false,
          "internalType": "uint256",
          "name": "vaultNft",
          "type": "uint256"
        }
      ],
      "name": "DeployedVault",
      "type": "event"
    },
    {
      "anonymous": false,
      "inputs": [
        {
          "indexed": true,
          "internalType": "address",
          "name": "origin",
          "type": "address"
        },
        {
          "indexed": true,
          "internalType": "address",
          "name": "sender",
          "type": "address"
        },
        {
          "components": [
            {
              "internalType": "contract IProtocolGovernance",
              "name": "protocolGovernance",
              "type": "address"
            },
            {
              "internalType": "contract IVaultRegistry",
              "name": "registry",
              "type": "address"
            },
            {
              "internalType": "contract IVault",
              "name": "singleton",
              "type": "address"
            }
          ],
          "indexed": false,
          "internalType": "struct IVaultGovernance.InternalParams",
          "name": "params",
          "type": "tuple"
        },
        {
          "indexed": false,
          "internalType": "uint256",
          "name": "when",
          "type": "uint256"
        }
      ],
      "name": "StagedInternalParams",
      "type": "event"
    },
    {
      "inputs": [],
      "name": "commitInternalParams",
      "outputs": [],
      "stateMutability": "nonpayable",
      "type": "function"
    },
    {
      "inputs": [],
      "name": "contractName",
      "outputs": [
        {
          "internalType": "string",
          "name": "",
          "type": "string"
        }
      ],
      "stateMutability": "pure",
      "type": "function"
    },
    {
      "inputs": [],
      "name": "contractNameBytes",
      "outputs": [
        {
          "internalType": "bytes32",
          "name": "",
          "type": "bytes32"
        }
      ],
      "stateMutability": "pure",
      "type": "function"
    },
    {
      "inputs": [],
      "name": "contractVersion",
      "outputs": [
        {
          "internalType": "string",
          "name": "",
          "type": "string"
        }
      ],
      "stateMutability": "pure",
      "type": "function"
    },
    {
      "inputs": [],
      "name": "contractVersionBytes",
      "outputs": [
        {
          "internalType": "bytes32",
          "name": "",
          "type": "bytes32"
        }
      ],
      "stateMutability": "pure",
      "type": "function"
    },
    {
      "inputs": [
        {
          "internalType": "address[]",
          "name": "vaultTokens_",
          "type": "address[]"
        },
        {
          "internalType": "address",
          "name": "owner_",
          "type": "address"
        }
      ],
      "name": "createVault",
      "outputs": [
        {
          "internalType": "contract IERC20Vault",
          "name": "vault",
          "type": "address"
        },
        {
          "internalType": "uint256",
          "name": "nft",
          "type": "uint256"
        }
      ],
      "stateMutability": "nonpayable",
      "type": "function"
    },
    {
      "inputs": [],
      "name": "delayedProtocolParamsTimestamp",
      "outputs": [
        {
          "internalType": "uint256",
          "name": "",
          "type": "uint256"
        }
      ],
      "stateMutability": "view",
      "type": "function"
    },
    {
      "inputs": [
        {
          "internalType": "uint256",
          "name": "nft",
          "type": "uint256"
        }
      ],
      "name": "delayedProtocolPerVaultParamsTimestamp",
      "outputs": [
        {
          "internalType": "uint256",
          "name": "",
          "type": "uint256"
        }
      ],
      "stateMutability": "view",
      "type": "function"
    },
    {
      "inputs": [
        {
          "internalType": "uint256",
          "name": "nft",
          "type": "uint256"
        }
      ],
      "name": "delayedStrategyParamsTimestamp",
      "outputs": [
        {
          "internalType": "uint256",
          "name": "",
          "type": "uint256"
        }
      ],
      "stateMutability": "view",
      "type": "function"
    },
    {
      "inputs": [],
      "name": "internalParams",
      "outputs": [
        {
          "components": [
            {
              "internalType": "contract IProtocolGovernance",
              "name": "protocolGovernance",
              "type": "address"
            },
            {
              "internalType": "contract IVaultRegistry",
              "name": "registry",
              "type": "address"
            },
            {
              "internalType": "contract IVault",
              "name": "singleton",
              "type": "address"
            }
          ],
          "internalType": "struct IVaultGovernance.InternalParams",
          "name": "",
          "type": "tuple"
        }
      ],
      "stateMutability": "view",
      "type": "function"
    },
    {
      "inputs": [],
      "name": "internalParamsTimestamp",
      "outputs": [
        {
          "internalType": "uint256",
          "name": "",
          "type": "uint256"
        }
      ],
      "stateMutability": "view",
      "type": "function"
    },
    {
      "inputs": [
        {
          "components": [
            {
              "internalType": "contract IProtocolGovernance",
              "name": "protocolGovernance",
              "type": "address"
            },
            {
              "internalType": "contract IVaultRegistry",
              "name": "registry",
              "type": "address"
            },
            {
              "internalType": "contract IVault",
              "name": "singleton",
              "type": "address"
            }
          ],
          "internalType": "struct IVaultGovernance.InternalParams",
          "name": "newParams",
          "type": "tuple"
        }
      ],
      "name": "stageInternalParams",
      "outputs": [],
      "stateMutability": "nonpayable",
      "type": "function"
    },
    {
      "inputs": [],
      "name": "stagedInternalParams",
      "outputs": [
        {
          "components": [
            {
              "internalType": "contract IProtocolGovernance",
              "name": "protocolGovernance",
              "type": "address"
            },
            {
              "internalType": "contract IVaultRegistry",
              "name": "registry",
              "type": "address"
            },
            {
              "internalType": "contract IVault",
              "name": "singleton",
              "type": "address"
            }
          ],
          "internalType": "struct IVaultGovernance.InternalParams",
          "name": "",
          "type": "tuple"
        }
      ],
      "stateMutability": "view",
      "type": "function"
    },
    {
      "inputs": [
        {
          "internalType": "bytes4",
          "name": "interfaceID",
          "type": "bytes4"
        }
      ],
      "name": "supportsInterface",
      "outputs": [
        {
          "internalType": "bool",
          "name": "",
          "type": "bool"
        }
      ],
      "stateMutability": "view",
      "type": "function"
    }
  ],
  "transactionHash": "0x223d34aeedd4001745d1a8d497016d7f9e6c953afaa378a01cd41f87f505480a",
  "args": [
    {
      "protocolGovernance": "0xba78C2E8914074A87d32c41c6C49b8a924e60b6D",
      "registry": "0x43EBC6D7505d0225992445351d2eEAF9B53bC1A2",
      "singleton": "0x3E1460D03A36D1C88806c3896BC30A16C8646B51"
    }
  ],
  "solcInputHash": "1984535d51a55304aed3f058b4264cb9",
  "bytecode": "0x60806040523480156200001157600080fd5b50604051620011603803806200116083398101604081905262000034916200018a565b805160408051808201909152600281526120ad60f11b602082015282916001600160a01b0316620000835760405162461bcd60e51b81526004016200007a919062000211565b60405180910390fd5b5060006001600160a01b031681602001516001600160a01b031614156040518060400160405280600281526020016120ad60f11b81525090620000db5760405162461bcd60e51b81526004016200007a919062000211565b506040808201518151808301909252600282526120ad60f11b60208301526001600160a01b0316620001225760405162461bcd60e51b81526004016200007a919062000211565b508051600080546001600160a01b03199081166001600160a01b039384161790915560208301516001805483169184169190911790556040909201516002805490931691161790555062000269565b6001600160a01b03811681146200018757600080fd5b50565b6000606082840312156200019d57600080fd5b604051606081016001600160401b0381118282101715620001ce57634e487b7160e01b600052604160045260246000fd5b6040528251620001de8162000171565b81526020830151620001f08162000171565b60208201526040830151620002058162000171565b60408201529392505050565b600060208083528351808285015260005b81811015620002405785810183015185820160400152820162000222565b8181111562000253576000604083870101525b50601f01601f1916929092016040019392505050565b610ee780620002796000396000f3fe608060405234801561001057600080fd5b50600436106100ea5760003560e01c80636707acee1161008c57806386c6be3e1161006657806386c6be3e14610250578063a0a8e460146102a3578063d4a07d34146102ab578063e4af6e79146102b357600080fd5b80636707acee146101bb57806375d0c0dc146101db5780637ac46fbb146101f057600080fd5b80630e3e80ac116100c85780630e3e80ac146101445780630fb27e4d146101615780631c7f4c7314610193578063511ce7981461019b57600080fd5b806301ffc9a7146100ef57806306a4623914610117578063099465381461012f575b600080fd5b6101026100fd366004610abd565b6102bb565b60405190151581526020015b60405180910390f35b640312e302e360dc1b5b60405190815260200161010e565b61014261013d366004610b4a565b6102f7565b005b7345524332305661756c74476f7665726e616e636560601b610121565b61017461016f366004610bcc565b6104e9565b604080516001600160a01b03909316835260208301919091520161010e565b600654610121565b6101216101a9366004610c90565b6000908152600c602052604090205490565b6101216101c9366004610c90565b60009081526009602052604090205490565b6101e36105a9565b60405161010e9190610ca9565b610243604080516060810182526000808252602082018190529181019190915250604080516060810182526000546001600160a01b03908116825260015481166020830152600254169181019190915290565b60405161010e9190610cfe565b610243604080516060810182526000808252602082018190529181019190915250604080516060810182526003546001600160a01b03908116825260045481166020830152600554169181019190915290565b6101e36105cb565b6101426105de565b600f54610121565b60006301ffc9a760e01b6001600160e01b0319831614806102ec57506001600160e01b0319821663effda0f560e01b145b92915050565b905090565b6102ff610708565b805160408051808201909152600281526120ad60f11b6020820152906001600160a01b031661034a5760405162461bcd60e51b81526004016103419190610ca9565b60405180910390fd5b5060006001600160a01b031681602001516001600160a01b031614156040518060400160405280600281526020016120ad60f11b8152509061039f5760405162461bcd60e51b81526004016103419190610ca9565b506040808201518151808301909252600282526120ad60f11b60208301526001600160a01b03166103e35760405162461bcd60e51b81526004016103419190610ca9565b508051600380546001600160a01b03199081166001600160a01b03938416179091556020808401516004805484169185169190911781556040808601516005805490951690861617909355600054835163bba3293960e01b8152935194169363bba3293993808301939290829003018186803b15801561046257600080fd5b505afa158015610476573d6000803e3d6000fd5b505050506040513d601f19601f8201168201806040525081019061049a9190610d2e565b6104a49042610d5d565b6006819055604051339132917f0887cab3184f7c02b16978ab31f8acee05979f59fc3da6abe5bf71105ec3179d916104de91869190610d75565b60405180910390a350565b60008060006104f7846107c0565b604051632a482de360e21b815291945092508391506001600160a01b0382169063a920b78c9061052d9085908990600401610df6565b600060405180830381600087803b15801561054757600080fd5b505af115801561055b573d6000803e3d6000fd5b50506040513392503291507f8a4513c05d15df8ece912856923273e166e39f5c9c2b43d2b38594023494a0e090610599908990899087908990610e17565b60405180910390a3509250929050565b60606102f27345524332305661756c74476f7665726e616e636560601b6109b1565b60606102f2640312e302e360dc1b6109b1565b6105e6610708565b6006546040805180820190915260048152631395531360e21b6020820152906106225760405162461bcd60e51b81526004016103419190610ca9565b5060065442101560405180604001604052806002815260200161545360f01b815250906106625760405162461bcd60e51b81526004016103419190610ca9565b5060038054600080546001600160a01b038084166001600160a01b03199283168117845560048054600180548286169087168117909155600580546002805497821697891688179055600698909855978616909855841690559290911690925560408051918252602082019390935291820152339032907fef3e4bc9725fa684957d7de03c6dcd01078ee86cf78ceef25c5f8346df69cc999060600160405180910390a3565b600054604051630935e01b60e21b81523360048201526001600160a01b03909116906324d7806c9060240160206040518083038186803b15801561074b57600080fd5b505afa15801561075f573d6000803e3d6000fd5b505050506040513d601f19601f820116820180604052508101906107839190610e5e565b6040518060400160405280600381526020016223292160e91b815250906107bd5760405162461bcd60e51b81526004016103419190610ca9565b50565b600080546040516363e85d2d60e01b81523360048201526001602482015282916001600160a01b03169081906363e85d2d9060440160206040518083038186803b15801561080d57600080fd5b505afa158015610821573d6000803e3d6000fd5b505050506040513d601f19601f820116820180604052508101906108459190610e5e565b6040518060400160405280600381526020016223292160e91b8152509061087f5760405162461bcd60e51b81526004016103419190610ca9565b5060015460408051631112eee760e31b815290516001600160a01b039092169182916388977738916004808301926020929190829003018186803b1580156108c657600080fd5b505afa1580156108da573d6000803e3d6000fd5b505050506040513d601f19601f820116820180604052508101906108fe9190610d2e565b610909906001610d5d565b600254909350610922906001600160a01b031684610a1d565b6040516305c4fdf960e01b81526001600160a01b0380831660048301528781166024830152919550908216906305c4fdf990604401602060405180830381600087803b15801561097157600080fd5b505af1158015610985573d6000803e3d6000fd5b505050506040513d601f19601f820116820180604052508101906109a99190610d2e565b505050915091565b604080516020808252818301909252606091602082018180368337019050509050602060005b6020811015610a0f578381602081106109f2576109f2610e80565b1a6109ff57809150610a0f565b610a0881610e96565b90506109d7565b508152602081019190915290565b6000604051733d602d80600a3d3981f3363d3d373d3d3d363d7360601b81528360601b60148201526e5af43d82803e903d91602b57fd5bf360881b6028820152826037826000f59150506001600160a01b0381166102ec5760405162461bcd60e51b815260206004820152601760248201527f455243313136373a2063726561746532206661696c65640000000000000000006044820152606401610341565b600060208284031215610acf57600080fd5b81356001600160e01b031981168114610ae757600080fd5b9392505050565b634e487b7160e01b600052604160045260246000fd5b604051601f8201601f1916810167ffffffffffffffff81118282101715610b2d57610b2d610aee565b604052919050565b6001600160a01b03811681146107bd57600080fd5b600060608284031215610b5c57600080fd5b6040516060810181811067ffffffffffffffff82111715610b7f57610b7f610aee565b6040528235610b8d81610b35565b81526020830135610b9d81610b35565b60208201526040830135610bb081610b35565b60408201529392505050565b8035610bc781610b35565b919050565b60008060408385031215610bdf57600080fd5b823567ffffffffffffffff80821115610bf757600080fd5b818501915085601f830112610c0b57600080fd5b8135602082821115610c1f57610c1f610aee565b8160051b9250610c30818401610b04565b8281529284018101928181019089851115610c4a57600080fd5b948201945b84861015610c745785359350610c6484610b35565b8382529482019490820190610c4f565b9650610c839050878201610bbc565b9450505050509250929050565b600060208284031215610ca257600080fd5b5035919050565b600060208083528351808285015260005b81811015610cd657858101830151858201604001528201610cba565b81811115610ce8576000604083870101525b50601f01601f1916929092016040019392505050565b606081016102ec828480516001600160a01b03908116835260208083015182169084015260409182015116910152565b600060208284031215610d4057600080fd5b5051919050565b634e487b7160e01b600052601160045260246000fd5b60008219821115610d7057610d70610d47565b500190565b60808101610da5828580516001600160a01b03908116835260208083015182169084015260409182015116910152565b8260608301529392505050565b600081518084526020808501945080840160005b83811015610deb5781516001600160a01b031687529582019590820190600101610dc6565b509495945050505050565b828152604060208201526000610e0f6040830184610db2565b949350505050565b60a081526000610e2a60a0830187610db2565b828103602080850191909152600082526001600160a01b039687166040850152949095166060830152506080015201919050565b600060208284031215610e7057600080fd5b81518015158114610ae757600080fd5b634e487b7160e01b600052603260045260246000fd5b6000600019821415610eaa57610eaa610d47565b506001019056fea2646970667358221220bbb2ffdeaa92c1dc3b0086b2f4efd26ed0738bbf2ff9499d82dfdbcfab39c93f64736f6c63430008090033",
  "devdoc": {
    "kind": "dev",
    "methods": {
      "constructor": {
        "params": {
          "internalParams_": "Initial Internal Params"
        }
      },
      "createVault(address[],address)": {
        "params": {
          "owner_": "Owner of the vault NFT",
          "vaultTokens_": "ERC20 tokens that will be managed by this Vault"
        }
      },
      "delayedProtocolPerVaultParamsTimestamp(uint256)": {
        "params": {
          "nft": "Nft of the vault"
        }
      },
      "delayedStrategyParamsTimestamp(uint256)": {
        "params": {
          "nft": "Nft of the vault"
        }
      },
      "stageInternalParams((address,address,address))": {
        "params": {
          "newParams": "New Internal Params"
        }
      },
      "stagedInternalParams()": {
        "details": "The Internal Params could be committed after internalParamsTimestamp"
      }
    },
    "version": 1
  },
  "userdoc": {
    "events": {
      "CommitedInternalParams(address,address,(address,address,address))": {
        "notice": "Emitted when InternalParams are staged for commit"
      },
      "DeployedVault(address,address,address[],bytes,address,address,uint256)": {
        "notice": "Emitted when New Vault is deployed"
      },
      "StagedInternalParams(address,address,(address,address,address),uint256)": {
        "notice": "Emitted when InternalParams are staged for commit"
      }
    },
    "kind": "user",
    "methods": {
      "commitInternalParams()": {
        "notice": "Commit staged Internal Params."
      },
      "constructor": {
        "notice": "Creates a new contract."
      },
      "createVault(address[],address)": {
        "notice": "Deploys a new vault."
      },
      "delayedProtocolParamsTimestamp()": {
        "notice": "Timestamp in unix time seconds after which staged Delayed Protocol Params could be committed."
      },
      "delayedProtocolPerVaultParamsTimestamp(uint256)": {
        "notice": "Timestamp in unix time seconds after which staged Delayed Protocol Params Per Vault could be committed."
      },
      "delayedStrategyParamsTimestamp(uint256)": {
        "notice": "Timestamp in unix time seconds after which staged Delayed Strategy Params could be committed."
      },
      "internalParams()": {
        "notice": "Internal Params of the contract."
      },
      "internalParamsTimestamp()": {
        "notice": "Timestamp in unix time seconds after which staged Internal Params could be committed."
      },
      "stageInternalParams((address,address,address))": {
        "notice": "Stage new Internal Params."
      },
      "stagedInternalParams()": {
        "notice": "Staged new Internal Params."
      }
    },
    "notice": "Governance that manages all ERC20 Vaults params and can deploy a new ERC20 Vault.",
    "version": 1
  },
  "storageLayout": {
    "storage": [
      {
        "astId": 41152,
        "contract": "contracts/vaults/ERC20VaultGovernance.sol:ERC20VaultGovernance",
        "label": "_internalParams",
        "offset": 0,
        "slot": "0",
        "type": "t_struct(InternalParams)18035_storage"
      },
      {
        "astId": 41155,
        "contract": "contracts/vaults/ERC20VaultGovernance.sol:ERC20VaultGovernance",
        "label": "_stagedInternalParams",
        "offset": 0,
        "slot": "3",
        "type": "t_struct(InternalParams)18035_storage"
      },
      {
        "astId": 41157,
        "contract": "contracts/vaults/ERC20VaultGovernance.sol:ERC20VaultGovernance",
        "label": "_internalParamsTimestamp",
        "offset": 0,
        "slot": "6",
        "type": "t_uint256"
      },
      {
        "astId": 41161,
        "contract": "contracts/vaults/ERC20VaultGovernance.sol:ERC20VaultGovernance",
        "label": "_delayedStrategyParams",
        "offset": 0,
        "slot": "7",
        "type": "t_mapping(t_uint256,t_bytes_storage)"
      },
      {
        "astId": 41165,
        "contract": "contracts/vaults/ERC20VaultGovernance.sol:ERC20VaultGovernance",
        "label": "_stagedDelayedStrategyParams",
        "offset": 0,
        "slot": "8",
        "type": "t_mapping(t_uint256,t_bytes_storage)"
      },
      {
        "astId": 41169,
        "contract": "contracts/vaults/ERC20VaultGovernance.sol:ERC20VaultGovernance",
        "label": "_delayedStrategyParamsTimestamp",
        "offset": 0,
        "slot": "9",
        "type": "t_mapping(t_uint256,t_uint256)"
      },
      {
        "astId": 41173,
        "contract": "contracts/vaults/ERC20VaultGovernance.sol:ERC20VaultGovernance",
        "label": "_delayedProtocolPerVaultParams",
        "offset": 0,
        "slot": "10",
        "type": "t_mapping(t_uint256,t_bytes_storage)"
      },
      {
        "astId": 41177,
        "contract": "contracts/vaults/ERC20VaultGovernance.sol:ERC20VaultGovernance",
        "label": "_stagedDelayedProtocolPerVaultParams",
        "offset": 0,
        "slot": "11",
        "type": "t_mapping(t_uint256,t_bytes_storage)"
      },
      {
        "astId": 41181,
        "contract": "contracts/vaults/ERC20VaultGovernance.sol:ERC20VaultGovernance",
        "label": "_delayedProtocolPerVaultParamsTimestamp",
        "offset": 0,
        "slot": "12",
        "type": "t_mapping(t_uint256,t_uint256)"
      },
      {
        "astId": 41183,
        "contract": "contracts/vaults/ERC20VaultGovernance.sol:ERC20VaultGovernance",
        "label": "_delayedProtocolParams",
        "offset": 0,
        "slot": "13",
        "type": "t_bytes_storage"
      },
      {
        "astId": 41185,
        "contract": "contracts/vaults/ERC20VaultGovernance.sol:ERC20VaultGovernance",
        "label": "_stagedDelayedProtocolParams",
        "offset": 0,
        "slot": "14",
        "type": "t_bytes_storage"
      },
      {
        "astId": 41187,
        "contract": "contracts/vaults/ERC20VaultGovernance.sol:ERC20VaultGovernance",
        "label": "_delayedProtocolParamsTimestamp",
        "offset": 0,
        "slot": "15",
        "type": "t_uint256"
      },
      {
        "astId": 41191,
        "contract": "contracts/vaults/ERC20VaultGovernance.sol:ERC20VaultGovernance",
        "label": "_strategyParams",
        "offset": 0,
        "slot": "16",
        "type": "t_mapping(t_uint256,t_bytes_storage)"
      },
      {
        "astId": 41193,
        "contract": "contracts/vaults/ERC20VaultGovernance.sol:ERC20VaultGovernance",
        "label": "_protocolParams",
        "offset": 0,
        "slot": "17",
        "type": "t_bytes_storage"
      },
      {
        "astId": 41195,
        "contract": "contracts/vaults/ERC20VaultGovernance.sol:ERC20VaultGovernance",
        "label": "_operatorParams",
        "offset": 0,
        "slot": "18",
        "type": "t_bytes_storage"
      }
    ],
    "types": {
      "t_bytes_storage": {
        "encoding": "bytes",
        "label": "bytes",
        "numberOfBytes": "32"
      },
      "t_contract(IProtocolGovernance)11058": {
        "encoding": "inplace",
        "label": "contract IProtocolGovernance",
        "numberOfBytes": "20"
      },
      "t_contract(IVault)18020": {
        "encoding": "inplace",
        "label": "contract IVault",
        "numberOfBytes": "20"
      },
      "t_contract(IVaultRegistry)11202": {
        "encoding": "inplace",
        "label": "contract IVaultRegistry",
        "numberOfBytes": "20"
      },
      "t_mapping(t_uint256,t_bytes_storage)": {
        "encoding": "mapping",
        "key": "t_uint256",
        "label": "mapping(uint256 => bytes)",
        "numberOfBytes": "32",
        "value": "t_bytes_storage"
      },
      "t_mapping(t_uint256,t_uint256)": {
        "encoding": "mapping",
        "key": "t_uint256",
        "label": "mapping(uint256 => uint256)",
        "numberOfBytes": "32",
        "value": "t_uint256"
      },
      "t_struct(InternalParams)18035_storage": {
        "encoding": "inplace",
        "label": "struct IVaultGovernance.InternalParams",
        "members": [
          {
            "astId": 18028,
            "contract": "contracts/vaults/ERC20VaultGovernance.sol:ERC20VaultGovernance",
            "label": "protocolGovernance",
            "offset": 0,
            "slot": "0",
            "type": "t_contract(IProtocolGovernance)11058"
          },
          {
            "astId": 18031,
            "contract": "contracts/vaults/ERC20VaultGovernance.sol:ERC20VaultGovernance",
            "label": "registry",
            "offset": 0,
            "slot": "1",
            "type": "t_contract(IVaultRegistry)11202"
          },
          {
            "astId": 18034,
            "contract": "contracts/vaults/ERC20VaultGovernance.sol:ERC20VaultGovernance",
            "label": "singleton",
            "offset": 0,
            "slot": "2",
            "type": "t_contract(IVault)18020"
          }
        ],
        "numberOfBytes": "96"
      },
      "t_uint256": {
        "encoding": "inplace",
        "label": "uint256",
        "numberOfBytes": "32"
      }
    }
  }
}