{
  "address": "0xE9500582DE09E1cC986EAd2C2ba62b2419978804",
  "abi": [
    {
      "inputs": [
        {
          "internalType": "address",
          "name": "admin_",
          "type": "address"
        }
      ],
      "stateMutability": "nonpayable",
      "type": "constructor"
    },
    {
      "inputs": [],
      "name": "PRBMathSD59x18__DivInputTooSmall",
      "type": "error"
    },
    {
      "inputs": [
        {
          "internalType": "uint256",
          "name": "rAbs",
          "type": "uint256"
        }
      ],
      "name": "PRBMathSD59x18__DivOverflow",
      "type": "error"
    },
    {
      "inputs": [
        {
          "internalType": "int256",
          "name": "x",
          "type": "int256"
        }
      ],
      "name": "PRBMathSD59x18__LogInputTooSmall",
      "type": "error"
    },
    {
      "inputs": [
        {
          "internalType": "uint256",
          "name": "prod1",
          "type": "uint256"
        }
      ],
      "name": "PRBMath__MulDivFixedPointOverflow",
      "type": "error"
    },
    {
      "inputs": [
        {
          "internalType": "uint256",
          "name": "prod1",
          "type": "uint256"
        },
        {
          "internalType": "uint256",
          "name": "denominator",
          "type": "uint256"
        }
      ],
      "name": "PRBMath__MulDivOverflow",
      "type": "error"
    },
    {
      "anonymous": false,
      "inputs": [
        {
          "indexed": false,
          "internalType": "contract IVoltzVault",
          "name": "voltzVault",
          "type": "address"
        },
        {
          "indexed": false,
          "internalType": "int24",
          "name": "tickLower",
          "type": "int24"
        },
        {
          "indexed": false,
          "internalType": "int24",
          "name": "tickUpper",
          "type": "int24"
        }
      ],
      "name": "RebalancedTicks",
      "type": "event"
    },
    {
      "anonymous": false,
      "inputs": [
        {
          "indexed": true,
          "internalType": "bytes32",
          "name": "role",
          "type": "bytes32"
        },
        {
          "indexed": true,
          "internalType": "bytes32",
          "name": "previousAdminRole",
          "type": "bytes32"
        },
        {
          "indexed": true,
          "internalType": "bytes32",
          "name": "newAdminRole",
          "type": "bytes32"
        }
      ],
      "name": "RoleAdminChanged",
      "type": "event"
    },
    {
      "anonymous": false,
      "inputs": [
        {
          "indexed": true,
          "internalType": "bytes32",
          "name": "role",
          "type": "bytes32"
        },
        {
          "indexed": true,
          "internalType": "address",
          "name": "account",
          "type": "address"
        },
        {
          "indexed": true,
          "internalType": "address",
          "name": "sender",
          "type": "address"
        }
      ],
      "name": "RoleGranted",
      "type": "event"
    },
    {
      "anonymous": false,
      "inputs": [
        {
          "indexed": true,
          "internalType": "bytes32",
          "name": "role",
          "type": "bytes32"
        },
        {
          "indexed": true,
          "internalType": "address",
          "name": "account",
          "type": "address"
        },
        {
          "indexed": true,
          "internalType": "address",
          "name": "sender",
          "type": "address"
        }
      ],
      "name": "RoleRevoked",
      "type": "event"
    },
    {
      "anonymous": false,
      "inputs": [
        {
          "indexed": false,
          "internalType": "contract IERC20Vault",
          "name": "erc20vault",
          "type": "address"
        },
        {
          "indexed": false,
          "internalType": "contract IVoltzVault[]",
          "name": "vaults",
          "type": "address[]"
        },
        {
          "components": [
            {
              "internalType": "int256",
              "name": "sigmaWad",
              "type": "int256"
            },
            {
              "internalType": "int256",
              "name": "maxPossibleLowerBoundWad",
              "type": "int256"
            },
            {
              "internalType": "uint256",
              "name": "proximityWad",
              "type": "uint256"
            },
            {
              "internalType": "uint256",
              "name": "weight",
              "type": "uint256"
            }
          ],
          "indexed": false,
          "internalType": "struct LPOptimiserStrategy.VaultParams[]",
          "name": "vaultParams",
          "type": "tuple[]"
        },
        {
          "indexed": false,
          "internalType": "address",
          "name": "admin",
          "type": "address"
        }
      ],
      "name": "StrategyDeployment",
      "type": "event"
    },
    {
      "inputs": [],
      "name": "ADMIN_DELEGATE_ROLE",
      "outputs": [
        {
          "internalType": "bytes32",
          "name": "",
          "type": "bytes32"
        }
      ],
      "stateMutability": "view",
      "type": "function"
    },
    {
      "inputs": [],
      "name": "ADMIN_ROLE",
      "outputs": [
        {
          "internalType": "bytes32",
          "name": "",
          "type": "bytes32"
        }
      ],
      "stateMutability": "view",
      "type": "function"
    },
    {
      "inputs": [],
      "name": "DEFAULT_ADMIN_ROLE",
      "outputs": [
        {
          "internalType": "bytes32",
          "name": "",
          "type": "bytes32"
        }
      ],
      "stateMutability": "view",
      "type": "function"
    },
    {
      "inputs": [],
      "name": "OPERATOR",
      "outputs": [
        {
          "internalType": "bytes32",
          "name": "",
          "type": "bytes32"
        }
      ],
      "stateMutability": "view",
      "type": "function"
    },
    {
      "inputs": [
        {
          "internalType": "int256",
          "name": "fixedRateWad",
          "type": "int256"
        }
      ],
      "name": "convertFixedRateToTick",
      "outputs": [
        {
          "internalType": "int256",
          "name": "",
          "type": "int256"
        }
      ],
      "stateMutability": "pure",
      "type": "function"
    },
    {
      "inputs": [
        {
          "internalType": "int24",
          "name": "tick",
          "type": "int24"
        }
      ],
      "name": "convertTickToFixedRate",
      "outputs": [
        {
          "internalType": "uint256",
          "name": "",
          "type": "uint256"
        }
      ],
      "stateMutability": "pure",
      "type": "function"
    },
    {
      "inputs": [
        {
          "internalType": "contract IERC20Vault",
          "name": "erc20vault_",
          "type": "address"
        },
        {
          "internalType": "contract IVoltzVault[]",
          "name": "vaults_",
          "type": "address[]"
        },
        {
          "components": [
            {
              "internalType": "int256",
              "name": "sigmaWad",
              "type": "int256"
            },
            {
              "internalType": "int256",
              "name": "maxPossibleLowerBoundWad",
              "type": "int256"
            },
            {
              "internalType": "uint256",
              "name": "proximityWad",
              "type": "uint256"
            },
            {
              "internalType": "uint256",
              "name": "weight",
              "type": "uint256"
            }
          ],
          "internalType": "struct LPOptimiserStrategy.VaultParams[]",
          "name": "vaultParams_",
          "type": "tuple[]"
        },
        {
          "internalType": "address",
          "name": "admin_",
          "type": "address"
        }
      ],
      "name": "createStrategy",
      "outputs": [
        {
          "internalType": "contract LPOptimiserStrategy",
          "name": "strategy",
          "type": "address"
        }
      ],
      "stateMutability": "nonpayable",
      "type": "function"
    },
    {
      "inputs": [],
      "name": "depositCallback",
      "outputs": [],
      "stateMutability": "nonpayable",
      "type": "function"
    },
    {
      "inputs": [],
      "name": "erc20Vault",
      "outputs": [
        {
          "internalType": "contract IERC20Vault",
          "name": "",
          "type": "address"
        }
      ],
      "stateMutability": "view",
      "type": "function"
    },
    {
      "inputs": [
        {
          "internalType": "bytes32",
          "name": "role",
          "type": "bytes32"
        }
      ],
      "name": "getRoleAdmin",
      "outputs": [
        {
          "internalType": "bytes32",
          "name": "",
          "type": "bytes32"
        }
      ],
      "stateMutability": "view",
      "type": "function"
    },
    {
      "inputs": [
        {
          "internalType": "bytes32",
          "name": "role",
          "type": "bytes32"
        },
        {
          "internalType": "uint256",
          "name": "index",
          "type": "uint256"
        }
      ],
      "name": "getRoleMember",
      "outputs": [
        {
          "internalType": "address",
          "name": "",
          "type": "address"
        }
      ],
      "stateMutability": "view",
      "type": "function"
    },
    {
      "inputs": [
        {
          "internalType": "bytes32",
          "name": "role",
          "type": "bytes32"
        }
      ],
      "name": "getRoleMemberCount",
      "outputs": [
        {
          "internalType": "uint256",
          "name": "",
          "type": "uint256"
        }
      ],
      "stateMutability": "view",
      "type": "function"
    },
    {
      "inputs": [
        {
          "internalType": "uint256",
          "name": "index",
          "type": "uint256"
        }
      ],
      "name": "getVaultParams",
      "outputs": [
        {
          "components": [
            {
              "internalType": "int256",
              "name": "sigmaWad",
              "type": "int256"
            },
            {
              "internalType": "int256",
              "name": "maxPossibleLowerBoundWad",
              "type": "int256"
            },
            {
              "internalType": "uint256",
              "name": "proximityWad",
              "type": "uint256"
            },
            {
              "internalType": "uint256",
              "name": "weight",
              "type": "uint256"
            }
          ],
          "internalType": "struct LPOptimiserStrategy.VaultParams",
          "name": "",
          "type": "tuple"
        }
      ],
      "stateMutability": "view",
      "type": "function"
    },
    {
      "inputs": [],
      "name": "getVaults",
      "outputs": [
        {
          "internalType": "contract IVoltzVault[]",
          "name": "",
          "type": "address[]"
        }
      ],
      "stateMutability": "view",
      "type": "function"
    },
    {
      "inputs": [
        {
          "internalType": "bytes32",
          "name": "role",
          "type": "bytes32"
        },
        {
          "internalType": "address",
          "name": "account",
          "type": "address"
        }
      ],
      "name": "grantRole",
      "outputs": [],
      "stateMutability": "nonpayable",
      "type": "function"
    },
    {
      "inputs": [
        {
          "internalType": "bytes32",
          "name": "role",
          "type": "bytes32"
        },
        {
          "internalType": "address",
          "name": "account",
          "type": "address"
        }
      ],
      "name": "hasRole",
      "outputs": [
        {
          "internalType": "bool",
          "name": "",
          "type": "bool"
        }
      ],
      "stateMutability": "view",
      "type": "function"
    },
    {
      "inputs": [
        {
          "internalType": "address",
          "name": "admin",
          "type": "address"
        }
      ],
      "name": "init",
      "outputs": [],
      "stateMutability": "nonpayable",
      "type": "function"
    },
    {
      "inputs": [
        {
          "internalType": "contract IERC20Vault",
          "name": "erc20vault_",
          "type": "address"
        },
        {
          "internalType": "contract IVoltzVault[]",
          "name": "vaults_",
          "type": "address[]"
        },
        {
          "components": [
            {
              "internalType": "int256",
              "name": "sigmaWad",
              "type": "int256"
            },
            {
              "internalType": "int256",
              "name": "maxPossibleLowerBoundWad",
              "type": "int256"
            },
            {
              "internalType": "uint256",
              "name": "proximityWad",
              "type": "uint256"
            },
            {
              "internalType": "uint256",
              "name": "weight",
              "type": "uint256"
            }
          ],
          "internalType": "struct LPOptimiserStrategy.VaultParams[]",
          "name": "vaultParams_",
          "type": "tuple[]"
        },
        {
          "internalType": "address",
          "name": "admin_",
          "type": "address"
        }
      ],
      "name": "initialize",
      "outputs": [],
      "stateMutability": "nonpayable",
      "type": "function"
    },
    {
      "inputs": [],
      "name": "initialized",
      "outputs": [
        {
          "internalType": "bool",
          "name": "",
          "type": "bool"
        }
      ],
      "stateMutability": "view",
      "type": "function"
    },
    {
      "inputs": [
        {
          "internalType": "address",
          "name": "sender",
          "type": "address"
        }
      ],
      "name": "isAdmin",
      "outputs": [
        {
          "internalType": "bool",
          "name": "",
          "type": "bool"
        }
      ],
      "stateMutability": "view",
      "type": "function"
    },
    {
      "inputs": [
        {
          "internalType": "address",
          "name": "sender",
          "type": "address"
        }
      ],
      "name": "isOperator",
      "outputs": [
        {
          "internalType": "bool",
          "name": "",
          "type": "bool"
        }
      ],
      "stateMutability": "view",
      "type": "function"
    },
    {
      "inputs": [
        {
          "internalType": "int24",
          "name": "newTick",
          "type": "int24"
        },
        {
          "internalType": "int24",
          "name": "tickSpacing",
          "type": "int24"
        }
      ],
      "name": "nearestTickMultiple",
      "outputs": [
        {
          "internalType": "int24",
          "name": "",
          "type": "int24"
        }
      ],
      "stateMutability": "pure",
      "type": "function"
    },
    {
      "inputs": [
        {
          "internalType": "uint256",
          "name": "index",
          "type": "uint256"
        },
        {
          "internalType": "uint256",
          "name": "currentFixedRateWad",
          "type": "uint256"
        }
      ],
      "name": "rebalanceCheck",
      "outputs": [
        {
          "internalType": "bool",
          "name": "",
          "type": "bool"
        }
      ],
      "stateMutability": "view",
      "type": "function"
    },
    {
      "inputs": [
        {
          "internalType": "uint256",
          "name": "index",
          "type": "uint256"
        },
        {
          "internalType": "uint256",
          "name": "currentFixedRateWad",
          "type": "uint256"
        }
      ],
      "name": "rebalanceTicks",
      "outputs": [
        {
          "internalType": "int24",
          "name": "newTickLower",
          "type": "int24"
        },
        {
          "internalType": "int24",
          "name": "newTickUpper",
          "type": "int24"
        }
      ],
      "stateMutability": "nonpayable",
      "type": "function"
    },
    {
      "inputs": [
        {
          "internalType": "bytes32",
          "name": "role",
          "type": "bytes32"
        },
        {
          "internalType": "address",
          "name": "account",
          "type": "address"
        }
      ],
      "name": "renounceRole",
      "outputs": [],
      "stateMutability": "nonpayable",
      "type": "function"
    },
    {
      "inputs": [
        {
          "internalType": "bytes32",
          "name": "role",
          "type": "bytes32"
        },
        {
          "internalType": "address",
          "name": "account",
          "type": "address"
        }
      ],
      "name": "revokeRole",
      "outputs": [],
      "stateMutability": "nonpayable",
      "type": "function"
    },
    {
      "inputs": [
        {
          "internalType": "uint256",
          "name": "index",
          "type": "uint256"
        },
        {
          "components": [
            {
              "internalType": "int256",
              "name": "sigmaWad",
              "type": "int256"
            },
            {
              "internalType": "int256",
              "name": "maxPossibleLowerBoundWad",
              "type": "int256"
            },
            {
              "internalType": "uint256",
              "name": "proximityWad",
              "type": "uint256"
            },
            {
              "internalType": "uint256",
              "name": "weight",
              "type": "uint256"
            }
          ],
          "internalType": "struct LPOptimiserStrategy.VaultParams",
          "name": "vaultParams_",
          "type": "tuple"
        }
      ],
      "name": "setVaultParams",
      "outputs": [],
      "stateMutability": "nonpayable",
      "type": "function"
    },
    {
      "inputs": [
        {
          "internalType": "bytes4",
          "name": "interfaceId",
          "type": "bytes4"
        }
      ],
      "name": "supportsInterface",
      "outputs": [
        {
          "internalType": "bool",
          "name": "",
          "type": "bool"
        }
      ],
      "stateMutability": "view",
      "type": "function"
    },
    {
      "inputs": [
        {
          "internalType": "uint256",
          "name": "",
          "type": "uint256"
        }
      ],
      "name": "tokens",
      "outputs": [
        {
          "internalType": "address",
          "name": "",
          "type": "address"
        }
      ],
      "stateMutability": "view",
      "type": "function"
    },
    {
      "inputs": [
        {
          "internalType": "address",
          "name": "newStrategy",
          "type": "address"
        }
      ],
      "name": "transferPermissions",
      "outputs": [],
      "stateMutability": "nonpayable",
      "type": "function"
    },
    {
      "inputs": [],
      "name": "withdrawCallback",
      "outputs": [],
      "stateMutability": "nonpayable",
      "type": "function"
    }
  ],
  "transactionHash": "0x56523c2ce5c9d8d653c451398c86590d6a0c946a6026a305b8a447ddfc15634d",
  "args": [
    "0x5f198d6F84C3b8E9CA12530ebbA54C3dB53e847D"
  ],
  "solcInputHash": "908f123c2a250ed4cd97908d9977745f",
  "bytecode": "0x60806040523480156200001157600080fd5b5060405162003ada38038062003ada833981016040819052620000349162000369565b6200004a816200005160201b620004c21760201c565b50620003f3565b60408051808201909152600281526120ad60f11b60208201526001600160a01b0382166200009d5760405162461bcd60e51b81526004016200009491906200039b565b60405180910390fd5b506002546040805180820190915260048152631253925560e21b60208201529060ff1615620000e15760405162461bcd60e51b81526004016200009491906200039b565b50620000fd60008051602062003aba83398151915282620001b9565b6200011860008051602062003a9a83398151915282620001b9565b6200013360008051602062003a9a83398151915280620001c9565b6200016e7fc171260023d22a25a00a2789664c9334017843b831138c8ef03cc8897e5873d760008051602062003a9a833981519152620001c9565b620001a960008051602062003aba8339815191527fc171260023d22a25a00a2789664c9334017843b831138c8ef03cc8897e5873d7620001c9565b506002805460ff19166001179055565b620001c5828262000214565b5050565b600082815260208190526040808220600101805490849055905190918391839186917fbd79b86ffe0ab8e8776151514217cd7cacd52c909f66475c3af44e129f0b00ff9190a4505050565b6200022b82826200025760201b620015051760201c565b60008281526001602090815260409091206200025291839062001589620002f7821b17901c565b505050565b6000828152602081815260408083206001600160a01b038516845290915290205460ff16620001c5576000828152602081815260408083206001600160a01b03851684529091529020805460ff19166001179055620002b33390565b6001600160a01b0316816001600160a01b0316837f2f8788117e7eff1d82e926ec794901d17c78024a50270940304540a733656f0d60405160405180910390a45050565b60006200030e836001600160a01b03841662000317565b90505b92915050565b6000818152600183016020526040812054620003605750815460018181018455600084815260208082209093018490558454848252828601909352604090209190915562000311565b50600062000311565b6000602082840312156200037c57600080fd5b81516001600160a01b03811681146200039457600080fd5b9392505050565b600060208083528351808285015260005b81811015620003ca57858101830151858201604001528201620003ac565b81811115620003dd576000604083870101525b50601f01601f1916929092016040019392505050565b61369780620004036000396000f3fe608060405234801561001057600080fd5b50600436106101e55760003560e01c8063685b2d8f1161010f578063983d2737116100a2578063bdce9a1c11610071578063bdce9a1c14610456578063ca15c87314610469578063d547741f1461047c578063e521826f1461048f57600080fd5b8063983d273714610426578063a217fddf1461043b578063a517a31614610443578063b4559f3e1461028057600080fd5b806375b238fc116100de57806375b238fc146103d85780639010d07c146103ed578063904ba45e1461040057806391d148541461041357600080fd5b8063685b2d8f1461037257806369bf229f146103855780636d70f7ae14610398578063735d6778146103ab57600080fd5b806324d7806c1161018757806344d00f821161015657806344d00f821461031757806347a116ac1461032c5780634f64b2be1461033f5780635df6bba71461035257600080fd5b806324d7806c146102cb5780632f2ff15d146102de57806336568abe146102f15780633c8327201461030457600080fd5b8063158ef93e116101c3578063158ef93e1461026057806319ab453c1461026d578063234244ba14610282578063248a9ca3146102a857600080fd5b806301ffc9a7146101ea578063090f9221146102125780630952ff541461023d575b600080fd5b6101fd6101f83660046129fe565b610497565b60405190151581526020015b60405180910390f35b600454610225906001600160a01b031681565b6040516001600160a01b039091168152602001610209565b61025260008051602061360283398151915281565b604051908152602001610209565b6002546101fd9060ff1681565b61028061027b366004612a48565b6104c2565b005b610295610290366004612a74565b6105f1565b60405160029190910b8152602001610209565b6102526102b6366004612aad565b60009081526020819052604090206001015490565b6101fd6102d9366004612a48565b61065a565b6102806102ec366004612ac6565b610692565b6102806102ff366004612ac6565b6106bd565b610252610312366004612aeb565b61073b565b61031f610782565b6040516102099190612b4c565b61028061033a366004612ca4565b6107e4565b61022561034d366004612aad565b6109af565b610365610360366004612aad565b6109d9565b6040516102099190612d8b565b610280610380366004612a48565b610a5f565b610280610393366004612db6565b610dd3565b6101fd6103a6366004612a48565b610eaf565b6103be6103b9366004612de3565b610ec9565b60408051600293840b81529190920b602082015201610209565b61025260008051602061362283398151915281565b6102256103fb366004612de3565b61122e565b6101fd61040e366004612de3565b611246565b6101fd610421366004612ac6565b6113ee565b61025260008051602061364283398151915281565b610252600081565b610252610451366004612aad565b611417565b610225610464366004612ca4565b611446565b610252610477366004612aad565b6114c0565b61028061048a366004612ac6565b6114d7565b6102806114fd565b60006001600160e01b03198216635a05180f60e01b14806104bc57506104bc8261159e565b92915050565b60408051808201909152600281526120ad60f11b60208201526001600160a01b03821661050b5760405162461bcd60e51b81526004016105029190612e31565b60405180910390fd5b506002546040805180820190915260048152631253925560e21b60208201529060ff161561054c5760405162461bcd60e51b81526004016105029190612e31565b50610565600080516020613642833981519152826115d3565b61057d600080516020613622833981519152826115d3565b610595600080516020613622833981519152806115dd565b6105bb6000805160206136028339815191526000805160206136228339815191526115dd565b6105e16000805160206136428339815191526000805160206136028339815191526115dd565b506002805460ff19166001179055565b6000816105ff600282612e90565b60020b838061060e8188612eca565b6106189190612eec565b6106229190612eca565b60020b1215610632576000610635565b60015b61063f8486612e90565b6106499190612eec565b6106539190612f33565b9392505050565b6000610674600080516020613622833981519152836113ee565b806104bc57506104bc600080516020613602833981519152836113ee565b6000828152602081905260409020600101546106ae8133611628565b6106b8838361168c565b505050565b6001600160a01b038116331461072d5760405162461bcd60e51b815260206004820152602f60248201527f416363657373436f6e74726f6c3a2063616e206f6e6c792072656e6f756e636560448201526e103937b632b9903337b91039b2b63360891b6064820152608401610502565b61073782826116ae565b5050565b600080610747836116d0565b9050600061076b670de0b6b3a7640000600160601b846001600160a01b0316611a70565b905060006107798280611b23565b95945050505050565b606060058054806020026020016040519081016040528092919081815260200182805480156107da57602002820191906000526020600020905b81546001600160a01b031681526001909101906020018083116107bc575b5050505050905090565b600480546001600160a01b0319166001600160a01b038616908117825560408051636972223360e01b8152905191926369722233928282019260009290829003018186803b15801561083557600080fd5b505afa158015610849573d6000803e3d6000fd5b505050506040513d6000823e601f3d908101601f191682016040526108719190810190612fc0565b805161088591600391602090910190612984565b50600354604080518082019091526005815264494e56544f60d81b6020820152906001146108c65760405162461bcd60e51b81526004016105029190612e31565b508151835114604051806040016040528060048152602001631253959360e21b815250906109075760405162461bcd60e51b81526004016105029190612e31565b5060005b8351811015610962576109508482815181106109295761092961305a565b60200260200101518483815181106109435761094361305a565b6020026020010151611b2f565b61095b600182613070565b905061090b565b507f0a6d58df2b5602beaef46cf61e03d47650c0be9b6b210d99dcdfcc1fc79be5bd848484846040516109989493929190613088565b60405180910390a16109a9816104c2565b50505050565b600381815481106109bf57600080fd5b6000918252602090912001546001600160a01b0316905081565b610a046040518060800160405280600081526020016000815260200160008152602001600081525090565b60068281548110610a1757610a1761305a565b90600052602060002090600402016040518060800160405290816000820154815260200160018201548152602001600282015481526020016003820154815250509050919050565b610a67611d8f565b6000600460009054906101000a90046001600160a01b03166001600160a01b031663fe255a5e6040518163ffffffff1660e01b815260040160206040518083038186803b158015610ab757600080fd5b505afa158015610acb573d6000803e3d6000fd5b505050506040513d601f19601f82011682018060405250810190610aef9190613125565b6001600160a01b0316637ac46fbb6040518163ffffffff1660e01b815260040160606040518083038186803b158015610b2757600080fd5b505afa158015610b3b573d6000803e3d6000fd5b505050506040513d601f19601f82011682018060405250810190610b5f9190613142565b60200151905060006005805480602002602001604051908101604052809291908181526020018280548015610bbd57602002820191906000526020600020905b81546001600160a01b03168152600190910190602001808311610b9f575b5050505050905060005b8151811015610cd957826001600160a01b031663095ea7b385848481518110610bf257610bf261305a565b60200260200101516001600160a01b03166347ccca026040518163ffffffff1660e01b815260040160206040518083038186803b158015610c3257600080fd5b505afa158015610c46573d6000803e3d6000fd5b505050506040513d601f19601f82011682018060405250810190610c6a91906131b4565b6040516001600160e01b031960e085901b1681526001600160a01b0390921660048301526024820152604401600060405180830381600087803b158015610cb057600080fd5b505af1158015610cc4573d6000803e3d6000fd5b5050505080610cd2906131cd565b9050610bc7565b50816001600160a01b031663095ea7b384600460009054906101000a90046001600160a01b03166001600160a01b03166347ccca026040518163ffffffff1660e01b815260040160206040518083038186803b158015610d3857600080fd5b505afa158015610d4c573d6000803e3d6000fd5b505050506040513d601f19601f82011682018060405250810190610d7091906131b4565b6040516001600160e01b031960e085901b1681526001600160a01b0390921660048301526024820152604401600060405180830381600087803b158015610db657600080fd5b505af1158015610dca573d6000803e3d6000fd5b50505050505050565b610ddb611d8f565b60058054604080518082019091529182526412539594d560da1b60208301528310610e195760405162461bcd60e51b81526004016105029190612e31565b50600060068381548110610e2f57610e2f61305a565b90600052602060002090600402016003015490508160068481548110610e5757610e5761305a565b60009182526020918290208351600490920201908155908201516001820155604082015160028201556060918201516003909101558201516007548291610e9d91613070565b610ea791906131e8565b600755505050565b60006104bc600080516020613642833981519152836113ee565b600080610ed4611dd5565b610ede8484611246565b6040518060400160405280600381526020016229272760e91b81525090610f185760405162461bcd60e51b81526004016105029190612e31565b50600060068581548110610f2e57610f2e61305a565b90600052602060002090600402016040518060800160405290816000820154815260200160018201548152602001600282015481526020016003820154815250509050600060058681548110610f8657610f8661305a565b6000918252602080832090910154604080516338260dcb60e21b815290516001600160a01b039092169450849263e098372c92600480840193829003018186803b158015610fd357600080fd5b505afa158015610fe7573d6000803e3d6000fd5b505050506040513d601f19601f8201168201806040525081019061100b9190613125565b6001600160a01b031663d0c93a7c6040518163ffffffff1660e01b815260040160206040518083038186803b15801561104357600080fd5b505afa158015611057573d6000803e3d6000fd5b505050506040513d601f19601f8201168201806040525081019061107b91906131ff565b835190915060009061108d908861321c565b90506000662386f26fc100008213156110be5784602001518212156110b35750806110c8565b5060208401516110c8565b50662386f26fc100005b84516000906110d890600261325b565b6110e290836132e0565b905060006110ef82611417565b905060006110fc84611417565b90506000611112670de0b6b3a764000084613321565b90506000611128670de0b6b3a764000084613321565b905061113482896105f1565b9b5061114081896105f1565b60408051808201825260028f810b825283810b6020830190815292516384fc9ab560e01b81529151810b6004830152915190910b6024820152909b506001600160a01b038a16906384fc9ab590604401600060405180830381600087803b1580156111aa57600080fd5b505af11580156111be573d6000803e3d6000fd5b505050507fe584336872861713c2b818840d8398987fa9c9643560010e5cc7a6c8ea353670898d8d604051611215939291906001600160a01b03939093168352600291820b6020840152900b604082015260600190565b60405180910390a1505050505050505050509250929050565b60008281526001602052604081206106539083611ded565b60058054604080518082019091529182526412539594d560da1b60208301526000919084106112885760405162461bcd60e51b81526004016105029190612e31565b5060006006848154811061129e5761129e61305a565b906000526020600020906004020160405180608001604052908160008201548152602001600182015481526020016002820154815260200160038201548152505090506000600585815481106112f6576112f661305a565b600091825260208220015460408051636a9a6b1b60e11b815281516001600160a01b039093169450849263d534d63692600480840193919291829003018186803b15801561134357600080fd5b505afa158015611357573d6000803e3d6000fd5b505050506040513d601f19601f8201168201806040525081019061137b919061334f565b9050600061138c826020015161073b565b9050600061139d836000015161073b565b9050868560400151836113b09190613070565b111580156113cd5750808560400151886113ca9190613070565b11155b156113e0576000955050505050506104bc565b6001955050505050506104bc565b6000918252602082815260408084206001600160a01b0393909316845291905290205460ff1690565b600061143b61142583611df9565b611436670de111a6b7de4000611df9565b611ed8565b6104bc906133ae565b565b600061145130611faa565b6040516311e845ab60e21b81529091506001600160a01b038216906347a116ac90611486908890889088908890600401613088565b600060405180830381600087803b1580156114a057600080fd5b505af11580156114b4573d6000803e3d6000fd5b50505050949350505050565b60008181526001602052604081206104bc90612047565b6000828152602081905260409020600101546114f38133611628565b6106b883836116ae565b611444612051565b61150f82826113ee565b610737576000828152602081815260408083206001600160a01b03851684529091529020805460ff191660011790556115453390565b6001600160a01b0316816001600160a01b0316837f2f8788117e7eff1d82e926ec794901d17c78024a50270940304540a733656f0d60405160405180910390a45050565b6000610653836001600160a01b03841661238e565b60006001600160e01b03198216637965db0b60e01b14806104bc57506301ffc9a760e01b6001600160e01b03198316146104bc565b610737828261168c565b600082815260208190526040808220600101805490849055905190918391839186917fbd79b86ffe0ab8e8776151514217cd7cacd52c909f66475c3af44e129f0b00ff9190a4505050565b61163282826113ee565b6107375761164a816001600160a01b031660146123dd565b6116558360206123dd565b6040516020016116669291906133cb565b60408051601f198184030181529082905262461bcd60e51b825261050291600401612e31565b6116968282611505565b60008281526001602052604090206106b89082611589565b6116b88282612579565b60008281526001602052604090206106b890826125de565b60008060008360020b126116e7578260020b6116f4565b8260020b6116f4906133ae565b905061170362010deb19613440565b60020b8111156117395760405162461bcd60e51b81526020600482015260016024820152601560fa1b6044820152606401610502565b60006001821661174d57600160801b61175f565b6ffffcb933bd6fad37aa2d162d1a5940015b70ffffffffffffffffffffffffffffffffff169050600282161561179e576080611799826ffff97272373d413259a46990580e213a613463565b901c90505b60048216156117c85760806117c3826ffff2e50f5f656932ef12357cf3c7fdcc613463565b901c90505b60088216156117f25760806117ed826fffe5caca7e10e4e61c3624eaa0941cd0613463565b901c90505b601082161561181c576080611817826fffcb9843d60f6159c9db58835c926644613463565b901c90505b6020821615611846576080611841826fff973b41fa98c081472e6896dfb254c0613463565b901c90505b604082161561187057608061186b826fff2ea16466c96a3843ec78b326b52861613463565b901c90505b608082161561189a576080611895826ffe5dee046a99a2a811c461f1969c3053613463565b901c90505b6101008216156118c55760806118c0826ffcbe86c7900a88aedcffc83b479aa3a4613463565b901c90505b6102008216156118f05760806118eb826ff987a7253ac413176f2b074cf7815e54613463565b901c90505b61040082161561191b576080611916826ff3392b0822b70005940c7a398e4b70f3613463565b901c90505b610800821615611946576080611941826fe7159475a2c29b7443b29c7fa6e889d9613463565b901c90505b61100082161561197157608061196c826fd097f3bdfd2022b8845ad8f792aa5825613463565b901c90505b61200082161561199c576080611997826fa9f746462d870fdf8a65dc1f90e061e5613463565b901c90505b6140008216156119c75760806119c2826f70d869a156d2a1b890bb3df62baf32f7613463565b901c90505b6180008216156119f25760806119ed826f31be135f97d08fd981231505542fcfa6613463565b901c90505b62010000821615611a1e576080611a19826f09aa508b5b7a84e1c677de54f3e99bc9613463565b901c90505b60008460020b1315611a3957611a3681600019613482565b90505b611a4864010000000082613496565b15611a54576001611a57565b60005b611a689060ff16602083901c613070565b949350505050565b600080806000198587098587029250828110838203039150508060001415611aaa5760008411611a9f57600080fd5b508290049050610653565b808411611ab657600080fd5b6000848688096000868103871696879004966002600389028118808a02820302808a02820302808a02820302808a02820302808a02820302808a02909103029181900381900460010186841190950394909402919094039290920491909117919091029150509392505050565b600061065383836125f3565b6000826001600160a01b031663697222336040518163ffffffff1660e01b815260040160006040518083038186803b158015611b6a57600080fd5b505afa158015611b7e573d6000803e3d6000fd5b505050506040513d6000823e601f3d908101601f19168201604052611ba69190810190612fc0565b9050805160011460405180604001604052806005815260200164494e56544f60d81b81525090611be95760405162461bcd60e51b81526004016105029190612e31565b506003600081548110611bfe57611bfe61305a565b600091825260208220015482516001600160a01b03909116918391611c2557611c2561305a565b60200260200101516001600160a01b03161460405180604001604052806005815260200164494e56544f60d81b81525090611c735760405162461bcd60e51b81526004016105029190612e31565b506005805460018082019092557f036b6384b5eca791c62761152d0c79bb0604c104a5fb6f4eb0703f3154bb3db00180546001600160a01b0319166001600160a01b038616179055600680549182018155600090815283517ff652222313e28459528d920b65115c16c04f3efc82aaedc97be59f3f377c0d3f60049093029283015560208401517ff652222313e28459528d920b65115c16c04f3efc82aaedc97be59f3f377c0d4083015560408401517ff652222313e28459528d920b65115c16c04f3efc82aaedc97be59f3f377c0d4183015560608401517ff652222313e28459528d920b65115c16c04f3efc82aaedc97be59f3f377c0d4290920182905560078054909190611d85908490613070565b9091555050505050565b611d983361065a565b6040518060400160405280600381526020016223292160e91b81525090611dd25760405162461bcd60e51b81526004016105029190612e31565b50565b611dde3361065a565b80611d985750611d9833610eaf565b600061065383836126b5565b6000808213611e1e5760405163309fa7dd60e11b815260048101839052602401610502565b6000670de0b6b3a76400008312611e3757506001611e51565b6000199050826ec097ce7bc90715b34b9f10000000000492505b6000611e66670de0b6b3a764000085056126df565b670de0b6b3a7640000808202945090915084821d90811415611e8a57505002919050565b6706f05b59d3b200005b6000811315611ecf57670de0b6b3a7640000828002059150671bc16d674ec800008212611ec7579384019360019190911d905b60011d611e94565b50505002919050565b6000600160ff1b831480611eef5750600160ff1b82145b15611f0d5760405163b3c754a360e01b815260040160405180910390fd5b60008060008512611f1e5784611f23565b846000035b915060008412611f335783611f38565b836000035b90506000611f4f83670de0b6b3a7640000846127c3565b90506001600160ff1b03811115611f7c57604051637cb4bef560e01b815260048101829052602401610502565b600019808713908613808218600114611f955782611f9e565b611f9e836133ae565b98975050505050505050565b6000604051733d602d80600a3d3981f3363d3d373d3d3d363d7360601b81528260601b60148201526e5af43d82803e903d91602b57fd5bf360881b60288201526037816000f09150506001600160a01b0381166120425760405162461bcd60e51b8152602060048201526016602482015275115490cc4c4d8dce8818dc99585d194819985a5b195960521b6044820152606401610502565b919050565b60006104bc825490565b60045460038054604080516020808402820181019092528281526001600160a01b0390941693600093909290918301828280156120b757602002820191906000526020600020905b81546001600160a01b03168152600190910190602001808311612099575b5050505050905060006006805480602002602001604051908101604052809291908181526020016000905b8282101561213c5783829060005260206000209060040201604051806080016040529081600082015481526020016001820154815260200160028201548152602001600382015481525050815260200190600101906120e2565b50506007546040805160018082528183019092529495509093600093509150602080830190803683370190505090508360008151811061217e5761217e61305a565b60209081029190910101516040516370a0823160e01b81526001600160a01b038781166004830152909116906370a082319060240160206040518083038186803b1580156121cb57600080fd5b505afa1580156121df573d6000803e3d6000fd5b505050506040513d601f19601f8201168201806040525081019061220391906131b4565b816000815181106122165761221661305a565b602090810291909101015260408051600180825281830190925260009181602001602082028036833701905050905060005b600554811015610dca5760008582815181106122665761226661305a565b60200260200101516060015190508060001415612283575061237c565b6122a8846000815181106122995761229961305a565b60200260200101518287611a70565b836000815181106122bb576122bb61305a565b602002602001018181525050876001600160a01b0316632062d754600584815481106122e9576122e961305a565b6000918252602090912001546040516001600160e01b031960e084901b168152612323916001600160a01b0316908b9088906004016134aa565b600060405180830381600087803b15801561233d57600080fd5b505af1158015612351573d6000803e3d6000fd5b505050506040513d6000823e601f3d908101601f19168201604052612379919081019061354e565b50505b80612386816131cd565b915050612248565b60008181526001830160205260408120546123d5575081546001818101845560008481526020808220909301849055845484825282860190935260409020919091556104bc565b5060006104bc565b606060006123ec836002613463565b6123f7906002613070565b67ffffffffffffffff81111561240f5761240f612b5f565b6040519080825280601f01601f191660200182016040528015612439576020820181803683370190505b509050600360fc1b816000815181106124545761245461305a565b60200101906001600160f81b031916908160001a905350600f60fb1b816001815181106124835761248361305a565b60200101906001600160f81b031916908160001a90535060006124a7846002613463565b6124b2906001613070565b90505b600181111561252a576f181899199a1a9b1b9c1cb0b131b232b360811b85600f16601081106124e6576124e661305a565b1a60f81b8282815181106124fc576124fc61305a565b60200101906001600160f81b031916908160001a90535060049490941c93612523816135d4565b90506124b5565b5083156106535760405162461bcd60e51b815260206004820181905260248201527f537472696e67733a20686578206c656e67746820696e73756666696369656e746044820152606401610502565b61258382826113ee565b15610737576000828152602081815260408083206001600160a01b0385168085529252808320805460ff1916905551339285917ff6391f5c32d9c69d2a47ea670b442974b53935d1edc7fd64eb21e047a839171b9190a45050565b6000610653836001600160a01b038416612891565b60008080600019848609848602925082811083820303915050670de0b6b3a764000081106126375760405163698d9a0160e11b815260048101829052602401610502565b600080670de0b6b3a76400008688099150506706f05b59d3b1ffff8111826126715780670de0b6b3a76400008504019450505050506104bc565b620400008285030493909111909103600160ee1b02919091177faccb18165bd6fe31ae1cf318dc5b51eee0e1ba569b88cd74c1773b91fac106690201905092915050565b60008260000182815481106126cc576126cc61305a565b9060005260206000200154905092915050565b6000600160801b82106126ff57608091821c916126fc9082613070565b90505b68010000000000000000821061272257604091821c9161271f9082613070565b90505b640100000000821061274157602091821c9161273e9082613070565b90505b62010000821061275e57601091821c9161275b9082613070565b90505b610100821061277a57600891821c916127779082613070565b90505b6010821061279557600491821c916127929082613070565b90505b600482106127b057600291821c916127ad9082613070565b90505b60028210612042576104bc600182613070565b6000808060001985870985870292508281108382030391505080600014156127fe578382816127f4576127f4612e64565b0492505050610653565b83811061282857604051631dcf306360e21b81526004810182905260248101859052604401610502565b60008486880960026001871981018816978890046003810283188082028403028082028403028082028403028082028403028082028403029081029092039091026000889003889004909101858311909403939093029303949094049190911702949350505050565b6000818152600183016020526040812054801561297a5760006128b56001836131e8565b85549091506000906128c9906001906131e8565b905081811461292e5760008660000182815481106128e9576128e961305a565b906000526020600020015490508087600001848154811061290c5761290c61305a565b6000918252602080832090910192909255918252600188019052604090208390555b855486908061293f5761293f6135eb565b6001900381819060005260206000200160009055905585600101600086815260200190815260200160002060009055600193505050506104bc565b60009150506104bc565b8280548282559060005260206000209081019282156129d9579160200282015b828111156129d957825182546001600160a01b0319166001600160a01b039091161782556020909201916001909101906129a4565b506129e59291506129e9565b5090565b5b808211156129e557600081556001016129ea565b600060208284031215612a1057600080fd5b81356001600160e01b03198116811461065357600080fd5b6001600160a01b0381168114611dd257600080fd5b803561204281612a28565b600060208284031215612a5a57600080fd5b813561065381612a28565b8060020b8114611dd257600080fd5b60008060408385031215612a8757600080fd5b8235612a9281612a65565b91506020830135612aa281612a65565b809150509250929050565b600060208284031215612abf57600080fd5b5035919050565b60008060408385031215612ad957600080fd5b823591506020830135612aa281612a28565b600060208284031215612afd57600080fd5b813561065381612a65565b600081518084526020808501945080840160005b83811015612b415781516001600160a01b031687529582019590820190600101612b1c565b509495945050505050565b6020815260006106536020830184612b08565b634e487b7160e01b600052604160045260246000fd5b604051601f8201601f1916810167ffffffffffffffff81118282101715612b9e57612b9e612b5f565b604052919050565b600067ffffffffffffffff821115612bc057612bc0612b5f565b5060051b60200190565b600060808284031215612bdc57600080fd5b6040516080810181811067ffffffffffffffff82111715612bff57612bff612b5f565b8060405250809150823581526020830135602082015260408301356040820152606083013560608201525092915050565b600082601f830112612c4157600080fd5b81356020612c56612c5183612ba6565b612b75565b82815260079290921b84018101918181019086841115612c7557600080fd5b8286015b84811015612c9957612c8b8882612bca565b835291830191608001612c79565b509695505050505050565b60008060008060808587031215612cba57600080fd5b8435612cc581612a28565b935060208581013567ffffffffffffffff80821115612ce357600080fd5b818801915088601f830112612cf757600080fd5b8135612d05612c5182612ba6565b81815260059190911b8301840190848101908b831115612d2457600080fd5b938501935b82851015612d4b578435612d3c81612a28565b82529385019390850190612d29565b975050506040880135925080831115612d6357600080fd5b5050612d7187828801612c30565b925050612d8060608601612a3d565b905092959194509250565b81518152602080830151908201526040808301519082015260608083015190820152608081016104bc565b60008060a08385031215612dc957600080fd5b82359150612dda8460208501612bca565b90509250929050565b60008060408385031215612df657600080fd5b50508035926020909101359150565b60005b83811015612e20578181015183820152602001612e08565b838111156109a95750506000910152565b6020815260008251806020840152612e50816040850160208701612e05565b601f01601f19169190910160400192915050565b634e487b7160e01b600052601260045260246000fd5b634e487b7160e01b600052601160045260246000fd5b60008160020b8360020b80612ea757612ea7612e64565b627fffff19821460001982141615612ec157612ec1612e7a565b90059392505050565b60008260020b80612edd57612edd612e64565b808360020b0791505092915050565b60008160020b8360020b6000821282627fffff03821381151615612f1257612f12612e7a565b82627fffff19038212811615612f2a57612f2a612e7a565b50019392505050565b60008160020b8360020b627fffff600082136000841383830485118282161615612f5f57612f5f612e7a565b627fffff196000851282811687830587121615612f7e57612f7e612e7a565b60008712925085820587128484161615612f9a57612f9a612e7a565b85850587128184161615612fb057612fb0612e7a565b5050509290910295945050505050565b60006020808385031215612fd357600080fd5b825167ffffffffffffffff811115612fea57600080fd5b8301601f81018513612ffb57600080fd5b8051613009612c5182612ba6565b81815260059190911b8201830190838101908783111561302857600080fd5b928401925b8284101561304f57835161304081612a28565b8252928401929084019061302d565b979650505050505050565b634e487b7160e01b600052603260045260246000fd5b6000821982111561308357613083612e7a565b500190565b6001600160a01b03858116825260806020808401829052600092906130af85840189612b08565b858103604087015287518082528289019183019060005b8181101561310a576130fa838551805182526020810151602083015260408101516040830152606081015160608301525050565b92840192918601916001016130c6565b50508095505050508085166060850152505095945050505050565b60006020828403121561313757600080fd5b815161065381612a28565b60006060828403121561315457600080fd5b6040516060810181811067ffffffffffffffff8211171561317757613177612b5f565b604052825161318581612a28565b8152602083015161319581612a28565b602082015260408301516131a881612a28565b60408201529392505050565b6000602082840312156131c657600080fd5b5051919050565b60006000198214156131e1576131e1612e7a565b5060010190565b6000828210156131fa576131fa612e7a565b500390565b60006020828403121561321157600080fd5b815161065381612a65565b60008083128015600160ff1b85018412161561323a5761323a612e7a565b6001600160ff1b038401831381161561325557613255612e7a565b50500390565b60006001600160ff1b038184138284138082168684048611161561328157613281612e7a565b600160ff1b60008712828116878305891216156132a0576132a0612e7a565b600087129250878205871284841616156132bc576132bc612e7a565b878505871281841616156132d2576132d2612e7a565b505050929093029392505050565b600080821280156001600160ff1b038490038513161561330257613302612e7a565b600160ff1b839003841281161561331b5761331b612e7a565b50500190565b60008261333057613330612e64565b600160ff1b82146000198414161561334a5761334a612e7a565b500590565b60006040828403121561336157600080fd5b6040516040810181811067ffffffffffffffff8211171561338457613384612b5f565b604052825161339281612a65565b815260208301516133a281612a65565b60208201529392505050565b6000600160ff1b8214156133c4576133c4612e7a565b5060000390565b7f416363657373436f6e74726f6c3a206163636f756e7420000000000000000000815260008351613403816017850160208801612e05565b7001034b99036b4b9b9b4b733903937b6329607d1b6017918401918201528351613434816028840160208801612e05565b01602801949350505050565b60008160020b627fffff1981141561345a5761345a612e7a565b60000392915050565b600081600019048311821515161561347d5761347d612e7a565b500290565b60008261349157613491612e64565b500490565b6000826134a5576134a5612e64565b500690565b6001600160a01b0384811682526080602080840182905285519184018290526000928682019290919060a0860190855b818110156134f85785518516835294830194918301916001016134da565b5050858103604087015286518082529082019350915080860160005b8381101561353057815185529382019390820190600101613514565b50505050828103606084015260008152602081019695505050505050565b6000602080838503121561356157600080fd5b825167ffffffffffffffff81111561357857600080fd5b8301601f8101851361358957600080fd5b8051613597612c5182612ba6565b81815260059190911b820183019083810190878311156135b657600080fd5b928401925b8284101561304f578351825292840192908401906135bb565b6000816135e3576135e3612e7a565b506000190190565b634e487b7160e01b600052603160045260246000fdfec171260023d22a25a00a2789664c9334017843b831138c8ef03cc8897e5873d7f23ec0bb4210edd5cba85afd05127efcd2fc6a781bfed49188da1081670b22d846a52cf33029de9f84853745a87af28464c80bf0346df1b32e205fc73319f622a264697066735822122055d98d35662feff477f601b949541f02c8bcda4294f0492f5d35e165937a01be64736f6c63430008090033f23ec0bb4210edd5cba85afd05127efcd2fc6a781bfed49188da1081670b22d846a52cf33029de9f84853745a87af28464c80bf0346df1b32e205fc73319f622",
  "devdoc": {
    "kind": "dev",
    "methods": {
      "convertFixedRateToTick(int256)": {
        "params": {
          "fixedRateWad": "The fixed rate to be converted to a tick in wad"
        },
        "returns": {
          "_0": "int256 The tick in wad"
        }
      },
      "convertTickToFixedRate(int24)": {
        "params": {
          "tick": "The tick to be converted into fixed rate"
        },
        "returns": {
          "_0": "uint256 The fixed rate in wad (1.0001 ^ -tick)"
        }
      },
      "getRoleAdmin(bytes32)": {
        "details": "Returns the admin role that controls `role`. See {grantRole} and {revokeRole}. To change a role's admin, use {_setRoleAdmin}."
      },
      "getRoleMember(bytes32,uint256)": {
        "details": "Returns one of the accounts that have `role`. `index` must be a value between 0 and {getRoleMemberCount}, non-inclusive. Role bearers are not sorted in any particular way, and their ordering may change at any point. WARNING: When using {getRoleMember} and {getRoleMemberCount}, make sure you perform all queries on the same block. See the following https://forum.openzeppelin.com/t/iterating-over-elements-on-enumerableset-in-openzeppelin-contracts/2296[forum post] for more information."
      },
      "getRoleMemberCount(bytes32)": {
        "details": "Returns the number of accounts that have `role`. Can be used together with {getRoleMember} to enumerate all bearers of a role."
      },
      "getVaultParams(uint256)": {
        "params": {
          "index": "The index of the vault in _vaults"
        }
      },
      "grantRole(bytes32,address)": {
        "details": "Grants `role` to `account`. If `account` had not been already granted `role`, emits a {RoleGranted} event. Requirements: - the caller must have ``role``'s admin role."
      },
      "hasRole(bytes32,address)": {
        "details": "Returns `true` if `account` has been granted `role`."
      },
      "init(address)": {
        "params": {
          "admin": "Admin of the contract"
        }
      },
      "initialize(address,address[],(int256,int256,uint256,uint256)[],address)": {
        "params": {
          "admin_": "Admin of the strategy",
          "erc20vault_": "Reference to ERC20 Vault",
          "vaultParams_": "Rebalancing parameters of the voltz vaults",
          "vaults_": "Reference to Voltz Vaults"
        }
      },
      "isAdmin(address)": {
        "params": {
          "who": "Address to check"
        },
        "returns": {
          "_0": "`true` if who is admin, `false` otherwise"
        }
      },
      "isOperator(address)": {
        "params": {
          "who": "Address to check"
        },
        "returns": {
          "_0": "`true` if who is operator, `false` otherwise"
        }
      },
      "nearestTickMultiple(int24,int24)": {
        "params": {
          "newTick": "The tick to be rounded to the closest multiple of tickSpacing",
          "tickSpacing": "The tick spacing of the vamm being used for this strategy"
        },
        "returns": {
          "_0": "int24 The nearest tick multiple for newTick"
        }
      },
      "rebalanceCheck(uint256,uint256)": {
        "params": {
          "currentFixedRateWad": "currentFixedRate which is passed in from a 7-day rolling avg. historical fixed rate",
          "index": "The index of the vault in _vaults"
        },
        "returns": {
          "_0": "bool True if rebalanceTicks should be called, false otherwise"
        }
      },
      "rebalanceTicks(uint256,uint256)": {
        "params": {
          "currentFixedRateWad": "currentFixedRate which is passed in from a 7-day rolling avg. historical fixed rate.",
          "index": "The index of the vault in _vaults"
        },
        "returns": {
          "newTickLower": "The new lower tick for the rebalanced position",
          "newTickUpper": "The new upper tick for the rebalanced position"
        }
      },
      "renounceRole(bytes32,address)": {
        "details": "Revokes `role` from the calling account. Roles are often managed via {grantRole} and {revokeRole}: this function's purpose is to provide a mechanism for accounts to lose their privileges if they are compromised (such as when a trusted device is misplaced). If the calling account had been revoked `role`, emits a {RoleRevoked} event. Requirements: - the caller must be `account`."
      },
      "revokeRole(bytes32,address)": {
        "details": "Revokes `role` from `account`. If `account` had been granted `role`, emits a {RoleRevoked} event. Requirements: - the caller must have ``role``'s admin role."
      },
      "setVaultParams(uint256,(int256,int256,uint256,uint256))": {
        "params": {
          "index": "The index of the vault in _vaults",
          "vaultParams_": "The new parameters of the vault"
        }
      },
      "supportsInterface(bytes4)": {
        "details": "See {IERC165-supportsInterface}."
      }
    },
    "version": 1
  },
  "userdoc": {
    "errors": {
      "PRBMathSD59x18__DivInputTooSmall()": [
        {
          "notice": "Emitted when one of the inputs is MIN_SD59x18."
        }
      ],
      "PRBMathSD59x18__DivOverflow(uint256)": [
        {
          "notice": "Emitted when one of the intermediary unsigned results overflows SD59x18."
        }
      ],
      "PRBMathSD59x18__LogInputTooSmall(int256)": [
        {
          "notice": "Emitted when the input is less than or equal to zero."
        }
      ],
      "PRBMath__MulDivFixedPointOverflow(uint256)": [
        {
          "notice": "Emitted when the result overflows uint256."
        }
      ],
      "PRBMath__MulDivOverflow(uint256,uint256)": [
        {
          "notice": "Emitted when the result overflows uint256."
        }
      ]
    },
    "kind": "user",
    "methods": {
      "convertFixedRateToTick(int256)": {
        "notice": "Convert a fixed rate to a tick in wad"
      },
      "convertTickToFixedRate(int24)": {
        "notice": "Get the fixed rate corresponding to tick"
      },
      "depositCallback()": {
        "notice": "Callback function called after for ERC20RootVault::deposit"
      },
      "getVaultParams(uint256)": {
        "notice": "Get the parameters of a vault"
      },
      "getVaults()": {
        "notice": "Get the addresses of all vaults"
      },
      "init(address)": {
        "notice": "Initializes a new contract with roles and single ADMIN."
      },
      "initialize(address,address[],(int256,int256,uint256,uint256)[],address)": {
        "notice": "Constructor for a new contract"
      },
      "isAdmin(address)": {
        "notice": "Checks that the address is contract admin."
      },
      "isOperator(address)": {
        "notice": "Checks that the address is contract admin."
      },
      "nearestTickMultiple(int24,int24)": {
        "notice": "Get the nearest tick multiple given a tick and tick spacing"
      },
      "rebalanceCheck(uint256,uint256)": {
        "notice": "Get the current tick and position ticks and decide whether to rebalance"
      },
      "rebalanceTicks(uint256,uint256)": {
        "notice": "Set new optimal tick range based on current twap tick given that we are using the offchain moving average of the fixed rate in the current iteration"
      },
      "setVaultParams(uint256,(int256,int256,uint256,uint256))": {
        "notice": "Set the parameters of a vault"
      },
      "withdrawCallback()": {
        "notice": "Callback function called after for ERC20RootVault::withdraw"
      }
    },
    "version": 1
  },
  "storageLayout": {
    "storage": [
      {
        "astId": 24,
        "contract": "contracts/strategies/LPOptimiserStrategy.sol:LPOptimiserStrategy",
        "label": "_roles",
        "offset": 0,
        "slot": "0",
        "type": "t_mapping(t_bytes32,t_struct(RoleData)19_storage)"
      },
      {
        "astId": 327,
        "contract": "contracts/strategies/LPOptimiserStrategy.sol:LPOptimiserStrategy",
        "label": "_roleMembers",
        "offset": 0,
        "slot": "1",
        "type": "t_mapping(t_bytes32,t_struct(AddressSet)4305_storage)"
      },
      {
        "astId": 35304,
        "contract": "contracts/strategies/LPOptimiserStrategy.sol:LPOptimiserStrategy",
        "label": "initialized",
        "offset": 0,
        "slot": "2",
        "type": "t_bool"
      },
      {
        "astId": 27913,
        "contract": "contracts/strategies/LPOptimiserStrategy.sol:LPOptimiserStrategy",
        "label": "tokens",
        "offset": 0,
        "slot": "3",
        "type": "t_array(t_address)dyn_storage"
      },
      {
        "astId": 27916,
        "contract": "contracts/strategies/LPOptimiserStrategy.sol:LPOptimiserStrategy",
        "label": "erc20Vault",
        "offset": 0,
        "slot": "4",
        "type": "t_contract(IERC20Vault)20449"
      },
      {
        "astId": 27920,
        "contract": "contracts/strategies/LPOptimiserStrategy.sol:LPOptimiserStrategy",
        "label": "_vaults",
        "offset": 0,
        "slot": "5",
        "type": "t_array(t_contract(IVoltzVault)21612)dyn_storage"
      },
      {
        "astId": 27924,
        "contract": "contracts/strategies/LPOptimiserStrategy.sol:LPOptimiserStrategy",
        "label": "_vaultParams",
        "offset": 0,
        "slot": "6",
        "type": "t_array(t_struct(VaultParams)27910_storage)dyn_storage"
      },
      {
        "astId": 27926,
        "contract": "contracts/strategies/LPOptimiserStrategy.sol:LPOptimiserStrategy",
        "label": "_totalWeight",
        "offset": 0,
        "slot": "7",
        "type": "t_uint256"
      }
    ],
    "types": {
      "t_address": {
        "encoding": "inplace",
        "label": "address",
        "numberOfBytes": "20"
      },
      "t_array(t_address)dyn_storage": {
        "base": "t_address",
        "encoding": "dynamic_array",
        "label": "address[]",
        "numberOfBytes": "32"
      },
      "t_array(t_bytes32)dyn_storage": {
        "base": "t_bytes32",
        "encoding": "dynamic_array",
        "label": "bytes32[]",
        "numberOfBytes": "32"
      },
      "t_array(t_contract(IVoltzVault)21612)dyn_storage": {
        "base": "t_contract(IVoltzVault)21612",
        "encoding": "dynamic_array",
        "label": "contract IVoltzVault[]",
        "numberOfBytes": "32"
      },
      "t_array(t_struct(VaultParams)27910_storage)dyn_storage": {
        "base": "t_struct(VaultParams)27910_storage",
        "encoding": "dynamic_array",
        "label": "struct LPOptimiserStrategy.VaultParams[]",
        "numberOfBytes": "32"
      },
      "t_bool": {
        "encoding": "inplace",
        "label": "bool",
        "numberOfBytes": "1"
      },
      "t_bytes32": {
        "encoding": "inplace",
        "label": "bytes32",
        "numberOfBytes": "32"
      },
      "t_contract(IERC20Vault)20449": {
        "encoding": "inplace",
        "label": "contract IERC20Vault",
        "numberOfBytes": "20"
      },
      "t_contract(IVoltzVault)21612": {
        "encoding": "inplace",
        "label": "contract IVoltzVault",
        "numberOfBytes": "20"
      },
      "t_int256": {
        "encoding": "inplace",
        "label": "int256",
        "numberOfBytes": "32"
      },
      "t_mapping(t_address,t_bool)": {
        "encoding": "mapping",
        "key": "t_address",
        "label": "mapping(address => bool)",
        "numberOfBytes": "32",
        "value": "t_bool"
      },
      "t_mapping(t_bytes32,t_struct(AddressSet)4305_storage)": {
        "encoding": "mapping",
        "key": "t_bytes32",
        "label": "mapping(bytes32 => struct EnumerableSet.AddressSet)",
        "numberOfBytes": "32",
        "value": "t_struct(AddressSet)4305_storage"
      },
      "t_mapping(t_bytes32,t_struct(RoleData)19_storage)": {
        "encoding": "mapping",
        "key": "t_bytes32",
        "label": "mapping(bytes32 => struct AccessControl.RoleData)",
        "numberOfBytes": "32",
        "value": "t_struct(RoleData)19_storage"
      },
      "t_mapping(t_bytes32,t_uint256)": {
        "encoding": "mapping",
        "key": "t_bytes32",
        "label": "mapping(bytes32 => uint256)",
        "numberOfBytes": "32",
        "value": "t_uint256"
      },
      "t_struct(AddressSet)4305_storage": {
        "encoding": "inplace",
        "label": "struct EnumerableSet.AddressSet",
        "members": [
          {
            "astId": 4304,
            "contract": "contracts/strategies/LPOptimiserStrategy.sol:LPOptimiserStrategy",
            "label": "_inner",
            "offset": 0,
            "slot": "0",
            "type": "t_struct(Set)4004_storage"
          }
        ],
        "numberOfBytes": "64"
      },
      "t_struct(RoleData)19_storage": {
        "encoding": "inplace",
        "label": "struct AccessControl.RoleData",
        "members": [
          {
            "astId": 16,
            "contract": "contracts/strategies/LPOptimiserStrategy.sol:LPOptimiserStrategy",
            "label": "members",
            "offset": 0,
            "slot": "0",
            "type": "t_mapping(t_address,t_bool)"
          },
          {
            "astId": 18,
            "contract": "contracts/strategies/LPOptimiserStrategy.sol:LPOptimiserStrategy",
            "label": "adminRole",
            "offset": 0,
            "slot": "1",
            "type": "t_bytes32"
          }
        ],
        "numberOfBytes": "64"
      },
      "t_struct(Set)4004_storage": {
        "encoding": "inplace",
        "label": "struct EnumerableSet.Set",
        "members": [
          {
            "astId": 3999,
            "contract": "contracts/strategies/LPOptimiserStrategy.sol:LPOptimiserStrategy",
            "label": "_values",
            "offset": 0,
            "slot": "0",
            "type": "t_array(t_bytes32)dyn_storage"
          },
          {
            "astId": 4003,
            "contract": "contracts/strategies/LPOptimiserStrategy.sol:LPOptimiserStrategy",
            "label": "_indexes",
            "offset": 0,
            "slot": "1",
            "type": "t_mapping(t_bytes32,t_uint256)"
          }
        ],
        "numberOfBytes": "64"
      },
      "t_struct(VaultParams)27910_storage": {
        "encoding": "inplace",
        "label": "struct LPOptimiserStrategy.VaultParams",
        "members": [
          {
            "astId": 27903,
            "contract": "contracts/strategies/LPOptimiserStrategy.sol:LPOptimiserStrategy",
            "label": "sigmaWad",
            "offset": 0,
            "slot": "0",
            "type": "t_int256"
          },
          {
            "astId": 27905,
            "contract": "contracts/strategies/LPOptimiserStrategy.sol:LPOptimiserStrategy",
            "label": "maxPossibleLowerBoundWad",
            "offset": 0,
            "slot": "1",
            "type": "t_int256"
          },
          {
            "astId": 27907,
            "contract": "contracts/strategies/LPOptimiserStrategy.sol:LPOptimiserStrategy",
            "label": "proximityWad",
            "offset": 0,
            "slot": "2",
            "type": "t_uint256"
          },
          {
            "astId": 27909,
            "contract": "contracts/strategies/LPOptimiserStrategy.sol:LPOptimiserStrategy",
            "label": "weight",
            "offset": 0,
            "slot": "3",
            "type": "t_uint256"
          }
        ],
        "numberOfBytes": "128"
      },
      "t_uint256": {
        "encoding": "inplace",
        "label": "uint256",
        "numberOfBytes": "32"
      }
    }
  }
}