{
  "address": "0xe52C64B3C782F02bD1AFF33027C899132ECa7345",
  "abi": [
    {
      "inputs": [
        {
          "internalType": "contract IUniV2Oracle",
          "name": "univ2Oracle_",
          "type": "address"
        },
        {
          "internalType": "contract IUniV3Oracle",
          "name": "univ3Oracle_",
          "type": "address"
        },
        {
          "internalType": "contract IChainlinkOracle",
          "name": "chainlinkOracle_",
          "type": "address"
        }
      ],
      "stateMutability": "nonpayable",
      "type": "constructor"
    },
    {
      "inputs": [],
      "name": "chainlinkOracle",
      "outputs": [
        {
          "internalType": "contract IChainlinkOracle",
          "name": "",
          "type": "address"
        }
      ],
      "stateMutability": "view",
      "type": "function"
    },
    {
      "inputs": [],
      "name": "contractName",
      "outputs": [
        {
          "internalType": "string",
          "name": "",
          "type": "string"
        }
      ],
      "stateMutability": "pure",
      "type": "function"
    },
    {
      "inputs": [],
      "name": "contractNameBytes",
      "outputs": [
        {
          "internalType": "bytes32",
          "name": "",
          "type": "bytes32"
        }
      ],
      "stateMutability": "pure",
      "type": "function"
    },
    {
      "inputs": [],
      "name": "contractVersion",
      "outputs": [
        {
          "internalType": "string",
          "name": "",
          "type": "string"
        }
      ],
      "stateMutability": "pure",
      "type": "function"
    },
    {
      "inputs": [],
      "name": "contractVersionBytes",
      "outputs": [
        {
          "internalType": "bytes32",
          "name": "",
          "type": "bytes32"
        }
      ],
      "stateMutability": "pure",
      "type": "function"
    },
    {
      "inputs": [
        {
          "internalType": "address",
          "name": "token0",
          "type": "address"
        },
        {
          "internalType": "address",
          "name": "token1",
          "type": "address"
        },
        {
          "internalType": "uint256",
          "name": "safetyIndicesSet",
          "type": "uint256"
        }
      ],
      "name": "priceX96",
      "outputs": [
        {
          "internalType": "uint256[]",
          "name": "pricesX96",
          "type": "uint256[]"
        },
        {
          "internalType": "uint256[]",
          "name": "safetyIndices",
          "type": "uint256[]"
        }
      ],
      "stateMutability": "view",
      "type": "function"
    },
    {
      "inputs": [
        {
          "internalType": "bytes4",
          "name": "interfaceId",
          "type": "bytes4"
        }
      ],
      "name": "supportsInterface",
      "outputs": [
        {
          "internalType": "bool",
          "name": "",
          "type": "bool"
        }
      ],
      "stateMutability": "view",
      "type": "function"
    },
    {
      "inputs": [],
      "name": "univ2Oracle",
      "outputs": [
        {
          "internalType": "contract IUniV2Oracle",
          "name": "",
          "type": "address"
        }
      ],
      "stateMutability": "view",
      "type": "function"
    },
    {
      "inputs": [],
      "name": "univ3Oracle",
      "outputs": [
        {
          "internalType": "contract IUniV3Oracle",
          "name": "",
          "type": "address"
        }
      ],
      "stateMutability": "view",
      "type": "function"
    }
  ],
  "transactionHash": "0xb999d802fb9c3c10cc7cbe6122f3ffdc0861cdc9903c8525658cfbbcc4b4028d",
  "args": [
    "0x0000000000000000000000000000000000000000",
    "0xeCf9Dd8351751109aDf962861c50132c2AF7c506",
    "0x145B13448F622332a49f498D21718D03B32Cb7E8"
  ],
  "solcInputHash": "97749e9655fb1b089b82feb1780452f8",
  "bytecode": "0x60e060405234801561001057600080fd5b50604051610a20380380610a2083398101604081905261002f91610064565b6001600160a01b0392831660805290821660a0521660c0526100b1565b6001600160a01b038116811461006157600080fd5b50565b60008060006060848603121561007957600080fd5b83516100848161004c565b60208501519093506100958161004c565b60408501519092506100a68161004c565b809150509250925092565b60805160a05160c051610917610109600039600081816101960152818161052f015261055e01526000818161016f015281816104a701526104d601526000818160f20152818161041f015261044e01526109176000f3fe608060405234801561001057600080fd5b50600436106100935760003560e01c80636d80125b116100665780636d80125b1461012c57806375d0c0dc1461014d578063a0a8e46014610162578063b9fdd5fa1461016a578063ef06e72c1461019157600080fd5b806301ffc9a71461009857806306a46239146100c05780630e3e80ac146100d8578063665658be146100ed575b600080fd5b6100ab6100a6366004610626565b6101b8565b60405190151581526020015b60405180910390f35b640312e302e360dc1b5b6040519081526020016100b7565b6b4d656c6c6f774f7261636c6560a01b6100ca565b6101147f000000000000000000000000000000000000000000000000000000000000000081565b6040516001600160a01b0390911681526020016100b7565b61013f61013a366004610673565b6101f4565b6040516100b79291906106ea565b6101556103cc565b6040516100b79190610718565b6101556103e6565b6101147f000000000000000000000000000000000000000000000000000000000000000081565b6101147f000000000000000000000000000000000000000000000000000000000000000081565b60006301ffc9a760e01b6001600160e01b0319831614806101e95750636d80125b60e01b6001600160e01b03198316145b92915050565b905090565b60608060006102016103f9565b60408051600680825260e082019092529192506020820160c080368337505060408051600680825260e0820190925292955090506020820160c0803683370190505091506000805b82518110156103bb57600083828151811061026657610266610783565b6020908102919091010151604051636d80125b60e01b81526001600160a01b038b811660048301528a81166024830152604482018a9052919250600091829190841690636d80125b9060640160006040518083038186803b1580156102ca57600080fd5b505afa1580156102de573d6000803e3d6000fd5b505050506040513d6000823e601f3d908101601f191682016040526103069190810190610834565b9150915060005b82518110156103a45782818151811061032857610328610783565b602002602001015189878151811061034257610342610783565b60200260200101818152505081818151811061036057610360610783565b602002602001015188878151811061037a5761037a610783565b60209081029190910101526103906001876108ae565b95508061039c816108c6565b91505061030d565b5050505080806103b3906108c6565b915050610249565b508084528083525050935093915050565b60606101ef6b4d656c6c6f774f7261636c6560a01b6105ba565b60606101ef640312e302e360dc1b6105ba565b6040805160038082526080820190925260609160208201838036833701905050905060007f00000000000000000000000000000000000000000000000000000000000000006001600160a01b0316156104a5577f000000000000000000000000000000000000000000000000000000000000000082828151811061047f5761047f610783565b6001600160a01b03909216602092830291909101909101526104a26001826108ae565b90505b7f00000000000000000000000000000000000000000000000000000000000000006001600160a01b03161561052d577f000000000000000000000000000000000000000000000000000000000000000082828151811061050757610507610783565b6001600160a01b039092166020928302919091019091015261052a6001826108ae565b90505b7f00000000000000000000000000000000000000000000000000000000000000006001600160a01b0316156105b5577f000000000000000000000000000000000000000000000000000000000000000082828151811061058f5761058f610783565b6001600160a01b03909216602092830291909101909101526105b26001826108ae565b90505b815290565b604080516020808252818301909252606091602082018180368337019050509050602060005b6020811015610618578381602081106105fb576105fb610783565b1a61060857809150610618565b610611816108c6565b90506105e0565b508152602081019190915290565b60006020828403121561063857600080fd5b81356001600160e01b03198116811461065057600080fd5b9392505050565b80356001600160a01b038116811461066e57600080fd5b919050565b60008060006060848603121561068857600080fd5b61069184610657565b925061069f60208501610657565b9150604084013590509250925092565b600081518084526020808501945080840160005b838110156106df578151875295820195908201906001016106c3565b509495945050505050565b6040815260006106fd60408301856106af565b828103602084015261070f81856106af565b95945050505050565b600060208083528351808285015260005b8181101561074557858101830151858201604001528201610729565b81811115610757576000604083870101525b50601f01601f1916929092016040019392505050565b634e487b7160e01b600052604160045260246000fd5b634e487b7160e01b600052603260045260246000fd5b600082601f8301126107aa57600080fd5b8151602067ffffffffffffffff808311156107c7576107c761076d565b8260051b604051601f19603f830116810181811084821117156107ec576107ec61076d565b60405293845285810183019383810192508785111561080a57600080fd5b83870191505b8482101561082957815183529183019190830190610810565b979650505050505050565b6000806040838503121561084757600080fd5b825167ffffffffffffffff8082111561085f57600080fd5b61086b86838701610799565b9350602085015191508082111561088157600080fd5b5061088e85828601610799565b9150509250929050565b634e487b7160e01b600052601160045260246000fd5b600082198211156108c1576108c1610898565b500190565b60006000198214156108da576108da610898565b506001019056fea2646970667358221220c265da868576dde2da35ef701c99899ff2d9231ae383a610e061bfb5d1f5bbe664736f6c63430008090033",
  "devdoc": {
    "kind": "dev",
    "methods": {
      "priceX96(address,address,uint256)": {
        "details": "The price is token1 / token0 i.e. how many weis of token1 required for 1 wei of token0. The safety indexes are: 1 - unsafe, this is typically a spot price that can be easily manipulated, 2 - 4 - more or less safe, this is typically a uniV3 oracle, where the safety is defined by the timespan of the average price 5 - safe - this is typically a chailink oracle",
        "params": {
          "safetyIndicesSet": "Bitmask of safety indices that are allowed for the return prices. For set of safety indexes = { 1 }, safetyIndicesSet = 0x2",
          "token0": "Reference to token0",
          "token1": "Reference to token1"
        },
        "returns": {
          "pricesX96": "Prices that satisfy safetyIndex and tokens",
          "safetyIndices": "Safety indices for those prices"
        }
      },
      "supportsInterface(bytes4)": {
        "details": "Returns true if this contract implements the interface defined by `interfaceId`. See the corresponding https://eips.ethereum.org/EIPS/eip-165#how-interfaces-are-identified[EIP section] to learn more about how these ids are created. This function call must use less than 30 000 gas."
      }
    },
    "version": 1
  },
  "userdoc": {
    "kind": "user",
    "methods": {
      "chainlinkOracle()": {
        "notice": "Reference to Chainlink oracle"
      },
      "priceX96(address,address,uint256)": {
        "notice": "Oracle price for tokens as a Q64.96 value.Returns pricing information based on the indexes of non-zero bits in safetyIndicesSet.It is possible that not all indices will have their respective prices returned."
      },
      "univ2Oracle()": {
        "notice": "Reference to UniV2 oracle"
      },
      "univ3Oracle()": {
        "notice": "Reference to UniV3 oracle"
      }
    },
    "version": 1
  },
  "storageLayout": {
    "storage": [],
    "types": null
  }
}