{
  "address": "0xeCf9Dd8351751109aDf962861c50132c2AF7c506",
  "abi": [
    {
      "inputs": [
        {
          "internalType": "contract IUniswapV3Factory",
          "name": "factory_",
          "type": "address"
        },
        {
          "internalType": "contract IUniswapV3Pool[]",
          "name": "pools",
          "type": "address[]"
        },
        {
          "internalType": "address",
          "name": "admin",
          "type": "address"
        }
      ],
      "stateMutability": "nonpayable",
      "type": "constructor"
    },
    {
      "anonymous": false,
      "inputs": [
        {
          "indexed": true,
          "internalType": "address",
          "name": "origin",
          "type": "address"
        },
        {
          "indexed": true,
          "internalType": "address",
          "name": "sender",
          "type": "address"
        },
        {
          "indexed": false,
          "internalType": "contract IUniswapV3Pool[]",
          "name": "pools",
          "type": "address[]"
        },
        {
          "indexed": false,
          "internalType": "contract IUniswapV3Pool[]",
          "name": "replacedPools",
          "type": "address[]"
        }
      ],
      "name": "PoolsUpdated",
      "type": "event"
    },
    {
      "anonymous": false,
      "inputs": [
        {
          "indexed": true,
          "internalType": "bytes32",
          "name": "role",
          "type": "bytes32"
        },
        {
          "indexed": true,
          "internalType": "bytes32",
          "name": "previousAdminRole",
          "type": "bytes32"
        },
        {
          "indexed": true,
          "internalType": "bytes32",
          "name": "newAdminRole",
          "type": "bytes32"
        }
      ],
      "name": "RoleAdminChanged",
      "type": "event"
    },
    {
      "anonymous": false,
      "inputs": [
        {
          "indexed": true,
          "internalType": "bytes32",
          "name": "role",
          "type": "bytes32"
        },
        {
          "indexed": true,
          "internalType": "address",
          "name": "account",
          "type": "address"
        },
        {
          "indexed": true,
          "internalType": "address",
          "name": "sender",
          "type": "address"
        }
      ],
      "name": "RoleGranted",
      "type": "event"
    },
    {
      "anonymous": false,
      "inputs": [
        {
          "indexed": true,
          "internalType": "bytes32",
          "name": "role",
          "type": "bytes32"
        },
        {
          "indexed": true,
          "internalType": "address",
          "name": "account",
          "type": "address"
        },
        {
          "indexed": true,
          "internalType": "address",
          "name": "sender",
          "type": "address"
        }
      ],
      "name": "RoleRevoked",
      "type": "event"
    },
    {
      "inputs": [],
      "name": "ADMIN_DELEGATE_ROLE",
      "outputs": [
        {
          "internalType": "bytes32",
          "name": "",
          "type": "bytes32"
        }
      ],
      "stateMutability": "view",
      "type": "function"
    },
    {
      "inputs": [],
      "name": "ADMIN_ROLE",
      "outputs": [
        {
          "internalType": "bytes32",
          "name": "",
          "type": "bytes32"
        }
      ],
      "stateMutability": "view",
      "type": "function"
    },
    {
      "inputs": [],
      "name": "DEFAULT_ADMIN_ROLE",
      "outputs": [
        {
          "internalType": "bytes32",
          "name": "",
          "type": "bytes32"
        }
      ],
      "stateMutability": "view",
      "type": "function"
    },
    {
      "inputs": [],
      "name": "HIGH_OBS_DELTA",
      "outputs": [
        {
          "internalType": "uint32",
          "name": "",
          "type": "uint32"
        }
      ],
      "stateMutability": "view",
      "type": "function"
    },
    {
      "inputs": [],
      "name": "LOW_OBS_DELTA",
      "outputs": [
        {
          "internalType": "uint32",
          "name": "",
          "type": "uint32"
        }
      ],
      "stateMutability": "view",
      "type": "function"
    },
    {
      "inputs": [],
      "name": "MID_OBS_DELTA",
      "outputs": [
        {
          "internalType": "uint32",
          "name": "",
          "type": "uint32"
        }
      ],
      "stateMutability": "view",
      "type": "function"
    },
    {
      "inputs": [],
      "name": "OPERATOR",
      "outputs": [
        {
          "internalType": "bytes32",
          "name": "",
          "type": "bytes32"
        }
      ],
      "stateMutability": "view",
      "type": "function"
    },
    {
      "inputs": [
        {
          "internalType": "contract IUniswapV3Pool[]",
          "name": "pools",
          "type": "address[]"
        }
      ],
      "name": "addUniV3Pools",
      "outputs": [],
      "stateMutability": "nonpayable",
      "type": "function"
    },
    {
      "inputs": [],
      "name": "contractName",
      "outputs": [
        {
          "internalType": "string",
          "name": "",
          "type": "string"
        }
      ],
      "stateMutability": "pure",
      "type": "function"
    },
    {
      "inputs": [],
      "name": "contractNameBytes",
      "outputs": [
        {
          "internalType": "bytes32",
          "name": "",
          "type": "bytes32"
        }
      ],
      "stateMutability": "pure",
      "type": "function"
    },
    {
      "inputs": [],
      "name": "contractVersion",
      "outputs": [
        {
          "internalType": "string",
          "name": "",
          "type": "string"
        }
      ],
      "stateMutability": "pure",
      "type": "function"
    },
    {
      "inputs": [],
      "name": "contractVersionBytes",
      "outputs": [
        {
          "internalType": "bytes32",
          "name": "",
          "type": "bytes32"
        }
      ],
      "stateMutability": "pure",
      "type": "function"
    },
    {
      "inputs": [],
      "name": "factory",
      "outputs": [
        {
          "internalType": "contract IUniswapV3Factory",
          "name": "",
          "type": "address"
        }
      ],
      "stateMutability": "view",
      "type": "function"
    },
    {
      "inputs": [
        {
          "internalType": "bytes32",
          "name": "role",
          "type": "bytes32"
        }
      ],
      "name": "getRoleAdmin",
      "outputs": [
        {
          "internalType": "bytes32",
          "name": "",
          "type": "bytes32"
        }
      ],
      "stateMutability": "view",
      "type": "function"
    },
    {
      "inputs": [
        {
          "internalType": "bytes32",
          "name": "role",
          "type": "bytes32"
        },
        {
          "internalType": "uint256",
          "name": "index",
          "type": "uint256"
        }
      ],
      "name": "getRoleMember",
      "outputs": [
        {
          "internalType": "address",
          "name": "",
          "type": "address"
        }
      ],
      "stateMutability": "view",
      "type": "function"
    },
    {
      "inputs": [
        {
          "internalType": "bytes32",
          "name": "role",
          "type": "bytes32"
        }
      ],
      "name": "getRoleMemberCount",
      "outputs": [
        {
          "internalType": "uint256",
          "name": "",
          "type": "uint256"
        }
      ],
      "stateMutability": "view",
      "type": "function"
    },
    {
      "inputs": [
        {
          "internalType": "bytes32",
          "name": "role",
          "type": "bytes32"
        },
        {
          "internalType": "address",
          "name": "account",
          "type": "address"
        }
      ],
      "name": "grantRole",
      "outputs": [],
      "stateMutability": "nonpayable",
      "type": "function"
    },
    {
      "inputs": [
        {
          "internalType": "bytes32",
          "name": "role",
          "type": "bytes32"
        },
        {
          "internalType": "address",
          "name": "account",
          "type": "address"
        }
      ],
      "name": "hasRole",
      "outputs": [
        {
          "internalType": "bool",
          "name": "",
          "type": "bool"
        }
      ],
      "stateMutability": "view",
      "type": "function"
    },
    {
      "inputs": [
        {
          "internalType": "address",
          "name": "sender",
          "type": "address"
        }
      ],
      "name": "isAdmin",
      "outputs": [
        {
          "internalType": "bool",
          "name": "",
          "type": "bool"
        }
      ],
      "stateMutability": "view",
      "type": "function"
    },
    {
      "inputs": [
        {
          "internalType": "address",
          "name": "sender",
          "type": "address"
        }
      ],
      "name": "isOperator",
      "outputs": [
        {
          "internalType": "bool",
          "name": "",
          "type": "bool"
        }
      ],
      "stateMutability": "view",
      "type": "function"
    },
    {
      "inputs": [
        {
          "internalType": "address",
          "name": "",
          "type": "address"
        },
        {
          "internalType": "address",
          "name": "",
          "type": "address"
        }
      ],
      "name": "poolsIndex",
      "outputs": [
        {
          "internalType": "contract IUniswapV3Pool",
          "name": "",
          "type": "address"
        }
      ],
      "stateMutability": "view",
      "type": "function"
    },
    {
      "inputs": [
        {
          "internalType": "address",
          "name": "token0",
          "type": "address"
        },
        {
          "internalType": "address",
          "name": "token1",
          "type": "address"
        },
        {
          "internalType": "uint256",
          "name": "safetyIndicesSet",
          "type": "uint256"
        }
      ],
      "name": "priceX96",
      "outputs": [
        {
          "internalType": "uint256[]",
          "name": "pricesX96",
          "type": "uint256[]"
        },
        {
          "internalType": "uint256[]",
          "name": "safetyIndices",
          "type": "uint256[]"
        }
      ],
      "stateMutability": "view",
      "type": "function"
    },
    {
      "inputs": [
        {
          "internalType": "bytes32",
          "name": "role",
          "type": "bytes32"
        },
        {
          "internalType": "address",
          "name": "account",
          "type": "address"
        }
      ],
      "name": "renounceRole",
      "outputs": [],
      "stateMutability": "nonpayable",
      "type": "function"
    },
    {
      "inputs": [
        {
          "internalType": "bytes32",
          "name": "role",
          "type": "bytes32"
        },
        {
          "internalType": "address",
          "name": "account",
          "type": "address"
        }
      ],
      "name": "revokeRole",
      "outputs": [],
      "stateMutability": "nonpayable",
      "type": "function"
    },
    {
      "inputs": [
        {
          "internalType": "bytes4",
          "name": "interfaceId",
          "type": "bytes4"
        }
      ],
      "name": "supportsInterface",
      "outputs": [
        {
          "internalType": "bool",
          "name": "",
          "type": "bool"
        }
      ],
      "stateMutability": "view",
      "type": "function"
    }
  ],
  "transactionHash": "0x20051507902ee6600114ce2ed715b337cd1afa2dacc10dfd0517868e028f2889",
  "args": [
    "0x1F98431c8aD98523631AE4a59f267346ea31F984",
    [
      "0xbF0CC53d4536881B2Ef4ad36790940A395C8307F"
    ],
    "0xe344D56de0526f9e1fFa2C20546BD4A5D05e63d0"
  ],
  "solcInputHash": "97749e9655fb1b089b82feb1780452f8",
  "bytecode": "0x60a06040523480156200001157600080fd5b5060405162002bf138038062002bf1833981016040819052620000349162000680565b60408051808201909152600281526120ad60f11b602082015281906001600160a01b038216620000825760405162461bcd60e51b81526004016200007991906200077d565b60405180910390fd5b506200009e60008051602062002bd1833981519152826200016c565b620000b960008051602062002bb1833981519152826200016c565b620000d460008051602062002bb1833981519152806200017c565b6200010f7fc171260023d22a25a00a2789664c9334017843b831138c8ef03cc8897e5873d760008051602062002bb18339815191526200017c565b6200014a60008051602062002bd18339815191527fc171260023d22a25a00a2789664c9334017843b831138c8ef03cc8897e5873d76200017c565b506001600160a01b0383166080526200016382620001c7565b505050620008d9565b620001788282620004ea565b5050565b600082815260208190526040808220600101805490849055905190918391839186917fbd79b86ffe0ab8e8776151514217cd7cacd52c909f66475c3af44e129f0b00ff9190a4505050565b600081516001600160401b03811115620001e557620001e562000658565b6040519080825280602002602001820160405280156200020f578160200160208202803683370190505b509050600082516001600160401b0381111562000230576200023062000658565b6040519080825280602002602001820160405280156200025a578160200160208202803683370190505b50905060008060005b85518110156200049c576000868281518110620002845762000284620007d5565b602002602001015190506000816001600160a01b0316630dfe16816040518163ffffffff1660e01b815260040160206040518083038186803b158015620002ca57600080fd5b505afa158015620002df573d6000803e3d6000fd5b505050506040513d601f19601f82011682018060405250810190620003059190620007eb565b90506000826001600160a01b031663d21220a76040518163ffffffff1660e01b815260040160206040518083038186803b1580156200034357600080fd5b505afa15801562000358573d6000803e3d6000fd5b505050506040513d601f19601f820116820180604052508101906200037e9190620007eb565b90506200039b8360036200052d60201b620009531790919060201c565b506001600160a01b03808316600090815260026020908152604080832085851684529091529020541680156200040e5780898881518110620003e157620003e1620007d5565b6001600160a01b03909216602092830291909101909101526200040660018862000828565b96506200044c565b83888781518110620004245762000424620007d5565b6001600160a01b03909216602092830291909101909101526200044960018762000828565b95505b506001600160a01b0391821660009081526002602090815260408083209385168352929052208054919092166001600160a01b031990911617905580620004938162000843565b91505062000263565b50818452808352604051339032907fc0909fcbc4405f12670d8b4939afb70a097b244885804cb37bd46969bd20a8ce90620004db9087908990620008a7565b60405180910390a35050505050565b6200050182826200054d60201b620009681760201c565b600082815260016020908152604090912062000528918390620009536200052d821b17901c565b505050565b600062000544836001600160a01b038416620005ed565b90505b92915050565b6000828152602081815260408083206001600160a01b038516845290915290205460ff1662000178576000828152602081815260408083206001600160a01b03851684529091529020805460ff19166001179055620005a93390565b6001600160a01b0316816001600160a01b0316837f2f8788117e7eff1d82e926ec794901d17c78024a50270940304540a733656f0d60405160405180910390a45050565b6000818152600183016020526040812054620006365750815460018181018455600084815260208082209093018490558454848252828601909352604090209190915562000547565b50600062000547565b6001600160a01b03811681146200065557600080fd5b50565b634e487b7160e01b600052604160045260246000fd5b80516200067b816200063f565b919050565b6000806000606084860312156200069657600080fd5b8351620006a3816200063f565b602085810151919450906001600160401b0380821115620006c357600080fd5b818701915087601f830112620006d857600080fd5b815181811115620006ed57620006ed62000658565b8060051b604051601f19603f8301168101818110858211171562000715576200071562000658565b60405291825284820192508381018501918a8311156200073457600080fd5b938501935b828510156200075d576200074d856200066e565b8452938501939285019262000739565b80975050505050505062000774604085016200066e565b90509250925092565b600060208083528351808285015260005b81811015620007ac578581018301518582016040015282016200078e565b81811115620007bf576000604083870101525b50601f01601f1916929092016040019392505050565b634e487b7160e01b600052603260045260246000fd5b600060208284031215620007fe57600080fd5b81516200080b816200063f565b9392505050565b634e487b7160e01b600052601160045260246000fd5b600082198211156200083e576200083e62000812565b500190565b60006000198214156200085a576200085a62000812565b5060010190565b600081518084526020808501945080840160005b838110156200089c5781516001600160a01b03168752958201959082019060010162000875565b509495945050505050565b604081526000620008bc604083018562000861565b8281036020840152620008d0818562000861565b95945050505050565b6080516122bc620008f5600039600061037d01526122bc6000f3fe608060405234801561001057600080fd5b50600436106101735760003560e01c806375b238fc116100de5780639d00926411610097578063c45a015511610071578063c45a015514610378578063c67e6b921461039f578063ca15c873146103d3578063d547741f146103e657600080fd5b80639d00926414610360578063a0a8e46014610368578063a217fddf1461037057600080fd5b806375b238fc146102ac57806375d0c0dc146102d35780638c48be07146102e85780639010d07c146102fb57806391d1485414610326578063983d27371461033957600080fd5b80632f2ff15d116101305780632f2ff15d1461022957806336568abe1461023e5780635956373514610251578063600c73471461026f5780636d70f7ae146102785780636d80125b1461028b57600080fd5b806301ffc9a71461017857806306a46239146101a05780630952ff54146101b85780630e3e80ac146101df578063248a9ca3146101f357806324d7806c14610216575b600080fd5b61018b6101863660046119be565b6103f9565b60405190151581526020015b60405180910390f35b640312e302e360dc1b5b604051908152602001610197565b6101aa7fc171260023d22a25a00a2789664c9334017843b831138c8ef03cc8897e5873d781565b6a556e6956334f7261636c6560a81b6101aa565b6101aa6102013660046119e8565b60009081526020819052604090206001015490565b61018b610224366004611a16565b61042a565b61023c610237366004611a33565b610486565b005b61023c61024c366004611a33565b6104b1565b61025a61070881565b60405163ffffffff9091168152602001610197565b61025a6101c281565b61018b610286366004611a16565b610534565b61029e610299366004611a63565b610560565b604051610197929190611adf565b6101aa7ff23ec0bb4210edd5cba85afd05127efcd2fc6a781bfed49188da1081670b22d881565b6102db61088e565b6040516101979190611b3d565b61023c6102f6366004611bdb565b6108a7565b61030e610309366004611c7a565b6108bb565b6040516001600160a01b039091168152602001610197565b61018b610334366004611a33565b6108da565b6101aa7f46a52cf33029de9f84853745a87af28464c80bf0346df1b32e205fc73319f62281565b61025a609681565b6102db610903565b6101aa600081565b61030e7f000000000000000000000000000000000000000000000000000000000000000081565b61030e6103ad366004611c9c565b60026020908152600092835260408084209091529082529020546001600160a01b031681565b6101aa6103e13660046119e8565b610916565b61023c6103f4366004611a33565b61092d565b6000610404826109ec565b8061041f575063151b016b60e11b6001600160e01b03198316145b92915050565b905090565b60006104567ff23ec0bb4210edd5cba85afd05127efcd2fc6a781bfed49188da1081670b22d8836108da565b8061041f575061041f7fc171260023d22a25a00a2789664c9334017843b831138c8ef03cc8897e5873d7836108da565b6000828152602081905260409020600101546104a28133610a11565b6104ac8383610a75565b505050565b6001600160a01b03811633146105265760405162461bcd60e51b815260206004820152602f60248201527f416363657373436f6e74726f6c3a2063616e206f6e6c792072656e6f756e636560448201526e103937b632b9903337b91039b2b63360891b60648201526084015b60405180910390fd5b6105308282610a97565b5050565b600061041f7f46a52cf33029de9f84853745a87af28464c80bf0346df1b32e205fc73319f622836108da565b6060806000846001600160a01b0316866001600160a01b03161115610586575092939260015b6001600160a01b038087166000908152600260209081526040808320898516845290915290205416806105ba575050610886565b60408051600480825260a0820190925260009160208201608080368337505060408051600480825260a08201909252929350905060208201608080368337505060408051600480825260a08201909252929750905060208201608080368337019050509350600060028716156106fb576000836001600160a01b0316633850c7bd6040518163ffffffff1660e01b815260040160e06040518083038186803b15801561066557600080fd5b505afa158015610679573d6000803e3d6000fd5b505050506040513d601f19601f8201168201806040525081019061069d9190611cdc565b5050505050506001600160a01b03169050808383815181106106c1576106c1611d80565b60200260200101818152505060018683815181106106e1576106e1611d80565b60209081029190910101526106f7600183611dac565b9150505b60025b60058110156107b0576001811b88161561079e57600061071d82610ab9565b905060008061072c8784610b28565b9250509150801561073f575050506107b0565b61074882610d82565b6001600160a01b031686868151811061076357610763611d80565b6020026020010181815250508389868151811061078257610782611d80565b6020908102919091010152610798600186611dac565b94505050505b806107a881611dc4565b9150506106fe565b5080865280855260005b81811015610880576108038382815181106107d7576107d7611d80565b60200260200101518483815181106107f1576107f1611d80565b6020026020010151600160601b61119f565b87828151811061081557610815611d80565b602002602001018181525050841561086e5761084f600160601b8089848151811061084257610842611d80565b602002602001015161119f565b87828151811061086157610861611d80565b6020026020010181815250505b8061087881611dc4565b9150506107ba565b50505050505b935093915050565b60606104256a556e6956334f7261636c6560a81b611252565b6108af6112be565b6108b881611301565b50565b60008281526001602052604081206108d390836115f1565b9392505050565b6000918252602082815260408084206001600160a01b0393909316845291905290205460ff1690565b6060610425640312e302e360dc1b611252565b600081815260016020526040812061041f906115fd565b6000828152602081905260409020600101546109498133610a11565b6104ac8383610a97565b60006108d3836001600160a01b038416611607565b61097282826108da565b610530576000828152602081815260408083206001600160a01b03851684529091529020805460ff191660011790556109a83390565b6001600160a01b0316816001600160a01b0316837f2f8788117e7eff1d82e926ec794901d17c78024a50270940304540a733656f0d60405160405180910390a45050565b60006001600160e01b03198216635a05180f60e01b148061041f575061041f82611656565b610a1b82826108da565b61053057610a33816001600160a01b0316601461168b565b610a3e83602061168b565b604051602001610a4f929190611ddf565b60408051601f198184030181529082905262461bcd60e51b825261051d91600401611b3d565b610a7f8282610968565b60008281526001602052604090206104ac9082610953565b610aa18282611827565b60008281526001602052604090206104ac908261188c565b60008160021415610acc57506096919050565b8160031415610ade57506101c2919050565b60408051808201909152600381526224a72b60e91b602082015260048314610b195760405162461bcd60e51b815260040161051d9190611b3d565b5061070892915050565b919050565b6000808063ffffffff8416610b645760405162461bcd60e51b8152602060048201526002602482015261042560f41b604482015260640161051d565b6040805160028082526060820183526000926020830190803683370190505090508481600081518110610b9957610b99611d80565b602002602001019063ffffffff16908163ffffffff1681525050600081600181518110610bc857610bc8611d80565b63ffffffff9092166020928302919091019091015260405163883bdbfd60e01b81526001600160a01b0387169063883bdbfd90610c09908490600401611e54565b60006040518083038186803b158015610c2157600080fd5b505afa925050508015610c5657506040513d6000823e601f3d908101601f19168201604052610c539190810190611f0d565b60015b610c6b57600080600193509350935050610d7b565b600082600081518110610c8057610c80611d80565b602002602001015183600181518110610c9b57610c9b611d80565b6020026020010151610cad9190611fd9565b9050600082600081518110610cc457610cc4611d80565b602002602001015183600181518110610cdf57610cdf611d80565b6020026020010151610cf19190612029565b9050610d0363ffffffff8a1683612067565b975060008260060b128015610d295750610d2363ffffffff8a16836120a5565b60060b15155b15610d3c5787610d38816120c7565b9850505b6000610d556001600160a01b0363ffffffff8c166120eb565b9050610d72640100000000600160c01b03602084901b168261211a565b97505050505050505b9250925092565b60008060008360020b12610d99578260020b610da6565b8260020b610da690612140565b9050610db5620d89e71961215d565b60020b811115610deb5760405162461bcd60e51b81526020600482015260016024820152601560fa1b604482015260640161051d565b600060018216610dff57600160801b610e11565b6ffffcb933bd6fad37aa2d162d1a5940015b70ffffffffffffffffffffffffffffffffff1690506002821615610e50576080610e4b826ffff97272373d413259a46990580e213a612180565b901c90505b6004821615610e7a576080610e75826ffff2e50f5f656932ef12357cf3c7fdcc612180565b901c90505b6008821615610ea4576080610e9f826fffe5caca7e10e4e61c3624eaa0941cd0612180565b901c90505b6010821615610ece576080610ec9826fffcb9843d60f6159c9db58835c926644612180565b901c90505b6020821615610ef8576080610ef3826fff973b41fa98c081472e6896dfb254c0612180565b901c90505b6040821615610f22576080610f1d826fff2ea16466c96a3843ec78b326b52861612180565b901c90505b6080821615610f4c576080610f47826ffe5dee046a99a2a811c461f1969c3053612180565b901c90505b610100821615610f77576080610f72826ffcbe86c7900a88aedcffc83b479aa3a4612180565b901c90505b610200821615610fa2576080610f9d826ff987a7253ac413176f2b074cf7815e54612180565b901c90505b610400821615610fcd576080610fc8826ff3392b0822b70005940c7a398e4b70f3612180565b901c90505b610800821615610ff8576080610ff3826fe7159475a2c29b7443b29c7fa6e889d9612180565b901c90505b61100082161561102357608061101e826fd097f3bdfd2022b8845ad8f792aa5825612180565b901c90505b61200082161561104e576080611049826fa9f746462d870fdf8a65dc1f90e061e5612180565b901c90505b614000821615611079576080611074826f70d869a156d2a1b890bb3df62baf32f7612180565b901c90505b6180008216156110a457608061109f826f31be135f97d08fd981231505542fcfa6612180565b901c90505b620100008216156110d05760806110cb826f09aa508b5b7a84e1c677de54f3e99bc9612180565b901c90505b620200008216156110fb5760806110f6826e5d6af8dedb81196699c329225ee604612180565b901c90505b62040000821615611125576080611120826d2216e584f5fa1ea926041bedfe98612180565b901c90505b6208000082161561114d576080611148826b048a170391f7dc42444e8fa2612180565b901c90505b60008460020b1315611168576111658160001961219f565b90505b611177640100000000826121b3565b15611183576001611186565b60005b6111979060ff16602083901c611dac565b949350505050565b6000808060001985870985870292508281108382030391505080600014156111d957600084116111ce57600080fd5b5082900490506108d3565b8084116111e557600080fd5b6000848688096000868103871696879004966002600389028118808a02820302808a02820302808a02820302808a02820302808a02820302808a02909103029181900381900460010186841190950394909402919094039290920491909117919091029150509392505050565b604080516020808252818301909252606091602082018180368337019050509050602060005b60208110156112b05783816020811061129357611293611d80565b1a6112a0578091506112b0565b6112a981611dc4565b9050611278565b508152602081019190915290565b6112c73361042a565b6040518060400160405280600381526020016223292160e91b815250906108b85760405162461bcd60e51b815260040161051d9190611b3d565b6000815167ffffffffffffffff81111561131d5761131d611b70565b604051908082528060200260200182016040528015611346578160200160208202803683370190505b5090506000825167ffffffffffffffff81111561136557611365611b70565b60405190808252806020026020018201604052801561138e578160200160208202803683370190505b50905060008060005b85518110156115a55760008682815181106113b4576113b4611d80565b602002602001015190506000816001600160a01b0316630dfe16816040518163ffffffff1660e01b815260040160206040518083038186803b1580156113f957600080fd5b505afa15801561140d573d6000803e3d6000fd5b505050506040513d601f19601f8201168201806040525081019061143191906121c7565b90506000826001600160a01b031663d21220a76040518163ffffffff1660e01b815260040160206040518083038186803b15801561146e57600080fd5b505afa158015611482573d6000803e3d6000fd5b505050506040513d601f19601f820116820180604052508101906114a691906121c7565b90506114b3600384610953565b506001600160a01b038083166000908152600260209081526040808320858516845290915290205416801561151f57808988815181106114f5576114f5611d80565b6001600160a01b0390921660209283029190910190910152611518600188611dac565b9650611558565b8388878151811061153257611532611d80565b6001600160a01b0390921660209283029190910190910152611555600187611dac565b95505b506001600160a01b0391821660009081526002602090815260408083209385168352929052208054919092166001600160a01b03199091161790558061159d81611dc4565b915050611397565b50818452808352604051339032907fc0909fcbc4405f12670d8b4939afb70a097b244885804cb37bd46969bd20a8ce906115e2908790899061221d565b60405180910390a35050505050565b60006108d383836118a1565b600061041f825490565b600081815260018301602052604081205461164e5750815460018181018455600084815260208082209093018490558454848252828601909352604090209190915561041f565b50600061041f565b60006001600160e01b03198216637965db0b60e01b148061041f57506301ffc9a760e01b6001600160e01b031983161461041f565b6060600061169a836002612180565b6116a5906002611dac565b67ffffffffffffffff8111156116bd576116bd611b70565b6040519080825280601f01601f1916602001820160405280156116e7576020820181803683370190505b509050600360fc1b8160008151811061170257611702611d80565b60200101906001600160f81b031916908160001a905350600f60fb1b8160018151811061173157611731611d80565b60200101906001600160f81b031916908160001a9053506000611755846002612180565b611760906001611dac565b90505b60018111156117d8576f181899199a1a9b1b9c1cb0b131b232b360811b85600f166010811061179457611794611d80565b1a60f81b8282815181106117aa576117aa611d80565b60200101906001600160f81b031916908160001a90535060049490941c936117d181612242565b9050611763565b5083156108d35760405162461bcd60e51b815260206004820181905260248201527f537472696e67733a20686578206c656e67746820696e73756666696369656e74604482015260640161051d565b61183182826108da565b15610530576000828152602081815260408083206001600160a01b0385168085529252808320805460ff1916905551339285917ff6391f5c32d9c69d2a47ea670b442974b53935d1edc7fd64eb21e047a839171b9190a45050565b60006108d3836001600160a01b0384166118cb565b60008260000182815481106118b8576118b8611d80565b9060005260206000200154905092915050565b600081815260018301602052604081205480156119b45760006118ef600183612259565b855490915060009061190390600190612259565b905081811461196857600086600001828154811061192357611923611d80565b906000526020600020015490508087600001848154811061194657611946611d80565b6000918252602080832090910192909255918252600188019052604090208390555b855486908061197957611979612270565b60019003818190600052602060002001600090559055856001016000868152602001908152602001600020600090556001935050505061041f565b600091505061041f565b6000602082840312156119d057600080fd5b81356001600160e01b0319811681146108d357600080fd5b6000602082840312156119fa57600080fd5b5035919050565b6001600160a01b03811681146108b857600080fd5b600060208284031215611a2857600080fd5b81356108d381611a01565b60008060408385031215611a4657600080fd5b823591506020830135611a5881611a01565b809150509250929050565b600080600060608486031215611a7857600080fd5b8335611a8381611a01565b92506020840135611a9381611a01565b929592945050506040919091013590565b600081518084526020808501945080840160005b83811015611ad457815187529582019590820190600101611ab8565b509495945050505050565b604081526000611af26040830185611aa4565b8281036020840152611b048185611aa4565b95945050505050565b60005b83811015611b28578181015183820152602001611b10565b83811115611b37576000848401525b50505050565b6020815260008251806020840152611b5c816040850160208701611b0d565b601f01601f19169190910160400192915050565b634e487b7160e01b600052604160045260246000fd5b604051601f8201601f1916810167ffffffffffffffff81118282101715611baf57611baf611b70565b604052919050565b600067ffffffffffffffff821115611bd157611bd1611b70565b5060051b60200190565b60006020808385031215611bee57600080fd5b823567ffffffffffffffff811115611c0557600080fd5b8301601f81018513611c1657600080fd5b8035611c29611c2482611bb7565b611b86565b81815260059190911b82018301908381019087831115611c4857600080fd5b928401925b82841015611c6f578335611c6081611a01565b82529284019290840190611c4d565b979650505050505050565b60008060408385031215611c8d57600080fd5b50508035926020909101359150565b60008060408385031215611caf57600080fd5b8235611cba81611a01565b91506020830135611a5881611a01565b805161ffff81168114610b2357600080fd5b600080600080600080600060e0888a031215611cf757600080fd5b8751611d0281611a01565b8097505060208801518060020b8114611d1a57600080fd5b9550611d2860408901611cca565b9450611d3660608901611cca565b9350611d4460808901611cca565b925060a088015160ff81168114611d5a57600080fd5b60c08901519092508015158114611d7057600080fd5b8091505092959891949750929550565b634e487b7160e01b600052603260045260246000fd5b634e487b7160e01b600052601160045260246000fd5b60008219821115611dbf57611dbf611d96565b500190565b6000600019821415611dd857611dd8611d96565b5060010190565b7f416363657373436f6e74726f6c3a206163636f756e7420000000000000000000815260008351611e17816017850160208801611b0d565b7001034b99036b4b9b9b4b733903937b6329607d1b6017918401918201528351611e48816028840160208801611b0d565b01602801949350505050565b6020808252825182820181905260009190848201906040850190845b81811015611e9257835163ffffffff1683529284019291840191600101611e70565b50909695505050505050565b600082601f830112611eaf57600080fd5b81516020611ebf611c2483611bb7565b82815260059290921b84018101918181019086841115611ede57600080fd5b8286015b84811015611f02578051611ef581611a01565b8352918301918301611ee2565b509695505050505050565b60008060408385031215611f2057600080fd5b825167ffffffffffffffff80821115611f3857600080fd5b818501915085601f830112611f4c57600080fd5b81516020611f5c611c2483611bb7565b82815260059290921b84018101918181019089841115611f7b57600080fd5b948201945b83861015611fa95785518060060b8114611f9a5760008081fd5b82529482019490820190611f80565b91880151919650909350505080821115611fc257600080fd5b50611fcf85828601611e9e565b9150509250929050565b60008160060b8360060b6000811281667fffffffffffff190183128115161561200457612004611d96565b81667fffffffffffff01831381161561201f5761201f611d96565b5090039392505050565b60006001600160a01b038381169083168181101561204957612049611d96565b039392505050565b634e487b7160e01b600052601260045260246000fd5b60008160060b8360060b8061207e5761207e612051565b667fffffffffffff1982146000198214161561209c5761209c611d96565b90059392505050565b60008260060b806120b8576120b8612051565b808360060b0791505092915050565b60008160020b627fffff198114156120e1576120e1611d96565b6000190192915050565b60006001600160c01b038281168482168115158284048211161561211157612111611d96565b02949350505050565b60006001600160c01b038381168061213457612134612051565b92169190910492915050565b6000600160ff1b82141561215657612156611d96565b5060000390565b60008160020b627fffff1981141561217757612177611d96565b60000392915050565b600081600019048311821515161561219a5761219a611d96565b500290565b6000826121ae576121ae612051565b500490565b6000826121c2576121c2612051565b500690565b6000602082840312156121d957600080fd5b81516108d381611a01565b600081518084526020808501945080840160005b83811015611ad45781516001600160a01b0316875295820195908201906001016121f8565b60408152600061223060408301856121e4565b8281036020840152611b0481856121e4565b60008161225157612251611d96565b506000190190565b60008282101561226b5761226b611d96565b500390565b634e487b7160e01b600052603160045260246000fdfea2646970667358221220ae30288f12f41255253a7fbb47fe09fe3001b7b47750b592761923adfe8e932c64736f6c63430008090033f23ec0bb4210edd5cba85afd05127efcd2fc6a781bfed49188da1081670b22d846a52cf33029de9f84853745a87af28464c80bf0346df1b32e205fc73319f622",
  "devdoc": {
    "events": {
      "PoolsUpdated(address,address,address[],address[])": {
        "params": {
          "origin": "Origin of the transaction (tx.origin)",
          "pools": "UniV3 pools added",
          "replacedPools": "UniV3 pools updated",
          "sender": "Sender of the call (msg.sender)"
        }
      }
    },
    "kind": "dev",
    "methods": {
      "addUniV3Pools(address[])": {
        "params": {
          "pools": "Pools to add"
        }
      },
      "getRoleAdmin(bytes32)": {
        "details": "Returns the admin role that controls `role`. See {grantRole} and {revokeRole}. To change a role's admin, use {_setRoleAdmin}."
      },
      "getRoleMember(bytes32,uint256)": {
        "details": "Returns one of the accounts that have `role`. `index` must be a value between 0 and {getRoleMemberCount}, non-inclusive. Role bearers are not sorted in any particular way, and their ordering may change at any point. WARNING: When using {getRoleMember} and {getRoleMemberCount}, make sure you perform all queries on the same block. See the following https://forum.openzeppelin.com/t/iterating-over-elements-on-enumerableset-in-openzeppelin-contracts/2296[forum post] for more information."
      },
      "getRoleMemberCount(bytes32)": {
        "details": "Returns the number of accounts that have `role`. Can be used together with {getRoleMember} to enumerate all bearers of a role."
      },
      "grantRole(bytes32,address)": {
        "details": "Grants `role` to `account`. If `account` had not been already granted `role`, emits a {RoleGranted} event. Requirements: - the caller must have ``role``'s admin role."
      },
      "hasRole(bytes32,address)": {
        "details": "Returns `true` if `account` has been granted `role`."
      },
      "isAdmin(address)": {
        "params": {
          "sender": "Adddress to check"
        },
        "returns": {
          "_0": "`true` if sender is an admin, `false` otherwise"
        }
      },
      "isOperator(address)": {
        "params": {
          "sender": "Adddress to check"
        },
        "returns": {
          "_0": "`true` if sender is an admin, `false` otherwise"
        }
      },
      "priceX96(address,address,uint256)": {
        "details": "Logic of this function is next: If there is no initialized pool for the passed tokens, empty arrays will be returned. Depending on safetyIndicesSet if the 1st bit in safetyIndicesSet is non-zero, then the response will contain the spot price. If there is a non-zero 2nd bit in the safetyIndicesSet and the corresponding position in the pool was created no later than LOW_OBS_DELTA seconds ago, then the average price for the last LOW_OBS_DELTA seconds will be returned. The same logic exists for the 3rd and MID_OBS_DELTA, and 4th index and HIGH_OBS_DELTA.",
        "params": {
          "safetyIndicesSet": "Bitmask of safety indices that are allowed for the return prices. For set of safety indexes = { 1 }, safetyIndicesSet = 0x2",
          "token0": "Reference to token0",
          "token1": "Reference to token1"
        },
        "returns": {
          "pricesX96": "Prices that satisfy safetyIndex and tokens",
          "safetyIndices": "Safety indices for those prices"
        }
      },
      "renounceRole(bytes32,address)": {
        "details": "Revokes `role` from the calling account. Roles are often managed via {grantRole} and {revokeRole}: this function's purpose is to provide a mechanism for accounts to lose their privileges if they are compromised (such as when a trusted device is misplaced). If the calling account had been revoked `role`, emits a {RoleRevoked} event. Requirements: - the caller must be `account`."
      },
      "revokeRole(bytes32,address)": {
        "details": "Revokes `role` from `account`. If `account` had been granted `role`, emits a {RoleRevoked} event. Requirements: - the caller must have ``role``'s admin role."
      },
      "supportsInterface(bytes4)": {
        "details": "Returns true if this contract implements the interface defined by `interfaceId`. See the corresponding https://eips.ethereum.org/EIPS/eip-165#how-interfaces-are-identified[EIP section] to learn more about how these ids are created. This function call must use less than 30 000 gas."
      }
    },
    "stateVariables": {
      "poolsIndex": {
        "params": {
          "token0": "First ERC20 token",
          "token1": "Second ERC20 token"
        },
        "return": "UniV3 pool or 0 if the pool is not available for oracle",
        "returns": {
          "_0": "UniV3 pool or 0 if the pool is not available for oracle"
        }
      }
    },
    "version": 1
  },
  "userdoc": {
    "events": {
      "PoolsUpdated(address,address,address[],address[])": {
        "notice": "Emitted when new pool is added or updated and become available for oracle prices"
      }
    },
    "kind": "user",
    "methods": {
      "HIGH_OBS_DELTA()": {
        "notice": "The number of seconds for time delta between observations for oracle safety index 4 twap"
      },
      "LOW_OBS_DELTA()": {
        "notice": "The number of seconds for time delta between observations for oracle safety index 2 twap"
      },
      "MID_OBS_DELTA()": {
        "notice": "The number of seconds for time delta between observations for oracle safety index 3 twap"
      },
      "addUniV3Pools(address[])": {
        "notice": "Add UniV3 pools for prices."
      },
      "factory()": {
        "notice": "Reference to UniV3 factory"
      },
      "isAdmin(address)": {
        "notice": "Checks if the address is ADMIN or ADMIN_DELEGATE."
      },
      "isOperator(address)": {
        "notice": "Checks if the address is OPERATOR."
      },
      "poolsIndex(address,address)": {
        "notice": "Available UniV3 pools for tokens"
      },
      "priceX96(address,address,uint256)": {
        "notice": "Oracle price for tokens as a Q64.96 value.Returns pricing information based on the indexes of non-zero bits in safetyIndicesSet.It is possible that not all indices will have their respective prices returned."
      }
    },
    "version": 1
  },
  "storageLayout": {
    "storage": [
      {
        "astId": 24,
        "contract": "contracts/oracles/UniV3Oracle.sol:UniV3Oracle",
        "label": "_roles",
        "offset": 0,
        "slot": "0",
        "type": "t_mapping(t_bytes32,t_struct(RoleData)19_storage)"
      },
      {
        "astId": 327,
        "contract": "contracts/oracles/UniV3Oracle.sol:UniV3Oracle",
        "label": "_roleMembers",
        "offset": 0,
        "slot": "1",
        "type": "t_mapping(t_bytes32,t_struct(AddressSet)4217_storage)"
      },
      {
        "astId": 21851,
        "contract": "contracts/oracles/UniV3Oracle.sol:UniV3Oracle",
        "label": "poolsIndex",
        "offset": 0,
        "slot": "2",
        "type": "t_mapping(t_address,t_mapping(t_address,t_contract(IUniswapV3Pool)12690))"
      },
      {
        "astId": 21854,
        "contract": "contracts/oracles/UniV3Oracle.sol:UniV3Oracle",
        "label": "_pools",
        "offset": 0,
        "slot": "3",
        "type": "t_struct(AddressSet)4217_storage"
      }
    ],
    "types": {
      "t_address": {
        "encoding": "inplace",
        "label": "address",
        "numberOfBytes": "20"
      },
      "t_array(t_bytes32)dyn_storage": {
        "base": "t_bytes32",
        "encoding": "dynamic_array",
        "label": "bytes32[]",
        "numberOfBytes": "32"
      },
      "t_bool": {
        "encoding": "inplace",
        "label": "bool",
        "numberOfBytes": "1"
      },
      "t_bytes32": {
        "encoding": "inplace",
        "label": "bytes32",
        "numberOfBytes": "32"
      },
      "t_contract(IUniswapV3Pool)12690": {
        "encoding": "inplace",
        "label": "contract IUniswapV3Pool",
        "numberOfBytes": "20"
      },
      "t_mapping(t_address,t_bool)": {
        "encoding": "mapping",
        "key": "t_address",
        "label": "mapping(address => bool)",
        "numberOfBytes": "32",
        "value": "t_bool"
      },
      "t_mapping(t_address,t_contract(IUniswapV3Pool)12690)": {
        "encoding": "mapping",
        "key": "t_address",
        "label": "mapping(address => contract IUniswapV3Pool)",
        "numberOfBytes": "32",
        "value": "t_contract(IUniswapV3Pool)12690"
      },
      "t_mapping(t_address,t_mapping(t_address,t_contract(IUniswapV3Pool)12690))": {
        "encoding": "mapping",
        "key": "t_address",
        "label": "mapping(address => mapping(address => contract IUniswapV3Pool))",
        "numberOfBytes": "32",
        "value": "t_mapping(t_address,t_contract(IUniswapV3Pool)12690)"
      },
      "t_mapping(t_bytes32,t_struct(AddressSet)4217_storage)": {
        "encoding": "mapping",
        "key": "t_bytes32",
        "label": "mapping(bytes32 => struct EnumerableSet.AddressSet)",
        "numberOfBytes": "32",
        "value": "t_struct(AddressSet)4217_storage"
      },
      "t_mapping(t_bytes32,t_struct(RoleData)19_storage)": {
        "encoding": "mapping",
        "key": "t_bytes32",
        "label": "mapping(bytes32 => struct AccessControl.RoleData)",
        "numberOfBytes": "32",
        "value": "t_struct(RoleData)19_storage"
      },
      "t_mapping(t_bytes32,t_uint256)": {
        "encoding": "mapping",
        "key": "t_bytes32",
        "label": "mapping(bytes32 => uint256)",
        "numberOfBytes": "32",
        "value": "t_uint256"
      },
      "t_struct(AddressSet)4217_storage": {
        "encoding": "inplace",
        "label": "struct EnumerableSet.AddressSet",
        "members": [
          {
            "astId": 4216,
            "contract": "contracts/oracles/UniV3Oracle.sol:UniV3Oracle",
            "label": "_inner",
            "offset": 0,
            "slot": "0",
            "type": "t_struct(Set)3916_storage"
          }
        ],
        "numberOfBytes": "64"
      },
      "t_struct(RoleData)19_storage": {
        "encoding": "inplace",
        "label": "struct AccessControl.RoleData",
        "members": [
          {
            "astId": 16,
            "contract": "contracts/oracles/UniV3Oracle.sol:UniV3Oracle",
            "label": "members",
            "offset": 0,
            "slot": "0",
            "type": "t_mapping(t_address,t_bool)"
          },
          {
            "astId": 18,
            "contract": "contracts/oracles/UniV3Oracle.sol:UniV3Oracle",
            "label": "adminRole",
            "offset": 0,
            "slot": "1",
            "type": "t_bytes32"
          }
        ],
        "numberOfBytes": "64"
      },
      "t_struct(Set)3916_storage": {
        "encoding": "inplace",
        "label": "struct EnumerableSet.Set",
        "members": [
          {
            "astId": 3911,
            "contract": "contracts/oracles/UniV3Oracle.sol:UniV3Oracle",
            "label": "_values",
            "offset": 0,
            "slot": "0",
            "type": "t_array(t_bytes32)dyn_storage"
          },
          {
            "astId": 3915,
            "contract": "contracts/oracles/UniV3Oracle.sol:UniV3Oracle",
            "label": "_indexes",
            "offset": 0,
            "slot": "1",
            "type": "t_mapping(t_bytes32,t_uint256)"
          }
        ],
        "numberOfBytes": "64"
      },
      "t_uint256": {
        "encoding": "inplace",
        "label": "uint256",
        "numberOfBytes": "32"
      }
    }
  }
}