{
  "address": "0x43EBC6D7505d0225992445351d2eEAF9B53bC1A2",
  "abi": [
    {
      "inputs": [
        {
          "internalType": "string",
          "name": "name",
          "type": "string"
        },
        {
          "internalType": "string",
          "name": "symbol",
          "type": "string"
        },
        {
          "internalType": "contract IProtocolGovernance",
          "name": "protocolGovernance_",
          "type": "address"
        }
      ],
      "stateMutability": "nonpayable",
      "type": "constructor"
    },
    {
      "anonymous": false,
      "inputs": [
        {
          "indexed": true,
          "internalType": "address",
          "name": "owner",
          "type": "address"
        },
        {
          "indexed": true,
          "internalType": "address",
          "name": "approved",
          "type": "address"
        },
        {
          "indexed": true,
          "internalType": "uint256",
          "name": "tokenId",
          "type": "uint256"
        }
      ],
      "name": "Approval",
      "type": "event"
    },
    {
      "anonymous": false,
      "inputs": [
        {
          "indexed": true,
          "internalType": "address",
          "name": "owner",
          "type": "address"
        },
        {
          "indexed": true,
          "internalType": "address",
          "name": "operator",
          "type": "address"
        },
        {
          "indexed": false,
          "internalType": "bool",
          "name": "approved",
          "type": "bool"
        }
      ],
      "name": "ApprovalForAll",
      "type": "event"
    },
    {
      "anonymous": false,
      "inputs": [
        {
          "indexed": true,
          "internalType": "address",
          "name": "origin",
          "type": "address"
        },
        {
          "indexed": true,
          "internalType": "address",
          "name": "sender",
          "type": "address"
        },
        {
          "indexed": false,
          "internalType": "contract IProtocolGovernance",
          "name": "newProtocolGovernance",
          "type": "address"
        }
      ],
      "name": "CommitedProtocolGovernance",
      "type": "event"
    },
    {
      "anonymous": false,
      "inputs": [
        {
          "indexed": true,
          "internalType": "address",
          "name": "origin",
          "type": "address"
        },
        {
          "indexed": true,
          "internalType": "address",
          "name": "sender",
          "type": "address"
        },
        {
          "indexed": false,
          "internalType": "contract IProtocolGovernance",
          "name": "newProtocolGovernance",
          "type": "address"
        },
        {
          "indexed": false,
          "internalType": "uint256",
          "name": "start",
          "type": "uint256"
        }
      ],
      "name": "StagedProtocolGovernance",
      "type": "event"
    },
    {
      "anonymous": false,
      "inputs": [
        {
          "indexed": true,
          "internalType": "address",
          "name": "origin",
          "type": "address"
        },
        {
          "indexed": true,
          "internalType": "address",
          "name": "sender",
          "type": "address"
        },
        {
          "indexed": true,
          "internalType": "uint256",
          "name": "nft",
          "type": "uint256"
        }
      ],
      "name": "TokenLocked",
      "type": "event"
    },
    {
      "anonymous": false,
      "inputs": [
        {
          "indexed": true,
          "internalType": "address",
          "name": "from",
          "type": "address"
        },
        {
          "indexed": true,
          "internalType": "address",
          "name": "to",
          "type": "address"
        },
        {
          "indexed": true,
          "internalType": "uint256",
          "name": "tokenId",
          "type": "uint256"
        }
      ],
      "name": "Transfer",
      "type": "event"
    },
    {
      "anonymous": false,
      "inputs": [
        {
          "indexed": true,
          "internalType": "address",
          "name": "origin",
          "type": "address"
        },
        {
          "indexed": true,
          "internalType": "address",
          "name": "sender",
          "type": "address"
        },
        {
          "indexed": true,
          "internalType": "uint256",
          "name": "nft",
          "type": "uint256"
        },
        {
          "indexed": false,
          "internalType": "address",
          "name": "vault",
          "type": "address"
        },
        {
          "indexed": false,
          "internalType": "address",
          "name": "owner",
          "type": "address"
        }
      ],
      "name": "VaultRegistered",
      "type": "event"
    },
    {
      "inputs": [
        {
          "internalType": "address",
          "name": "to",
          "type": "address"
        },
        {
          "internalType": "uint256",
          "name": "tokenId",
          "type": "uint256"
        }
      ],
      "name": "approve",
      "outputs": [],
      "stateMutability": "nonpayable",
      "type": "function"
    },
    {
      "inputs": [
        {
          "internalType": "address",
          "name": "owner",
          "type": "address"
        }
      ],
      "name": "balanceOf",
      "outputs": [
        {
          "internalType": "uint256",
          "name": "",
          "type": "uint256"
        }
      ],
      "stateMutability": "view",
      "type": "function"
    },
    {
      "inputs": [],
      "name": "commitStagedProtocolGovernance",
      "outputs": [],
      "stateMutability": "nonpayable",
      "type": "function"
    },
    {
      "inputs": [],
      "name": "contractName",
      "outputs": [
        {
          "internalType": "string",
          "name": "",
          "type": "string"
        }
      ],
      "stateMutability": "pure",
      "type": "function"
    },
    {
      "inputs": [],
      "name": "contractNameBytes",
      "outputs": [
        {
          "internalType": "bytes32",
          "name": "",
          "type": "bytes32"
        }
      ],
      "stateMutability": "pure",
      "type": "function"
    },
    {
      "inputs": [],
      "name": "contractVersion",
      "outputs": [
        {
          "internalType": "string",
          "name": "",
          "type": "string"
        }
      ],
      "stateMutability": "pure",
      "type": "function"
    },
    {
      "inputs": [],
      "name": "contractVersionBytes",
      "outputs": [
        {
          "internalType": "bytes32",
          "name": "",
          "type": "bytes32"
        }
      ],
      "stateMutability": "pure",
      "type": "function"
    },
    {
      "inputs": [
        {
          "internalType": "uint256",
          "name": "tokenId",
          "type": "uint256"
        }
      ],
      "name": "getApproved",
      "outputs": [
        {
          "internalType": "address",
          "name": "",
          "type": "address"
        }
      ],
      "stateMutability": "view",
      "type": "function"
    },
    {
      "inputs": [
        {
          "internalType": "address",
          "name": "owner",
          "type": "address"
        },
        {
          "internalType": "address",
          "name": "operator",
          "type": "address"
        }
      ],
      "name": "isApprovedForAll",
      "outputs": [
        {
          "internalType": "bool",
          "name": "",
          "type": "bool"
        }
      ],
      "stateMutability": "view",
      "type": "function"
    },
    {
      "inputs": [
        {
          "internalType": "uint256",
          "name": "nft",
          "type": "uint256"
        }
      ],
      "name": "isLocked",
      "outputs": [
        {
          "internalType": "bool",
          "name": "",
          "type": "bool"
        }
      ],
      "stateMutability": "view",
      "type": "function"
    },
    {
      "inputs": [
        {
          "internalType": "uint256",
          "name": "nft",
          "type": "uint256"
        }
      ],
      "name": "lockNft",
      "outputs": [],
      "stateMutability": "nonpayable",
      "type": "function"
    },
    {
      "inputs": [],
      "name": "name",
      "outputs": [
        {
          "internalType": "string",
          "name": "",
          "type": "string"
        }
      ],
      "stateMutability": "view",
      "type": "function"
    },
    {
      "inputs": [
        {
          "internalType": "address",
          "name": "vault",
          "type": "address"
        }
      ],
      "name": "nftForVault",
      "outputs": [
        {
          "internalType": "uint256",
          "name": "",
          "type": "uint256"
        }
      ],
      "stateMutability": "view",
      "type": "function"
    },
    {
      "inputs": [
        {
          "internalType": "uint256",
          "name": "tokenId",
          "type": "uint256"
        }
      ],
      "name": "ownerOf",
      "outputs": [
        {
          "internalType": "address",
          "name": "",
          "type": "address"
        }
      ],
      "stateMutability": "view",
      "type": "function"
    },
    {
      "inputs": [],
      "name": "protocolGovernance",
      "outputs": [
        {
          "internalType": "contract IProtocolGovernance",
          "name": "",
          "type": "address"
        }
      ],
      "stateMutability": "view",
      "type": "function"
    },
    {
      "inputs": [
        {
          "internalType": "address",
          "name": "vault",
          "type": "address"
        },
        {
          "internalType": "address",
          "name": "owner",
          "type": "address"
        }
      ],
      "name": "registerVault",
      "outputs": [
        {
          "internalType": "uint256",
          "name": "nft",
          "type": "uint256"
        }
      ],
      "stateMutability": "nonpayable",
      "type": "function"
    },
    {
      "inputs": [
        {
          "internalType": "address",
          "name": "from",
          "type": "address"
        },
        {
          "internalType": "address",
          "name": "to",
          "type": "address"
        },
        {
          "internalType": "uint256",
          "name": "tokenId",
          "type": "uint256"
        }
      ],
      "name": "safeTransferFrom",
      "outputs": [],
      "stateMutability": "nonpayable",
      "type": "function"
    },
    {
      "inputs": [
        {
          "internalType": "address",
          "name": "from",
          "type": "address"
        },
        {
          "internalType": "address",
          "name": "to",
          "type": "address"
        },
        {
          "internalType": "uint256",
          "name": "tokenId",
          "type": "uint256"
        },
        {
          "internalType": "bytes",
          "name": "_data",
          "type": "bytes"
        }
      ],
      "name": "safeTransferFrom",
      "outputs": [],
      "stateMutability": "nonpayable",
      "type": "function"
    },
    {
      "inputs": [
        {
          "internalType": "address",
          "name": "operator",
          "type": "address"
        },
        {
          "internalType": "bool",
          "name": "approved",
          "type": "bool"
        }
      ],
      "name": "setApprovalForAll",
      "outputs": [],
      "stateMutability": "nonpayable",
      "type": "function"
    },
    {
      "inputs": [
        {
          "internalType": "contract IProtocolGovernance",
          "name": "newProtocolGovernance",
          "type": "address"
        }
      ],
      "name": "stageProtocolGovernance",
      "outputs": [],
      "stateMutability": "nonpayable",
      "type": "function"
    },
    {
      "inputs": [],
      "name": "stagedProtocolGovernance",
      "outputs": [
        {
          "internalType": "contract IProtocolGovernance",
          "name": "",
          "type": "address"
        }
      ],
      "stateMutability": "view",
      "type": "function"
    },
    {
      "inputs": [],
      "name": "stagedProtocolGovernanceTimestamp",
      "outputs": [
        {
          "internalType": "uint256",
          "name": "",
          "type": "uint256"
        }
      ],
      "stateMutability": "view",
      "type": "function"
    },
    {
      "inputs": [
        {
          "internalType": "bytes4",
          "name": "interfaceId",
          "type": "bytes4"
        }
      ],
      "name": "supportsInterface",
      "outputs": [
        {
          "internalType": "bool",
          "name": "",
          "type": "bool"
        }
      ],
      "stateMutability": "view",
      "type": "function"
    },
    {
      "inputs": [],
      "name": "symbol",
      "outputs": [
        {
          "internalType": "string",
          "name": "",
          "type": "string"
        }
      ],
      "stateMutability": "view",
      "type": "function"
    },
    {
      "inputs": [
        {
          "internalType": "uint256",
          "name": "tokenId",
          "type": "uint256"
        }
      ],
      "name": "tokenURI",
      "outputs": [
        {
          "internalType": "string",
          "name": "",
          "type": "string"
        }
      ],
      "stateMutability": "view",
      "type": "function"
    },
    {
      "inputs": [
        {
          "internalType": "address",
          "name": "from",
          "type": "address"
        },
        {
          "internalType": "address",
          "name": "to",
          "type": "address"
        },
        {
          "internalType": "uint256",
          "name": "tokenId",
          "type": "uint256"
        }
      ],
      "name": "transferFrom",
      "outputs": [],
      "stateMutability": "nonpayable",
      "type": "function"
    },
    {
      "inputs": [
        {
          "internalType": "uint256",
          "name": "nft",
          "type": "uint256"
        }
      ],
      "name": "vaultForNft",
      "outputs": [
        {
          "internalType": "address",
          "name": "",
          "type": "address"
        }
      ],
      "stateMutability": "view",
      "type": "function"
    },
    {
      "inputs": [],
      "name": "vaults",
      "outputs": [
        {
          "internalType": "address[]",
          "name": "",
          "type": "address[]"
        }
      ],
      "stateMutability": "view",
      "type": "function"
    },
    {
      "inputs": [],
      "name": "vaultsCount",
      "outputs": [
        {
          "internalType": "uint256",
          "name": "",
          "type": "uint256"
        }
      ],
      "stateMutability": "view",
      "type": "function"
    }
  ],
  "transactionHash": "0xa1a18486b54a4540102dde731283b8167a45ba61b68b050a37cf5c5d0a0725f2",
  "args": [
    "Mellow Vault Registry",
    "MVR",
    "0xba78C2E8914074A87d32c41c6C49b8a924e60b6D"
  ],
  "solcInputHash": "1984535d51a55304aed3f058b4264cb9",
  "bytecode": "0x60806040526001600d553480156200001657600080fd5b50604051620021d3380380620021d3833981016040819052620000399162000208565b8251839083906200005290600090602085019062000095565b5080516200006890600190602084019062000095565b5050600780546001600160a01b0319166001600160a01b03939093169290921790915550620002d2915050565b828054620000a39062000295565b90600052602060002090601f016020900481019282620000c7576000855562000112565b82601f10620000e257805160ff191683800117855562000112565b8280016001018555821562000112579182015b8281111562000112578251825591602001919060010190620000f5565b506200012092915062000124565b5090565b5b8082111562000120576000815560010162000125565b634e487b7160e01b600052604160045260246000fd5b600082601f8301126200016357600080fd5b81516001600160401b03808211156200018057620001806200013b565b604051601f8301601f19908116603f01168101908282118183101715620001ab57620001ab6200013b565b81604052838152602092508683858801011115620001c857600080fd5b600091505b83821015620001ec5785820183015181830184015290820190620001cd565b83821115620001fe5760008385830101525b9695505050505050565b6000806000606084860312156200021e57600080fd5b83516001600160401b03808211156200023657600080fd5b620002448783880162000151565b945060208601519150808211156200025b57600080fd5b506200026a8682870162000151565b604086015190935090506001600160a01b03811681146200028a57600080fd5b809150509250925092565b600181811c90821680620002aa57607f821691505b60208210811415620002cc57634e487b7160e01b600052602260045260246000fd5b50919050565b611ef180620002e26000396000f3fe608060405234801561001057600080fd5b50600436106101cf5760003560e01c806370a08231116101045780639c94d853116100a2578063c87b56dd11610071578063c87b56dd146103be578063e985e9c5146103d1578063f6aacfb11461040d578063fcdabd271461043057600080fd5b80639c94d85314610367578063a0a8e46014610390578063a22cb46514610398578063b88d4fde146103ab57600080fd5b806382e9f71f116100de57806382e9f71f1461033e578063889777381461034f57806395cdb9a51461035757806395d89b411461035f57600080fd5b806370a082311461030e57806375d0c0dc146103215780638220ef5b1461032957600080fd5b80630e3e80ac1161017157806342842e0e1161014b57806342842e0e146102c45780634dcbc739146102d75780635227ce4c146102ea5780636352211e146102fb57600080fd5b80630e3e80ac1461028857806323b872dd1461029e5780633be0539c146102b157600080fd5b806306a46239116101ad57806306a462391461022757806306fdde0314610235578063081812fc1461024a578063095ea7b31461027557600080fd5b806301ffc9a7146101d45780630407ca13146101fc57806305c4fdf914610206575b600080fd5b6101e76101e2366004611972565b610459565b60405190151581526020015b60405180910390f35b610204610485565b005b6102196102143660046119a4565b6105b6565b6040519081526020016101f3565b640312e302e360dc1b610219565b61023d6108bb565b6040516101f39190611a35565b61025d610258366004611a48565b61094d565b6040516001600160a01b0390911681526020016101f3565b610204610283366004611a61565b6109e2565b6c5661756c74526567697374727960981b610219565b6102046102ac366004611a8d565b610af8565b6102046102bf366004611ace565b610b29565b6102046102d2366004611a8d565b610c9c565b6102046102e5366004611a48565b610cb7565b6007546001600160a01b031661025d565b61025d610309366004611a48565b610d4d565b61021961031c366004611ace565b610dc4565b61023d610e4b565b610331610e66565b6040516101f39190611aeb565b6008546001600160a01b031661025d565b600954610219565b600654610219565b61023d610ec7565b61025d610375366004611a48565b6000908152600b60205260409020546001600160a01b031690565b61023d610ed6565b6102046103a6366004611b46565b610ee9565b6102046103b9366004611b8a565b610ef8565b61023d6103cc366004611a48565b610f30565b6101e76103df3660046119a4565b6001600160a01b03918216600090815260056020908152604080832093909416825291909152205460ff1690565b6101e761041b366004611a48565b6000908152600c602052604090205460ff1690565b61021961043e366004611ace565b6001600160a01b03166000908152600a602052604090205490565b600061046482611018565b8061047f575063aeb8111f60e01b6001600160e01b03198316145b92915050565b61048e33611068565b6040518060400160405280600381526020016223292160e91b815250906104d15760405162461bcd60e51b81526004016104c89190611a35565b60405180910390fd5b506006546040805180820190915260048152631253925560e21b60208201529061050e5760405162461bcd60e51b81526004016104c89190611a35565b5060065442101560405180604001604052806002815260200161545360f01b8152509061054e5760405162461bcd60e51b81526004016104c89190611a35565b5060088054600780546001600160a01b0383166001600160a01b031991821681179092556000600655909116909155604051908152339032907f4028a967f323e2e5c0f132491efcd9aab74518c58755d2902f68e15bddf7f0b99060200160405180910390a3565b60408051808201909152600281526120ad60f11b60208201526000906001600160a01b0383166105f95760405162461bcd60e51b81526004016104c89190611a35565b506040516301ffc9a760e01b815263305a640b60e21b60048201526001600160a01b038416906301ffc9a79060240160206040518083038186803b15801561064057600080fd5b505afa158015610654573d6000803e3d6000fd5b505050506040513d601f19601f820116820180604052508101906106789190611c6a565b60405180604001604052806004815260200163494e564960e01b815250906106b35760405162461bcd60e51b81526004016104c89190611a35565b506007546040516363e85d2d60e01b8152336004820152600060248201526001600160a01b03909116906363e85d2d9060440160206040518083038186803b1580156106fe57600080fd5b505afa158015610712573d6000803e3d6000fd5b505050506040513d601f19601f820116820180604052508101906107369190611c6a565b6040518060400160405280600381526020016223292160e91b815250906107705760405162461bcd60e51b81526004016104c89190611a35565b506001600160a01b0383166000908152600a6020908152604091829020548251808401909352600383526204455560ec1b91830191909152156107c65760405162461bcd60e51b81526004016104c89190611a35565b5050600d80546000818152600b6020908152604080832080546001600160a01b0389166001600160a01b03199182168117909255818552600a90935290832084905560098054600181810183559185527f6e1540171b6c0c960b71a7020d9f60077f6af931a8bbf590da0223dacf75c7af018054909316909117909155835492939092909190610857908490611c9d565b90915550610867905082826110e6565b604080516001600160a01b038581168252841660208201528291339132917f2e7d565a40aae7fc212bb3ec8f236059403cc2a1687d17b98dfef745b5ff4eda910160405180910390a492915050565b905090565b6060600080546108ca90611cb5565b80601f01602080910402602001604051908101604052809291908181526020018280546108f690611cb5565b80156109435780601f1061091857610100808354040283529160200191610943565b820191906000526020600020905b81548152906001019060200180831161092657829003601f168201915b5050505050905090565b6000818152600260205260408120546001600160a01b03166109c65760405162461bcd60e51b815260206004820152602c60248201527f4552433732313a20617070726f76656420717565727920666f72206e6f6e657860448201526b34b9ba32b73a103a37b5b2b760a11b60648201526084016104c8565b506000908152600460205260409020546001600160a01b031690565b60006109ed82610d4d565b9050806001600160a01b0316836001600160a01b03161415610a5b5760405162461bcd60e51b815260206004820152602160248201527f4552433732313a20617070726f76616c20746f2063757272656e74206f776e656044820152603960f91b60648201526084016104c8565b336001600160a01b0382161480610a775750610a7781336103df565b610ae95760405162461bcd60e51b815260206004820152603860248201527f4552433732313a20617070726f76652063616c6c6572206973206e6f74206f7760448201527f6e6572206e6f7220617070726f76656420666f7220616c6c000000000000000060648201526084016104c8565b610af38383611100565b505050565b610b02338261116e565b610b1e5760405162461bcd60e51b81526004016104c890611cf0565b610af3838383611265565b610b3233611068565b6040518060400160405280600381526020016223292160e91b81525090610b6c5760405162461bcd60e51b81526004016104c89190611a35565b5060408051808201909152600281526120ad60f11b60208201526001600160a01b038216610bad5760405162461bcd60e51b81526004016104c89190611a35565b50600880546001600160a01b0319166001600160a01b03838116919091179091556007546040805163bba3293960e01b81529051919092169163bba32939916004808301926020929190829003018186803b158015610c0b57600080fd5b505afa158015610c1f573d6000803e3d6000fd5b505050506040513d601f19601f82011682018060405250810190610c439190611d41565b610c4d9042611c9d565b6006819055604080516001600160a01b03841681526020810192909252339132917f3a13629a2c6c5c36580157266cf38218a43645aaa8e24dde67543ed62063879b910160405180910390a350565b610af383838360405180602001604052806000815250610ef8565b33610cc182610d4d565b6001600160a01b0316146040518060400160405280600381526020016223292160e91b81525090610d055760405162461bcd60e51b81526004016104c89190611a35565b506000818152600c6020526040808220805460ff19166001179055518291339132917f991b8e8a2e2b8ff515f7045174eeb52eb4868e69c5bb4259da6146a93c77574d91a450565b6000818152600260205260408120546001600160a01b03168061047f5760405162461bcd60e51b815260206004820152602960248201527f4552433732313a206f776e657220717565727920666f72206e6f6e657869737460448201526832b73a103a37b5b2b760b91b60648201526084016104c8565b60006001600160a01b038216610e2f5760405162461bcd60e51b815260206004820152602a60248201527f4552433732313a2062616c616e636520717565727920666f7220746865207a65604482015269726f206164647265737360b01b60648201526084016104c8565b506001600160a01b031660009081526003602052604090205490565b60606108b66c5661756c74526567697374727960981b611410565b6060600980548060200260200160405190810160405280929190818152602001828054801561094357602002820191906000526020600020905b81546001600160a01b03168152600190910190602001808311610ea0575050505050905090565b6060600180546108ca90611cb5565b60606108b6640312e302e360dc1b611410565b610ef433838361147c565b5050565b610f02338361116e565b610f1e5760405162461bcd60e51b81526004016104c890611cf0565b610f2a8484848461154b565b50505050565b6000818152600260205260409020546060906001600160a01b0316610faf5760405162461bcd60e51b815260206004820152602f60248201527f4552433732314d657461646174613a2055524920717565727920666f72206e6f60448201526e3732bc34b9ba32b73a103a37b5b2b760891b60648201526084016104c8565b6000610fc660408051602081019091526000815290565b90506000815111610fe65760405180602001604052806000815250611011565b80610ff08461157e565b604051602001611001929190611d5a565b6040516020818303038152906040525b9392505050565b60006001600160e01b031982166380ac58cd60e01b148061104957506001600160e01b03198216635b5e139f60e01b145b8061047f57506301ffc9a760e01b6001600160e01b031983161461047f565b600754604051630935e01b60e21b81526001600160a01b03838116600483015260009216906324d7806c9060240160206040518083038186803b1580156110ae57600080fd5b505afa1580156110c2573d6000803e3d6000fd5b505050506040513d601f19601f8201168201806040525081019061047f9190611c6a565b610ef482826040518060200160405280600081525061167c565b600081815260046020526040902080546001600160a01b0319166001600160a01b038416908117909155819061113582610d4d565b6001600160a01b03167f8c5be1e5ebec7d5bd14f71427d1e84f3dd0314c0f7b2291e5b200ac8c7c3b92560405160405180910390a45050565b6000818152600260205260408120546001600160a01b03166111e75760405162461bcd60e51b815260206004820152602c60248201527f4552433732313a206f70657261746f7220717565727920666f72206e6f6e657860448201526b34b9ba32b73a103a37b5b2b760a11b60648201526084016104c8565b60006111f283610d4d565b9050806001600160a01b0316846001600160a01b0316148061122d5750836001600160a01b03166112228461094d565b6001600160a01b0316145b8061125d57506001600160a01b0380821660009081526005602090815260408083209388168352929052205460ff165b949350505050565b826001600160a01b031661127882610d4d565b6001600160a01b0316146112e05760405162461bcd60e51b815260206004820152602960248201527f4552433732313a207472616e73666572206f6620746f6b656e2074686174206960448201526839903737ba1037bbb760b91b60648201526084016104c8565b6001600160a01b0382166113425760405162461bcd60e51b8152602060048201526024808201527f4552433732313a207472616e7366657220746f20746865207a65726f206164646044820152637265737360e01b60648201526084016104c8565b61134d8383836116af565b611358600082611100565b6001600160a01b0383166000908152600360205260408120805460019290611381908490611d89565b90915550506001600160a01b03821660009081526003602052604081208054600192906113af908490611c9d565b909155505060008181526002602052604080822080546001600160a01b0319166001600160a01b0386811691821790925591518493918716917fddf252ad1be2c89b69c2b068fc378daa952ba7f163c4a11628f55a4df523b3ef91a4505050565b604080516020808252818301909252606091602082018180368337019050509050602060005b602081101561146e5783816020811061145157611451611da0565b1a61145e5780915061146e565b61146781611db6565b9050611436565b508152602081019190915290565b816001600160a01b0316836001600160a01b031614156114de5760405162461bcd60e51b815260206004820152601960248201527f4552433732313a20617070726f766520746f2063616c6c65720000000000000060448201526064016104c8565b6001600160a01b03838116600081815260056020908152604080832094871680845294825291829020805460ff191686151590811790915591519182527f17307eab39ab6107e8899845ad3d59bd9653f200f220920489ca2b5937696c31910160405180910390a3505050565b611556848484611265565b611562848484846116fe565b610f2a5760405162461bcd60e51b81526004016104c890611dd1565b6060816115a25750506040805180820190915260018152600360fc1b602082015290565b8160005b81156115cc57806115b681611db6565b91506115c59050600a83611e39565b91506115a6565b60008167ffffffffffffffff8111156115e7576115e7611b74565b6040519080825280601f01601f191660200182016040528015611611576020820181803683370190505b5090505b841561125d57611626600183611d89565b9150611633600a86611e4d565b61163e906030611c9d565b60f81b81838151811061165357611653611da0565b60200101906001600160f81b031916908160001a905350611675600a86611e39565b9450611615565b611686838361180b565b61169360008484846116fe565b610af35760405162461bcd60e51b81526004016104c890611dd1565b6000818152600c602090815260409182902054825180840190935260048352631310d2d160e21b9183019190915260ff1615610f2a5760405162461bcd60e51b81526004016104c89190611a35565b60006001600160a01b0384163b1561180057604051630a85bd0160e11b81526001600160a01b0385169063150b7a0290611742903390899088908890600401611e61565b602060405180830381600087803b15801561175c57600080fd5b505af192505050801561178c575060408051601f3d908101601f1916820190925261178991810190611e9e565b60015b6117e6573d8080156117ba576040519150601f19603f3d011682016040523d82523d6000602084013e6117bf565b606091505b5080516117de5760405162461bcd60e51b81526004016104c890611dd1565b805181602001fd5b6001600160e01b031916630a85bd0160e11b14905061125d565b506001949350505050565b6001600160a01b0382166118615760405162461bcd60e51b815260206004820181905260248201527f4552433732313a206d696e7420746f20746865207a65726f206164647265737360448201526064016104c8565b6000818152600260205260409020546001600160a01b0316156118c65760405162461bcd60e51b815260206004820152601c60248201527f4552433732313a20746f6b656e20616c7265616479206d696e7465640000000060448201526064016104c8565b6118d2600083836116af565b6001600160a01b03821660009081526003602052604081208054600192906118fb908490611c9d565b909155505060008181526002602052604080822080546001600160a01b0319166001600160a01b03861690811790915590518392907fddf252ad1be2c89b69c2b068fc378daa952ba7f163c4a11628f55a4df523b3ef908290a45050565b6001600160e01b03198116811461196f57600080fd5b50565b60006020828403121561198457600080fd5b813561101181611959565b6001600160a01b038116811461196f57600080fd5b600080604083850312156119b757600080fd5b82356119c28161198f565b915060208301356119d28161198f565b809150509250929050565b60005b838110156119f85781810151838201526020016119e0565b83811115610f2a5750506000910152565b60008151808452611a218160208601602086016119dd565b601f01601f19169290920160200192915050565b6020815260006110116020830184611a09565b600060208284031215611a5a57600080fd5b5035919050565b60008060408385031215611a7457600080fd5b8235611a7f8161198f565b946020939093013593505050565b600080600060608486031215611aa257600080fd5b8335611aad8161198f565b92506020840135611abd8161198f565b929592945050506040919091013590565b600060208284031215611ae057600080fd5b81356110118161198f565b6020808252825182820181905260009190848201906040850190845b81811015611b2c5783516001600160a01b031683529284019291840191600101611b07565b50909695505050505050565b801515811461196f57600080fd5b60008060408385031215611b5957600080fd5b8235611b648161198f565b915060208301356119d281611b38565b634e487b7160e01b600052604160045260246000fd5b60008060008060808587031215611ba057600080fd5b8435611bab8161198f565b93506020850135611bbb8161198f565b925060408501359150606085013567ffffffffffffffff80821115611bdf57600080fd5b818701915087601f830112611bf357600080fd5b813581811115611c0557611c05611b74565b604051601f8201601f19908116603f01168101908382118183101715611c2d57611c2d611b74565b816040528281528a6020848701011115611c4657600080fd5b82602086016020830137600060208483010152809550505050505092959194509250565b600060208284031215611c7c57600080fd5b815161101181611b38565b634e487b7160e01b600052601160045260246000fd5b60008219821115611cb057611cb0611c87565b500190565b600181811c90821680611cc957607f821691505b60208210811415611cea57634e487b7160e01b600052602260045260246000fd5b50919050565b60208082526031908201527f4552433732313a207472616e736665722063616c6c6572206973206e6f74206f6040820152701ddb995c881b9bdc88185c1c1c9bdd9959607a1b606082015260800190565b600060208284031215611d5357600080fd5b5051919050565b60008351611d6c8184602088016119dd565b835190830190611d808183602088016119dd565b01949350505050565b600082821015611d9b57611d9b611c87565b500390565b634e487b7160e01b600052603260045260246000fd5b6000600019821415611dca57611dca611c87565b5060010190565b60208082526032908201527f4552433732313a207472616e7366657220746f206e6f6e20455243373231526560408201527131b2b4bb32b91034b6b83632b6b2b73a32b960711b606082015260800190565b634e487b7160e01b600052601260045260246000fd5b600082611e4857611e48611e23565b500490565b600082611e5c57611e5c611e23565b500690565b6001600160a01b0385811682528416602082015260408101839052608060608201819052600090611e9490830184611a09565b9695505050505050565b600060208284031215611eb057600080fd5b81516110118161195956fea264697066735822122051c6be0d304be4fb92fbaa3e2f971f20d9dd8c84abc54c3b0cf5fb1437421d9964736f6c63430008090033",
  "devdoc": {
    "events": {
      "CommitedProtocolGovernance(address,address,address)": {
        "params": {
          "newProtocolGovernance": "Address of the new ProtocolGovernance that has been committed",
          "origin": "Origin of the transaction (tx.origin)",
          "sender": "Sender of the call (msg.sender)"
        }
      },
      "StagedProtocolGovernance(address,address,address,uint256)": {
        "params": {
          "newProtocolGovernance": "Address of the new ProtocolGovernance",
          "origin": "Origin of the transaction (tx.origin)",
          "sender": "Sender of the call (msg.sender)",
          "start": "Timestamp of the start of the new ProtocolGovernance"
        }
      },
      "TokenLocked(address,address,uint256)": {
        "params": {
          "nft": "NFT to be locked",
          "origin": "Origin of the transaction (tx.origin)",
          "sender": "Sender of the call (msg.sender)"
        }
      },
      "VaultRegistered(address,address,uint256,address,address)": {
        "params": {
          "nft": "VaultRegistry NFT of the vault",
          "origin": "Origin of the transaction (tx.origin)",
          "owner": "Owner of the VaultRegistry NFT",
          "sender": "Sender of the call (msg.sender)",
          "vault": "Address of the Vault contract"
        }
      }
    },
    "kind": "dev",
    "methods": {
      "approve(address,uint256)": {
        "details": "See {IERC721-approve}."
      },
      "balanceOf(address)": {
        "details": "See {IERC721-balanceOf}."
      },
      "constructor": {
        "params": {
          "name": "ERC721 token name",
          "protocolGovernance_": "Reference to ProtocolGovernance",
          "symbol": "ERC721 token symbol"
        }
      },
      "getApproved(uint256)": {
        "details": "See {IERC721-getApproved}."
      },
      "isApprovedForAll(address,address)": {
        "details": "See {IERC721-isApprovedForAll}."
      },
      "isLocked(uint256)": {
        "params": {
          "nft": "NFT to check for lock"
        },
        "returns": {
          "_0": "`true` if locked, false otherwise"
        }
      },
      "lockNft(uint256)": {
        "details": "Use this method when vault structure is set up and should become immutable. Can be called by owner.",
        "params": {
          "nft": "- NFT to lock"
        }
      },
      "name()": {
        "details": "See {IERC721Metadata-name}."
      },
      "nftForVault(address)": {
        "params": {
          "vault": "Address of the Vault contract"
        },
        "returns": {
          "_0": "NFT ID"
        }
      },
      "ownerOf(uint256)": {
        "details": "See {IERC721-ownerOf}."
      },
      "registerVault(address,address)": {
        "params": {
          "owner": "owner of the NFT",
          "vault": "address of the vault"
        },
        "returns": {
          "nft": "Nft minted for the given Vault"
        }
      },
      "safeTransferFrom(address,address,uint256)": {
        "details": "See {IERC721-safeTransferFrom}."
      },
      "safeTransferFrom(address,address,uint256,bytes)": {
        "details": "See {IERC721-safeTransferFrom}."
      },
      "setApprovalForAll(address,bool)": {
        "details": "See {IERC721-setApprovalForAll}."
      },
      "stageProtocolGovernance(address)": {
        "params": {
          "newProtocolGovernance": "new ProtocolGovernance"
        }
      },
      "symbol()": {
        "details": "See {IERC721Metadata-symbol}."
      },
      "tokenURI(uint256)": {
        "details": "See {IERC721Metadata-tokenURI}."
      },
      "transferFrom(address,address,uint256)": {
        "details": "See {IERC721-transferFrom}."
      },
      "vaultForNft(uint256)": {
        "params": {
          "nftId": "NFT ID"
        },
        "returns": {
          "_0": "Address of the Vault contract"
        }
      }
    },
    "version": 1
  },
  "userdoc": {
    "events": {
      "TokenLocked(address,address,uint256)": {
        "notice": "Emitted when token is locked for transfers"
      },
      "VaultRegistered(address,address,uint256,address,address)": {
        "notice": "Emitted when new Vault is registered in VaultRegistry"
      }
    },
    "kind": "user",
    "methods": {
      "commitStagedProtocolGovernance()": {
        "notice": "Commit new ProtocolGovernance."
      },
      "constructor": {
        "notice": "Creates a new contract."
      },
      "isLocked(uint256)": {
        "notice": "Checks if the nft is locked for all transfers"
      },
      "lockNft(uint256)": {
        "notice": "Lock NFT for transfers"
      },
      "nftForVault(address)": {
        "notice": "Get NFT ID for given Vault contract address."
      },
      "protocolGovernance()": {
        "notice": "Address of the ProtocolGovernance."
      },
      "registerVault(address,address)": {
        "notice": "Register new Vault and mint NFT."
      },
      "stageProtocolGovernance(address)": {
        "notice": "Stage new ProtocolGovernance."
      },
      "stagedProtocolGovernance()": {
        "notice": "Address of the staged ProtocolGovernance."
      },
      "stagedProtocolGovernanceTimestamp()": {
        "notice": "Minimal timestamp when staged ProtocolGovernance can be applied."
      },
      "vaultForNft(uint256)": {
        "notice": "Get Vault for the giver NFT ID."
      },
      "vaults()": {
        "notice": "All Vaults registered."
      },
      "vaultsCount()": {
        "notice": "Number of Vaults registered."
      }
    },
    "notice": "This contract is used to manage ERC721 NFT for all Vaults.",
    "version": 1
  },
  "storageLayout": {
    "storage": [
      {
        "astId": 1873,
        "contract": "contracts/VaultRegistry.sol:VaultRegistry",
        "label": "_name",
        "offset": 0,
        "slot": "0",
        "type": "t_string_storage"
      },
      {
        "astId": 1875,
        "contract": "contracts/VaultRegistry.sol:VaultRegistry",
        "label": "_symbol",
        "offset": 0,
        "slot": "1",
        "type": "t_string_storage"
      },
      {
        "astId": 1879,
        "contract": "contracts/VaultRegistry.sol:VaultRegistry",
        "label": "_owners",
        "offset": 0,
        "slot": "2",
        "type": "t_mapping(t_uint256,t_address)"
      },
      {
        "astId": 1883,
        "contract": "contracts/VaultRegistry.sol:VaultRegistry",
        "label": "_balances",
        "offset": 0,
        "slot": "3",
        "type": "t_mapping(t_address,t_uint256)"
      },
      {
        "astId": 1887,
        "contract": "contracts/VaultRegistry.sol:VaultRegistry",
        "label": "_tokenApprovals",
        "offset": 0,
        "slot": "4",
        "type": "t_mapping(t_uint256,t_address)"
      },
      {
        "astId": 1893,
        "contract": "contracts/VaultRegistry.sol:VaultRegistry",
        "label": "_operatorApprovals",
        "offset": 0,
        "slot": "5",
        "type": "t_mapping(t_address,t_mapping(t_address,t_bool))"
      },
      {
        "astId": 10251,
        "contract": "contracts/VaultRegistry.sol:VaultRegistry",
        "label": "_stagedProtocolGovernanceTimestamp",
        "offset": 0,
        "slot": "6",
        "type": "t_uint256"
      },
      {
        "astId": 10254,
        "contract": "contracts/VaultRegistry.sol:VaultRegistry",
        "label": "_protocolGovernance",
        "offset": 0,
        "slot": "7",
        "type": "t_contract(IProtocolGovernance)11058"
      },
      {
        "astId": 10257,
        "contract": "contracts/VaultRegistry.sol:VaultRegistry",
        "label": "_stagedProtocolGovernance",
        "offset": 0,
        "slot": "8",
        "type": "t_contract(IProtocolGovernance)11058"
      },
      {
        "astId": 10260,
        "contract": "contracts/VaultRegistry.sol:VaultRegistry",
        "label": "_vaults",
        "offset": 0,
        "slot": "9",
        "type": "t_array(t_address)dyn_storage"
      },
      {
        "astId": 10264,
        "contract": "contracts/VaultRegistry.sol:VaultRegistry",
        "label": "_nftIndex",
        "offset": 0,
        "slot": "10",
        "type": "t_mapping(t_address,t_uint256)"
      },
      {
        "astId": 10268,
        "contract": "contracts/VaultRegistry.sol:VaultRegistry",
        "label": "_vaultIndex",
        "offset": 0,
        "slot": "11",
        "type": "t_mapping(t_uint256,t_address)"
      },
      {
        "astId": 10272,
        "contract": "contracts/VaultRegistry.sol:VaultRegistry",
        "label": "_locks",
        "offset": 0,
        "slot": "12",
        "type": "t_mapping(t_uint256,t_bool)"
      },
      {
        "astId": 10275,
        "contract": "contracts/VaultRegistry.sol:VaultRegistry",
        "label": "_topNft",
        "offset": 0,
        "slot": "13",
        "type": "t_uint256"
      }
    ],
    "types": {
      "t_address": {
        "encoding": "inplace",
        "label": "address",
        "numberOfBytes": "20"
      },
      "t_array(t_address)dyn_storage": {
        "base": "t_address",
        "encoding": "dynamic_array",
        "label": "address[]",
        "numberOfBytes": "32"
      },
      "t_bool": {
        "encoding": "inplace",
        "label": "bool",
        "numberOfBytes": "1"
      },
      "t_contract(IProtocolGovernance)11058": {
        "encoding": "inplace",
        "label": "contract IProtocolGovernance",
        "numberOfBytes": "20"
      },
      "t_mapping(t_address,t_bool)": {
        "encoding": "mapping",
        "key": "t_address",
        "label": "mapping(address => bool)",
        "numberOfBytes": "32",
        "value": "t_bool"
      },
      "t_mapping(t_address,t_mapping(t_address,t_bool))": {
        "encoding": "mapping",
        "key": "t_address",
        "label": "mapping(address => mapping(address => bool))",
        "numberOfBytes": "32",
        "value": "t_mapping(t_address,t_bool)"
      },
      "t_mapping(t_address,t_uint256)": {
        "encoding": "mapping",
        "key": "t_address",
        "label": "mapping(address => uint256)",
        "numberOfBytes": "32",
        "value": "t_uint256"
      },
      "t_mapping(t_uint256,t_address)": {
        "encoding": "mapping",
        "key": "t_uint256",
        "label": "mapping(uint256 => address)",
        "numberOfBytes": "32",
        "value": "t_address"
      },
      "t_mapping(t_uint256,t_bool)": {
        "encoding": "mapping",
        "key": "t_uint256",
        "label": "mapping(uint256 => bool)",
        "numberOfBytes": "32",
        "value": "t_bool"
      },
      "t_string_storage": {
        "encoding": "bytes",
        "label": "string",
        "numberOfBytes": "32"
      },
      "t_uint256": {
        "encoding": "inplace",
        "label": "uint256",
        "numberOfBytes": "32"
      }
    }
  }
}