{
  "address": "0xEf142EaCbd733eE5E5b28790bEa74CC2243538dC",
  "abi": [
    {
      "inputs": [
        {
          "components": [
            {
              "internalType": "contract IProtocolGovernance",
              "name": "protocolGovernance",
              "type": "address"
            },
            {
              "internalType": "contract IVaultRegistry",
              "name": "registry",
              "type": "address"
            },
            {
              "internalType": "contract IVault",
              "name": "singleton",
              "type": "address"
            }
          ],
          "internalType": "struct IVaultGovernance.InternalParams",
          "name": "internalParams_",
          "type": "tuple"
        },
        {
          "components": [
            {
              "internalType": "contract IPeriphery",
              "name": "periphery",
              "type": "address"
            }
          ],
          "internalType": "struct IVoltzVaultGovernance.DelayedProtocolParams",
          "name": "delayedProtocolParams_",
          "type": "tuple"
        }
      ],
      "stateMutability": "nonpayable",
      "type": "constructor"
    },
    {
      "anonymous": false,
      "inputs": [
        {
          "indexed": true,
          "internalType": "address",
          "name": "origin",
          "type": "address"
        },
        {
          "indexed": true,
          "internalType": "address",
          "name": "sender",
          "type": "address"
        },
        {
          "components": [
            {
              "internalType": "contract IPeriphery",
              "name": "periphery",
              "type": "address"
            }
          ],
          "indexed": false,
          "internalType": "struct IVoltzVaultGovernance.DelayedProtocolParams",
          "name": "params",
          "type": "tuple"
        }
      ],
      "name": "CommitDelayedProtocolParams",
      "type": "event"
    },
    {
      "anonymous": false,
      "inputs": [
        {
          "indexed": true,
          "internalType": "address",
          "name": "origin",
          "type": "address"
        },
        {
          "indexed": true,
          "internalType": "address",
          "name": "sender",
          "type": "address"
        },
        {
          "components": [
            {
              "internalType": "contract IProtocolGovernance",
              "name": "protocolGovernance",
              "type": "address"
            },
            {
              "internalType": "contract IVaultRegistry",
              "name": "registry",
              "type": "address"
            },
            {
              "internalType": "contract IVault",
              "name": "singleton",
              "type": "address"
            }
          ],
          "indexed": false,
          "internalType": "struct IVaultGovernance.InternalParams",
          "name": "params",
          "type": "tuple"
        }
      ],
      "name": "CommitedInternalParams",
      "type": "event"
    },
    {
      "anonymous": false,
      "inputs": [
        {
          "indexed": true,
          "internalType": "address",
          "name": "origin",
          "type": "address"
        },
        {
          "indexed": true,
          "internalType": "address",
          "name": "sender",
          "type": "address"
        },
        {
          "indexed": false,
          "internalType": "address[]",
          "name": "vaultTokens",
          "type": "address[]"
        },
        {
          "indexed": false,
          "internalType": "bytes",
          "name": "options",
          "type": "bytes"
        },
        {
          "indexed": false,
          "internalType": "address",
          "name": "owner",
          "type": "address"
        },
        {
          "indexed": false,
          "internalType": "address",
          "name": "vaultAddress",
          "type": "address"
        },
        {
          "indexed": false,
          "internalType": "uint256",
          "name": "vaultNft",
          "type": "uint256"
        }
      ],
      "name": "DeployedVault",
      "type": "event"
    },
    {
      "anonymous": false,
      "inputs": [
        {
          "indexed": true,
          "internalType": "address",
          "name": "origin",
          "type": "address"
        },
        {
          "indexed": true,
          "internalType": "address",
          "name": "sender",
          "type": "address"
        },
        {
          "components": [
            {
              "internalType": "contract IPeriphery",
              "name": "periphery",
              "type": "address"
            }
          ],
          "indexed": false,
          "internalType": "struct IVoltzVaultGovernance.DelayedProtocolParams",
          "name": "params",
          "type": "tuple"
        },
        {
          "indexed": false,
          "internalType": "uint256",
          "name": "when",
          "type": "uint256"
        }
      ],
      "name": "StageDelayedProtocolParams",
      "type": "event"
    },
    {
      "anonymous": false,
      "inputs": [
        {
          "indexed": true,
          "internalType": "address",
          "name": "origin",
          "type": "address"
        },
        {
          "indexed": true,
          "internalType": "address",
          "name": "sender",
          "type": "address"
        },
        {
          "components": [
            {
              "internalType": "contract IProtocolGovernance",
              "name": "protocolGovernance",
              "type": "address"
            },
            {
              "internalType": "contract IVaultRegistry",
              "name": "registry",
              "type": "address"
            },
            {
              "internalType": "contract IVault",
              "name": "singleton",
              "type": "address"
            }
          ],
          "indexed": false,
          "internalType": "struct IVaultGovernance.InternalParams",
          "name": "params",
          "type": "tuple"
        },
        {
          "indexed": false,
          "internalType": "uint256",
          "name": "when",
          "type": "uint256"
        }
      ],
      "name": "StagedInternalParams",
      "type": "event"
    },
    {
      "inputs": [],
      "name": "commitDelayedProtocolParams",
      "outputs": [],
      "stateMutability": "nonpayable",
      "type": "function"
    },
    {
      "inputs": [],
      "name": "commitInternalParams",
      "outputs": [],
      "stateMutability": "nonpayable",
      "type": "function"
    },
    {
      "inputs": [],
      "name": "contractName",
      "outputs": [
        {
          "internalType": "string",
          "name": "",
          "type": "string"
        }
      ],
      "stateMutability": "pure",
      "type": "function"
    },
    {
      "inputs": [],
      "name": "contractNameBytes",
      "outputs": [
        {
          "internalType": "bytes32",
          "name": "",
          "type": "bytes32"
        }
      ],
      "stateMutability": "pure",
      "type": "function"
    },
    {
      "inputs": [],
      "name": "contractVersion",
      "outputs": [
        {
          "internalType": "string",
          "name": "",
          "type": "string"
        }
      ],
      "stateMutability": "pure",
      "type": "function"
    },
    {
      "inputs": [],
      "name": "contractVersionBytes",
      "outputs": [
        {
          "internalType": "bytes32",
          "name": "",
          "type": "bytes32"
        }
      ],
      "stateMutability": "pure",
      "type": "function"
    },
    {
      "inputs": [
        {
          "internalType": "address[]",
          "name": "vaultTokens_",
          "type": "address[]"
        },
        {
          "internalType": "address",
          "name": "owner_",
          "type": "address"
        },
        {
          "internalType": "address",
          "name": "marginEngine_",
          "type": "address"
        },
        {
          "internalType": "address",
          "name": "voltzVaultHelperSingleton_",
          "type": "address"
        },
        {
          "components": [
            {
              "internalType": "int24",
              "name": "tickLower",
              "type": "int24"
            },
            {
              "internalType": "int24",
              "name": "tickUpper",
              "type": "int24"
            },
            {
              "internalType": "uint256",
              "name": "leverageWad",
              "type": "uint256"
            },
            {
              "internalType": "uint256",
              "name": "marginMultiplierPostUnwindWad",
              "type": "uint256"
            }
          ],
          "internalType": "struct IVoltzVault.InitializeParams",
          "name": "initializeParams",
          "type": "tuple"
        }
      ],
      "name": "createVault",
      "outputs": [
        {
          "internalType": "contract IVoltzVault",
          "name": "vault",
          "type": "address"
        },
        {
          "internalType": "uint256",
          "name": "nft",
          "type": "uint256"
        }
      ],
      "stateMutability": "nonpayable",
      "type": "function"
    },
    {
      "inputs": [],
      "name": "delayedProtocolParams",
      "outputs": [
        {
          "components": [
            {
              "internalType": "contract IPeriphery",
              "name": "periphery",
              "type": "address"
            }
          ],
          "internalType": "struct IVoltzVaultGovernance.DelayedProtocolParams",
          "name": "",
          "type": "tuple"
        }
      ],
      "stateMutability": "view",
      "type": "function"
    },
    {
      "inputs": [],
      "name": "delayedProtocolParamsTimestamp",
      "outputs": [
        {
          "internalType": "uint256",
          "name": "",
          "type": "uint256"
        }
      ],
      "stateMutability": "view",
      "type": "function"
    },
    {
      "inputs": [
        {
          "internalType": "uint256",
          "name": "nft",
          "type": "uint256"
        }
      ],
      "name": "delayedProtocolPerVaultParamsTimestamp",
      "outputs": [
        {
          "internalType": "uint256",
          "name": "",
          "type": "uint256"
        }
      ],
      "stateMutability": "view",
      "type": "function"
    },
    {
      "inputs": [
        {
          "internalType": "uint256",
          "name": "nft",
          "type": "uint256"
        }
      ],
      "name": "delayedStrategyParamsTimestamp",
      "outputs": [
        {
          "internalType": "uint256",
          "name": "",
          "type": "uint256"
        }
      ],
      "stateMutability": "view",
      "type": "function"
    },
    {
      "inputs": [],
      "name": "internalParams",
      "outputs": [
        {
          "components": [
            {
              "internalType": "contract IProtocolGovernance",
              "name": "protocolGovernance",
              "type": "address"
            },
            {
              "internalType": "contract IVaultRegistry",
              "name": "registry",
              "type": "address"
            },
            {
              "internalType": "contract IVault",
              "name": "singleton",
              "type": "address"
            }
          ],
          "internalType": "struct IVaultGovernance.InternalParams",
          "name": "",
          "type": "tuple"
        }
      ],
      "stateMutability": "view",
      "type": "function"
    },
    {
      "inputs": [],
      "name": "internalParamsTimestamp",
      "outputs": [
        {
          "internalType": "uint256",
          "name": "",
          "type": "uint256"
        }
      ],
      "stateMutability": "view",
      "type": "function"
    },
    {
      "inputs": [
        {
          "components": [
            {
              "internalType": "contract IPeriphery",
              "name": "periphery",
              "type": "address"
            }
          ],
          "internalType": "struct IVoltzVaultGovernance.DelayedProtocolParams",
          "name": "params",
          "type": "tuple"
        }
      ],
      "name": "stageDelayedProtocolParams",
      "outputs": [],
      "stateMutability": "nonpayable",
      "type": "function"
    },
    {
      "inputs": [
        {
          "components": [
            {
              "internalType": "contract IProtocolGovernance",
              "name": "protocolGovernance",
              "type": "address"
            },
            {
              "internalType": "contract IVaultRegistry",
              "name": "registry",
              "type": "address"
            },
            {
              "internalType": "contract IVault",
              "name": "singleton",
              "type": "address"
            }
          ],
          "internalType": "struct IVaultGovernance.InternalParams",
          "name": "newParams",
          "type": "tuple"
        }
      ],
      "name": "stageInternalParams",
      "outputs": [],
      "stateMutability": "nonpayable",
      "type": "function"
    },
    {
      "inputs": [],
      "name": "stagedDelayedProtocolParams",
      "outputs": [
        {
          "components": [
            {
              "internalType": "contract IPeriphery",
              "name": "periphery",
              "type": "address"
            }
          ],
          "internalType": "struct IVoltzVaultGovernance.DelayedProtocolParams",
          "name": "",
          "type": "tuple"
        }
      ],
      "stateMutability": "view",
      "type": "function"
    },
    {
      "inputs": [],
      "name": "stagedInternalParams",
      "outputs": [
        {
          "components": [
            {
              "internalType": "contract IProtocolGovernance",
              "name": "protocolGovernance",
              "type": "address"
            },
            {
              "internalType": "contract IVaultRegistry",
              "name": "registry",
              "type": "address"
            },
            {
              "internalType": "contract IVault",
              "name": "singleton",
              "type": "address"
            }
          ],
          "internalType": "struct IVaultGovernance.InternalParams",
          "name": "",
          "type": "tuple"
        }
      ],
      "stateMutability": "view",
      "type": "function"
    },
    {
      "inputs": [
        {
          "internalType": "bytes4",
          "name": "interfaceId",
          "type": "bytes4"
        }
      ],
      "name": "supportsInterface",
      "outputs": [
        {
          "internalType": "bool",
          "name": "",
          "type": "bool"
        }
      ],
      "stateMutability": "view",
      "type": "function"
    }
  ],
  "transactionHash": "0x31e48eaa1f2d50651f88d28fd07addf38b37fbf93204d4102802c50bb4ab4b1f",
  "args": [
    {
      "protocolGovernance": "0xba78C2E8914074A87d32c41c6C49b8a924e60b6D",
      "registry": "0x43EBC6D7505d0225992445351d2eEAF9B53bC1A2",
      "singleton": "0x8f9bEE6f5E81Ac740Dddf0CfFF6007563Fa0E089"
    },
    {
      "periphery": "0x12872b785dBC464F56086aFAB2b3ff7c27a5d007"
    }
  ],
  "solcInputHash": "1984535d51a55304aed3f058b4264cb9",
  "bytecode": "0x60806040523480156200001157600080fd5b5060405162001cc938038062001cc98339810160408190526200003491620002df565b815160408051808201909152600281526120ad60f11b602082015283916001600160a01b0316620000835760405162461bcd60e51b81526004016200007a9190620003ad565b60405180910390fd5b5060006001600160a01b031681602001516001600160a01b031614156040518060400160405280600281526020016120ad60f11b81525090620000db5760405162461bcd60e51b81526004016200007a9190620003ad565b506040808201518151808301909252600282526120ad60f11b60208301526001600160a01b0316620001225760405162461bcd60e51b81526004016200007a9190620003ad565b508051600080546001600160a01b03199081166001600160a01b039384161790915560208084015160018054841691851691909117905560409384015160028054909316908416178255845184518086019095529184526120ad60f11b9084015216620001a45760405162461bcd60e51b81526004016200007a9190620003ad565b506040805182516001600160a01b0316602082015201604051602081830303815290604052600d9080519060200190620001e0929190620001e9565b50505062000442565b828054620001f79062000405565b90600052602060002090601f0160209004810192826200021b576000855562000266565b82601f106200023657805160ff191683800117855562000266565b8280016001018555821562000266579182015b828111156200026657825182559160200191906001019062000249565b506200027492915062000278565b5090565b5b8082111562000274576000815560010162000279565b604051602081016001600160401b0381118282101715620002c057634e487b7160e01b600052604160045260246000fd5b60405290565b6001600160a01b0381168114620002dc57600080fd5b50565b6000808284036080811215620002f457600080fd5b60608112156200030357600080fd5b604051606081016001600160401b03811182821017156200033457634e487b7160e01b600052604160045260246000fd5b60405284516200034481620002c6565b815260208501516200035681620002c6565b602082015260408501516200036b81620002c6565b604082015292506020605f19820112156200038557600080fd5b50620003906200028f565b6060840151620003a081620002c6565b8152919491935090915050565b600060208083528351808285015260005b81811015620003dc57858101830151858201604001528201620003be565b81811115620003ef576000604083870101525b50601f01601f1916929092016040019392505050565b600181811c908216806200041a57607f821691505b602082108114156200043c57634e487b7160e01b600052602260045260246000fd5b50919050565b61187780620004526000396000f3fe608060405234801561001057600080fd5b50600436106101165760003560e01c806386c6be3e116100a2578063c2cbdc6711610071578063c2cbdc67146102c0578063cd690421146102e0578063d34cc38014610312578063d4a07d341461031a578063e4af6e791461032257600080fd5b806386c6be3e1461024a57806398347a5d1461029d578063a0a8e460146102a5578063b32c12d8146102ad57600080fd5b80631c7f4c73116100e95780631c7f4c731461018d578063511ce798146101955780636707acee146101b557806375d0c0dc146101d55780637ac46fbb146101ea57600080fd5b806301ffc9a71461011b57806306a4623914610143578063099465381461015b5780630e3e80ac14610170575b600080fd5b61012e6101293660046111bb565b61032a565b60405190151581526020015b60405180910390f35b640312e302e360dc1b5b60405190815260200161013a565b61016e610169366004611248565b61035b565b005b73566f6c747a5661756c74476f7665726e616e636560601b61014d565b60065461014d565b61014d6101a33660046112ba565b6000908152600c602052604090205490565b61014d6101c33660046112ba565b60009081526009602052604090205490565b6101dd61054d565b60405161013a9190611320565b61023d604080516060810182526000808252602082018190529181019190915250604080516060810182526000546001600160a01b03908116825260015481166020830152600254169181019190915290565b60405161013a9190611333565b61023d604080516060810182526000808252602082018190529181019190915250604080516060810182526003546001600160a01b03908116825260045481166020830152600554169181019190915290565b61016e61056f565b6101dd610668565b61016e6102bb366004611363565b61067b565b6102c861072f565b60405190516001600160a01b0316815260200161013a565b6102f36102ee36600461140f565b610804565b604080516001600160a01b03909316835260208301919091520161013a565b6102c86109b2565b61016e6109ce565b600f5461014d565b600061033582610af3565b80610350575063f7f6734360e01b6001600160e01b03198316145b92915050565b905090565b610363610b29565b805160408051808201909152600281526120ad60f11b6020820152906001600160a01b03166103ae5760405162461bcd60e51b81526004016103a59190611320565b60405180910390fd5b5060006001600160a01b031681602001516001600160a01b031614156040518060400160405280600281526020016120ad60f11b815250906104035760405162461bcd60e51b81526004016103a59190611320565b506040808201518151808301909252600282526120ad60f11b60208301526001600160a01b03166104475760405162461bcd60e51b81526004016103a59190611320565b508051600380546001600160a01b03199081166001600160a01b03938416179091556020808401516004805484169185169190911781556040808601516005805490951690861617909355600054835163bba3293960e01b8152935194169363bba3293993808301939290829003018186803b1580156104c657600080fd5b505afa1580156104da573d6000803e3d6000fd5b505050506040513d601f19601f820116820180604052508101906104fe9190611507565b6105089042611536565b6006819055604051339132917f0887cab3184f7c02b16978ab31f8acee05979f59fc3da6abe5bf71105ec3179d916105429186919061154e565b60405180910390a350565b606061035673566f6c747a5661756c74476f7665726e616e636560601b610be1565b610577610c4d565b336001600160a01b0316326001600160a01b03167fd0bd0864aed00de35801c29364a347e4a81f620231a4f13dc3ada2bddff7dfc1600d80546105b99061158b565b80601f01602080910402602001604051908101604052809291908181526020018280546105e59061158b565b80156106325780601f1061060757610100808354040283529160200191610632565b820191906000526020600020905b81548152906001019060200180831161061557829003601f168201915b505050505080602001905181019061064a91906115c0565b60405190516001600160a01b031681526020015b60405180910390a3565b6060610356640312e302e360dc1b610be1565b600061068a602083018361160c565b6001600160a01b031614156040518060400160405280600281526020016120ad60f11b815250906106ce5760405162461bcd60e51b81526004016103a59190611320565b506106f7816040516020016106e39190611629565b604051602081830303815290604052610d01565b600f54604051339132917f56b6c947728bda5a1251d4300168d688a46ddb97148c0e3f0034f2776418c2759161054291869190611649565b604080516020810190915260008152600e805461074b9061158b565b15159050610766575060408051602081019091526000815290565b600e80546107739061158b565b80601f016020809104026020016040519081016040528092919081815260200182805461079f9061158b565b80156107ec5780601f106107c1576101008083540402835291602001916107ec565b820191906000526020600020905b8154815290600101906020018083116107cf57829003601f168201915b505050505080602001905181019061035691906115c0565b600080600061081287610ddc565b9250905060006108228684610fcd565b9050819350836001600160a01b031663e24dfeac848b8a600d80546108469061158b565b80601f01602080910402602001604051908101604052809291908181526020018280546108729061158b565b80156108bf5780601f10610894576101008083540402835291602001916108bf565b820191906000526020600020905b8154815290600101906020018083116108a257829003601f168201915b50505050508060200190518101906108d791906115c0565b516040516001600160e01b031960e087901b168152610900949392919088908d906004016116b5565b600060405180830381600087803b15801561091a57600080fd5b505af115801561092e573d6000803e3d6000fd5b50505050336001600160a01b0316326001600160a01b03167f8a4513c05d15df8ece912856923273e166e39f5c9c2b43d2b38594023494a0e08b8a858a60405160200161097d93929190611731565b60408051601f198184030181529082905261099e92918e9089908b90611785565b60405180910390a350509550959350505050565b604080516020810190915260008152600d80546107739061158b565b6109d6610b29565b6006546040805180820190915260048152631395531360e21b602082015290610a125760405162461bcd60e51b81526004016103a59190611320565b5060065442101560405180604001604052806002815260200161545360f01b81525090610a525760405162461bcd60e51b81526004016103a59190611320565b5060038054600080546001600160a01b038084166001600160a01b03199283168117845560048054600180548286169087168117909155600580546002805497821697891688179055600698909855978616909855841690559290911690925560408051918252602082019390935291820152339032907fef3e4bc9725fa684957d7de03c6dcd01078ee86cf78ceef25c5f8346df69cc999060600161065e565b60006301ffc9a760e01b6001600160e01b03198316148061035057506001600160e01b0319821663effda0f560e01b1492915050565b600054604051630935e01b60e21b81523360048201526001600160a01b03909116906324d7806c9060240160206040518083038186803b158015610b6c57600080fd5b505afa158015610b80573d6000803e3d6000fd5b505050506040513d601f19601f82011682018060405250810190610ba491906117cf565b6040518060400160405280600381526020016223292160e91b81525090610bde5760405162461bcd60e51b81526004016103a59190611320565b50565b604080516020808252818301909252606091602082018180368337019050509050602060005b6020811015610c3f57838160208110610c2257610c226117f1565b1a610c2f57809150610c3f565b610c3881611807565b9050610c07565b508152602081019190915290565b610c55610b29565b600f546040805180820190915260048152631395531360e21b602082015290610c915760405162461bcd60e51b81526004016103a59190611320565b50600f5442101560405180604001604052806002815260200161545360f01b81525090610cd15760405162461bcd60e51b81526004016103a59190611320565b50600e600d908054610ce29061158b565b610ced92919061106d565b50610cfa600e60006110f8565b6000600f55565b610d09610b29565b6000600d8054610d189061158b565b159050610d26576001610d29565b60005b60ff16905081600e9080519060200190610d44929190611132565b506000546040805163bba3293960e01b8152905183926001600160a01b03169163bba32939916004808301926020929190829003018186803b158015610d8957600080fd5b505afa158015610d9d573d6000803e3d6000fd5b505050506040513d601f19601f82011682018060405250810190610dc19190611507565b610dcb9190611822565b610dd59042611536565b600f555050565b600080546040516363e85d2d60e01b81523360048201526001602482015282916001600160a01b03169081906363e85d2d9060440160206040518083038186803b158015610e2957600080fd5b505afa158015610e3d573d6000803e3d6000fd5b505050506040513d601f19601f82011682018060405250810190610e6191906117cf565b6040518060400160405280600381526020016223292160e91b81525090610e9b5760405162461bcd60e51b81526004016103a59190611320565b5060015460408051631112eee760e31b815290516001600160a01b039092169182916388977738916004808301926020929190829003018186803b158015610ee257600080fd5b505afa158015610ef6573d6000803e3d6000fd5b505050506040513d601f19601f82011682018060405250810190610f1a9190611507565b610f25906001611536565b600254909350610f3e906001600160a01b031684610fcd565b6040516305c4fdf960e01b81526001600160a01b0380831660048301528781166024830152919550908216906305c4fdf990604401602060405180830381600087803b158015610f8d57600080fd5b505af1158015610fa1573d6000803e3d6000fd5b505050506040513d601f19601f82011682018060405250810190610fc59190611507565b505050915091565b6000604051733d602d80600a3d3981f3363d3d373d3d3d363d7360601b81528360601b60148201526e5af43d82803e903d91602b57fd5bf360881b6028820152826037826000f59150506001600160a01b0381166103505760405162461bcd60e51b815260206004820152601760248201527f455243313136373a2063726561746532206661696c656400000000000000000060448201526064016103a5565b8280546110799061158b565b90600052602060002090601f01602090048101928261109b57600085556110e8565b82601f106110ac57805485556110e8565b828001600101855582156110e857600052602060002091601f016020900482015b828111156110e85782548255916001019190600101906110cd565b506110f49291506111a6565b5090565b5080546111049061158b565b6000825580601f10611114575050565b601f016020900490600052602060002090810190610bde91906111a6565b82805461113e9061158b565b90600052602060002090601f01602090048101928261116057600085556110e8565b82601f1061117957805160ff19168380011785556110e8565b828001600101855582156110e8579182015b828111156110e857825182559160200191906001019061118b565b5b808211156110f457600081556001016111a7565b6000602082840312156111cd57600080fd5b81356001600160e01b0319811681146111e557600080fd5b9392505050565b634e487b7160e01b600052604160045260246000fd5b604051601f8201601f1916810167ffffffffffffffff8111828210171561122b5761122b6111ec565b604052919050565b6001600160a01b0381168114610bde57600080fd5b60006060828403121561125a57600080fd5b6040516060810181811067ffffffffffffffff8211171561127d5761127d6111ec565b604052823561128b81611233565b8152602083013561129b81611233565b602082015260408301356112ae81611233565b60408201529392505050565b6000602082840312156112cc57600080fd5b5035919050565b6000815180845260005b818110156112f9576020818501810151868301820152016112dd565b8181111561130b576000602083870101525b50601f01601f19169290920160200192915050565b6020815260006111e560208301846112d3565b60608101610350828480516001600160a01b03908116835260208083015182169084015260409182015116910152565b60006020828403121561137557600080fd5b50919050565b803561138681611233565b919050565b8035600281900b811461138657600080fd5b6000608082840312156113af57600080fd5b6040516080810181811067ffffffffffffffff821117156113d2576113d26111ec565b6040529050806113e18361138b565b81526113ef6020840161138b565b602082015260408301356040820152606083013560608201525092915050565b6000806000806000610100868803121561142857600080fd5b853567ffffffffffffffff8082111561144057600080fd5b818801915088601f83011261145457600080fd5b8135602082821115611468576114686111ec565b8160051b9250611479818401611202565b828152928401810192818101908c85111561149357600080fd5b948201945b848610156114bd57853593506114ad84611233565b8382529482019490820190611498565b99506114cc90508a820161137b565b9750505050506114de6040870161137b565b92506114ec6060870161137b565b91506114fb876080880161139d565b90509295509295909350565b60006020828403121561151957600080fd5b5051919050565b634e487b7160e01b600052601160045260246000fd5b6000821982111561154957611549611520565b500190565b6080810161157e828580516001600160a01b03908116835260208083015182169084015260409182015116910152565b8260608301529392505050565b600181811c9082168061159f57607f821691505b6020821081141561137557634e487b7160e01b600052602260045260246000fd5b6000602082840312156115d257600080fd5b6040516020810181811067ffffffffffffffff821117156115f5576115f56111ec565b604052825161160381611233565b81529392505050565b60006020828403121561161e57600080fd5b81356111e581611233565b60208101823561163881611233565b6001600160a01b0316909152919050565b60408101833561165881611233565b6001600160a01b03168252602090910191909152919050565b600081518084526020808501945080840160005b838110156116aa5781516001600160a01b031687529582019590820190600101611685565b509495945050505050565b60006101208883528060208401526116cf81840189611671565b6001600160a01b0388811660408601528781166060860152861660808501529150611726905060a0830184805160020b8252602081015160020b602083015260408101516040830152606081015160608301525050565b979650505050505050565b6001600160a01b0384811682528316602082015260c0810161177d6040830184805160020b8252602081015160020b602083015260408101516040830152606081015160608301525050565b949350505050565b60a08152600061179860a0830188611671565b82810360208401526117aa81886112d3565b6001600160a01b03968716604085015294909516606083015250608001529392505050565b6000602082840312156117e157600080fd5b815180151581146111e557600080fd5b634e487b7160e01b600052603260045260246000fd5b600060001982141561181b5761181b611520565b5060010190565b600081600019048311821515161561183c5761183c611520565b50029056fea2646970667358221220fa0054c7958ec5ecb684bbbcd03a7cbaf12e2b2a4d39706f1c2fbc64602025bc64736f6c63430008090033",
  "devdoc": {
    "events": {
      "CommitDelayedProtocolParams(address,address,(address))": {
        "params": {
          "origin": "Origin of the transaction (tx.origin)",
          "params": "New params that are committed",
          "sender": "Sender of the call (msg.sender)"
        }
      },
      "StageDelayedProtocolParams(address,address,(address),uint256)": {
        "params": {
          "origin": "Origin of the transaction (tx.origin)",
          "params": "New params that were staged for commit",
          "sender": "Sender of the call (msg.sender)",
          "when": "When the params could be committed"
        }
      }
    },
    "kind": "dev",
    "methods": {
      "constructor": {
        "params": {
          "delayedProtocolParams_": "Initial Protocol Params",
          "internalParams_": "Initial Internal Params"
        }
      },
      "createVault(address[],address,address,address,(int24,int24,uint256,uint256))": {
        "params": {
          "marginEngine_": "margin engine address that the vault is created on top of",
          "owner_": "Owner of the vault NFT",
          "vaultTokens_": "ERC20 tokens that will be managed by this Vault"
        }
      },
      "delayedProtocolPerVaultParamsTimestamp(uint256)": {
        "params": {
          "nft": "Nft of the vault"
        }
      },
      "delayedStrategyParamsTimestamp(uint256)": {
        "params": {
          "nft": "Nft of the vault"
        }
      },
      "stageDelayedProtocolParams((address))": {
        "params": {
          "params": "New params"
        }
      },
      "stageInternalParams((address,address,address))": {
        "params": {
          "newParams": "New Internal Params"
        }
      },
      "stagedInternalParams()": {
        "details": "The Internal Params could be committed after internalParamsTimestamp"
      },
      "supportsInterface(bytes4)": {
        "details": "Returns true if this contract implements the interface defined by `interfaceId`. See the corresponding https://eips.ethereum.org/EIPS/eip-165#how-interfaces-are-identified[EIP section] to learn more about how these ids are created. This function call must use less than 30 000 gas."
      }
    },
    "version": 1
  },
  "userdoc": {
    "events": {
      "CommitDelayedProtocolParams(address,address,(address))": {
        "notice": "Emitted when new DelayedProtocolParams are committed"
      },
      "CommitedInternalParams(address,address,(address,address,address))": {
        "notice": "Emitted when InternalParams are staged for commit"
      },
      "DeployedVault(address,address,address[],bytes,address,address,uint256)": {
        "notice": "Emitted when New Vault is deployed"
      },
      "StageDelayedProtocolParams(address,address,(address),uint256)": {
        "notice": "Emitted when new DelayedProtocolParams are staged for commit"
      },
      "StagedInternalParams(address,address,(address,address,address),uint256)": {
        "notice": "Emitted when InternalParams are staged for commit"
      }
    },
    "kind": "user",
    "methods": {
      "commitDelayedProtocolParams()": {
        "notice": "Commit Delayed Protocol Params, i.e. Params that could be changed by Protocol Governance with Protocol Governance delay."
      },
      "commitInternalParams()": {
        "notice": "Commit staged Internal Params."
      },
      "constructor": {
        "notice": "Creates a new contract."
      },
      "createVault(address[],address,address,address,(int24,int24,uint256,uint256))": {
        "notice": "Deploys a new vault."
      },
      "delayedProtocolParams()": {
        "notice": "Delayed Protocol Params, i.e. Params that could be changed by Protocol Governance with Protocol Governance delay."
      },
      "delayedProtocolParamsTimestamp()": {
        "notice": "Timestamp in unix time seconds after which staged Delayed Protocol Params could be committed."
      },
      "delayedProtocolPerVaultParamsTimestamp(uint256)": {
        "notice": "Timestamp in unix time seconds after which staged Delayed Protocol Params Per Vault could be committed."
      },
      "delayedStrategyParamsTimestamp(uint256)": {
        "notice": "Timestamp in unix time seconds after which staged Delayed Strategy Params could be committed."
      },
      "internalParams()": {
        "notice": "Internal Params of the contract."
      },
      "internalParamsTimestamp()": {
        "notice": "Timestamp in unix time seconds after which staged Internal Params could be committed."
      },
      "stageDelayedProtocolParams((address))": {
        "notice": "Stage Delayed Protocol Params, i.e. Params that could be changed by Protocol Governance with Protocol Governance delay."
      },
      "stageInternalParams((address,address,address))": {
        "notice": "Stage new Internal Params."
      },
      "stagedDelayedProtocolParams()": {
        "notice": "Delayed Protocol Params staged for commit after delay."
      },
      "stagedInternalParams()": {
        "notice": "Staged new Internal Params."
      }
    },
    "notice": "Governance that manages all Voltz Vaults params and can deploy a new Voltz Vault.",
    "version": 1
  },
  "storageLayout": {
    "storage": [
      {
        "astId": 41152,
        "contract": "contracts/vaults/VoltzVaultGovernance.sol:VoltzVaultGovernance",
        "label": "_internalParams",
        "offset": 0,
        "slot": "0",
        "type": "t_struct(InternalParams)18035_storage"
      },
      {
        "astId": 41155,
        "contract": "contracts/vaults/VoltzVaultGovernance.sol:VoltzVaultGovernance",
        "label": "_stagedInternalParams",
        "offset": 0,
        "slot": "3",
        "type": "t_struct(InternalParams)18035_storage"
      },
      {
        "astId": 41157,
        "contract": "contracts/vaults/VoltzVaultGovernance.sol:VoltzVaultGovernance",
        "label": "_internalParamsTimestamp",
        "offset": 0,
        "slot": "6",
        "type": "t_uint256"
      },
      {
        "astId": 41161,
        "contract": "contracts/vaults/VoltzVaultGovernance.sol:VoltzVaultGovernance",
        "label": "_delayedStrategyParams",
        "offset": 0,
        "slot": "7",
        "type": "t_mapping(t_uint256,t_bytes_storage)"
      },
      {
        "astId": 41165,
        "contract": "contracts/vaults/VoltzVaultGovernance.sol:VoltzVaultGovernance",
        "label": "_stagedDelayedStrategyParams",
        "offset": 0,
        "slot": "8",
        "type": "t_mapping(t_uint256,t_bytes_storage)"
      },
      {
        "astId": 41169,
        "contract": "contracts/vaults/VoltzVaultGovernance.sol:VoltzVaultGovernance",
        "label": "_delayedStrategyParamsTimestamp",
        "offset": 0,
        "slot": "9",
        "type": "t_mapping(t_uint256,t_uint256)"
      },
      {
        "astId": 41173,
        "contract": "contracts/vaults/VoltzVaultGovernance.sol:VoltzVaultGovernance",
        "label": "_delayedProtocolPerVaultParams",
        "offset": 0,
        "slot": "10",
        "type": "t_mapping(t_uint256,t_bytes_storage)"
      },
      {
        "astId": 41177,
        "contract": "contracts/vaults/VoltzVaultGovernance.sol:VoltzVaultGovernance",
        "label": "_stagedDelayedProtocolPerVaultParams",
        "offset": 0,
        "slot": "11",
        "type": "t_mapping(t_uint256,t_bytes_storage)"
      },
      {
        "astId": 41181,
        "contract": "contracts/vaults/VoltzVaultGovernance.sol:VoltzVaultGovernance",
        "label": "_delayedProtocolPerVaultParamsTimestamp",
        "offset": 0,
        "slot": "12",
        "type": "t_mapping(t_uint256,t_uint256)"
      },
      {
        "astId": 41183,
        "contract": "contracts/vaults/VoltzVaultGovernance.sol:VoltzVaultGovernance",
        "label": "_delayedProtocolParams",
        "offset": 0,
        "slot": "13",
        "type": "t_bytes_storage"
      },
      {
        "astId": 41185,
        "contract": "contracts/vaults/VoltzVaultGovernance.sol:VoltzVaultGovernance",
        "label": "_stagedDelayedProtocolParams",
        "offset": 0,
        "slot": "14",
        "type": "t_bytes_storage"
      },
      {
        "astId": 41187,
        "contract": "contracts/vaults/VoltzVaultGovernance.sol:VoltzVaultGovernance",
        "label": "_delayedProtocolParamsTimestamp",
        "offset": 0,
        "slot": "15",
        "type": "t_uint256"
      },
      {
        "astId": 41191,
        "contract": "contracts/vaults/VoltzVaultGovernance.sol:VoltzVaultGovernance",
        "label": "_strategyParams",
        "offset": 0,
        "slot": "16",
        "type": "t_mapping(t_uint256,t_bytes_storage)"
      },
      {
        "astId": 41193,
        "contract": "contracts/vaults/VoltzVaultGovernance.sol:VoltzVaultGovernance",
        "label": "_protocolParams",
        "offset": 0,
        "slot": "17",
        "type": "t_bytes_storage"
      },
      {
        "astId": 41195,
        "contract": "contracts/vaults/VoltzVaultGovernance.sol:VoltzVaultGovernance",
        "label": "_operatorParams",
        "offset": 0,
        "slot": "18",
        "type": "t_bytes_storage"
      }
    ],
    "types": {
      "t_bytes_storage": {
        "encoding": "bytes",
        "label": "bytes",
        "numberOfBytes": "32"
      },
      "t_contract(IProtocolGovernance)11058": {
        "encoding": "inplace",
        "label": "contract IProtocolGovernance",
        "numberOfBytes": "20"
      },
      "t_contract(IVault)18020": {
        "encoding": "inplace",
        "label": "contract IVault",
        "numberOfBytes": "20"
      },
      "t_contract(IVaultRegistry)11202": {
        "encoding": "inplace",
        "label": "contract IVaultRegistry",
        "numberOfBytes": "20"
      },
      "t_mapping(t_uint256,t_bytes_storage)": {
        "encoding": "mapping",
        "key": "t_uint256",
        "label": "mapping(uint256 => bytes)",
        "numberOfBytes": "32",
        "value": "t_bytes_storage"
      },
      "t_mapping(t_uint256,t_uint256)": {
        "encoding": "mapping",
        "key": "t_uint256",
        "label": "mapping(uint256 => uint256)",
        "numberOfBytes": "32",
        "value": "t_uint256"
      },
      "t_struct(InternalParams)18035_storage": {
        "encoding": "inplace",
        "label": "struct IVaultGovernance.InternalParams",
        "members": [
          {
            "astId": 18028,
            "contract": "contracts/vaults/VoltzVaultGovernance.sol:VoltzVaultGovernance",
            "label": "protocolGovernance",
            "offset": 0,
            "slot": "0",
            "type": "t_contract(IProtocolGovernance)11058"
          },
          {
            "astId": 18031,
            "contract": "contracts/vaults/VoltzVaultGovernance.sol:VoltzVaultGovernance",
            "label": "registry",
            "offset": 0,
            "slot": "1",
            "type": "t_contract(IVaultRegistry)11202"
          },
          {
            "astId": 18034,
            "contract": "contracts/vaults/VoltzVaultGovernance.sol:VoltzVaultGovernance",
            "label": "singleton",
            "offset": 0,
            "slot": "2",
            "type": "t_contract(IVault)18020"
          }
        ],
        "numberOfBytes": "96"
      },
      "t_uint256": {
        "encoding": "inplace",
        "label": "uint256",
        "numberOfBytes": "32"
      }
    }
  }
}