{
  "address": "0x8f9bEE6f5E81Ac740Dddf0CfFF6007563Fa0E089",
  "abi": [
    {
      "inputs": [
        {
          "internalType": "uint256",
          "name": "x",
          "type": "uint256"
        }
      ],
      "name": "PRBMathUD60x18__FromUintOverflow",
      "type": "error"
    },
    {
      "inputs": [
        {
          "internalType": "uint256",
          "name": "prod1",
          "type": "uint256"
        }
      ],
      "name": "PRBMath__MulDivFixedPointOverflow",
      "type": "error"
    },
    {
      "anonymous": false,
      "inputs": [
        {
          "indexed": true,
          "internalType": "address",
          "name": "origin",
          "type": "address"
        },
        {
          "indexed": true,
          "internalType": "address",
          "name": "sender",
          "type": "address"
        },
        {
          "indexed": false,
          "internalType": "address[]",
          "name": "vaultTokens_",
          "type": "address[]"
        },
        {
          "indexed": false,
          "internalType": "uint256",
          "name": "nft_",
          "type": "uint256"
        }
      ],
      "name": "Initialized",
      "type": "event"
    },
    {
      "anonymous": false,
      "inputs": [
        {
          "components": [
            {
              "internalType": "int24",
              "name": "tickLower",
              "type": "int24"
            },
            {
              "internalType": "int24",
              "name": "tickUpper",
              "type": "int24"
            }
          ],
          "indexed": false,
          "internalType": "struct IVoltzVault.TickRange",
          "name": "oldPosition",
          "type": "tuple"
        },
        {
          "indexed": false,
          "internalType": "int256",
          "name": "marginLeftInOldPosition",
          "type": "int256"
        },
        {
          "components": [
            {
              "internalType": "int24",
              "name": "tickLower",
              "type": "int24"
            },
            {
              "internalType": "int24",
              "name": "tickUpper",
              "type": "int24"
            }
          ],
          "indexed": false,
          "internalType": "struct IVoltzVault.TickRange",
          "name": "newPosition",
          "type": "tuple"
        },
        {
          "indexed": false,
          "internalType": "uint256",
          "name": "marginDepositedInNewPosition",
          "type": "uint256"
        },
        {
          "indexed": false,
          "internalType": "uint256",
          "name": "notionalLiquidityMintedInNewPosition",
          "type": "uint256"
        }
      ],
      "name": "PositionRebalance",
      "type": "event"
    },
    {
      "anonymous": false,
      "inputs": [
        {
          "indexed": false,
          "internalType": "int24",
          "name": "tickLower",
          "type": "int24"
        },
        {
          "indexed": false,
          "internalType": "int24",
          "name": "tickUpper",
          "type": "int24"
        },
        {
          "indexed": false,
          "internalType": "int256",
          "name": "margin",
          "type": "int256"
        }
      ],
      "name": "PositionSettledAndMarginWithdrawn",
      "type": "event"
    },
    {
      "anonymous": false,
      "inputs": [
        {
          "indexed": false,
          "internalType": "address",
          "name": "to",
          "type": "address"
        },
        {
          "indexed": false,
          "internalType": "uint256[]",
          "name": "tokenAmounts",
          "type": "uint256[]"
        }
      ],
      "name": "Pull",
      "type": "event"
    },
    {
      "anonymous": false,
      "inputs": [
        {
          "indexed": false,
          "internalType": "address",
          "name": "to",
          "type": "address"
        },
        {
          "indexed": false,
          "internalType": "uint256",
          "name": "amountRequestedToWithdraw",
          "type": "uint256"
        },
        {
          "indexed": false,
          "internalType": "uint256",
          "name": "amountWithdrawn",
          "type": "uint256"
        }
      ],
      "name": "PullWithdraw",
      "type": "event"
    },
    {
      "anonymous": false,
      "inputs": [
        {
          "indexed": false,
          "internalType": "uint256[]",
          "name": "tokenAmounts",
          "type": "uint256[]"
        }
      ],
      "name": "Push",
      "type": "event"
    },
    {
      "anonymous": false,
      "inputs": [
        {
          "indexed": false,
          "internalType": "uint256",
          "name": "amountDeposited",
          "type": "uint256"
        },
        {
          "indexed": false,
          "internalType": "uint256",
          "name": "notionalLiquidityMinted",
          "type": "uint256"
        }
      ],
      "name": "PushDeposit",
      "type": "event"
    },
    {
      "anonymous": false,
      "inputs": [
        {
          "indexed": false,
          "internalType": "address",
          "name": "to",
          "type": "address"
        },
        {
          "indexed": false,
          "internalType": "address[]",
          "name": "tokens",
          "type": "address[]"
        },
        {
          "indexed": false,
          "internalType": "uint256[]",
          "name": "tokenAmounts",
          "type": "uint256[]"
        }
      ],
      "name": "ReclaimTokens",
      "type": "event"
    },
    {
      "anonymous": false,
      "inputs": [
        {
          "indexed": false,
          "internalType": "int256",
          "name": "tvl",
          "type": "int256"
        }
      ],
      "name": "TvlUpdate",
      "type": "event"
    },
    {
      "anonymous": false,
      "inputs": [
        {
          "indexed": false,
          "internalType": "string",
          "name": "reason",
          "type": "string"
        }
      ],
      "name": "UnwindFail",
      "type": "event"
    },
    {
      "anonymous": false,
      "inputs": [
        {
          "indexed": true,
          "internalType": "address",
          "name": "marginEngine",
          "type": "address"
        },
        {
          "indexed": true,
          "internalType": "address",
          "name": "periphery",
          "type": "address"
        },
        {
          "indexed": true,
          "internalType": "address",
          "name": "voltzVaultHelper",
          "type": "address"
        },
        {
          "indexed": false,
          "internalType": "int24",
          "name": "tickLower",
          "type": "int24"
        },
        {
          "indexed": false,
          "internalType": "int24",
          "name": "tickUpper",
          "type": "int24"
        },
        {
          "indexed": false,
          "internalType": "uint256",
          "name": "leverageWad",
          "type": "uint256"
        },
        {
          "indexed": false,
          "internalType": "uint256",
          "name": "marginMultiplierPostUnwindWad",
          "type": "uint256"
        }
      ],
      "name": "VaultInitialized",
      "type": "event"
    },
    {
      "anonymous": false,
      "inputs": [
        {
          "indexed": false,
          "internalType": "uint256",
          "name": "batchSizeRequested",
          "type": "uint256"
        },
        {
          "indexed": false,
          "internalType": "uint256",
          "name": "fromIndex",
          "type": "uint256"
        },
        {
          "indexed": false,
          "internalType": "uint256",
          "name": "toIndex",
          "type": "uint256"
        }
      ],
      "name": "VaultSettle",
      "type": "event"
    },
    {
      "inputs": [],
      "name": "currentPosition",
      "outputs": [
        {
          "components": [
            {
              "internalType": "int24",
              "name": "tickLower",
              "type": "int24"
            },
            {
              "internalType": "int24",
              "name": "tickUpper",
              "type": "int24"
            }
          ],
          "internalType": "struct IVoltzVault.TickRange",
          "name": "",
          "type": "tuple"
        }
      ],
      "stateMutability": "view",
      "type": "function"
    },
    {
      "inputs": [
        {
          "internalType": "address",
          "name": "to",
          "type": "address"
        },
        {
          "internalType": "bytes4",
          "name": "selector",
          "type": "bytes4"
        },
        {
          "internalType": "bytes",
          "name": "data",
          "type": "bytes"
        }
      ],
      "name": "externalCall",
      "outputs": [
        {
          "internalType": "bytes",
          "name": "result",
          "type": "bytes"
        }
      ],
      "stateMutability": "payable",
      "type": "function"
    },
    {
      "inputs": [
        {
          "internalType": "uint256",
          "name": "nft_",
          "type": "uint256"
        },
        {
          "internalType": "address[]",
          "name": "vaultTokens_",
          "type": "address[]"
        },
        {
          "internalType": "address",
          "name": "marginEngine_",
          "type": "address"
        },
        {
          "internalType": "address",
          "name": "periphery_",
          "type": "address"
        },
        {
          "internalType": "address",
          "name": "voltzVaultHelper_",
          "type": "address"
        },
        {
          "components": [
            {
              "internalType": "int24",
              "name": "tickLower",
              "type": "int24"
            },
            {
              "internalType": "int24",
              "name": "tickUpper",
              "type": "int24"
            },
            {
              "internalType": "uint256",
              "name": "leverageWad",
              "type": "uint256"
            },
            {
              "internalType": "uint256",
              "name": "marginMultiplierPostUnwindWad",
              "type": "uint256"
            }
          ],
          "internalType": "struct IVoltzVault.InitializeParams",
          "name": "initializeParams",
          "type": "tuple"
        }
      ],
      "name": "initialize",
      "outputs": [],
      "stateMutability": "nonpayable",
      "type": "function"
    },
    {
      "inputs": [],
      "name": "initialized",
      "outputs": [
        {
          "internalType": "bool",
          "name": "",
          "type": "bool"
        }
      ],
      "stateMutability": "view",
      "type": "function"
    },
    {
      "inputs": [
        {
          "internalType": "bytes32",
          "name": "_hash",
          "type": "bytes32"
        },
        {
          "internalType": "bytes",
          "name": "_signature",
          "type": "bytes"
        }
      ],
      "name": "isValidSignature",
      "outputs": [
        {
          "internalType": "bytes4",
          "name": "magicValue",
          "type": "bytes4"
        }
      ],
      "stateMutability": "view",
      "type": "function"
    },
    {
      "inputs": [
        {
          "internalType": "address",
          "name": "token",
          "type": "address"
        }
      ],
      "name": "isVaultToken",
      "outputs": [
        {
          "internalType": "bool",
          "name": "",
          "type": "bool"
        }
      ],
      "stateMutability": "view",
      "type": "function"
    },
    {
      "inputs": [],
      "name": "leverageWad",
      "outputs": [
        {
          "internalType": "uint256",
          "name": "",
          "type": "uint256"
        }
      ],
      "stateMutability": "view",
      "type": "function"
    },
    {
      "inputs": [],
      "name": "marginEngine",
      "outputs": [
        {
          "internalType": "contract IMarginEngine",
          "name": "",
          "type": "address"
        }
      ],
      "stateMutability": "view",
      "type": "function"
    },
    {
      "inputs": [],
      "name": "marginMultiplierPostUnwindWad",
      "outputs": [
        {
          "internalType": "uint256",
          "name": "",
          "type": "uint256"
        }
      ],
      "stateMutability": "view",
      "type": "function"
    },
    {
      "inputs": [],
      "name": "nft",
      "outputs": [
        {
          "internalType": "uint256",
          "name": "",
          "type": "uint256"
        }
      ],
      "stateMutability": "view",
      "type": "function"
    },
    {
      "inputs": [],
      "name": "periphery",
      "outputs": [
        {
          "internalType": "contract IPeriphery",
          "name": "",
          "type": "address"
        }
      ],
      "stateMutability": "view",
      "type": "function"
    },
    {
      "inputs": [
        {
          "internalType": "address",
          "name": "to",
          "type": "address"
        },
        {
          "internalType": "address[]",
          "name": "tokens",
          "type": "address[]"
        },
        {
          "internalType": "uint256[]",
          "name": "tokenAmounts",
          "type": "uint256[]"
        },
        {
          "internalType": "bytes",
          "name": "options",
          "type": "bytes"
        }
      ],
      "name": "pull",
      "outputs": [
        {
          "internalType": "uint256[]",
          "name": "actualTokenAmounts",
          "type": "uint256[]"
        }
      ],
      "stateMutability": "nonpayable",
      "type": "function"
    },
    {
      "inputs": [],
      "name": "pullExistentials",
      "outputs": [
        {
          "internalType": "uint256[]",
          "name": "",
          "type": "uint256[]"
        }
      ],
      "stateMutability": "view",
      "type": "function"
    },
    {
      "inputs": [
        {
          "internalType": "address[]",
          "name": "tokens",
          "type": "address[]"
        },
        {
          "internalType": "uint256[]",
          "name": "tokenAmounts",
          "type": "uint256[]"
        },
        {
          "internalType": "bytes",
          "name": "options",
          "type": "bytes"
        }
      ],
      "name": "push",
      "outputs": [
        {
          "internalType": "uint256[]",
          "name": "actualTokenAmounts",
          "type": "uint256[]"
        }
      ],
      "stateMutability": "nonpayable",
      "type": "function"
    },
    {
      "inputs": [],
      "name": "rateOracle",
      "outputs": [
        {
          "internalType": "contract IRateOracle",
          "name": "",
          "type": "address"
        }
      ],
      "stateMutability": "view",
      "type": "function"
    },
    {
      "inputs": [
        {
          "components": [
            {
              "internalType": "int24",
              "name": "tickLower",
              "type": "int24"
            },
            {
              "internalType": "int24",
              "name": "tickUpper",
              "type": "int24"
            }
          ],
          "internalType": "struct IVoltzVault.TickRange",
          "name": "position",
          "type": "tuple"
        }
      ],
      "name": "rebalance",
      "outputs": [],
      "stateMutability": "nonpayable",
      "type": "function"
    },
    {
      "inputs": [
        {
          "internalType": "address[]",
          "name": "tokens",
          "type": "address[]"
        }
      ],
      "name": "reclaimTokens",
      "outputs": [
        {
          "internalType": "uint256[]",
          "name": "actualTokenAmounts",
          "type": "uint256[]"
        }
      ],
      "stateMutability": "nonpayable",
      "type": "function"
    },
    {
      "inputs": [
        {
          "internalType": "uint256",
          "name": "leverageWad_",
          "type": "uint256"
        }
      ],
      "name": "setLeverageWad",
      "outputs": [],
      "stateMutability": "nonpayable",
      "type": "function"
    },
    {
      "inputs": [
        {
          "internalType": "uint256",
          "name": "marginMultiplierPostUnwindWad_",
          "type": "uint256"
        }
      ],
      "name": "setMarginMultiplierPostUnwindWad",
      "outputs": [],
      "stateMutability": "nonpayable",
      "type": "function"
    },
    {
      "inputs": [
        {
          "internalType": "uint256",
          "name": "batchSize",
          "type": "uint256"
        }
      ],
      "name": "settleVault",
      "outputs": [
        {
          "internalType": "uint256",
          "name": "settledBatchSize",
          "type": "uint256"
        }
      ],
      "stateMutability": "nonpayable",
      "type": "function"
    },
    {
      "inputs": [
        {
          "components": [
            {
              "internalType": "int24",
              "name": "tickLower",
              "type": "int24"
            },
            {
              "internalType": "int24",
              "name": "tickUpper",
              "type": "int24"
            }
          ],
          "internalType": "struct IVoltzVault.TickRange",
          "name": "position",
          "type": "tuple"
        }
      ],
      "name": "settleVaultPositionAndWithdrawMargin",
      "outputs": [],
      "stateMutability": "nonpayable",
      "type": "function"
    },
    {
      "inputs": [
        {
          "internalType": "bytes4",
          "name": "interfaceId",
          "type": "bytes4"
        }
      ],
      "name": "supportsInterface",
      "outputs": [
        {
          "internalType": "bool",
          "name": "",
          "type": "bool"
        }
      ],
      "stateMutability": "view",
      "type": "function"
    },
    {
      "inputs": [
        {
          "internalType": "uint256",
          "name": "",
          "type": "uint256"
        }
      ],
      "name": "trackedPositions",
      "outputs": [
        {
          "internalType": "int24",
          "name": "tickLower",
          "type": "int24"
        },
        {
          "internalType": "int24",
          "name": "tickUpper",
          "type": "int24"
        }
      ],
      "stateMutability": "view",
      "type": "function"
    },
    {
      "inputs": [
        {
          "internalType": "address",
          "name": "from",
          "type": "address"
        },
        {
          "internalType": "address[]",
          "name": "tokens",
          "type": "address[]"
        },
        {
          "internalType": "uint256[]",
          "name": "tokenAmounts",
          "type": "uint256[]"
        },
        {
          "internalType": "bytes",
          "name": "options",
          "type": "bytes"
        }
      ],
      "name": "transferAndPush",
      "outputs": [
        {
          "internalType": "uint256[]",
          "name": "actualTokenAmounts",
          "type": "uint256[]"
        }
      ],
      "stateMutability": "nonpayable",
      "type": "function"
    },
    {
      "inputs": [],
      "name": "tvl",
      "outputs": [
        {
          "internalType": "uint256[]",
          "name": "minTokenAmounts",
          "type": "uint256[]"
        },
        {
          "internalType": "uint256[]",
          "name": "maxTokenAmounts",
          "type": "uint256[]"
        }
      ],
      "stateMutability": "view",
      "type": "function"
    },
    {
      "inputs": [],
      "name": "updateTvl",
      "outputs": [
        {
          "internalType": "uint256[]",
          "name": "minTokenAmounts",
          "type": "uint256[]"
        },
        {
          "internalType": "uint256[]",
          "name": "maxTokenAmounts",
          "type": "uint256[]"
        }
      ],
      "stateMutability": "nonpayable",
      "type": "function"
    },
    {
      "inputs": [],
      "name": "vamm",
      "outputs": [
        {
          "internalType": "contract IVAMM",
          "name": "",
          "type": "address"
        }
      ],
      "stateMutability": "view",
      "type": "function"
    },
    {
      "inputs": [],
      "name": "vaultGovernance",
      "outputs": [
        {
          "internalType": "contract IVaultGovernance",
          "name": "",
          "type": "address"
        }
      ],
      "stateMutability": "view",
      "type": "function"
    },
    {
      "inputs": [],
      "name": "vaultTokens",
      "outputs": [
        {
          "internalType": "address[]",
          "name": "",
          "type": "address[]"
        }
      ],
      "stateMutability": "view",
      "type": "function"
    },
    {
      "inputs": [],
      "name": "voltzVaultHelper",
      "outputs": [
        {
          "internalType": "address",
          "name": "",
          "type": "address"
        }
      ],
      "stateMutability": "view",
      "type": "function"
    }
  ],
  "transactionHash": "0xd035e754a46b8dc40725b563ec060405429a60ecd3c8973fd9dbe079dcf47028",
  "args": [],
  "solcInputHash": "1984535d51a55304aed3f058b4264cb9",
  "bytecode": "0x608060405234801561001057600080fd5b506001600055600019600455615eac806200002c6000396000f3fe6080604052600436106101cc5760003560e01c8063663c9351116100f7578063c51b6aad11610095578063e24dfeac11610064578063e24dfeac1461056a578063e5328e061461058a578063f2349d411461059f578063fe255a5e146105bf57600080fd5b8063c51b6aad146104f5578063d2c219b014610515578063d534d6361461052a578063e098372c1461054c57600080fd5b80636f362a9f116100d15780636f362a9f1461047b57806377aace1a1461049957806384fc9ab5146104b757806398f4b1b2146104d757600080fd5b8063663c93511461041457806369722233146104365780636afd4db31461045857600080fd5b80632062d7541161016f578063338c4ccb1161013e578063338c4ccb1461036d57806333d735d8146103a557806347ccca02146103df578063566ca6b4146103f457600080fd5b80632062d754146102f857806327a35e5a146103185780632df7408e146103385780632e2f4cc21461034d57600080fd5b806305e1c942116101ab57806305e1c94214610266578063158ef93e146102935780631626ba7e146102aa5780631ef6ed3b146102e357600080fd5b80624006e0146101d157806301ffc9a71461020857806303fdbe1d14610238575b600080fd5b3480156101dd57600080fd5b506007546001600160a01b03165b6040516001600160a01b0390911681526020015b60405180910390f35b34801561021457600080fd5b50610228610223366004614ed1565b6105dd565b60405190151581526020016101ff565b34801561024457600080fd5b50610258610253366004614eee565b610609565b6040519081526020016101ff565b34801561027257600080fd5b50610286610281366004615049565b610727565b6040516101ff91906150b8565b34801561029f57600080fd5b506004541515610228565b3480156102b657600080fd5b506102ca6102c536600461513e565b610bba565b6040516001600160e01b031990911681526020016101ff565b3480156102ef57600080fd5b50600c54610258565b34801561030457600080fd5b506102866103133660046151ea565b610f07565b34801561032457600080fd5b506102866103333660046151ea565b6113cf565b34801561034457600080fd5b50600d54610258565b61036061035b366004615284565b611556565b6040516101ff919061536d565b34801561037957600080fd5b50610228610388366004615380565b6001600160a01b0316600090815260036020526040902054151590565b3480156103b157600080fd5b506103c56103c0366004614eee565b61184b565b60408051600293840b81529190920b6020820152016101ff565b3480156103eb57600080fd5b50600454610258565b34801561040057600080fd5b5061028661040f36600461539d565b61187b565b34801561042057600080fd5b5061043461042f366004614eee565b611b67565b005b34801561044257600080fd5b5061044b611bbf565b6040516101ff919061545d565b34801561046457600080fd5b5061046d611c21565b6040516101ff929190615470565b34801561048757600080fd5b506006546001600160a01b03166101eb565b3480156104a557600080fd5b50600a546001600160a01b03166101eb565b3480156104c357600080fd5b506104346104d23660046154ad565b611da7565b3480156104e357600080fd5b506009546001600160a01b03166101eb565b34801561050157600080fd5b50610434610510366004614eee565b61205f565b34801561052157600080fd5b50610286612118565b34801561053657600080fd5b5061053f61216f565b6040516101ff919061550b565b34801561055857600080fd5b506008546001600160a01b03166101eb565b34801561057657600080fd5b5061043461058536600461552c565b6121cd565b34801561059657600080fd5b5061046d6126eb565b3480156105ab57600080fd5b506104346105ba3660046154ad565b6127a4565b3480156105cb57600080fd5b506001546001600160a01b03166101eb565b60006105e882612a2e565b8061060357506001600160e01b03198216636c13f63960e11b145b92915050565b6012546000908261062557600f5461062290829061561e565b92505b60006106318483615635565b600f549091508111156106435750600f545b818111610654575060009392505050565b815b818110156106bb576106a9600f82815481106106745761067461564d565b600091825260209182902060408051808201909152910154600281810b83526301000000909104900b918101919091526127a4565b806106b381615663565b915050610656565b506106c6828261561e565b925082601260008282546106da9190615635565b909155505060408051858152602081018490529081018290527f45e6b45d1b5fb9446ced73698ada8a59e044a8df7fc45055db1e3500aab1363e9060600160405180910390a15050919050565b6060600260005414156107555760405162461bcd60e51b815260040161074c9061567e565b60405180910390fd5b60026000556004805460408051808201909152918252631253925560e21b602083015290816107975760405162461bcd60e51b815260040161074c919061536d565b5060015460408051637ac46fbb60e01b815290516000926001600160a01b031691637ac46fbb916004808301926060929190829003018186803b1580156107dd57600080fd5b505afa1580156107f1573d6000803e3d6000fd5b505050506040513d601f19601f8201168201806040525081019061081591906156b5565b805160208201516040516331a9108f60e11b81526004810186905292935090916000906001600160a01b03831690636352211e9060240160206040518083038186803b15801561086457600080fd5b505afa158015610878573d6000803e3d6000fd5b505050506040513d601f19601f8201168201806040525081019061089c9190615726565b905060006108ab838784612a74565b604051639bd0911b60e01b8152600060048201526001600160a01b039190911690639bd0911b9060240160206040518083038186803b1580156108ed57600080fd5b505afa158015610901573d6000803e3d6000fd5b505050506040513d601f19601f820116820180604052508101906109259190615726565b905087516001600160401b0381111561094057610940614f07565b604051908082528060200260200182016040528015610969578160200160208202803683370190505b5096506001600160a01b03811630141561098857505050505050610bb0565b60005b8851811015610b6d576109b18982815181106109a9576109a961564d565b506000919050565b80610a635750846001600160a01b03166363e85d2d8a83815181106109d8576109d861564d565b60209081029190910101516040516001600160e01b031960e084901b1681526001600160a01b0390911660048201526002602482015260440160206040518083038186803b158015610a2957600080fd5b505afa158015610a3d573d6000803e3d6000fd5b505050506040513d601f19601f82011682018060405250810190610a619190615758565b155b15610a6d57610b5d565b6000898281518110610a8157610a8161564d565b60209081029190910101516040516370a0823160e01b81523060048201529091506001600160a01b038216906370a082319060240160206040518083038186803b158015610ace57600080fd5b505afa158015610ae2573d6000803e3d6000fd5b505050506040513d601f19601f82011682018060405250810190610b069190615773565b898381518110610b1857610b1861564d565b602002602001018181525050610b5b838a8481518110610b3a57610b3a61564d565b6020026020010151836001600160a01b0316612b4a9092919063ffffffff16565b505b610b6681615663565b905061098b565b507f9efcb26e0cf572bd9171640e114f387cef91cd3e38532ed6b3f80c7f2e758f87818989604051610ba19392919061578c565b60405180910390a15050505050505b6001600055919050565b600080600160009054906101000a90046001600160a01b03166001600160a01b0316637ac46fbb6040518163ffffffff1660e01b815260040160606040518083038186803b158015610c0b57600080fd5b505afa158015610c1f573d6000803e3d6000fd5b505050506040513d601f19601f82011682018060405250810190610c4391906156b5565b60208101518151600454929350909180610c6c57506001600160e01b0319935061060392505050565b60405163020604bf60e21b8152600481018290526000906001600160a01b0385169063081812fc9060240160206040518083038186803b158015610caf57600080fd5b505afa158015610cc3573d6000803e3d6000fd5b505050506040513d601f19601f82011682018060405250810190610ce79190615726565b6040516363e85d2d60e01b81526001600160a01b03808316600483015260066024830152919250908416906363e85d2d9060440160206040518083038186803b158015610d3357600080fd5b505afa158015610d47573d6000803e3d6000fd5b505050506040513d601f19601f82011682018060405250810190610d6b9190615758565b610d8557506001600160e01b031994506106039350505050565b803b63ffffffff811615610eb8576040516301ffc9a760e01b8152630b135d3f60e11b60048201526001600160a01b038316906301ffc9a79060240160206040518083038186803b158015610dd957600080fd5b505afa158015610ded573d6000803e3d6000fd5b505050506040513d601f19601f82011682018060405250810190610e119190615758565b15610ea157604051630b135d3f60e11b81526001600160a01b03831690631626ba7e90610e44908c908c906004016157cc565b60206040518083038186803b158015610e5c57600080fd5b505afa158015610e70573d6000803e3d6000fd5b505050506040513d601f19601f82011682018060405250810190610e9491906157e5565b9650505050505050610603565b506001600160e01b03199550610603945050505050565b816001600160a01b0316610ecc8a8a612bb2565b6001600160a01b03161415610ef15750630b135d3f60e11b9550610603945050505050565b506001600160e01b031998975050505050505050565b606060026000541415610f2c5760405162461bcd60e51b815260040161074c9061567e565b60026000556004805460408051808201909152918252631253925560e21b60208301529081610f6e5760405162461bcd60e51b815260040161074c919061536d565b50610f7833612c31565b6040518060400160405280600381526020016223292160e91b81525090610fb25760405162461bcd60e51b815260040161074c919061536d565b5060015460408051637ac46fbb60e01b815290516000926001600160a01b031691637ac46fbb916004808301926060929190829003018186803b158015610ff857600080fd5b505afa15801561100c573d6000803e3d6000fd5b505050506040513d601f19601f8201168201806040525081019061103091906156b5565b602001516040516331a9108f60e11b8152600481018490529091506000906001600160a01b03831690636352211e9060240160206040518083038186803b15801561107a57600080fd5b505afa15801561108e573d6000803e3d6000fd5b505050506040513d601f19601f820116820180604052508101906110b29190615726565b905060006110c1838584612a74565b90506001600160a01b03821633146112fe57604051639bd0911b60e01b8152600060048201819052906001600160a01b03831690639bd0911b9060240160206040518083038186803b15801561111657600080fd5b505afa15801561112a573d6000803e3d6000fd5b505050506040513d601f19601f8201168201806040525081019061114e9190615726565b90506001600160a01b0381163014156112a95760405163fcdabd2760e01b81526001600160a01b038b8116600483015280841691639d9fd0d99187169063fcdabd279060240160206040518083038186803b1580156111ac57600080fd5b505afa1580156111c0573d6000803e3d6000fd5b505050506040513d601f19601f820116820180604052508101906111e49190615773565b6040518263ffffffff1660e01b815260040161120291815260200190565b60206040518083038186803b15801561121a57600080fd5b505afa15801561122e573d6000803e3d6000fd5b505050506040513d601f19601f820116820180604052508101906112529190615758565b801561126757506001600160a01b038a163014155b6040518060400160405280600581526020016424a72b2a2960d91b815250906112a35760405162461bcd60e51b815260040161074c919061536d565b506112fc565b896001600160a01b0316816001600160a01b0316146040518060400160405280600581526020016424a72b2a2960d91b815250906112fa5760405162461bcd60e51b815260040161074c919061536d565b505b505b600061130a8989612df0565b905060006113198b838a612edc565b90506113808a600280548060200260200160405190810160405280929190818152602001828054801561137557602002820191906000526020600020905b81546001600160a01b03168152600190910190602001808311611357575b505050505083613101565b96507f54f9e6ef58e36de62f59f9ee6c4b878af84989c53a3642eba415ac3ac4e11cda8b886040516113b3929190615802565b60405180910390a1505060016000555092979650505050505050565b825160609060005b81811015611462578481815181106113f1576113f161564d565b60200260200101516000146114525761145287308784815181106114175761141761564d565b60200260200101518985815181106114315761143161564d565b60200260200101516001600160a01b0316613322909392919063ffffffff16565b61145b81615663565b90506113d7565b5061146e85858561187b565b915060005b855181101561154c5760008582815181106114905761149061564d565b60200260200101518483815181106114aa576114aa61564d565b6020026020010151106114be5760006114fc565b8382815181106114d0576114d061564d565b60200260200101518683815181106114ea576114ea61564d565b60200260200101516114fc919061561e565b9050801561153b5761153b888289858151811061151b5761151b61564d565b60200260200101516001600160a01b0316612b4a9092919063ffffffff16565b5061154581615663565b9050611473565b5050949350505050565b60606002600054141561157b5760405162461bcd60e51b815260040161074c9061567e565b60026000556004805460408051808201909152918252631253925560e21b60208301526115bb5760405162461bcd60e51b815260040161074c919061536d565b506115c533612c31565b6040518060400160405280600381526020016223292160e91b815250906115ff5760405162461bcd60e51b815260040161074c919061536d565b5060015460408051637ac46fbb60e01b815290516000926001600160a01b031691637ac46fbb916004808301926060929190829003018186803b15801561164557600080fd5b505afa158015611659573d6000803e3d6000fd5b505050506040513d601f19601f8201168201806040525081019061167d91906156b5565b51604051631f4a58fb60e31b81526001600160a01b03888116600483015291925060009183169063fa52c7d89060240160206040518083038186803b1580156116c557600080fd5b505afa1580156116d9573d6000803e3d6000fd5b505050506040513d601f19601f820116820180604052508101906116fd9190615726565b60408051808201909152600381526223292160e91b60208201529091506001600160a01b0382166117415760405162461bcd60e51b815260040161074c919061536d565b50604051631796170d60e21b81526001600160a01b03821690635e585c34906117789033908b9034908c908c908c90600401615826565b60006040518083038186803b15801561179057600080fd5b505afa1580156117a4573d6000803e3d6000fd5b50505050600080886001600160a01b0316348989896040516020016117cb9392919061588b565b60408051601f19818403018152908290526117e5916158af565b60006040518083038185875af1925050503d8060008114611822576040519150601f19603f3d011682016040523d82523d6000602084013e611827565b606091505b50915091508161183a5780518082602001fd5b600160005598975050505050505050565b600f818154811061185b57600080fd5b600091825260209091200154600281810b92506301000000909104900b82565b6060600260005414156118a05760405162461bcd60e51b815260040161074c9061567e565b60026000556004805460408051808201909152918252631253925560e21b602083015290816118e25760405162461bcd60e51b815260040161074c919061536d565b5060015460408051637ac46fbb60e01b815290516000926001600160a01b031691637ac46fbb916004808301926060929190829003018186803b15801561192857600080fd5b505afa15801561193c573d6000803e3d6000fd5b505050506040513d601f19601f8201168201806040525081019061196091906156b5565b602001516040516331a9108f60e11b8152600481018490529091506000906001600160a01b03831690636352211e9060240160206040518083038186803b1580156119aa57600080fd5b505afa1580156119be573d6000803e3d6000fd5b505050506040513d601f19601f820116820180604052508101906119e29190615726565b60405163fcdabd2760e01b81526001600160a01b03808316600483015291925060009184169063fcdabd279060240160206040518083038186803b158015611a2957600080fd5b505afa158015611a3d573d6000803e3d6000fd5b505050506040513d601f19601f82011682018060405250810190611a619190615773565b604080518082019091526002815261272360f11b602082015290915081611a9b5760405162461bcd60e51b815260040161074c919061536d565b506000611aa88989612df0565b90506000611ab68289613360565b9050611b1b8a6002805480602002602001604051908101604052809291908181526020018280548015611375576020028201919060005260206000209081546001600160a01b0316815260019091019060200180831161135757505050505083613101565b96507f08e404e978692dd1b8275016b7a7b0b3ae4afd06b0cec7228060bb2da18c84fd81604051611b4c91906150b8565b60405180910390a15050600160005550929695505050505050565b611b70336134d7565b80611b7f5750611b7f3361364d565b6040518060400160405280600381526020016223292160e91b81525090611bb95760405162461bcd60e51b815260040161074c919061536d565b50600c55565b60606002805480602002602001604051908101604052809291908181526020018280548015611c1757602002820191906000526020600020905b81546001600160a01b03168152600190910190602001808311611bf9575b5050505050905090565b6006546013546014546015546040516325bfe4ef60e21b815260048101939093526024830191909152604482015260609182916000916001600160a01b0316906396ff93bc90606401602060405180830381600087803b158015611c8457600080fd5b505af1158015611c98573d6000803e3d6000fd5b505050506040513d601f19601f82011682018060405250810190611cbc9190615773565b600e8190556040805160018082528183019092529192506020808301908036833750506040805160018082528183019092529295509050602080830190803683370190505091506000811315611d6f57611d158161376d565b83600081518110611d2857611d2861564d565b60200260200101818152505082600081518110611d4757611d4761564d565b602002602001015182600081518110611d6257611d6261564d565b6020026020010181815250505b6040518181527f519112f8f74de3f4e36a8f3c6c0f20a88fce9e0070e923a2630da20e1b8e8aec9060200160405180910390a1509091565b611db0336134d7565b80611dbf5750611dbf3361364d565b6040518060400160405280600381526020016223292160e91b81525090611df95760405162461bcd60e51b815260040161074c919061536d565b50600b54611e056137b3565b11156040518060400160405280600381526020016223292160e91b81525090611e415760405162461bcd60e51b815260040161074c919061536d565b506000600f60105481548110611e5957611e5961564d565b600091825260208083206040805180820182529390910154600281810b85526301000000909104900b918301919091526006549051635b8751d360e11b81529193506001600160a01b03169063b70ea3a690611eb990859060040161550b565b61014060405180830381600087803b158015611ed457600080fd5b505af1158015611ee8573d6000803e3d6000fd5b505050506040513d601f19601f82011682018060405250810190611f0c91906158e2565b9050611f1e82826020015160006137c3565b6000611f2a838361389c565b9050611f3584613c5a565b60006002600081548110611f4b57611f4b61564d565b6000918252602090912001546040516370a0823160e01b81523060048201526001600160a01b03909116906370a082319060240160206040518083038186803b158015611f9757600080fd5b505afa158015611fab573d6000803e3d6000fd5b505050506040513d601f19601f82011682018060405250810190611fcf9190615773565b9050611fe385611fde83613f04565b613f49565b6000611ffa600c548361406990919063ffffffff16565b905061200e8661200983613f04565b614075565b612016611c21565b50507ff7ef46b5ccc7e74163be3a114a7056f4f97bb7024e38812002b2dff9eecd5eea858488858560405161204f959493929190615977565b60405180910390a1505050505050565b612068336134d7565b8061207757506120773361364d565b6040518060400160405280600381526020016223292160e91b815250906120b15760405162461bcd60e51b815260040161074c919061536d565b50600d81905560065460405163c51b6aad60e01b8152600481018390526001600160a01b039091169063c51b6aad90602401600060405180830381600087803b1580156120fd57600080fd5b505af1158015612111573d6000803e3d6000fd5b5050505050565b60606005805480602002602001604051908101604052809291908181526020018280548015611c1757602002820191906000526020600020905b815481526020019060010190808311612152575050505050905090565b6040805180820190915260008082526020820152600f601054815481106121985761219861564d565b600091825260209182902060408051808201909152910154600281810b83526301000000909104900b91810191909152919050565b84516001146040518060400160405280600381526020016224a72b60e91b8152509061220c5760405162461bcd60e51b815260040161074c919061536d565b50600780546001600160a01b0319166001600160a01b03861690811790915560408051632495a59960e01b8152905186926000929091632495a59991600480820192602092909190829003018186803b15801561226857600080fd5b505afa15801561227c573d6000803e3d6000fd5b505050506040513d601f19601f820116820180604052508101906122a09190615726565b9050806001600160a01b0316876000815181106122bf576122bf61564d565b60200260200101516001600160a01b0316146040518060400160405280600381526020016224a72b60e91b8152509061230b5760405162461bcd60e51b815260040161074c919061536d565b50612316878961410d565b600085905080600a60006101000a8154816001600160a01b0302191690836001600160a01b031602179055506000836001600160a01b031663e098372c6040518163ffffffff1660e01b815260040160206040518083038186803b15801561237d57600080fd5b505afa158015612391573d6000803e3d6000fd5b505050506040513d601f19601f820116820180604052508101906123b59190615726565b905080600860006101000a8154816001600160a01b0302191690836001600160a01b03160217905550836001600160a01b03166398f4b1b26040518163ffffffff1660e01b815260040160206040518083038186803b15801561241757600080fd5b505afa15801561242b573d6000803e3d6000fd5b505050506040513d601f19601f8201168201806040525081019061244f9190615726565b600960006101000a8154816001600160a01b0302191690836001600160a01b03160217905550806001600160a01b031663d0c93a7c6040518163ffffffff1660e01b815260040160206040518083038186803b1580156124ae57600080fd5b505afa1580156124c2573d6000803e3d6000fd5b505050506040513d601f19601f820116820180604052508101906124e691906159ca565b600a60146101000a81548162ffffff021916908360020b62ffffff160217905550836001600160a01b03166393edb4546040518163ffffffff1660e01b815260040160206040518083038186803b15801561254057600080fd5b505afa158015612554573d6000803e3d6000fd5b505050506040513d601f19601f820116820180604052508101906125789190615773565b600b8190556125856137b3565b11156040518060400160405280600381526020016223292160e91b815250906125c15760405162461bcd60e51b815260040161074c919061536d565b50604080860151600c556060860151600d5580518082019091528551600290810b825260208088015190910b908201526125fa90613c5a565b6000869050806001600160a01b0316638129fc1c6040518163ffffffff1660e01b8152600401600060405180830381600087803b15801561263a57600080fd5b505af115801561264e573d6000803e3d6000fd5b5050600680546001600160a01b0319166001600160a01b038581169190911790915588516020808b01516040808d01516060808f01518351600297880b81529490960b9484019490945290820152908101919091528a821693508b82169250908c16907f654e8c5a72cb91b65ca16d5b2125fa8c09623f7a2ede128b31454e0af96ed36d9060800160405180910390a45050505050505050505050565b6040805160018082528183019092526060918291906020808301908036833750506040805160018082528183019092529294509050602080830190803683375050600e5491925050600081131561279f576127458161376d565b836000815181106127585761275861564d565b602002602001018181525050826000815181106127775761277761564d565b6020026020010151826000815181106127925761279261564d565b6020026020010181815250505b509091565b600654600754604051635b8751d360e11b81526001600160a01b039283169290911690600090839063b70ea3a6906127e090879060040161550b565b61014060405180830381600087803b1580156127fb57600080fd5b505af115801561280f573d6000803e3d6000fd5b505050506040513d601f19601f8201168201806040525081019061283391906158e2565b805190915061292f578351602085015160405163a725b96560e01b8152306004820152600292830b6024820152910b60448201526001600160a01b0383169063a725b96590606401600060405180830381600087803b15801561289557600080fd5b505af11580156128a9573d6000803e3d6000fd5b5050604051635b8751d360e11b81526001600160a01b038616925063b70ea3a691506128d990879060040161550b565b61014060405180830381600087803b1580156128f457600080fd5b505af1158015612908573d6000803e3d6000fd5b505050506040513d601f19601f8201168201806040525081019061292c91906158e2565b90505b6000816040015113156129d457816001600160a01b0316637717797f30866000015187602001518560400151612964906159e7565b6040516001600160e01b031960e087901b1681526001600160a01b039094166004850152600292830b6024850152910b60448301526064820152608401600060405180830381600087803b1580156129bb57600080fd5b505af11580156129cf573d6000803e3d6000fd5b505050505b83516020808601516040848101518151600295860b81529290940b9282019290925280820192909252517faf05772fd0c2329d99340ea9746586e7c7b7d8f3f49dfb587f2eaac391289c039181900360600190a150505050565b6000612a3982614598565b80612a5457506001600160e01b03198216633d31d51d60e11b145b8061060357506001600160e01b03198216630b135d3f60e11b1492915050565b60405163fcdabd2760e01b81526001600160a01b038281166004830152600091829186169063fcdabd279060240160206040518083038186803b158015612aba57600080fd5b505afa158015612ace573d6000803e3d6000fd5b505050506040513d601f19601f82011682018060405250810190612af29190615773565b90508315801590612b0257508015155b604051806040016040528060048152602001631253925560e21b81525090612b3d5760405162461bcd60e51b815260040161074c919061536d565b50829150505b9392505050565b6040516001600160a01b038316602482015260448101829052612bad90849063a9059cbb60e01b906064015b60408051601f198184030181529190526020810180516001600160e01b03166001600160e01b0319909316929092179091526145ce565b505050565b600080600080612bc1856146a0565b6040805160008152602081018083528b905260ff8316918101919091526060810184905260808101839052929550909350915060019060a0016020604051602081039080840390855afa158015612c1c573d6000803e3d6000fd5b5050604051601f190151979650505050505050565b600080600160009054906101000a90046001600160a01b03166001600160a01b0316637ac46fbb6040518163ffffffff1660e01b815260040160606040518083038186803b158015612c8257600080fd5b505afa158015612c96573d6000803e3d6000fd5b505050506040513d601f19601f82011682018060405250810190612cba91906156b5565b6020015160045490915080612cd3575060009392505050565b60405163020604bf60e21b8152600481018290526001600160a01b03808616919084169063081812fc9060240160206040518083038186803b158015612d1857600080fd5b505afa158015612d2c573d6000803e3d6000fd5b505050506040513d601f19601f82011682018060405250810190612d509190615726565b6001600160a01b03161480612de857506040516331a9108f60e11b8152600481018290526001600160a01b038086169190841690636352211e9060240160206040518083038186803b158015612da557600080fd5b505afa158015612db9573d6000803e3d6000fd5b505050506040513d601f19601f82011682018060405250810190612ddd9190615726565b6001600160a01b0316145b949350505050565b6060612dfb83614704565b60405180604001604052806004815260200163494e564160e01b81525090612e365760405162461bcd60e51b815260040161074c919061536d565b5081518351146040518060400160405280600381526020016224a72b60e91b81525090612e765760405162461bcd60e51b815260040161074c919061536d565b50612b436002805480602002602001604051908101604052809291908181526020018280548015612ed057602002820191906000526020600020905b81546001600160a01b03168152600190910190602001808311612eb2575b50505050508484613101565b6060600b54612ee96137b3565b116040518060400160405280600381526020016223292160e91b81525090612f245760405162461bcd60e51b815260040161074c919061536d565b50604080516001808252818301909252906020808301908036833701905050905060006002600081548110612f5b57612f5b61564d565b6000918252602090912001546040516370a0823160e01b81523060048201526001600160a01b03909116906370a082319060240160206040518083038186803b158015612fa757600080fd5b505afa158015612fbb573d6000803e3d6000fd5b505050506040513d601f19601f82011682018060405250810190612fdf9190615773565b9050600084600081518110612ff657612ff661564d565b602002602001015190508082101561300b5750805b80613017575050612b43565b61304c868260026000815481106130305761303061564d565b6000918252602090912001546001600160a01b03169190612b4a565b80836000815181106130605761306061564d565b602002602001018181525050613074611c21565b50507f42079b106e835025d3691011bc85c06b9b3257f5a5ca62bd23412a592d3d658a86866000815181106130ab576130ab61564d565b6020026020010151856000815181106130c6576130c661564d565b602090810291909101810151604080516001600160a01b0390951685529184019290925282015260600160405180910390a150509392505050565b6060600084516001600160401b0381111561311e5761311e614f07565b604051908082528060200260200182016040528015613147578160200160208202803683370190505b5090506000805b86518210801561315e5750855181105b156132dd578581815181106131755761317561564d565b60200260200101516001600160a01b03168783815181106131985761319861564d565b60200260200101516001600160a01b031610156131e05760008383815181106131c3576131c361564d565b6020908102919091010152816131d881615663565b92505061314e565b8581815181106131f2576131f261564d565b60200260200101516001600160a01b03168783815181106132155761321561564d565b60200260200101516001600160a01b0316111561328e5784818151811061323e5761323e61564d565b602002602001015160001415613260578061325881615663565b91505061314e565b60405162461bcd60e51b815260206004820152600360248201526254505360e81b604482015260640161074c565b8481815181106132a0576132a061564d565b60200260200101518383815181106132ba576132ba61564d565b6020908102919091010152816132cf81615663565b925050808061325890615663565b86518210156133175760008383815181106132fa576132fa61564d565b60209081029190910101528161330f81615663565b9250506132dd565b509095945050505050565b6040516001600160a01b038085166024830152831660448201526064810182905261335a9085906323b872dd60e01b90608401612b76565b50505050565b60408051600180825281830190925260609160208083019080368337019050509050826000815181106133955761339561564d565b6020026020010151816000815181106133b0576133b061564d565b6020026020010181815250506000600f601054815481106133d3576133d361564d565b6000918252602080832060408051808201909152920154600281810b84526301000000909104900b908201528551909250613429918391611fde91889161341c5761341c61564d565b6020026020010151613f04565b600061345a600c54866000815181106134445761344461564d565b602002602001015161406990919063ffffffff16565b90506134698261200983613f04565b613471611c21565b50507fcf85c03c0002cbccc55ac6c8571579bdfe79051bc71e1597487274ee50642d91856000815181106134a7576134a761564d565b6020026020010151826040516134c7929190918252602082015260400190565b60405180910390a1505092915050565b60015460408051637ac46fbb60e01b815290516000926001600160a01b031691637ac46fbb916004808301926060929190829003018186803b15801561351c57600080fd5b505afa158015613530573d6000803e3d6000fd5b505050506040513d601f19601f8201168201806040525081019061355491906156b5565b602001516004805460405163020604bf60e21b8152918201526001600160a01b039091169063081812fc9060240160206040518083038186803b15801561359a57600080fd5b505afa1580156135ae573d6000803e3d6000fd5b505050506040513d601f19601f820116820180604052508101906135d29190615726565b604051630935e01b60e21b81526001600160a01b03848116600483015291909116906324d7806c9060240160206040518083038186803b15801561361557600080fd5b505afa158015613629573d6000803e3d6000fd5b505050506040513d601f19601f820116820180604052508101906106039190615758565b6000816001600160a01b0316600160009054906101000a90046001600160a01b03166001600160a01b0316637ac46fbb6040518163ffffffff1660e01b815260040160606040518083038186803b1580156136a757600080fd5b505afa1580156136bb573d6000803e3d6000fd5b505050506040513d601f19601f820116820180604052508101906136df91906156b5565b602001516004805460405163020604bf60e21b8152918201526001600160a01b039091169063081812fc9060240160206040518083038186803b15801561372557600080fd5b505afa158015613739573d6000803e3d6000fd5b505050506040513d601f19601f8201168201806040525081019061375d9190615726565b6001600160a01b03161492915050565b6000808212156137af5760405162461bcd60e51b815260206004820152600d60248201526c0746f55696e74323536203c203609c1b604482015260640161074c565b5090565b60006137be426147a7565b905090565b6001600160801b03821615612bad5780156138635760085483516020850151604051635c6651a760e11b81526001600160a01b039093169263b8cca34e926138119230928890600401615a04565b602060405180830381600087803b15801561382b57600080fd5b505af115801561383f573d6000803e3d6000fd5b505050506040513d601f19601f8201168201806040525081019061335a9190615773565b60085483516020850151604051631f2f089360e01b81526001600160a01b0390931692631f2f0893926138119230928890600401615a04565b60008160c00151600014613af55760c0820180516040805160a08101825230815292516020840152600091821392908101836138ef576138ea60016c1fa71f3f5f68a90479ee3f8fec615a37565b613906565b6139066b0816769404766de590afe04e6001615a5f565b6001600160a01b0390811682528751600290810b602080850191909152808a0151820b60409485015260085484516333bac73760e11b815286518516600482015291860151602483015293850151831660448201526060850151820b6064820152608085015190910b608482015292935016906367758e6e9060a40160a060405180830381600087803b15801561399c57600080fd5b505af19250505080156139cc575060408051601f3d908101601f191682019092526139c991810190615a8a565b60015b613aa3576139d8615aca565b806308c379a01415613a3557506139ed615ae6565b806139f85750613a37565b7fa6b15a285668e16b870c9a901390dfc539aa8ee5cde8cfd535bf208a3b5ff71881604051613a27919061536d565b60405180910390a150613af2565b505b7fa6b15a285668e16b870c9a901390dfc539aa8ee5cde8cfd535bf208a3b5ff718604051613a96906020808252601c908201527f556e77696e64206661696c656420776974686f757420726561736f6e00000000604082015260600190565b60405180910390a1613af2565b848960a001818151613ab59190615b64565b90525060c089018051859190613acc908390615b64565b905250613ad883613f04565b89604001818151613ae99190615ba5565b90525050505050505b50505b60065460405163e895a39360e01b815260009182916001600160a01b039091169063e895a39390613b2a908790600401615be4565b6040805180830381600087803b158015613b4357600080fd5b505af1158015613b57573d6000803e3d6000fd5b505050506040513d601f19601f82011682018060405250810190613b7b9190615c64565b6040860151919350915060001215613be557613b9a846040015161376d565b811115613bb157613bae846040015161376d565b90505b613bd685613bbe83613f04565b8660400151613bcd9190615ba5565b611fde906159e7565b613bdf81613f04565b60408501525b81613bfa57613bf56010546147f4565b613c4e565b8360a0015160136000828254613c109190615b64565b909155505060c084015160148054600090613c2c908490615b64565b9091555050604084015160158054600090613c48908490615b64565b90915550505b50505060400151919050565b613c6c816000015182602001516149d4565b600a548151600160a01b90910460020b90613c88908290615ca6565b60408051808201909152600381526224a72b60e91b60208201529060020b15613cc45760405162461bcd60e51b815260040161074c919061536d565b50808260200151613cd59190615ca6565b60408051808201909152600381526224a72b60e91b60208201529060020b15613d115760405162461bcd60e51b815260040161074c919061536d565b50600082604051602001613d25919061550b565b6040516020818303038152906040529050601181604051613d4691906158af565b90815260200160405180910390205460001415613df757600f805460018181018355600083905285517f8d1108e10bcb7c27dddfc02ed9d693a074039d026cf4ea4240b40f7d581ac8029092018054602088015162ffffff90811663010000000265ffffffffffff19909216941693909317929092179091559054613dcb919061561e565b601055600f54604051601190613de29084906158af565b90815260405190819003602001902055505050565b6001601182604051613e0991906158af565b908152602001604051809103902054613e22919061561e565b601055600654604051635b8751d360e11b81526000916001600160a01b03169063b70ea3a690613e5690879060040161550b565b61014060405180830381600087803b158015613e7157600080fd5b505af1158015613e85573d6000803e3d6000fd5b505050506040513d601f19601f82011682018060405250810190613ea991906158e2565b90508060a0015160136000828254613ec19190615ba5565b909155505060c081015160148054600090613edd908490615ba5565b9091555050604081015160158054600090613ef9908490615ba5565b909155505050505050565b6000600160ff1b82106137af5760405162461bcd60e51b815260206004820152600d60248201526c746f496e74323536206f666c6f60981b604482015260640161074c565b600a546001600160a01b031681613f5f57505050565b6000821315613fa557613fa581613f758461376d565b6002600081548110613f8957613f8961564d565b6000918252602090912001546001600160a01b03169190614a95565b6007548351602085015160405163f939640760e01b81526001600160a01b039384166004820152600292830b6024820152910b604482015260648101849052600060848201529082169063f93964079060a401600060405180830381600087803b15801561401257600080fd5b505af1158015614026573d6000803e3d6000fd5b505050506000821315612bad57612bad816000600260008154811061404d5761404d61564d565b6000918252602090912001546001600160a01b03169190614b56565b6000612b438383614c7a565b80156141095760065460405163a7efd0bd60e01b8152600481018390526000916001600160a01b03169063a7efd0bd9060240160206040518083038186803b1580156140c057600080fd5b505afa1580156140d4573d6000803e3d6000fd5b505050506040513d601f19601f820116820180604052508101906140f89190615cc8565b9050612bad838260008512156137c3565b5050565b6004805460408051808201909152918252631253925560e21b6020830152156141495760405162461bcd60e51b815260040161074c919061536d565b5061415382614704565b60405180604001604052806004815260200163494e564160e01b8152509061418e5760405162461bcd60e51b815260040161074c919061536d565b506040805180820190915260028152612b2d60f11b6020820152816141c65760405162461bcd60e51b815260040161074c919061536d565b506000336001600160a01b0316637ac46fbb6040518163ffffffff1660e01b815260040160606040518083038186803b15801561420257600080fd5b505afa158015614216573d6000803e3d6000fd5b505050506040513d601f19601f8201168201806040525081019061423a91906156b5565b518351909150158015906142bf5750806001600160a01b03166378546fa26040518163ffffffff1660e01b815260040160206040518083038186803b15801561428257600080fd5b505afa158015614296573d6000803e3d6000fd5b505050506040513d601f19601f820116820180604052508101906142ba9190615773565b835111155b6040518060400160405280600381526020016224a72b60e91b815250906142f95760405162461bcd60e51b815260040161074c919061536d565b5060005b83518110156143fd57816001600160a01b03166363e85d2d8583815181106143275761432761564d565b60209081029190910101516040516001600160e01b031960e084901b1681526001600160a01b0390911660048201526003602482015260440160206040518083038186803b15801561437857600080fd5b505afa15801561438c573d6000803e3d6000fd5b505050506040513d601f19601f820116820180604052508101906143b09190615758565b6040518060400160405280600381526020016223292160e91b815250906143ea5760405162461bcd60e51b815260040161074c919061536d565b50806143f581615663565b9150506142fd565b50600180546001600160a01b031916331790558251614423906002906020860190614e47565b50600482905560025460005b8181101561455357614442816001615635565b600360008784815181106144585761445861564d565b60200260200101516001600160a01b03166001600160a01b031681526020019081526020016000208190555060008582815181106144985761449861564d565b6020026020010151905060056002826001600160a01b031663313ce5676040518163ffffffff1660e01b815260040160206040518083038186803b1580156144df57600080fd5b505afa1580156144f3573d6000803e3d6000fd5b505050506040513d601f19601f820116820180604052508101906145179190615ce3565b6145219190615d06565b61452c90600a615e0c565b815460018101835560009283526020909220909101555061454c81615663565b905061442f565b50604051339032907f0f043e55a1ce0d7ce25125ccbc2800b540d83e21abf7250f0156c2091a28b2219061458a9088908890615e1b565b60405180910390a350505050565b60006301ffc9a760e01b6001600160e01b03198316148061060357506001600160e01b0319821663305a640b60e21b1492915050565b6000614623826040518060400160405280602081526020017f5361666545524332303a206c6f772d6c6576656c2063616c6c206661696c6564815250856001600160a01b0316614d3c9092919063ffffffff16565b805190915015612bad57808060200190518101906146419190615758565b612bad5760405162461bcd60e51b815260206004820152602a60248201527f5361666545524332303a204552433230206f7065726174696f6e20646964206e6044820152691bdd081cdd58d8d9595960b21b606482015260840161074c565b60008060008351604114604051806040016040528060048152602001631253959360e21b815250906146e55760405162461bcd60e51b815260040161074c919061536d565b5050505060208101516040820151606090920151909260009190911a90565b600060028251101561471857506001919050565b60005b60018351614729919061561e565b81101561479e578261473c826001615635565b8151811061474c5761474c61564d565b60200260200101516001600160a01b031683828151811061476f5761476f61564d565b60200260200101516001600160a01b03161061478e5750600092915050565b61479781615663565b905061471b565b50600192915050565b60007812725dd1d243aba0e75fe645cc4873f9e65afe688c928e1f218211156147e657604051633492ffd960e01b81526004810183905260240161074c565b50670de0b6b3a76400000290565b60006011600f838154811061480b5761480b61564d565b9060005260206000200160405160200161483a9154600281810b835260189190911c900b602082015260400190565b60408051601f1981840301815290829052614854916158af565b90815260405190819003602001902055600f546148739060019061561e565b811461499f57600f818154811061488c5761488c61564d565b6000918252602090912001805465ffffffffffff19169055600f80546148b49060019061561e565b815481106148c4576148c461564d565b90600052602060002001600f82815481106148e1576148e161564d565b6000918252602090912082549101805462ffffff92831662ffffff19821681178355935463010000009081900490931690920265ffffffffffff19909216909217179055614930816001615635565b6011600f83815481106149455761494561564d565b906000526020600020016040516020016149749154600281810b835260189190911c900b602082015260400190565b60408051601f198184030181529082905261498e916158af565b908152604051908190036020019020555b600f8054806149b0576149b0615e3d565b6000828152602090208101600019908101805465ffffffffffff1916905501905550565b8060020b8260020b12614a0f5760405162461bcd60e51b8152602060048201526003602482015262544c5560e81b604482015260640161074c565b62010deb19600283900b1215614a4d5760405162461bcd60e51b8152602060048201526003602482015262544c4d60e81b604482015260640161074c565b614a5a62010deb19615e53565b60020b8160020b13156141095760405162461bcd60e51b815260206004820152600360248201526254554d60e81b604482015260640161074c565b604051636eb1769f60e11b81523060048201526001600160a01b038381166024830152600091839186169063dd62ed3e9060440160206040518083038186803b158015614ae157600080fd5b505afa158015614af5573d6000803e3d6000fd5b505050506040513d601f19601f82011682018060405250810190614b199190615773565b614b239190615635565b6040516001600160a01b03851660248201526044810182905290915061335a90859063095ea7b360e01b90606401612b76565b801580614bdf5750604051636eb1769f60e11b81523060048201526001600160a01b03838116602483015284169063dd62ed3e9060440160206040518083038186803b158015614ba557600080fd5b505afa158015614bb9573d6000803e3d6000fd5b505050506040513d601f19601f82011682018060405250810190614bdd9190615773565b155b614c4a5760405162461bcd60e51b815260206004820152603660248201527f5361666545524332303a20617070726f76652066726f6d206e6f6e2d7a65726f60448201527520746f206e6f6e2d7a65726f20616c6c6f77616e636560501b606482015260840161074c565b6040516001600160a01b038316602482015260448101829052612bad90849063095ea7b360e01b90606401612b76565b60008080600019848609848602925082811083820303915050670de0b6b3a76400008110614cbe5760405163698d9a0160e11b81526004810182905260240161074c565b600080670de0b6b3a76400008688099150506706f05b59d3b1ffff811182614cf85780670de0b6b3a7640000850401945050505050610603565b620400008285030493909111909103600160ee1b02919091177faccb18165bd6fe31ae1cf318dc5b51eee0e1ba569b88cd74c1773b91fac106690201905092915050565b6060612de8848460008585843b614d955760405162461bcd60e51b815260206004820152601d60248201527f416464726573733a2063616c6c20746f206e6f6e2d636f6e7472616374000000604482015260640161074c565b600080866001600160a01b03168587604051614db191906158af565b60006040518083038185875af1925050503d8060008114614dee576040519150601f19603f3d011682016040523d82523d6000602084013e614df3565b606091505b5091509150614e03828286614e0e565b979650505050505050565b60608315614e1d575081612b43565b825115614e2d5782518084602001fd5b8160405162461bcd60e51b815260040161074c919061536d565b828054828255906000526020600020908101928215614e9c579160200282015b82811115614e9c57825182546001600160a01b0319166001600160a01b03909116178255602090920191600190910190614e67565b506137af9291505b808211156137af5760008155600101614ea4565b6001600160e01b031981168114614ece57600080fd5b50565b600060208284031215614ee357600080fd5b8135612b4381614eb8565b600060208284031215614f0057600080fd5b5035919050565b634e487b7160e01b600052604160045260246000fd5b608081018181106001600160401b0382111715614f3c57614f3c614f07565b60405250565b601f8201601f191681016001600160401b0381118282101715614f6757614f67614f07565b6040525050565b60405161014081016001600160401b0381118282101715614f9157614f91614f07565b60405290565b60006001600160401b03821115614fb057614fb0614f07565b5060051b60200190565b6001600160a01b0381168114614ece57600080fd5b600082601f830112614fe057600080fd5b81356020614fed82614f97565b604051614ffa8282614f42565b83815260059390931b850182019282810191508684111561501a57600080fd5b8286015b8481101561503e57803561503181614fba565b835291830191830161501e565b509695505050505050565b60006020828403121561505b57600080fd5b81356001600160401b0381111561507157600080fd5b612de884828501614fcf565b600081518084526020808501945080840160005b838110156150ad57815187529582019590820190600101615091565b509495945050505050565b602081526000612b43602083018461507d565b600082601f8301126150dc57600080fd5b81356001600160401b038111156150f5576150f5614f07565b60405161510c601f8301601f191660200182614f42565b81815284602083860101111561512157600080fd5b816020850160208301376000918101602001919091529392505050565b6000806040838503121561515157600080fd5b8235915060208301356001600160401b0381111561516e57600080fd5b61517a858286016150cb565b9150509250929050565b600082601f83011261519557600080fd5b813560206151a282614f97565b6040516151af8282614f42565b83815260059390931b85018201928281019150868411156151cf57600080fd5b8286015b8481101561503e57803583529183019183016151d3565b6000806000806080858703121561520057600080fd5b843561520b81614fba565b935060208501356001600160401b038082111561522757600080fd5b61523388838901614fcf565b9450604087013591508082111561524957600080fd5b61525588838901615184565b9350606087013591508082111561526b57600080fd5b50615278878288016150cb565b91505092959194509250565b6000806000806060858703121561529a57600080fd5b84356152a581614fba565b935060208501356152b581614eb8565b925060408501356001600160401b03808211156152d157600080fd5b818701915087601f8301126152e557600080fd5b8135818111156152f457600080fd5b88602082850101111561530657600080fd5b95989497505060200194505050565b60005b83811015615330578181015183820152602001615318565b8381111561335a5750506000910152565b60008151808452615359816020860160208601615315565b601f01601f19169290920160200192915050565b602081526000612b436020830184615341565b60006020828403121561539257600080fd5b8135612b4381614fba565b6000806000606084860312156153b257600080fd5b83356001600160401b03808211156153c957600080fd5b6153d587838801614fcf565b945060208601359150808211156153eb57600080fd5b6153f787838801615184565b9350604086013591508082111561540d57600080fd5b5061541a868287016150cb565b9150509250925092565b600081518084526020808501945080840160005b838110156150ad5781516001600160a01b031687529582019590820190600101615438565b602081526000612b436020830184615424565b604081526000615483604083018561507d565b8281036020840152615495818561507d565b95945050505050565b8060020b8114614ece57600080fd5b6000604082840312156154bf57600080fd5b604051604081018181106001600160401b03821117156154e1576154e1614f07565b60405282356154ef8161549e565b815260208301356154ff8161549e565b60208201529392505050565b604081016106038284805160020b8252602081015160020b60208301525050565b60008060008060008086880361012081121561554757600080fd5b8735965060208801356001600160401b0381111561556457600080fd5b6155708a828b01614fcf565b965050604088013561558181614fba565b9450606088013561559181614fba565b935060808801356155a181614fba565b92506080609f19820112156155b557600080fd5b506040516155c281614f1d565b60a08801356155d08161549e565b815260c08801356155e08161549e565b602082015260e088013560408201526101009097013560608801525093969295509093909291565b634e487b7160e01b600052601160045260246000fd5b60008282101561563057615630615608565b500390565b6000821982111561564857615648615608565b500190565b634e487b7160e01b600052603260045260246000fd5b600060001982141561567757615677615608565b5060010190565b6020808252601f908201527f5265656e7472616e637947756172643a207265656e7472616e742063616c6c00604082015260600190565b6000606082840312156156c757600080fd5b604051606081018181106001600160401b03821117156156e9576156e9614f07565b60405282516156f781614fba565b8152602083015161570781614fba565b6020820152604083015161571a81614fba565b60408201529392505050565b60006020828403121561573857600080fd5b8151612b4381614fba565b8051801515811461575357600080fd5b919050565b60006020828403121561576a57600080fd5b612b4382615743565b60006020828403121561578557600080fd5b5051919050565b6001600160a01b03841681526060602082018190526000906157b090830185615424565b82810360408401526157c2818561507d565b9695505050505050565b828152604060208201526000612de86040830184615341565b6000602082840312156157f757600080fd5b8151612b4381614eb8565b6001600160a01b0383168152604060208201819052600090612de89083018461507d565b6001600160a01b03878116825286166020820152604081018590526001600160e01b03198416606082015260a06080820181905281018290526000828460c0840137600060c0848401015260c0601f19601f8501168301019050979650505050505050565b6001600160e01b031984168152818360048301376000910160040190815292915050565b600082516158c1818460208701615315565b9190910192915050565b80516001600160801b038116811461575357600080fd5b600061014082840312156158f557600080fd5b6158fd614f6e565b61590683615743565b8152615914602084016158cb565b602082015260408301516040820152606083015160608201526080830151608082015260a083015160a082015260c083015160c082015260e083015160e08201526101008084015181830152506101208084015181830152508091505092915050565b60e081016159988288805160020b8252602081015160020b60208301525050565b604082018690528451600290810b60608401526020860151900b608083015260a082019390935260c001529392505050565b6000602082840312156159dc57600080fd5b8151612b438161549e565b6000600160ff1b8214156159fd576159fd615608565b5060000390565b6001600160a01b03949094168452600292830b6020850152910b60408301526001600160801b0316606082015260800190565b60006001600160a01b0383811690831681811015615a5757615a57615608565b039392505050565b60006001600160a01b03828116848216808303821115615a8157615a81615608565b01949350505050565b600080600080600060a08688031215615aa257600080fd5b5050835160208501516040860151606087015160809097015192989197509594509092509050565b600060033d1115615ae35760046000803e5060005160e01c5b90565b600060443d1015615af45790565b6040516003193d81016004833e81513d6001600160401b038160248401118184111715615b2357505050505090565b8285019150815181811115615b3b5750505050505090565b843d8701016020828501011115615b555750505050505090565b61331760208286010187614f42565b600080821280156001600160ff1b0384900385131615615b8657615b86615608565b600160ff1b8390038412811615615b9f57615b9f615608565b50500190565b60008083128015600160ff1b850184121615615bc357615bc3615608565b6001600160ff1b0384018313811615615bde57615bde615608565b50500390565b81511515815261014081016020830151615c0960208401826001600160801b03169052565b5060408301516040830152606083015160608301526080830151608083015260a083015160a083015260c083015160c083015260e083015160e083015261010080840151818401525061012080840151818401525092915050565b60008060408385031215615c7757600080fd5b615c8083615743565b9150602083015190509250929050565b634e487b7160e01b600052601260045260246000fd5b60008260020b80615cb957615cb9615c90565b808360020b0791505092915050565b600060208284031215615cda57600080fd5b612b43826158cb565b600060208284031215615cf557600080fd5b815160ff81168114612b4357600080fd5b600060ff831680615d1957615d19615c90565b8060ff84160491505092915050565b600181815b80851115615d63578160001904821115615d4957615d49615608565b80851615615d5657918102915b93841c9390800290615d2d565b509250929050565b600082615d7a57506001610603565b81615d8757506000610603565b8160018114615d9d5760028114615da757615dc3565b6001915050610603565b60ff841115615db857615db8615608565b50506001821b610603565b5060208310610133831016604e8410600b8410161715615de6575081810a610603565b615df08383615d28565b8060001904821115615e0457615e04615608565b029392505050565b6000612b4360ff841683615d6b565b604081526000615e2e6040830185615424565b90508260208301529392505050565b634e487b7160e01b600052603160045260246000fd5b60008160020b627fffff19811415615e6d57615e6d615608565b6000039291505056fea26469706673582212204d1379522889e25d2e7642c15147b209f967e6433da43b6cb5e022380832a85e64736f6c63430008090033",
  "devdoc": {
    "kind": "dev",
    "methods": {
      "externalCall(address,bytes4,bytes)": {
        "details": "Can only be called by Vault Owner or Strategy. Vault owner is the owner of NFT for this vault in VaultManager. Strategy is approved address for the vault NFT. Since this method allows sending arbitrary transactions, the destinations of the calls are whitelisted by Protocol Governance.",
        "params": {
          "data": "Abi encoded parameters to `to::selector`",
          "selector": "Selector of the call",
          "to": "Address of the reward pool"
        },
        "returns": {
          "result": "Result of execution of the call"
        }
      },
      "initialize(uint256,address[],address,address,address,(int24,int24,uint256,uint256))": {
        "details": "Can only be initialized by vault governance",
        "params": {
          "initializeParams": "the InitializeParams used to initiate the vault",
          "marginEngine_": "the underlying margin engine of the Voltz pool",
          "nft_": "NFT of the vault in the VaultRegistry",
          "vaultTokens_": "ERC20 tokens that will be managed by this Vault"
        }
      },
      "isValidSignature(bytes32,bytes)": {
        "details": "Should return whether the signature provided is valid for the provided hash MUST return the bytes4 magic value 0x1626ba7e when function passes. MUST NOT modify state (using STATICCALL for solc < 0.5, view modifier for solc > 0.5) MUST allow external calls",
        "params": {
          "_hash": "Hash of the data to be signed",
          "_signature": "Signature byte array associated with _hash"
        },
        "returns": {
          "magicValue": "0x1626ba7e if valid, 0xffffffff otherwise"
        }
      },
      "isVaultToken(address)": {
        "params": {
          "token": "Address of the token to check"
        },
        "returns": {
          "_0": "`true` if this token is managed by Vault"
        }
      },
      "pull(address,address[],uint256[],bytes)": {
        "details": "Can only be called but Vault Owner or Strategy. Vault owner is the owner of NFT for this vault in VaultManager. Strategy is approved address for the vault NFT. When called by vault owner this method just pulls the tokens from the protocol to the `to` address When called by strategy on vault other than zero vault it pulls the tokens to zero vault (required `to` == zero vault) When called by strategy on zero vault it pulls the tokens to zero vault, pushes tokens on the `to` vault, and reclaims everything that's left. Thus any vault other than zero vault cannot have any tokens on it Tokens **must** be a subset of Vault Tokens. However, the convention is that if tokenAmount == 0 it is the same as token is missing. Pull is fulfilled on the best effort basis, i.e. if the tokenAmounts overflows available funds it withdraws all the funds.",
        "params": {
          "options": "Additional options that could be needed for some vaults. E.g. for Uniswap this could be `deadline` param. For the exact bytes structure see concrete vault descriptions",
          "to": "Address to receive the tokens",
          "tokenAmounts": "Amounts of tokens to pull",
          "tokens": "Tokens to pull"
        },
        "returns": {
          "actualTokenAmounts": "The amounts actually withdrawn. It could be less than tokenAmounts (but not higher)"
        }
      },
      "push(address[],uint256[],bytes)": {
        "details": "Tokens **must** be a subset of Vault Tokens. However, the convention is that if tokenAmount == 0 it is the same as token is missing. Also notice that this operation doesn't guarantee that tokenAmounts will be invested in full.",
        "params": {
          "options": "Additional options that could be needed for some vaults. E.g. for Uniswap this could be `deadline` param. For the exact bytes structure see concrete vault descriptions",
          "tokenAmounts": "Amounts of tokens to push",
          "tokens": "Tokens to push"
        },
        "returns": {
          "actualTokenAmounts": "The amounts actually invested. It could be less than tokenAmounts (but not higher)"
        }
      },
      "rebalance((int24,int24))": {
        "details": "Unwinds existing active position and funnels available funds into a new LP position on Voltz",
        "params": {
          "position": "The new LP position on Voltz"
        }
      },
      "reclaimTokens(address[])": {
        "details": "Cannot be called from zero vault.",
        "params": {
          "tokens": "Tokens to claim"
        },
        "returns": {
          "actualTokenAmounts": "Amounts reclaimed"
        }
      },
      "settleVault(uint256)": {
        "details": "Only positions with strictly positive cashflows are settledand withdrawn from",
        "params": {
          "batchSize": "Limit on the number of positions to be settled (settles all positions if 0)"
        },
        "returns": {
          "settledBatchSize": "Number of positions which were settled and withdrawn from"
        }
      },
      "settleVaultPositionAndWithdrawMargin((int24,int24))": {
        "details": "The function settles position only if not settled before andwithdraws all available funds",
        "params": {
          "position": "The LP position to be settled and withdrawn from"
        }
      },
      "supportsInterface(bytes4)": {
        "details": "Returns true if this contract implements the interface defined by `interfaceId`. See the corresponding https://eips.ethereum.org/EIPS/eip-165#how-interfaces-are-identified[EIP section] to learn more about how these ids are created. This function call must use less than 30 000 gas."
      },
      "transferAndPush(address,address[],uint256[],bytes)": {
        "params": {
          "options": "Additional options that could be needed for some vaults. E.g. for Uniswap this could be `deadline` param. For the exact bytes structure see concrete vault descriptions",
          "tokenAmounts": "Amounts of tokens to push",
          "tokens": "Tokens to push"
        },
        "returns": {
          "actualTokenAmounts": "The amounts actually invested. It could be less than tokenAmounts (but not higher)"
        }
      },
      "tvl()": {
        "details": "Generally it is the underlying token value of this contract in some other DeFi protocol. For example, for USDC Yearn Vault this would be total USDC balance that could be withdrawn for Yearn to this contract. The tvl itself is estimated in some range. Sometimes the range is exact, sometimes it's not",
        "returns": {
          "maxTokenAmounts": "Upper bound for total available balances estimation (nth tokenAmount corresponds to nth token in vaultTokens)",
          "minTokenAmounts": "Lower bound for total available balances estimation (nth tokenAmount corresponds to nth token in vaultTokens)"
        }
      }
    },
    "stateVariables": {
      "_aggregatedInactiveFixedTokenBalance": {
        "details": "Sum of fixed token balances of all positions in the trackedPositionsarray, apart from the balance of the currently active position"
      },
      "_aggregatedInactiveMargin": {
        "details": "Sum of margins of all positions in the trackedPositions array,apart from the margin of the currently active position"
      },
      "_aggregatedInactiveVariableTokenBalance": {
        "details": "Sum of variable token balances of all positions in the trackedPositionsarray, apart from the balance of the currently active position"
      },
      "_currentPositionIndex": {
        "details": "Index into the trackedPositions array of the currently active LP position of the Vault"
      },
      "_leverageWad": {
        "details": "The leverage used for LP positions on Voltz (in wad)"
      },
      "_marginEngine": {
        "details": "The margin engine of Voltz Protocol"
      },
      "_marginMultiplierPostUnwindWad": {
        "details": "The multiplier used to decide how much margin is left in partially unwound positions on Voltz (in wad)"
      },
      "_periphery": {
        "details": "The periphery of Voltz Protocol"
      },
      "_positionToIndexPlusOne": {
        "details": "Maps a given Voltz position to its index into the trackedPositions array,which is artifically 1-indexed by the mapping."
      },
      "_rateOracle": {
        "details": "The rate oracle of Voltz Protocol"
      },
      "_settledPositionsCount": {
        "details": "Number of positions settled and withdrawn from counting from the first positionin the trackedPositions array"
      },
      "_termEndTimestampWad": {
        "details": "The unix termEndTimestamp of the MarginEngine in Wad"
      },
      "_tickSpacing": {
        "details": "The VAMM tick spacing"
      },
      "_tvl": {
        "details": "The estimated TVL"
      },
      "_vamm": {
        "details": "The vamm of Voltz Protocol"
      },
      "_voltzVaultHelper": {
        "details": "The helper Voltz contract"
      },
      "trackedPositions": {
        "details": "Array of Vault-owned positions on Voltz with strictly positive cashflow"
      }
    },
    "version": 1
  },
  "userdoc": {
    "errors": {
      "PRBMathUD60x18__FromUintOverflow(uint256)": [
        {
          "notice": "Emitted when converting a basic integer to the fixed-point format format overflows UD60x18."
        }
      ],
      "PRBMath__MulDivFixedPointOverflow(uint256)": [
        {
          "notice": "Emitted when the result overflows uint256."
        }
      ]
    },
    "events": {
      "Initialized(address,address,address[],uint256)": {
        "notice": "Emitted when Vault is intialized"
      },
      "PositionRebalance((int24,int24),int256,(int24,int24),uint256,uint256)": {
        "notice": "Emitted when active LP position is changed"
      },
      "PositionSettledAndMarginWithdrawn(int24,int24,int256)": {
        "notice": "Emitted when a single Vault-owned position is settled and withdrawn from"
      },
      "Pull(address,uint256[])": {
        "notice": "Emitted on successful pull"
      },
      "PullWithdraw(address,uint256,uint256)": {
        "notice": "Emitted when tokens are withdrawn from the Vault"
      },
      "Push(uint256[])": {
        "notice": "Emitted on successful push"
      },
      "PushDeposit(uint256,uint256)": {
        "notice": "Emitted when tokens are deposited into the Vault"
      },
      "ReclaimTokens(address,address[],uint256[])": {
        "notice": "Emitted when tokens are reclaimed"
      },
      "TvlUpdate(int256)": {
        "notice": "Emitted when TVL is updated"
      },
      "UnwindFail(string)": {
        "notice": "Emitted when unwind fails"
      },
      "VaultInitialized(address,address,address,int24,int24,uint256,uint256)": {
        "notice": "Emitted when Vault is initialised"
      },
      "VaultSettle(uint256,uint256,uint256)": {
        "notice": "Emitted when multilpe Vault-owned positions are settled and withdrawn from"
      }
    },
    "kind": "user",
    "methods": {
      "currentPosition()": {
        "notice": "Returns the currently active LP position of the Vault"
      },
      "externalCall(address,bytes4,bytes)": {
        "notice": "Execute one of whitelisted calls."
      },
      "initialize(uint256,address[],address,address,address,(int24,int24,uint256,uint256))": {
        "notice": "Initializes a new vault"
      },
      "initialized()": {
        "notice": "Checks if the vault is initialized"
      },
      "isValidSignature(bytes32,bytes)": {
        "notice": "Verifies offchain signature."
      },
      "isVaultToken(address)": {
        "notice": "Checks if a token is vault token"
      },
      "leverageWad()": {
        "notice": "Returns the leverage used for LP positions on Voltz (in wad)"
      },
      "marginEngine()": {
        "notice": "Reference to the margin engine of Voltz Protocol"
      },
      "marginMultiplierPostUnwindWad()": {
        "notice": "Returns the multiplier used to decide how much margin is left in partially unwound positions on Voltz (in wad)"
      },
      "nft()": {
        "notice": "VaultRegistry NFT for this vault"
      },
      "periphery()": {
        "notice": "Reference to the periphery of Voltz Protocol"
      },
      "pull(address,address[],uint256[],bytes)": {
        "notice": "Pulls tokens from the underlying protocol to the `to` address."
      },
      "pullExistentials()": {
        "notice": "Existential amounts for each token"
      },
      "push(address[],uint256[],bytes)": {
        "notice": "Pushes tokens on the vault balance to the underlying protocol. For example, for Yearn this operation will take USDC from the contract balance and convert it to yUSDC."
      },
      "rateOracle()": {
        "notice": "Reference to the rate oracle of Voltz Protocol"
      },
      "rebalance((int24,int24))": {
        "notice": "Vault's available funds are moved to a new LP position"
      },
      "reclaimTokens(address[])": {
        "notice": "Claim ERC20 tokens from vault balance to zero vault."
      },
      "setLeverageWad(uint256)": {
        "notice": "Sets the leverage used for LP positions on Voltz (in wad)"
      },
      "setMarginMultiplierPostUnwindWad(uint256)": {
        "notice": "Sets the multiplier used to decide how much margin is left in partially unwound positions on Voltz (in wad)"
      },
      "settleVault(uint256)": {
        "notice": "Settles up to batchSize Vault-owned positions on Voltz and withdraws margin"
      },
      "settleVaultPositionAndWithdrawMargin((int24,int24))": {
        "notice": "Settles Vault-owned position on Voltz and withdraws margin"
      },
      "transferAndPush(address,address[],uint256[],bytes)": {
        "notice": "The same as `push` method above but transfers tokens to vault balance prior to calling push. After the `push` it returns all the leftover tokens back (`push` method doesn't guarantee that tokenAmounts will be invested in full)."
      },
      "tvl()": {
        "notice": "Total value locked for this contract."
      },
      "updateTvl()": {
        "notice": "Updates estimated tvl values"
      },
      "vamm()": {
        "notice": "Reference to the vamm of Voltz Protocol"
      },
      "vaultGovernance()": {
        "notice": "Address of the Vault Governance for this contract."
      },
      "vaultTokens()": {
        "notice": "ERC20 tokens under Vault management."
      },
      "voltzVaultHelper()": {
        "notice": "Returns the address of the associated Voltz Vault Helper"
      }
    },
    "notice": "Vault that interfaces Voltz protocol in the integration layer on the liquidity provider (LP) side.",
    "version": 1
  },
  "storageLayout": {
    "storage": [
      {
        "astId": 1491,
        "contract": "contracts/vaults/VoltzVault.sol:VoltzVault",
        "label": "_status",
        "offset": 0,
        "slot": "0",
        "type": "t_uint256"
      },
      {
        "astId": 40836,
        "contract": "contracts/vaults/VoltzVault.sol:VoltzVault",
        "label": "_vaultGovernance",
        "offset": 0,
        "slot": "1",
        "type": "t_contract(IVaultGovernance)18089"
      },
      {
        "astId": 40839,
        "contract": "contracts/vaults/VoltzVault.sol:VoltzVault",
        "label": "_vaultTokens",
        "offset": 0,
        "slot": "2",
        "type": "t_array(t_address)dyn_storage"
      },
      {
        "astId": 40843,
        "contract": "contracts/vaults/VoltzVault.sol:VoltzVault",
        "label": "_vaultTokensIndex",
        "offset": 0,
        "slot": "3",
        "type": "t_mapping(t_address,t_int256)"
      },
      {
        "astId": 40845,
        "contract": "contracts/vaults/VoltzVault.sol:VoltzVault",
        "label": "_nft",
        "offset": 0,
        "slot": "4",
        "type": "t_uint256"
      },
      {
        "astId": 40848,
        "contract": "contracts/vaults/VoltzVault.sol:VoltzVault",
        "label": "_pullExistentials",
        "offset": 0,
        "slot": "5",
        "type": "t_array(t_uint256)dyn_storage"
      },
      {
        "astId": 41997,
        "contract": "contracts/vaults/VoltzVault.sol:VoltzVault",
        "label": "_voltzVaultHelper",
        "offset": 0,
        "slot": "6",
        "type": "t_contract(VoltzVaultHelper)31474"
      },
      {
        "astId": 42001,
        "contract": "contracts/vaults/VoltzVault.sol:VoltzVault",
        "label": "_marginEngine",
        "offset": 0,
        "slot": "7",
        "type": "t_contract(IMarginEngine)13618"
      },
      {
        "astId": 42005,
        "contract": "contracts/vaults/VoltzVault.sol:VoltzVault",
        "label": "_vamm",
        "offset": 0,
        "slot": "8",
        "type": "t_contract(IVAMM)14157"
      },
      {
        "astId": 42009,
        "contract": "contracts/vaults/VoltzVault.sol:VoltzVault",
        "label": "_rateOracle",
        "offset": 0,
        "slot": "9",
        "type": "t_contract(IRateOracle)14583"
      },
      {
        "astId": 42013,
        "contract": "contracts/vaults/VoltzVault.sol:VoltzVault",
        "label": "_periphery",
        "offset": 0,
        "slot": "10",
        "type": "t_contract(IPeriphery)13761"
      },
      {
        "astId": 42016,
        "contract": "contracts/vaults/VoltzVault.sol:VoltzVault",
        "label": "_tickSpacing",
        "offset": 20,
        "slot": "10",
        "type": "t_int24"
      },
      {
        "astId": 42019,
        "contract": "contracts/vaults/VoltzVault.sol:VoltzVault",
        "label": "_termEndTimestampWad",
        "offset": 0,
        "slot": "11",
        "type": "t_uint256"
      },
      {
        "astId": 42022,
        "contract": "contracts/vaults/VoltzVault.sol:VoltzVault",
        "label": "_leverageWad",
        "offset": 0,
        "slot": "12",
        "type": "t_uint256"
      },
      {
        "astId": 42025,
        "contract": "contracts/vaults/VoltzVault.sol:VoltzVault",
        "label": "_marginMultiplierPostUnwindWad",
        "offset": 0,
        "slot": "13",
        "type": "t_uint256"
      },
      {
        "astId": 42028,
        "contract": "contracts/vaults/VoltzVault.sol:VoltzVault",
        "label": "_tvl",
        "offset": 0,
        "slot": "14",
        "type": "t_int256"
      },
      {
        "astId": 42033,
        "contract": "contracts/vaults/VoltzVault.sol:VoltzVault",
        "label": "trackedPositions",
        "offset": 0,
        "slot": "15",
        "type": "t_array(t_struct(TickRange)18139_storage)dyn_storage"
      },
      {
        "astId": 42036,
        "contract": "contracts/vaults/VoltzVault.sol:VoltzVault",
        "label": "_currentPositionIndex",
        "offset": 0,
        "slot": "16",
        "type": "t_uint256"
      },
      {
        "astId": 42041,
        "contract": "contracts/vaults/VoltzVault.sol:VoltzVault",
        "label": "_positionToIndexPlusOne",
        "offset": 0,
        "slot": "17",
        "type": "t_mapping(t_bytes_memory_ptr,t_uint256)"
      },
      {
        "astId": 42044,
        "contract": "contracts/vaults/VoltzVault.sol:VoltzVault",
        "label": "_settledPositionsCount",
        "offset": 0,
        "slot": "18",
        "type": "t_uint256"
      },
      {
        "astId": 42047,
        "contract": "contracts/vaults/VoltzVault.sol:VoltzVault",
        "label": "_aggregatedInactiveFixedTokenBalance",
        "offset": 0,
        "slot": "19",
        "type": "t_int256"
      },
      {
        "astId": 42050,
        "contract": "contracts/vaults/VoltzVault.sol:VoltzVault",
        "label": "_aggregatedInactiveVariableTokenBalance",
        "offset": 0,
        "slot": "20",
        "type": "t_int256"
      },
      {
        "astId": 42053,
        "contract": "contracts/vaults/VoltzVault.sol:VoltzVault",
        "label": "_aggregatedInactiveMargin",
        "offset": 0,
        "slot": "21",
        "type": "t_int256"
      }
    ],
    "types": {
      "t_address": {
        "encoding": "inplace",
        "label": "address",
        "numberOfBytes": "20"
      },
      "t_array(t_address)dyn_storage": {
        "base": "t_address",
        "encoding": "dynamic_array",
        "label": "address[]",
        "numberOfBytes": "32"
      },
      "t_array(t_struct(TickRange)18139_storage)dyn_storage": {
        "base": "t_struct(TickRange)18139_storage",
        "encoding": "dynamic_array",
        "label": "struct IVoltzVault.TickRange[]",
        "numberOfBytes": "32"
      },
      "t_array(t_uint256)dyn_storage": {
        "base": "t_uint256",
        "encoding": "dynamic_array",
        "label": "uint256[]",
        "numberOfBytes": "32"
      },
      "t_bytes_memory_ptr": {
        "encoding": "bytes",
        "label": "bytes",
        "numberOfBytes": "32"
      },
      "t_contract(IMarginEngine)13618": {
        "encoding": "inplace",
        "label": "contract IMarginEngine",
        "numberOfBytes": "20"
      },
      "t_contract(IPeriphery)13761": {
        "encoding": "inplace",
        "label": "contract IPeriphery",
        "numberOfBytes": "20"
      },
      "t_contract(IRateOracle)14583": {
        "encoding": "inplace",
        "label": "contract IRateOracle",
        "numberOfBytes": "20"
      },
      "t_contract(IVAMM)14157": {
        "encoding": "inplace",
        "label": "contract IVAMM",
        "numberOfBytes": "20"
      },
      "t_contract(IVaultGovernance)18089": {
        "encoding": "inplace",
        "label": "contract IVaultGovernance",
        "numberOfBytes": "20"
      },
      "t_contract(VoltzVaultHelper)31474": {
        "encoding": "inplace",
        "label": "contract VoltzVaultHelper",
        "numberOfBytes": "20"
      },
      "t_int24": {
        "encoding": "inplace",
        "label": "int24",
        "numberOfBytes": "3"
      },
      "t_int256": {
        "encoding": "inplace",
        "label": "int256",
        "numberOfBytes": "32"
      },
      "t_mapping(t_address,t_int256)": {
        "encoding": "mapping",
        "key": "t_address",
        "label": "mapping(address => int256)",
        "numberOfBytes": "32",
        "value": "t_int256"
      },
      "t_mapping(t_bytes_memory_ptr,t_uint256)": {
        "encoding": "mapping",
        "key": "t_bytes_memory_ptr",
        "label": "mapping(bytes => uint256)",
        "numberOfBytes": "32",
        "value": "t_uint256"
      },
      "t_struct(TickRange)18139_storage": {
        "encoding": "inplace",
        "label": "struct IVoltzVault.TickRange",
        "members": [
          {
            "astId": 18135,
            "contract": "contracts/vaults/VoltzVault.sol:VoltzVault",
            "label": "tickLower",
            "offset": 0,
            "slot": "0",
            "type": "t_int24"
          },
          {
            "astId": 18138,
            "contract": "contracts/vaults/VoltzVault.sol:VoltzVault",
            "label": "tickUpper",
            "offset": 3,
            "slot": "0",
            "type": "t_int24"
          }
        ],
        "numberOfBytes": "32"
      },
      "t_uint256": {
        "encoding": "inplace",
        "label": "uint256",
        "numberOfBytes": "32"
      }
    }
  }
}