{
  "address": "0x624a5219216c5A101247B39a04260Ed3A2A05B71",
  "abi": [
    {
      "inputs": [
        {
          "internalType": "address[]",
          "name": "tokens",
          "type": "address[]"
        },
        {
          "internalType": "address[]",
          "name": "oracles",
          "type": "address[]"
        },
        {
          "internalType": "address",
          "name": "admin",
          "type": "address"
        }
      ],
      "stateMutability": "nonpayable",
      "type": "constructor"
    },
    {
      "anonymous": false,
      "inputs": [
        {
          "indexed": true,
          "internalType": "address",
          "name": "origin",
          "type": "address"
        },
        {
          "indexed": true,
          "internalType": "address",
          "name": "sender",
          "type": "address"
        },
        {
          "indexed": false,
          "internalType": "address[]",
          "name": "tokens",
          "type": "address[]"
        },
        {
          "indexed": false,
          "internalType": "address[]",
          "name": "oracles",
          "type": "address[]"
        }
      ],
      "name": "OraclesAdded",
      "type": "event"
    },
    {
      "anonymous": false,
      "inputs": [
        {
          "indexed": true,
          "internalType": "bytes32",
          "name": "role",
          "type": "bytes32"
        },
        {
          "indexed": true,
          "internalType": "bytes32",
          "name": "previousAdminRole",
          "type": "bytes32"
        },
        {
          "indexed": true,
          "internalType": "bytes32",
          "name": "newAdminRole",
          "type": "bytes32"
        }
      ],
      "name": "RoleAdminChanged",
      "type": "event"
    },
    {
      "anonymous": false,
      "inputs": [
        {
          "indexed": true,
          "internalType": "bytes32",
          "name": "role",
          "type": "bytes32"
        },
        {
          "indexed": true,
          "internalType": "address",
          "name": "account",
          "type": "address"
        },
        {
          "indexed": true,
          "internalType": "address",
          "name": "sender",
          "type": "address"
        }
      ],
      "name": "RoleGranted",
      "type": "event"
    },
    {
      "anonymous": false,
      "inputs": [
        {
          "indexed": true,
          "internalType": "bytes32",
          "name": "role",
          "type": "bytes32"
        },
        {
          "indexed": true,
          "internalType": "address",
          "name": "account",
          "type": "address"
        },
        {
          "indexed": true,
          "internalType": "address",
          "name": "sender",
          "type": "address"
        }
      ],
      "name": "RoleRevoked",
      "type": "event"
    },
    {
      "inputs": [],
      "name": "ADMIN_DELEGATE_ROLE",
      "outputs": [
        {
          "internalType": "bytes32",
          "name": "",
          "type": "bytes32"
        }
      ],
      "stateMutability": "view",
      "type": "function"
    },
    {
      "inputs": [],
      "name": "ADMIN_ROLE",
      "outputs": [
        {
          "internalType": "bytes32",
          "name": "",
          "type": "bytes32"
        }
      ],
      "stateMutability": "view",
      "type": "function"
    },
    {
      "inputs": [],
      "name": "DEFAULT_ADMIN_ROLE",
      "outputs": [
        {
          "internalType": "bytes32",
          "name": "",
          "type": "bytes32"
        }
      ],
      "stateMutability": "view",
      "type": "function"
    },
    {
      "inputs": [],
      "name": "OPERATOR",
      "outputs": [
        {
          "internalType": "bytes32",
          "name": "",
          "type": "bytes32"
        }
      ],
      "stateMutability": "view",
      "type": "function"
    },
    {
      "inputs": [
        {
          "internalType": "address[]",
          "name": "tokens",
          "type": "address[]"
        },
        {
          "internalType": "address[]",
          "name": "oracles",
          "type": "address[]"
        }
      ],
      "name": "addChainlinkOracles",
      "outputs": [],
      "stateMutability": "nonpayable",
      "type": "function"
    },
    {
      "inputs": [],
      "name": "contractName",
      "outputs": [
        {
          "internalType": "string",
          "name": "",
          "type": "string"
        }
      ],
      "stateMutability": "pure",
      "type": "function"
    },
    {
      "inputs": [],
      "name": "contractNameBytes",
      "outputs": [
        {
          "internalType": "bytes32",
          "name": "",
          "type": "bytes32"
        }
      ],
      "stateMutability": "pure",
      "type": "function"
    },
    {
      "inputs": [],
      "name": "contractVersion",
      "outputs": [
        {
          "internalType": "string",
          "name": "",
          "type": "string"
        }
      ],
      "stateMutability": "pure",
      "type": "function"
    },
    {
      "inputs": [],
      "name": "contractVersionBytes",
      "outputs": [
        {
          "internalType": "bytes32",
          "name": "",
          "type": "bytes32"
        }
      ],
      "stateMutability": "pure",
      "type": "function"
    },
    {
      "inputs": [
        {
          "internalType": "address",
          "name": "",
          "type": "address"
        }
      ],
      "name": "decimalsIndex",
      "outputs": [
        {
          "internalType": "int256",
          "name": "",
          "type": "int256"
        }
      ],
      "stateMutability": "view",
      "type": "function"
    },
    {
      "inputs": [
        {
          "internalType": "bytes32",
          "name": "role",
          "type": "bytes32"
        }
      ],
      "name": "getRoleAdmin",
      "outputs": [
        {
          "internalType": "bytes32",
          "name": "",
          "type": "bytes32"
        }
      ],
      "stateMutability": "view",
      "type": "function"
    },
    {
      "inputs": [
        {
          "internalType": "bytes32",
          "name": "role",
          "type": "bytes32"
        },
        {
          "internalType": "uint256",
          "name": "index",
          "type": "uint256"
        }
      ],
      "name": "getRoleMember",
      "outputs": [
        {
          "internalType": "address",
          "name": "",
          "type": "address"
        }
      ],
      "stateMutability": "view",
      "type": "function"
    },
    {
      "inputs": [
        {
          "internalType": "bytes32",
          "name": "role",
          "type": "bytes32"
        }
      ],
      "name": "getRoleMemberCount",
      "outputs": [
        {
          "internalType": "uint256",
          "name": "",
          "type": "uint256"
        }
      ],
      "stateMutability": "view",
      "type": "function"
    },
    {
      "inputs": [
        {
          "internalType": "bytes32",
          "name": "role",
          "type": "bytes32"
        },
        {
          "internalType": "address",
          "name": "account",
          "type": "address"
        }
      ],
      "name": "grantRole",
      "outputs": [],
      "stateMutability": "nonpayable",
      "type": "function"
    },
    {
      "inputs": [
        {
          "internalType": "address",
          "name": "token",
          "type": "address"
        }
      ],
      "name": "hasOracle",
      "outputs": [
        {
          "internalType": "bool",
          "name": "",
          "type": "bool"
        }
      ],
      "stateMutability": "view",
      "type": "function"
    },
    {
      "inputs": [
        {
          "internalType": "bytes32",
          "name": "role",
          "type": "bytes32"
        },
        {
          "internalType": "address",
          "name": "account",
          "type": "address"
        }
      ],
      "name": "hasRole",
      "outputs": [
        {
          "internalType": "bool",
          "name": "",
          "type": "bool"
        }
      ],
      "stateMutability": "view",
      "type": "function"
    },
    {
      "inputs": [
        {
          "internalType": "address",
          "name": "sender",
          "type": "address"
        }
      ],
      "name": "isAdmin",
      "outputs": [
        {
          "internalType": "bool",
          "name": "",
          "type": "bool"
        }
      ],
      "stateMutability": "view",
      "type": "function"
    },
    {
      "inputs": [
        {
          "internalType": "address",
          "name": "sender",
          "type": "address"
        }
      ],
      "name": "isOperator",
      "outputs": [
        {
          "internalType": "bool",
          "name": "",
          "type": "bool"
        }
      ],
      "stateMutability": "view",
      "type": "function"
    },
    {
      "inputs": [
        {
          "internalType": "address",
          "name": "",
          "type": "address"
        }
      ],
      "name": "oraclesIndex",
      "outputs": [
        {
          "internalType": "address",
          "name": "",
          "type": "address"
        }
      ],
      "stateMutability": "view",
      "type": "function"
    },
    {
      "inputs": [
        {
          "internalType": "address",
          "name": "token0",
          "type": "address"
        },
        {
          "internalType": "address",
          "name": "token1",
          "type": "address"
        },
        {
          "internalType": "uint256",
          "name": "safetyIndicesSet",
          "type": "uint256"
        }
      ],
      "name": "priceX96",
      "outputs": [
        {
          "internalType": "uint256[]",
          "name": "pricesX96",
          "type": "uint256[]"
        },
        {
          "internalType": "uint256[]",
          "name": "safetyIndices",
          "type": "uint256[]"
        }
      ],
      "stateMutability": "view",
      "type": "function"
    },
    {
      "inputs": [
        {
          "internalType": "bytes32",
          "name": "role",
          "type": "bytes32"
        },
        {
          "internalType": "address",
          "name": "account",
          "type": "address"
        }
      ],
      "name": "renounceRole",
      "outputs": [],
      "stateMutability": "nonpayable",
      "type": "function"
    },
    {
      "inputs": [
        {
          "internalType": "bytes32",
          "name": "role",
          "type": "bytes32"
        },
        {
          "internalType": "address",
          "name": "account",
          "type": "address"
        }
      ],
      "name": "revokeRole",
      "outputs": [],
      "stateMutability": "nonpayable",
      "type": "function"
    },
    {
      "inputs": [],
      "name": "safetyIndex",
      "outputs": [
        {
          "internalType": "uint8",
          "name": "",
          "type": "uint8"
        }
      ],
      "stateMutability": "view",
      "type": "function"
    },
    {
      "inputs": [],
      "name": "supportedTokens",
      "outputs": [
        {
          "internalType": "address[]",
          "name": "",
          "type": "address[]"
        }
      ],
      "stateMutability": "view",
      "type": "function"
    },
    {
      "inputs": [
        {
          "internalType": "bytes4",
          "name": "interfaceId",
          "type": "bytes4"
        }
      ],
      "name": "supportsInterface",
      "outputs": [
        {
          "internalType": "bool",
          "name": "",
          "type": "bool"
        }
      ],
      "stateMutability": "view",
      "type": "function"
    }
  ],
  "transactionHash": "0x6539befa2dcc573c2fad7a4185488051298e8b69c8ab966a7440ba729469b279",
  "args": [
    [
      "0xC02aaA39b223FE8D0A0e5C4F27eAD9083C756Cc2",
      "0x2260FAC5E5542a773Aa44fBCfeDf7C193bc2C599",
      "0xA0b86991c6218b36c1d19D4a2e9Eb0cE3606eB48"
    ],
    [
      "0x5f4eC3Df9cbd43714FE2740f5E3616155c5b8419",
      "0xF4030086522a5bEEa4988F8cA5B36dbC97BeE88c",
      "0x8fFfFfd4AfB6115b954Bd326cbe7B4BA576818f6"
    ],
    "0x565766498604676D9916D4838455Cc5fED24a5B3"
  ],
  "solcInputHash": "1d49726b754ac7f6cccc3c78633d62a4",
  "bytecode": "0x60806040523480156200001157600080fd5b50604051620021af380380620021af833981016040819052620000349162000641565b60408051808201909152600281526120ad60f11b602082015281906001600160a01b038216620000825760405162461bcd60e51b8152600401620000799190620006bd565b60405180910390fd5b506200009e6000805160206200218f8339815191528262000160565b620000b96000805160206200216f8339815191528262000160565b620000d46000805160206200216f8339815191528062000170565b6200010f7fc171260023d22a25a00a2789664c9334017843b831138c8ef03cc8897e5873d76000805160206200216f83398151915262000170565b6200014a6000805160206200218f8339815191527fc171260023d22a25a00a2789664c9334017843b831138c8ef03cc8897e5873d762000170565b50620001578383620001bb565b5050506200086d565b6200016c82826200040c565b5050565b600082815260208190526040808220600101805490849055905190918391839186917fbd79b86ffe0ab8e8776151514217cd7cacd52c909f66475c3af44e129f0b00ff9190a4505050565b80518251146040518060400160405280600381526020016224a72b60e91b81525090620001fd5760405162461bcd60e51b8152600401620000799190620006bd565b5060005b8251811015620003c757600083828151811062000222576200022262000715565b60200260200101519050600083838151811062000243576200024362000715565b60200260200101519050620002688260046200044f60201b620007fd1790919060201c565b506001600160a01b0382811660009081526002602090815260409182902080546001600160a01b0319169385169384179055815163313ce56760e01b8152915163313ce567926004808201939291829003018186803b158015620002cb57600080fd5b505afa158015620002e0573d6000803e3d6000fd5b505050506040513d601f19601f820116820180604052508101906200030691906200072b565b826001600160a01b031663313ce5676040518163ffffffff1660e01b815260040160206040518083038186803b1580156200034057600080fd5b505afa15801562000355573d6000803e3d6000fd5b505050506040513d601f19601f820116820180604052508101906200037b91906200072b565b62000386906200076d565b62000392919062000790565b6001600160a01b03909216600090815260036020526040812092900b9091555080620003be81620007d7565b91505062000201565b50604051339032907fc1d6555f528e5483cb7c175a6c6b660c26c2a340b459268be1ae26c659c0e7b5906200040090869086906200083b565b60405180910390a35050565b6200042382826200046f60201b620008121760201c565b60008281526001602090815260409091206200044a918390620007fd6200044f821b17901c565b505050565b600062000466836001600160a01b0384166200050f565b90505b92915050565b6000828152602081815260408083206001600160a01b038516845290915290205460ff166200016c576000828152602081815260408083206001600160a01b03851684529091529020805460ff19166001179055620004cb3390565b6001600160a01b0316816001600160a01b0316837f2f8788117e7eff1d82e926ec794901d17c78024a50270940304540a733656f0d60405160405180910390a45050565b6000818152600183016020526040812054620005585750815460018181018455600084815260208082209093018490558454848252828601909352604090209190915562000469565b50600062000469565b634e487b7160e01b600052604160045260246000fd5b80516001600160a01b03811681146200058f57600080fd5b919050565b600082601f830112620005a657600080fd5b815160206001600160401b0380831115620005c557620005c562000561565b8260051b604051601f19603f83011681018181108482111715620005ed57620005ed62000561565b6040529384528581018301938381019250878511156200060c57600080fd5b83870191505b848210156200063657620006268262000577565b8352918301919083019062000612565b979650505050505050565b6000806000606084860312156200065757600080fd5b83516001600160401b03808211156200066f57600080fd5b6200067d8783880162000594565b945060208601519150808211156200069457600080fd5b50620006a38682870162000594565b925050620006b46040850162000577565b90509250925092565b600060208083528351808285015260005b81811015620006ec57858101830151858201604001528201620006ce565b81811115620006ff576000604083870101525b50601f01601f1916929092016040019392505050565b634e487b7160e01b600052603260045260246000fd5b6000602082840312156200073e57600080fd5b815160ff811681146200075057600080fd5b9392505050565b634e487b7160e01b600052601160045260246000fd5b600081810b607f1981141562000787576200078762000757565b60000392915050565b600081810b83820b8281128015607f19830184121615620007b557620007b562000757565b81607f018313811615620007cd57620007cd62000757565b5090039392505050565b6000600019821415620007ee57620007ee62000757565b5060010190565b600081518084526020808501945080840160005b83811015620008305781516001600160a01b03168752958201959082019060010162000809565b509495945050505050565b604081526000620008506040830185620007f5565b8281036020840152620008648185620007f5565b95945050505050565b6118f2806200087d6000396000f3fe608060405234801561001057600080fd5b50600436106101735760003560e01c80636d80125b116100de578063a0a8e46011610097578063ca15c87311610071578063ca15c873146103ab578063d547741f146103be578063d892a360146103d1578063e312650b146103e457600080fd5b8063a0a8e46014610386578063a217fddf1461038e578063b002249d1461039657600080fd5b80636d80125b146102dc57806375b238fc146102fd57806375d0c0dc146103245780639010d07c1461033957806391d148541461034c578063983d27371461035f57600080fd5b80631e64e43a116101305780631e64e43a1461024b578063248a9ca31461026b57806324d7806c1461028e5780632f2ff15d146102a157806336568abe146102b65780636d70f7ae146102c957600080fd5b806301ffc9a71461017857806303d14012146101a057806306a46239146101e15780630952ff54146101f95780630e3e80ac14610220578063180c930914610238575b600080fd5b61018b61018636600461120b565b6103fe565b60405190151581526020015b60405180910390f35b6101c96101ae366004611251565b6002602052600090815260409020546001600160a01b031681565b6040516001600160a01b039091168152602001610197565b640312e302e360dc1b5b604051908152602001610197565b6101eb7fc171260023d22a25a00a2789664c9334017843b831138c8ef03cc8897e5873d781565b6e436861696e6c696e6b4f7261636c6560881b6101eb565b61018b610246366004611251565b61042f565b6101eb610259366004611251565b60036020526000908152604090205481565b6101eb61027936600461126c565b60009081526020819052604090206001015490565b61018b61029c366004611251565b61043c565b6102b46102af366004611285565b610498565b005b6102b46102c4366004611285565b6104c3565b61018b6102d7366004611251565b610546565b6102ef6102ea3660046112b1565b610572565b604051610197929190611328565b6101eb7ff23ec0bb4210edd5cba85afd05127efcd2fc6a781bfed49188da1081670b22d881565b61032c61072a565b6040516101979190611386565b6101c96103473660046113b9565b610747565b61018b61035a366004611285565b610766565b6101eb7f46a52cf33029de9f84853745a87af28464c80bf0346df1b32e205fc73319f62281565b61032c61078f565b6101eb600081565b61039e6107a2565b6040516101979190611414565b6101eb6103b936600461126c565b6107ae565b6102b46103cc366004611285565b6107c5565b6102b46103df3660046114df565b6107eb565b6103ec600581565b60405160ff9091168152602001610197565b600061040982610896565b8061042457506001600160e01b03198216638e3bd5d760e01b145b92915050565b905090565b60006104246004836108bb565b60006104687ff23ec0bb4210edd5cba85afd05127efcd2fc6a781bfed49188da1081670b22d883610766565b8061042457506104247fc171260023d22a25a00a2789664c9334017843b831138c8ef03cc8897e5873d783610766565b6000828152602081905260409020600101546104b481336108dd565b6104be8383610941565b505050565b6001600160a01b03811633146105385760405162461bcd60e51b815260206004820152602f60248201527f416363657373436f6e74726f6c3a2063616e206f6e6c792072656e6f756e636560448201526e103937b632b9903337b91039b2b63360891b60648201526084015b60405180910390fd5b6105428282610963565b5050565b60006104247f46a52cf33029de9f84853745a87af28464c80bf0346df1b32e205fc73319f62283610766565b6060806001600584901c81161461058857610722565b6001600160a01b0380861660009081526002602052604080822054878416835291205490821691168115806105c457506001600160a01b038116155b156105d0575050610722565b60008060006105de85610985565b93509050806105f1575050505050610722565b6105fa84610985565b925090508061060d575050505050610722565b6001600160a01b03808b1660009081526003602052604080822054928c1682529020548181131561065e576106428282611559565b61064d90600a61167c565b6106579085611688565b9350610688565b80821315610688576106708183611559565b61067b90600a61167c565b6106859086611688565b94505b60408051600180825281830190925290602080830190803683375050604080516001808252818301909252929b509050602080830190803683370190505097506106d785600160601b86610a41565b896000815181106106ea576106ea6116a7565b602002602001018181525050600560ff168860008151811061070e5761070e6116a7565b602002602001018181525050505050505050505b935093915050565b606061042a6e436861696e6c696e6b4f7261636c6560881b610af4565b600082815260016020526040812061075f9083610b60565b9392505050565b6000918252602082815260408084206001600160a01b0393909316845291905290205460ff1690565b606061042a640312e302e360dc1b610af4565b606061042a6004610b6c565b600081815260016020526040812061042490610b79565b6000828152602081905260409020600101546107e181336108dd565b6104be8383610963565b6107f3610b83565b6105428282610bc9565b600061075f836001600160a01b038416610df8565b61081c8282610766565b610542576000828152602081815260408083206001600160a01b03851684529091529020805460ff191660011790556108523390565b6001600160a01b0316816001600160a01b0316837f2f8788117e7eff1d82e926ec794901d17c78024a50270940304540a733656f0d60405160405180910390a45050565b60006001600160e01b03198216635a05180f60e01b1480610424575061042482610e47565b6001600160a01b0381166000908152600183016020526040812054151561075f565b6108e78282610766565b610542576108ff816001600160a01b03166014610e7c565b61090a836020610e7c565b60405160200161091b9291906116bd565b60408051601f198184030181529082905262461bcd60e51b825261052f91600401611386565b61094b8282610812565b60008281526001602052604090206104be90826107fd565b61096d8282611018565b60008281526001602052604090206104be908261107d565b600080826001600160a01b031663feaf968c6040518163ffffffff1660e01b815260040160a06040518083038186803b1580156109c157600080fd5b505afa9250505080156109f1575060408051601f3d908101601f191682019092526109ee9181019061174c565b60015b610a31573d808015610a1f576040519150601f19603f3d011682016040523d82523d6000602084013e610a24565b606091505b5060009485945092505050565b5060019792965091945050505050565b600080806000198587098587029250828110838203039150508060001415610a7b5760008411610a7057600080fd5b50829004905061075f565b808411610a8757600080fd5b6000848688096000868103871696879004966002600389028118808a02820302808a02820302808a02820302808a02820302808a02820302808a02909103029181900381900460010186841190950394909402919094039290920491909117919091029150509392505050565b604080516020808252818301909252606091602082018180368337019050509050602060005b6020811015610b5257838160208110610b3557610b356116a7565b1a610b4257809150610b52565b610b4b8161179c565b9050610b1a565b508152602081019190915290565b600061075f8383611092565b6060600061075f836110bc565b6000610424825490565b610b8c3361043c565b6040518060400160405280600381526020016223292160e91b81525090610bc65760405162461bcd60e51b815260040161052f9190611386565b50565b80518251146040518060400160405280600381526020016224a72b60e91b81525090610c085760405162461bcd60e51b815260040161052f9190611386565b5060005b8251811015610db5576000838281518110610c2957610c296116a7565b602002602001015190506000838381518110610c4757610c476116a7565b60200260200101519050610c658260046107fd90919063ffffffff16565b506001600160a01b0382811660009081526002602090815260409182902080546001600160a01b0319169385169384179055815163313ce56760e01b8152915163313ce567926004808201939291829003018186803b158015610cc757600080fd5b505afa158015610cdb573d6000803e3d6000fd5b505050506040513d601f19601f82011682018060405250810190610cff91906117b7565b826001600160a01b031663313ce5676040518163ffffffff1660e01b815260040160206040518083038186803b158015610d3857600080fd5b505afa158015610d4c573d6000803e3d6000fd5b505050506040513d601f19601f82011682018060405250810190610d7091906117b7565b610d79906117da565b610d8391906117fa565b6001600160a01b03909216600090815260036020526040812092900b9091555080610dad8161179c565b915050610c0c565b50604051339032907fc1d6555f528e5483cb7c175a6c6b660c26c2a340b459268be1ae26c659c0e7b590610dec908690869061183b565b60405180910390a35050565b6000818152600183016020526040812054610e3f57508154600181810184556000848152602080822090930184905584548482528286019093526040902091909155610424565b506000610424565b60006001600160e01b03198216637965db0b60e01b148061042457506301ffc9a760e01b6001600160e01b0319831614610424565b60606000610e8b836002611688565b610e96906002611860565b67ffffffffffffffff811115610eae57610eae611427565b6040519080825280601f01601f191660200182016040528015610ed8576020820181803683370190505b509050600360fc1b81600081518110610ef357610ef36116a7565b60200101906001600160f81b031916908160001a905350600f60fb1b81600181518110610f2257610f226116a7565b60200101906001600160f81b031916908160001a9053506000610f46846002611688565b610f51906001611860565b90505b6001811115610fc9576f181899199a1a9b1b9c1cb0b131b232b360811b85600f1660108110610f8557610f856116a7565b1a60f81b828281518110610f9b57610f9b6116a7565b60200101906001600160f81b031916908160001a90535060049490941c93610fc281611878565b9050610f54565b50831561075f5760405162461bcd60e51b815260206004820181905260248201527f537472696e67733a20686578206c656e67746820696e73756666696369656e74604482015260640161052f565b6110228282610766565b15610542576000828152602081815260408083206001600160a01b0385168085529252808320805460ff1916905551339285917ff6391f5c32d9c69d2a47ea670b442974b53935d1edc7fd64eb21e047a839171b9190a45050565b600061075f836001600160a01b038416611118565b60008260000182815481106110a9576110a96116a7565b9060005260206000200154905092915050565b60608160000180548060200260200160405190810160405280929190818152602001828054801561110c57602002820191906000526020600020905b8154815260200190600101908083116110f8575b50505050509050919050565b6000818152600183016020526040812054801561120157600061113c60018361188f565b85549091506000906111509060019061188f565b90508181146111b5576000866000018281548110611170576111706116a7565b9060005260206000200154905080876000018481548110611193576111936116a7565b6000918252602080832090910192909255918252600188019052604090208390555b85548690806111c6576111c66118a6565b600190038181906000526020600020016000905590558560010160008681526020019081526020016000206000905560019350505050610424565b6000915050610424565b60006020828403121561121d57600080fd5b81356001600160e01b03198116811461075f57600080fd5b80356001600160a01b038116811461124c57600080fd5b919050565b60006020828403121561126357600080fd5b61075f82611235565b60006020828403121561127e57600080fd5b5035919050565b6000806040838503121561129857600080fd5b823591506112a860208401611235565b90509250929050565b6000806000606084860312156112c657600080fd5b6112cf84611235565b92506112dd60208501611235565b9150604084013590509250925092565b600081518084526020808501945080840160005b8381101561131d57815187529582019590820190600101611301565b509495945050505050565b60408152600061133b60408301856112ed565b828103602084015261134d81856112ed565b95945050505050565b60005b83811015611371578181015183820152602001611359565b83811115611380576000848401525b50505050565b60208152600082518060208401526113a5816040850160208701611356565b601f01601f19169190910160400192915050565b600080604083850312156113cc57600080fd5b50508035926020909101359150565b600081518084526020808501945080840160005b8381101561131d5781516001600160a01b0316875295820195908201906001016113ef565b60208152600061075f60208301846113db565b634e487b7160e01b600052604160045260246000fd5b600082601f83011261144e57600080fd5b8135602067ffffffffffffffff8083111561146b5761146b611427565b8260051b604051601f19603f8301168101818110848211171561149057611490611427565b6040529384528581018301938381019250878511156114ae57600080fd5b83870191505b848210156114d4576114c582611235565b835291830191908301906114b4565b979650505050505050565b600080604083850312156114f257600080fd5b823567ffffffffffffffff8082111561150a57600080fd5b6115168683870161143d565b9350602085013591508082111561152c57600080fd5b506115398582860161143d565b9150509250929050565b634e487b7160e01b600052601160045260246000fd5b60008083128015600160ff1b85018412161561157757611577611543565b6001600160ff1b038401831381161561159257611592611543565b50500390565b600181815b808511156115d35781600019048211156115b9576115b9611543565b808516156115c657918102915b93841c939080029061159d565b509250929050565b6000826115ea57506001610424565b816115f757506000610424565b816001811461160d576002811461161757611633565b6001915050610424565b60ff84111561162857611628611543565b50506001821b610424565b5060208310610133831016604e8410600b8410161715611656575081810a610424565b6116608383611598565b806000190482111561167457611674611543565b029392505050565b600061075f83836115db565b60008160001904831182151516156116a2576116a2611543565b500290565b634e487b7160e01b600052603260045260246000fd5b7f416363657373436f6e74726f6c3a206163636f756e74200000000000000000008152600083516116f5816017850160208801611356565b7001034b99036b4b9b9b4b733903937b6329607d1b6017918401918201528351611726816028840160208801611356565b01602801949350505050565b805169ffffffffffffffffffff8116811461124c57600080fd5b600080600080600060a0868803121561176457600080fd5b61176d86611732565b945060208601519350604086015192506060860151915061179060808701611732565b90509295509295909350565b60006000198214156117b0576117b0611543565b5060010190565b6000602082840312156117c957600080fd5b815160ff8116811461075f57600080fd5b600081810b607f198114156117f1576117f1611543565b60000392915050565b600081810b83820b8281128015607f1983018412161561181c5761181c611543565b81607f01831381161561183157611831611543565b5090039392505050565b60408152600061184e60408301856113db565b828103602084015261134d81856113db565b6000821982111561187357611873611543565b500190565b60008161188757611887611543565b506000190190565b6000828210156118a1576118a1611543565b500390565b634e487b7160e01b600052603160045260246000fdfea2646970667358221220bbc454f0c5a006478c16045129f8457522d3da02e57a12ed1b4cdd97aa7c6a2d64736f6c63430008090033f23ec0bb4210edd5cba85afd05127efcd2fc6a781bfed49188da1081670b22d846a52cf33029de9f84853745a87af28464c80bf0346df1b32e205fc73319f622",
  "devdoc": {
    "events": {
      "OraclesAdded(address,address,address[],address[])": {
        "params": {
          "oracles": "Orecles added for the tokens",
          "origin": "Origin of the transaction (tx.origin)",
          "sender": "Sender of the call (msg.sender)",
          "tokens": "Tokens added"
        }
      }
    },
    "kind": "dev",
    "methods": {
      "addChainlinkOracles(address[],address[])": {
        "params": {
          "oracles": "Chainlink oracle price feeds (token / USD)",
          "tokens": "ERC20 tokens for the feed"
        }
      },
      "getRoleAdmin(bytes32)": {
        "details": "Returns the admin role that controls `role`. See {grantRole} and {revokeRole}. To change a role's admin, use {_setRoleAdmin}."
      },
      "getRoleMember(bytes32,uint256)": {
        "details": "Returns one of the accounts that have `role`. `index` must be a value between 0 and {getRoleMemberCount}, non-inclusive. Role bearers are not sorted in any particular way, and their ordering may change at any point. WARNING: When using {getRoleMember} and {getRoleMemberCount}, make sure you perform all queries on the same block. See the following https://forum.openzeppelin.com/t/iterating-over-elements-on-enumerableset-in-openzeppelin-contracts/2296[forum post] for more information."
      },
      "getRoleMemberCount(bytes32)": {
        "details": "Returns the number of accounts that have `role`. Can be used together with {getRoleMember} to enumerate all bearers of a role."
      },
      "grantRole(bytes32,address)": {
        "details": "Grants `role` to `account`. If `account` had not been already granted `role`, emits a {RoleGranted} event. Requirements: - the caller must have ``role``'s admin role."
      },
      "hasOracle(address)": {
        "params": {
          "token": "token address"
        },
        "returns": {
          "_0": "`true` if token is allowed, `false` o/w"
        }
      },
      "hasRole(bytes32,address)": {
        "details": "Returns `true` if `account` has been granted `role`."
      },
      "isAdmin(address)": {
        "params": {
          "sender": "Adddress to check"
        },
        "returns": {
          "_0": "`true` if sender is an admin, `false` otherwise"
        }
      },
      "isOperator(address)": {
        "params": {
          "sender": "Adddress to check"
        },
        "returns": {
          "_0": "`true` if sender is an admin, `false` otherwise"
        }
      },
      "priceX96(address,address,uint256)": {
        "details": "The price is token1 / token0 i.e. how many weis of token1 required for 1 wei of token0. The safety indexes are: 1 - unsafe, this is typically a spot price that can be easily manipulated, 2 - 4 - more or less safe, this is typically a uniV3 oracle, where the safety is defined by the timespan of the average price 5 - safe - this is typically a chailink oracle",
        "params": {
          "safetyIndicesSet": "Bitmask of safety indices that are allowed for the return prices. For set of safety indexes = { 1 }, safetyIndicesSet = 0x2",
          "token0": "Reference to token0",
          "token1": "Reference to token1"
        },
        "returns": {
          "pricesX96": "Prices that satisfy safetyIndex and tokens",
          "safetyIndices": "Safety indices for those prices"
        }
      },
      "renounceRole(bytes32,address)": {
        "details": "Revokes `role` from the calling account. Roles are often managed via {grantRole} and {revokeRole}: this function's purpose is to provide a mechanism for accounts to lose their privileges if they are compromised (such as when a trusted device is misplaced). If the calling account had been revoked `role`, emits a {RoleRevoked} event. Requirements: - the caller must be `account`."
      },
      "revokeRole(bytes32,address)": {
        "details": "Revokes `role` from `account`. If `account` had been granted `role`, emits a {RoleRevoked} event. Requirements: - the caller must have ``role``'s admin role."
      },
      "supportsInterface(bytes4)": {
        "details": "Returns true if this contract implements the interface defined by `interfaceId`. See the corresponding https://eips.ethereum.org/EIPS/eip-165#how-interfaces-are-identified[EIP section] to learn more about how these ids are created. This function call must use less than 30 000 gas."
      }
    },
    "stateVariables": {
      "decimalsIndex": {
        "params": {
          "token": "The address of the ERC20 token"
        },
        "return": "Negative sum of decimals of token and chainlink oracle data for this token",
        "returns": {
          "_0": "Negative sum of decimals of token and chainlink oracle data for this token"
        }
      },
      "oraclesIndex": {
        "params": {
          "token": "The address of the ERC20 token"
        },
        "return": "Address of the chainlink oracle",
        "returns": {
          "_0": "Address of the chainlink oracle"
        }
      }
    },
    "version": 1
  },
  "userdoc": {
    "events": {
      "OraclesAdded(address,address,address[],address[])": {
        "notice": "Emitted when new Chainlink oracle is added"
      }
    },
    "kind": "user",
    "methods": {
      "addChainlinkOracles(address[],address[])": {
        "notice": "Add a Chainlink price feed for a token"
      },
      "decimalsIndex(address)": {
        "notice": "Negative sum of decimals of token and chainlink oracle data for this token"
      },
      "hasOracle(address)": {
        "notice": "Checks if token has chainlink oracle"
      },
      "isAdmin(address)": {
        "notice": "Checks if the address is ADMIN or ADMIN_DELEGATE."
      },
      "isOperator(address)": {
        "notice": "Checks if the address is OPERATOR."
      },
      "oraclesIndex(address)": {
        "notice": "Chainlink oracle for a ERC20 token"
      },
      "priceX96(address,address,uint256)": {
        "notice": "Oracle price for tokens as a Q64.96 value.Returns pricing information based on the indexes of non-zero bits in safetyIndicesSet.It is possible that not all indices will have their respective prices returned."
      },
      "safetyIndex()": {
        "notice": "Index of safety bit"
      },
      "supportedTokens()": {
        "notice": "A list of supported tokens"
      }
    },
    "notice": "Contract for getting chainlink data",
    "version": 1
  },
  "storageLayout": {
    "storage": [
      {
        "astId": 24,
        "contract": "contracts/oracles/ChainlinkOracle.sol:ChainlinkOracle",
        "label": "_roles",
        "offset": 0,
        "slot": "0",
        "type": "t_mapping(t_bytes32,t_struct(RoleData)19_storage)"
      },
      {
        "astId": 327,
        "contract": "contracts/oracles/ChainlinkOracle.sol:ChainlinkOracle",
        "label": "_roleMembers",
        "offset": 0,
        "slot": "1",
        "type": "t_mapping(t_bytes32,t_struct(AddressSet)3824_storage)"
      },
      {
        "astId": 12582,
        "contract": "contracts/oracles/ChainlinkOracle.sol:ChainlinkOracle",
        "label": "oraclesIndex",
        "offset": 0,
        "slot": "2",
        "type": "t_mapping(t_address,t_address)"
      },
      {
        "astId": 12587,
        "contract": "contracts/oracles/ChainlinkOracle.sol:ChainlinkOracle",
        "label": "decimalsIndex",
        "offset": 0,
        "slot": "3",
        "type": "t_mapping(t_address,t_int256)"
      },
      {
        "astId": 12590,
        "contract": "contracts/oracles/ChainlinkOracle.sol:ChainlinkOracle",
        "label": "_tokens",
        "offset": 0,
        "slot": "4",
        "type": "t_struct(AddressSet)3824_storage"
      }
    ],
    "types": {
      "t_address": {
        "encoding": "inplace",
        "label": "address",
        "numberOfBytes": "20"
      },
      "t_array(t_bytes32)dyn_storage": {
        "base": "t_bytes32",
        "encoding": "dynamic_array",
        "label": "bytes32[]",
        "numberOfBytes": "32"
      },
      "t_bool": {
        "encoding": "inplace",
        "label": "bool",
        "numberOfBytes": "1"
      },
      "t_bytes32": {
        "encoding": "inplace",
        "label": "bytes32",
        "numberOfBytes": "32"
      },
      "t_int256": {
        "encoding": "inplace",
        "label": "int256",
        "numberOfBytes": "32"
      },
      "t_mapping(t_address,t_address)": {
        "encoding": "mapping",
        "key": "t_address",
        "label": "mapping(address => address)",
        "numberOfBytes": "32",
        "value": "t_address"
      },
      "t_mapping(t_address,t_bool)": {
        "encoding": "mapping",
        "key": "t_address",
        "label": "mapping(address => bool)",
        "numberOfBytes": "32",
        "value": "t_bool"
      },
      "t_mapping(t_address,t_int256)": {
        "encoding": "mapping",
        "key": "t_address",
        "label": "mapping(address => int256)",
        "numberOfBytes": "32",
        "value": "t_int256"
      },
      "t_mapping(t_bytes32,t_struct(AddressSet)3824_storage)": {
        "encoding": "mapping",
        "key": "t_bytes32",
        "label": "mapping(bytes32 => struct EnumerableSet.AddressSet)",
        "numberOfBytes": "32",
        "value": "t_struct(AddressSet)3824_storage"
      },
      "t_mapping(t_bytes32,t_struct(RoleData)19_storage)": {
        "encoding": "mapping",
        "key": "t_bytes32",
        "label": "mapping(bytes32 => struct AccessControl.RoleData)",
        "numberOfBytes": "32",
        "value": "t_struct(RoleData)19_storage"
      },
      "t_mapping(t_bytes32,t_uint256)": {
        "encoding": "mapping",
        "key": "t_bytes32",
        "label": "mapping(bytes32 => uint256)",
        "numberOfBytes": "32",
        "value": "t_uint256"
      },
      "t_struct(AddressSet)3824_storage": {
        "encoding": "inplace",
        "label": "struct EnumerableSet.AddressSet",
        "members": [
          {
            "astId": 3823,
            "contract": "contracts/oracles/ChainlinkOracle.sol:ChainlinkOracle",
            "label": "_inner",
            "offset": 0,
            "slot": "0",
            "type": "t_struct(Set)3523_storage"
          }
        ],
        "numberOfBytes": "64"
      },
      "t_struct(RoleData)19_storage": {
        "encoding": "inplace",
        "label": "struct AccessControl.RoleData",
        "members": [
          {
            "astId": 16,
            "contract": "contracts/oracles/ChainlinkOracle.sol:ChainlinkOracle",
            "label": "members",
            "offset": 0,
            "slot": "0",
            "type": "t_mapping(t_address,t_bool)"
          },
          {
            "astId": 18,
            "contract": "contracts/oracles/ChainlinkOracle.sol:ChainlinkOracle",
            "label": "adminRole",
            "offset": 0,
            "slot": "1",
            "type": "t_bytes32"
          }
        ],
        "numberOfBytes": "64"
      },
      "t_struct(Set)3523_storage": {
        "encoding": "inplace",
        "label": "struct EnumerableSet.Set",
        "members": [
          {
            "astId": 3518,
            "contract": "contracts/oracles/ChainlinkOracle.sol:ChainlinkOracle",
            "label": "_values",
            "offset": 0,
            "slot": "0",
            "type": "t_array(t_bytes32)dyn_storage"
          },
          {
            "astId": 3522,
            "contract": "contracts/oracles/ChainlinkOracle.sol:ChainlinkOracle",
            "label": "_indexes",
            "offset": 0,
            "slot": "1",
            "type": "t_mapping(t_bytes32,t_uint256)"
          }
        ],
        "numberOfBytes": "64"
      },
      "t_uint256": {
        "encoding": "inplace",
        "label": "uint256",
        "numberOfBytes": "32"
      }
    }
  }
}