{
  "address": "0xf7A19974dC36E1Ad9A74e967B0Bc9B24e0f4C4b3",
  "abi": [
    {
      "inputs": [
        {
          "internalType": "contract IProtocolGovernance",
          "name": "protocolGovernance_",
          "type": "address"
        }
      ],
      "stateMutability": "nonpayable",
      "type": "constructor"
    },
    {
      "anonymous": false,
      "inputs": [
        {
          "indexed": true,
          "internalType": "address",
          "name": "origin",
          "type": "address"
        },
        {
          "indexed": true,
          "internalType": "address",
          "name": "sender",
          "type": "address"
        },
        {
          "components": [
            {
              "internalType": "contract IProtocolGovernance",
              "name": "protocolGovernance",
              "type": "address"
            }
          ],
          "indexed": false,
          "internalType": "struct IBaseValidator.ValidatorParams",
          "name": "params",
          "type": "tuple"
        }
      ],
      "name": "CommittedValidatorParams",
      "type": "event"
    },
    {
      "anonymous": false,
      "inputs": [
        {
          "indexed": true,
          "internalType": "address",
          "name": "origin",
          "type": "address"
        },
        {
          "indexed": true,
          "internalType": "address",
          "name": "sender",
          "type": "address"
        },
        {
          "components": [
            {
              "internalType": "contract IProtocolGovernance",
              "name": "protocolGovernance",
              "type": "address"
            }
          ],
          "indexed": false,
          "internalType": "struct IBaseValidator.ValidatorParams",
          "name": "newParams",
          "type": "tuple"
        },
        {
          "indexed": false,
          "internalType": "uint256",
          "name": "when",
          "type": "uint256"
        }
      ],
      "name": "StagedValidatorParams",
      "type": "event"
    },
    {
      "inputs": [],
      "name": "APPROVE_SELECTOR",
      "outputs": [
        {
          "internalType": "bytes4",
          "name": "",
          "type": "bytes4"
        }
      ],
      "stateMutability": "view",
      "type": "function"
    },
    {
      "inputs": [],
      "name": "commitValidatorParams",
      "outputs": [],
      "stateMutability": "nonpayable",
      "type": "function"
    },
    {
      "inputs": [],
      "name": "contractName",
      "outputs": [
        {
          "internalType": "string",
          "name": "",
          "type": "string"
        }
      ],
      "stateMutability": "pure",
      "type": "function"
    },
    {
      "inputs": [],
      "name": "contractNameBytes",
      "outputs": [
        {
          "internalType": "bytes32",
          "name": "",
          "type": "bytes32"
        }
      ],
      "stateMutability": "pure",
      "type": "function"
    },
    {
      "inputs": [],
      "name": "contractVersion",
      "outputs": [
        {
          "internalType": "string",
          "name": "",
          "type": "string"
        }
      ],
      "stateMutability": "pure",
      "type": "function"
    },
    {
      "inputs": [],
      "name": "contractVersionBytes",
      "outputs": [
        {
          "internalType": "bytes32",
          "name": "",
          "type": "bytes32"
        }
      ],
      "stateMutability": "pure",
      "type": "function"
    },
    {
      "inputs": [
        {
          "components": [
            {
              "internalType": "contract IProtocolGovernance",
              "name": "protocolGovernance",
              "type": "address"
            }
          ],
          "internalType": "struct IBaseValidator.ValidatorParams",
          "name": "newParams",
          "type": "tuple"
        }
      ],
      "name": "stageValidatorParams",
      "outputs": [],
      "stateMutability": "nonpayable",
      "type": "function"
    },
    {
      "inputs": [],
      "name": "stagedValidatorParams",
      "outputs": [
        {
          "components": [
            {
              "internalType": "contract IProtocolGovernance",
              "name": "protocolGovernance",
              "type": "address"
            }
          ],
          "internalType": "struct IBaseValidator.ValidatorParams",
          "name": "",
          "type": "tuple"
        }
      ],
      "stateMutability": "view",
      "type": "function"
    },
    {
      "inputs": [],
      "name": "stagedValidatorParamsTimestamp",
      "outputs": [
        {
          "internalType": "uint256",
          "name": "",
          "type": "uint256"
        }
      ],
      "stateMutability": "view",
      "type": "function"
    },
    {
      "inputs": [
        {
          "internalType": "bytes4",
          "name": "interfaceId",
          "type": "bytes4"
        }
      ],
      "name": "supportsInterface",
      "outputs": [
        {
          "internalType": "bool",
          "name": "",
          "type": "bool"
        }
      ],
      "stateMutability": "view",
      "type": "function"
    },
    {
      "inputs": [
        {
          "internalType": "address",
          "name": "sender",
          "type": "address"
        },
        {
          "internalType": "address",
          "name": "addr",
          "type": "address"
        },
        {
          "internalType": "uint256",
          "name": "value",
          "type": "uint256"
        },
        {
          "internalType": "bytes4",
          "name": "selector",
          "type": "bytes4"
        },
        {
          "internalType": "bytes",
          "name": "data",
          "type": "bytes"
        }
      ],
      "name": "validate",
      "outputs": [],
      "stateMutability": "view",
      "type": "function"
    },
    {
      "inputs": [],
      "name": "validatorParams",
      "outputs": [
        {
          "components": [
            {
              "internalType": "contract IProtocolGovernance",
              "name": "protocolGovernance",
              "type": "address"
            }
          ],
          "internalType": "struct IBaseValidator.ValidatorParams",
          "name": "",
          "type": "tuple"
        }
      ],
      "stateMutability": "view",
      "type": "function"
    }
  ],
  "transactionHash": "0x66a841c1977f0a975dad4c52d0ffc53eec22d04f5f84ca01172230820d727947",
  "args": [
    "0xDc9C17662133fB865E7bA3198B67c53a617B2153"
  ],
  "solcInputHash": "1d49726b754ac7f6cccc3c78633d62a4",
  "bytecode": "0x608060405234801561001057600080fd5b50604051610c5a380380610c5a83398101604081905261002f91610061565b60408051602081019091526001600160a01b0390911690819052600080546001600160a01b0319169091179055610091565b60006020828403121561007357600080fd5b81516001600160a01b038116811461008a57600080fd5b9392505050565b610bba806100a06000396000f3fe608060405234801561001057600080fd5b50600436106100b45760003560e01c806357acc3021161007157806357acc3021461016c5780635e585c341461019657806375d0c0dc146101a9578063a0865839146101be578063a0a8e460146101e5578063e6ab042c146101ed57600080fd5b806301ffc9a7146100b957806306a46239146100e15780630768b496146100f95780630e3e80ac1461010157806347c0a4ed146101185780634c39da1b1461012d575b600080fd5b6100cc6100c7366004610941565b6101f5565b60405190151581526020015b60405180910390f35b640312e302e360dc1b5b6040519081526020016100d8565b6002546100eb565b6d22a92199182b30b634b230ba37b960911b6100eb565b61012b610126366004610963565b610231565b005b6040805160208082018352600090915281519081019091526001546001600160a01b031681525b60405190516001600160a01b031681526020016100d8565b60408051602080820183526000918290528251908101909252546001600160a01b03168152610154565b61012b6101a4366004610993565b6103c3565b6101b1610461565b6040516100d89190610a44565b6101cc63095ea7b360e01b81565b6040516001600160e01b031990911681526020016100d8565b6101b161047d565b61012b610490565b60006001600160e01b03198216631796170d60e21b148061022657506301ffc9a760e01b6001600160e01b03198316145b92915050565b905090565b600054604051630935e01b60e21b81523360048201526001600160a01b039091169081906324d7806c9060240160206040518083038186803b15801561027657600080fd5b505afa15801561028a573d6000803e3d6000fd5b505050506040513d601f19601f820116820180604052508101906102ae9190610a99565b6040518060400160405280600381526020016223292160e91b815250906102f15760405162461bcd60e51b81526004016102e89190610a44565b60405180910390fd5b508160016102ff8282610abb565b905050806001600160a01b031663bba329396040518163ffffffff1660e01b815260040160206040518083038186803b15801561033b57600080fd5b505afa15801561034f573d6000803e3d6000fd5b505050506040513d601f19601f820116820180604052508101906103739190610ae4565b61037d9042610b13565b6002819055604051339132917f660ad6a797f71286627569396d4046567822701c6afd27f47d280dee5e2ce181916103b791879190610b2b565b60405180910390a35050565b60408051808201909152600381526224a72b60e91b602082015284156103fc5760405162461bcd60e51b81526004016102e89190610a44565b506001600160e01b0319831663095ea7b360e01b141561042957813561042387878361062d565b50610459565b604080518082018252600480825263494e565360e01b6020830152915162461bcd60e51b81526102e89201610a44565b505050505050565b606061022c6d22a92199182b30b634b230ba37b960911b6108b8565b606061022c640312e302e360dc1b6108b8565b60025460408051808201909152600581526412539594d560da1b6020820152906104cd5760405162461bcd60e51b81526004016102e89190610a44565b50600054604051630935e01b60e21b81523360048201526001600160a01b039091169081906324d7806c9060240160206040518083038186803b15801561051357600080fd5b505afa158015610527573d6000803e3d6000fd5b505050506040513d601f19601f8201168201806040525081019061054b9190610a99565b6040518060400160405280600381526020016223292160e91b815250906105855760405162461bcd60e51b81526004016102e89190610a44565b5060025442101560405180604001604052806002815260200161545360f01b815250906105c55760405162461bcd60e51b81526004016102e89190610a44565b5060018054600080546001600160a01b0383166001600160a01b0319918216811783559216909255600291909155604051908152339032907f15f858bb04b5aa79f0fafddd94b014ab8bf8ceae94724b7074c7b4940be688b49060200160405180910390a350565b6000546040516363e85d2d60e01b81526001600160a01b038481166004830152600260248301529091169081906363e85d2d9060440160206040518083038186803b15801561067b57600080fd5b505afa15801561068f573d6000803e3d6000fd5b505050506040513d601f19601f820116820180604052508101906106b39190610a99565b6106e857604080518082018252600381526223292160e91b6020820152905162461bcd60e51b81526102e89190600401610a44565b6040516363e85d2d60e01b81526001600160a01b0383811660048084019190915260248301528216906363e85d2d9060440160206040518083038186803b15801561073257600080fd5b505afa158015610746573d6000803e3d6000fd5b505050506040513d601f19601f8201168201806040525081019061076a9190610a99565b156107755750505050565b6040516363e85d2d60e01b81526001600160a01b038381166004830152600560248301528216906363e85d2d9060440160206040518083038186803b1580156107bd57600080fd5b505afa1580156107d1573d6000803e3d6000fd5b505050506040513d601f19601f820116820180604052508101906107f59190610a99565b801561087c57506040516363e85d2d60e01b81526001600160a01b038581166004830152600660248301528216906363e85d2d9060440160206040518083038186803b15801561084457600080fd5b505afa158015610858573d6000803e3d6000fd5b505050506040513d601f19601f8201168201806040525081019061087c9190610a99565b156108875750505050565b604080518082018252600381526223292160e91b6020820152905162461bcd60e51b81526102e89190600401610a44565b604080516020808252818301909252606091602082018180368337019050509050602060005b6020811015610916578381602081106108f9576108f9610b53565b1a61090657809150610916565b61090f81610b69565b90506108de565b508152602081019190915290565b80356001600160e01b03198116811461093c57600080fd5b919050565b60006020828403121561095357600080fd5b61095c82610924565b9392505050565b60006020828403121561097557600080fd5b50919050565b6001600160a01b038116811461099057600080fd5b50565b60008060008060008060a087890312156109ac57600080fd5b86356109b78161097b565b955060208701356109c78161097b565b9450604087013593506109dc60608801610924565b9250608087013567ffffffffffffffff808211156109f957600080fd5b818901915089601f830112610a0d57600080fd5b813581811115610a1c57600080fd5b8a6020828501011115610a2e57600080fd5b6020830194508093505050509295509295509295565b600060208083528351808285015260005b81811015610a7157858101830151858201604001528201610a55565b81811115610a83576000604083870101525b50601f01601f1916929092016040019392505050565b600060208284031215610aab57600080fd5b8151801515811461095c57600080fd5b8135610ac68161097b565b81546001600160a01b0319166001600160a01b039190911617905550565b600060208284031215610af657600080fd5b5051919050565b634e487b7160e01b600052601160045260246000fd5b60008219821115610b2657610b26610afd565b500190565b604081018335610b3a8161097b565b6001600160a01b03168252602090910191909152919050565b634e487b7160e01b600052603260045260246000fd5b6000600019821415610b7d57610b7d610afd565b506001019056fea2646970667358221220fd84bd4e9b1d08aa81879cbd70d39f356350a0367dd8ad5c4a9c46815209256264736f6c63430008090033",
  "devdoc": {
    "kind": "dev",
    "methods": {
      "stageValidatorParams((address))": {
        "params": {
          "newParams": "Params to stage"
        }
      },
      "supportsInterface(bytes4)": {
        "details": "Returns true if this contract implements the interface defined by `interfaceId`. See the corresponding https://eips.ethereum.org/EIPS/eip-165#how-interfaces-are-identified[EIP section] to learn more about how these ids are created. This function call must use less than 30 000 gas."
      }
    },
    "version": 1
  },
  "userdoc": {
    "events": {
      "CommittedValidatorParams(address,address,(address))": {
        "notice": "Emitted when new params are staged for commit"
      },
      "StagedValidatorParams(address,address,(address),uint256)": {
        "notice": "Emitted when new params are staged for commit"
      }
    },
    "kind": "user",
    "methods": {
      "commitValidatorParams()": {
        "notice": "Commits staged params"
      },
      "stageValidatorParams((address))": {
        "notice": "Stages params that could have been committed after governance delay expires."
      },
      "stagedValidatorParams()": {
        "notice": "Validator params staged to commit."
      },
      "stagedValidatorParamsTimestamp()": {
        "notice": "Timestamp after which validator params can be committed."
      },
      "validatorParams()": {
        "notice": "Current validator params."
      }
    },
    "version": 1
  },
  "storageLayout": {
    "storage": [
      {
        "astId": 22051,
        "contract": "contracts/validators/ERC20Validator.sol:ERC20Validator",
        "label": "_validatorParams",
        "offset": 0,
        "slot": "0",
        "type": "t_struct(ValidatorParams)9305_storage"
      },
      {
        "astId": 22054,
        "contract": "contracts/validators/ERC20Validator.sol:ERC20Validator",
        "label": "_stagedValidatorParams",
        "offset": 0,
        "slot": "1",
        "type": "t_struct(ValidatorParams)9305_storage"
      },
      {
        "astId": 22056,
        "contract": "contracts/validators/ERC20Validator.sol:ERC20Validator",
        "label": "_stagedValidatorParamsTimestamp",
        "offset": 0,
        "slot": "2",
        "type": "t_uint256"
      }
    ],
    "types": {
      "t_contract(IProtocolGovernance)7075": {
        "encoding": "inplace",
        "label": "contract IProtocolGovernance",
        "numberOfBytes": "20"
      },
      "t_struct(ValidatorParams)9305_storage": {
        "encoding": "inplace",
        "label": "struct IBaseValidator.ValidatorParams",
        "members": [
          {
            "astId": 9304,
            "contract": "contracts/validators/ERC20Validator.sol:ERC20Validator",
            "label": "protocolGovernance",
            "offset": 0,
            "slot": "0",
            "type": "t_contract(IProtocolGovernance)7075"
          }
        ],
        "numberOfBytes": "32"
      },
      "t_uint256": {
        "encoding": "inplace",
        "label": "uint256",
        "numberOfBytes": "32"
      }
    }
  }
}