{
  "address": "0xa8d3DEB21d981e6AC5989B5497C9337432AF4C48",
  "abi": [
    {
      "anonymous": false,
      "inputs": [
        {
          "indexed": true,
          "internalType": "address",
          "name": "origin",
          "type": "address"
        },
        {
          "indexed": true,
          "internalType": "address",
          "name": "sender",
          "type": "address"
        },
        {
          "indexed": false,
          "internalType": "address[]",
          "name": "vaultTokens_",
          "type": "address[]"
        },
        {
          "indexed": false,
          "internalType": "uint256",
          "name": "nft_",
          "type": "uint256"
        }
      ],
      "name": "Initialized",
      "type": "event"
    },
    {
      "anonymous": false,
      "inputs": [
        {
          "indexed": false,
          "internalType": "address",
          "name": "to",
          "type": "address"
        },
        {
          "indexed": false,
          "internalType": "uint256[]",
          "name": "tokenAmounts",
          "type": "uint256[]"
        }
      ],
      "name": "Pull",
      "type": "event"
    },
    {
      "anonymous": false,
      "inputs": [
        {
          "indexed": false,
          "internalType": "uint256[]",
          "name": "tokenAmounts",
          "type": "uint256[]"
        }
      ],
      "name": "Push",
      "type": "event"
    },
    {
      "anonymous": false,
      "inputs": [
        {
          "indexed": false,
          "internalType": "address",
          "name": "to",
          "type": "address"
        },
        {
          "indexed": false,
          "internalType": "address[]",
          "name": "tokens",
          "type": "address[]"
        },
        {
          "indexed": false,
          "internalType": "uint256[]",
          "name": "tokenAmounts",
          "type": "uint256[]"
        }
      ],
      "name": "ReclaimTokens",
      "type": "event"
    },
    {
      "inputs": [
        {
          "internalType": "address",
          "name": "to",
          "type": "address"
        },
        {
          "internalType": "bytes4",
          "name": "selector",
          "type": "bytes4"
        },
        {
          "internalType": "bytes",
          "name": "data",
          "type": "bytes"
        }
      ],
      "name": "externalCall",
      "outputs": [
        {
          "internalType": "bytes",
          "name": "result",
          "type": "bytes"
        }
      ],
      "stateMutability": "payable",
      "type": "function"
    },
    {
      "inputs": [
        {
          "internalType": "uint256",
          "name": "nft_",
          "type": "uint256"
        },
        {
          "internalType": "address[]",
          "name": "vaultTokens_",
          "type": "address[]"
        }
      ],
      "name": "initialize",
      "outputs": [],
      "stateMutability": "nonpayable",
      "type": "function"
    },
    {
      "inputs": [],
      "name": "initialized",
      "outputs": [
        {
          "internalType": "bool",
          "name": "",
          "type": "bool"
        }
      ],
      "stateMutability": "view",
      "type": "function"
    },
    {
      "inputs": [
        {
          "internalType": "bytes32",
          "name": "_hash",
          "type": "bytes32"
        },
        {
          "internalType": "bytes",
          "name": "_signature",
          "type": "bytes"
        }
      ],
      "name": "isValidSignature",
      "outputs": [
        {
          "internalType": "bytes4",
          "name": "magicValue",
          "type": "bytes4"
        }
      ],
      "stateMutability": "view",
      "type": "function"
    },
    {
      "inputs": [
        {
          "internalType": "address",
          "name": "token",
          "type": "address"
        }
      ],
      "name": "isVaultToken",
      "outputs": [
        {
          "internalType": "bool",
          "name": "",
          "type": "bool"
        }
      ],
      "stateMutability": "view",
      "type": "function"
    },
    {
      "inputs": [],
      "name": "nft",
      "outputs": [
        {
          "internalType": "uint256",
          "name": "",
          "type": "uint256"
        }
      ],
      "stateMutability": "view",
      "type": "function"
    },
    {
      "inputs": [
        {
          "internalType": "address",
          "name": "to",
          "type": "address"
        },
        {
          "internalType": "address[]",
          "name": "tokens",
          "type": "address[]"
        },
        {
          "internalType": "uint256[]",
          "name": "tokenAmounts",
          "type": "uint256[]"
        },
        {
          "internalType": "bytes",
          "name": "options",
          "type": "bytes"
        }
      ],
      "name": "pull",
      "outputs": [
        {
          "internalType": "uint256[]",
          "name": "actualTokenAmounts",
          "type": "uint256[]"
        }
      ],
      "stateMutability": "nonpayable",
      "type": "function"
    },
    {
      "inputs": [],
      "name": "pullExistentials",
      "outputs": [
        {
          "internalType": "uint256[]",
          "name": "",
          "type": "uint256[]"
        }
      ],
      "stateMutability": "view",
      "type": "function"
    },
    {
      "inputs": [
        {
          "internalType": "address[]",
          "name": "tokens",
          "type": "address[]"
        },
        {
          "internalType": "uint256[]",
          "name": "tokenAmounts",
          "type": "uint256[]"
        },
        {
          "internalType": "bytes",
          "name": "options",
          "type": "bytes"
        }
      ],
      "name": "push",
      "outputs": [
        {
          "internalType": "uint256[]",
          "name": "actualTokenAmounts",
          "type": "uint256[]"
        }
      ],
      "stateMutability": "nonpayable",
      "type": "function"
    },
    {
      "inputs": [
        {
          "internalType": "address[]",
          "name": "tokens",
          "type": "address[]"
        }
      ],
      "name": "reclaimTokens",
      "outputs": [
        {
          "internalType": "uint256[]",
          "name": "actualTokenAmounts",
          "type": "uint256[]"
        }
      ],
      "stateMutability": "nonpayable",
      "type": "function"
    },
    {
      "inputs": [
        {
          "internalType": "bytes4",
          "name": "interfaceId",
          "type": "bytes4"
        }
      ],
      "name": "supportsInterface",
      "outputs": [
        {
          "internalType": "bool",
          "name": "",
          "type": "bool"
        }
      ],
      "stateMutability": "view",
      "type": "function"
    },
    {
      "inputs": [
        {
          "internalType": "address",
          "name": "from",
          "type": "address"
        },
        {
          "internalType": "address[]",
          "name": "tokens",
          "type": "address[]"
        },
        {
          "internalType": "uint256[]",
          "name": "tokenAmounts",
          "type": "uint256[]"
        },
        {
          "internalType": "bytes",
          "name": "options",
          "type": "bytes"
        }
      ],
      "name": "transferAndPush",
      "outputs": [
        {
          "internalType": "uint256[]",
          "name": "actualTokenAmounts",
          "type": "uint256[]"
        }
      ],
      "stateMutability": "nonpayable",
      "type": "function"
    },
    {
      "inputs": [],
      "name": "tvl",
      "outputs": [
        {
          "internalType": "uint256[]",
          "name": "minTokenAmounts",
          "type": "uint256[]"
        },
        {
          "internalType": "uint256[]",
          "name": "maxTokenAmounts",
          "type": "uint256[]"
        }
      ],
      "stateMutability": "view",
      "type": "function"
    },
    {
      "inputs": [],
      "name": "vaultGovernance",
      "outputs": [
        {
          "internalType": "contract IVaultGovernance",
          "name": "",
          "type": "address"
        }
      ],
      "stateMutability": "view",
      "type": "function"
    },
    {
      "inputs": [],
      "name": "vaultTokens",
      "outputs": [
        {
          "internalType": "address[]",
          "name": "",
          "type": "address[]"
        }
      ],
      "stateMutability": "view",
      "type": "function"
    }
  ],
  "transactionHash": "0xd73b948048d336f7456fc7bd3855f830c4fc5c123de83036743ab2e7469c4b1d",
  "args": [],
  "solcInputHash": "1d49726b754ac7f6cccc3c78633d62a4",
  "bytecode": "0x608060405234801561001057600080fd5b5060016000556000196004556139d88061002b6000396000f3fe6080604052600436106100e85760003560e01c8063338c4ccb1161008a578063a920b78c11610059578063a920b78c14610297578063d2c219b0146102b9578063e5328e06146102ce578063fe255a5e146102f157600080fd5b8063338c4ccb146101ff57806347ccca0214610237578063566ca6b414610255578063697222331461027557600080fd5b80631626ba7e116100c65780631626ba7e146101665780632062d7541461019f57806327a35e5a146101bf5780632e2f4cc2146101df57600080fd5b806301ffc9a7146100ed57806305e1c94214610122578063158ef93e1461014f575b600080fd5b3480156100f957600080fd5b5061010d610108366004612f36565b610319565b60405190151581526020015b60405180910390f35b34801561012e57600080fd5b5061014261013d366004613045565b610345565b60405161011991906130b4565b34801561015b57600080fd5b50600454151561010d565b34801561017257600080fd5b50610186610181366004613136565b6107dd565b6040516001600160e01b03199091168152602001610119565b3480156101ab57600080fd5b506101426101ba3660046131d7565b610b2a565b3480156101cb57600080fd5b506101426101da3660046131d7565b610ff2565b6101f26101ed366004613271565b611179565b604051610119919061335a565b34801561020b57600080fd5b5061010d61021a36600461336d565b6001600160a01b0316600090815260036020526040902054151590565b34801561024357600080fd5b50600454604051908152602001610119565b34801561026157600080fd5b5061014261027036600461338a565b61146e565b34801561028157600080fd5b5061028a611751565b604051610119919061344a565b3480156102a357600080fd5b506102b76102b236600461345d565b6117b3565b005b3480156102c557600080fd5b506101426117c1565b3480156102da57600080fd5b506102e3611818565b604051610119929190613499565b3480156102fd57600080fd5b506001546040516001600160a01b039091168152602001610119565b600061032482611999565b8061033f57506001600160e01b03198216632a482de360e21b145b92915050565b6060600260005414156103735760405162461bcd60e51b815260040161036a906134c7565b60405180910390fd5b60026000556004805460408051808201909152918252631253925560e21b602083015290816103b55760405162461bcd60e51b815260040161036a919061335a565b5060015460408051637ac46fbb60e01b815290516000926001600160a01b031691637ac46fbb916004808301926060929190829003018186803b1580156103fb57600080fd5b505afa15801561040f573d6000803e3d6000fd5b505050506040513d601f19601f8201168201806040525081019061043391906134fe565b805160208201516040516331a9108f60e11b81526004810186905292935090916000906001600160a01b03831690636352211e9060240160206040518083038186803b15801561048257600080fd5b505afa158015610496573d6000803e3d6000fd5b505050506040513d601f19601f820116820180604052508101906104ba919061356f565b905060006104c98387846119df565b604051639bd0911b60e01b8152600060048201526001600160a01b039190911690639bd0911b9060240160206040518083038186803b15801561050b57600080fd5b505afa15801561051f573d6000803e3d6000fd5b505050506040513d601f19601f82011682018060405250810190610543919061356f565b905087516001600160401b0381111561055e5761055e612f53565b604051908082528060200260200182016040528015610587578160200160208202803683370190505b5096506001600160a01b0381163014156105a6575050505050506107d3565b60005b8851811015610790576105d48982815181106105c7576105c761358c565b6020026020010151611ab5565b806106865750846001600160a01b03166363e85d2d8a83815181106105fb576105fb61358c565b60209081029190910101516040516001600160e01b031960e084901b1681526001600160a01b0390911660048201526002602482015260440160206040518083038186803b15801561064c57600080fd5b505afa158015610660573d6000803e3d6000fd5b505050506040513d601f19601f8201168201806040525081019061068491906135a2565b155b1561069057610780565b60008982815181106106a4576106a461358c565b60209081029190910101516040516370a0823160e01b81523060048201529091506001600160a01b038216906370a082319060240160206040518083038186803b1580156106f157600080fd5b505afa158015610705573d6000803e3d6000fd5b505050506040513d601f19601f8201168201806040525081019061072991906135c4565b89838151811061073b5761073b61358c565b60200260200101818152505061077e838a848151811061075d5761075d61358c565b6020026020010151836001600160a01b0316611b1b9092919063ffffffff16565b505b610789816135f3565b90506105a9565b507f9efcb26e0cf572bd9171640e114f387cef91cd3e38532ed6b3f80c7f2e758f878189896040516107c49392919061360e565b60405180910390a15050505050505b6001600055919050565b600080600160009054906101000a90046001600160a01b03166001600160a01b0316637ac46fbb6040518163ffffffff1660e01b815260040160606040518083038186803b15801561082e57600080fd5b505afa158015610842573d6000803e3d6000fd5b505050506040513d601f19601f8201168201806040525081019061086691906134fe565b6020810151815160045492935090918061088f57506001600160e01b0319935061033f92505050565b60405163020604bf60e21b8152600481018290526000906001600160a01b0385169063081812fc9060240160206040518083038186803b1580156108d257600080fd5b505afa1580156108e6573d6000803e3d6000fd5b505050506040513d601f19601f8201168201806040525081019061090a919061356f565b6040516363e85d2d60e01b81526001600160a01b03808316600483015260066024830152919250908416906363e85d2d9060440160206040518083038186803b15801561095657600080fd5b505afa15801561096a573d6000803e3d6000fd5b505050506040513d601f19601f8201168201806040525081019061098e91906135a2565b6109a857506001600160e01b0319945061033f9350505050565b803b63ffffffff811615610adb576040516301ffc9a760e01b8152630b135d3f60e11b60048201526001600160a01b038316906301ffc9a79060240160206040518083038186803b1580156109fc57600080fd5b505afa158015610a10573d6000803e3d6000fd5b505050506040513d601f19601f82011682018060405250810190610a3491906135a2565b15610ac457604051630b135d3f60e11b81526001600160a01b03831690631626ba7e90610a67908c908c9060040161364e565b60206040518083038186803b158015610a7f57600080fd5b505afa158015610a93573d6000803e3d6000fd5b505050506040513d601f19601f82011682018060405250810190610ab79190613667565b965050505050505061033f565b506001600160e01b0319955061033f945050505050565b816001600160a01b0316610aef8a8a611b83565b6001600160a01b03161415610b145750630b135d3f60e11b955061033f945050505050565b506001600160e01b031998975050505050505050565b606060026000541415610b4f5760405162461bcd60e51b815260040161036a906134c7565b60026000556004805460408051808201909152918252631253925560e21b60208301529081610b915760405162461bcd60e51b815260040161036a919061335a565b50610b9b33611c02565b6040518060400160405280600381526020016223292160e91b81525090610bd55760405162461bcd60e51b815260040161036a919061335a565b5060015460408051637ac46fbb60e01b815290516000926001600160a01b031691637ac46fbb916004808301926060929190829003018186803b158015610c1b57600080fd5b505afa158015610c2f573d6000803e3d6000fd5b505050506040513d601f19601f82011682018060405250810190610c5391906134fe565b602001516040516331a9108f60e11b8152600481018490529091506000906001600160a01b03831690636352211e9060240160206040518083038186803b158015610c9d57600080fd5b505afa158015610cb1573d6000803e3d6000fd5b505050506040513d601f19601f82011682018060405250810190610cd5919061356f565b90506000610ce48385846119df565b90506001600160a01b0382163314610f2157604051639bd0911b60e01b8152600060048201819052906001600160a01b03831690639bd0911b9060240160206040518083038186803b158015610d3957600080fd5b505afa158015610d4d573d6000803e3d6000fd5b505050506040513d601f19601f82011682018060405250810190610d71919061356f565b90506001600160a01b038116301415610ecc5760405163fcdabd2760e01b81526001600160a01b038b8116600483015280841691639d9fd0d99187169063fcdabd279060240160206040518083038186803b158015610dcf57600080fd5b505afa158015610de3573d6000803e3d6000fd5b505050506040513d601f19601f82011682018060405250810190610e0791906135c4565b6040518263ffffffff1660e01b8152600401610e2591815260200190565b60206040518083038186803b158015610e3d57600080fd5b505afa158015610e51573d6000803e3d6000fd5b505050506040513d601f19601f82011682018060405250810190610e7591906135a2565b8015610e8a57506001600160a01b038a163014155b6040518060400160405280600581526020016424a72b2a2960d91b81525090610ec65760405162461bcd60e51b815260040161036a919061335a565b50610f1f565b896001600160a01b0316816001600160a01b0316146040518060400160405280600581526020016424a72b2a2960d91b81525090610f1d5760405162461bcd60e51b815260040161036a919061335a565b505b505b6000610f2d8989611dc1565b90506000610f3c8b838a611ead565b9050610fa38a6002805480602002602001604051908101604052809291908181526020018280548015610f9857602002820191906000526020600020905b81546001600160a01b03168152600190910190602001808311610f7a575b50505050508361249f565b96507f54f9e6ef58e36de62f59f9ee6c4b878af84989c53a3642eba415ac3ac4e11cda8b88604051610fd6929190613684565b60405180910390a1505060016000555092979650505050505050565b825160609060005b81811015611085578481815181106110145761101461358c565b602002602001015160001461107557611075873087848151811061103a5761103a61358c565b60200260200101518985815181106110545761105461358c565b60200260200101516001600160a01b03166126c0909392919063ffffffff16565b61107e816135f3565b9050610ffa565b5061109185858561146e565b915060005b855181101561116f5760008582815181106110b3576110b361358c565b60200260200101518483815181106110cd576110cd61358c565b6020026020010151106110e157600061111f565b8382815181106110f3576110f361358c565b602002602001015186838151811061110d5761110d61358c565b602002602001015161111f91906136a8565b9050801561115e5761115e888289858151811061113e5761113e61358c565b60200260200101516001600160a01b0316611b1b9092919063ffffffff16565b50611168816135f3565b9050611096565b5050949350505050565b60606002600054141561119e5760405162461bcd60e51b815260040161036a906134c7565b60026000556004805460408051808201909152918252631253925560e21b60208301526111de5760405162461bcd60e51b815260040161036a919061335a565b506111e833611c02565b6040518060400160405280600381526020016223292160e91b815250906112225760405162461bcd60e51b815260040161036a919061335a565b5060015460408051637ac46fbb60e01b815290516000926001600160a01b031691637ac46fbb916004808301926060929190829003018186803b15801561126857600080fd5b505afa15801561127c573d6000803e3d6000fd5b505050506040513d601f19601f820116820180604052508101906112a091906134fe565b51604051631f4a58fb60e31b81526001600160a01b03888116600483015291925060009183169063fa52c7d89060240160206040518083038186803b1580156112e857600080fd5b505afa1580156112fc573d6000803e3d6000fd5b505050506040513d601f19601f82011682018060405250810190611320919061356f565b60408051808201909152600381526223292160e91b60208201529091506001600160a01b0382166113645760405162461bcd60e51b815260040161036a919061335a565b50604051631796170d60e21b81526001600160a01b03821690635e585c349061139b9033908b9034908c908c908c906004016136bf565b60006040518083038186803b1580156113b357600080fd5b505afa1580156113c7573d6000803e3d6000fd5b50505050600080886001600160a01b0316348989896040516020016113ee93929190613724565b60408051601f198184030181529082905261140891613748565b60006040518083038185875af1925050503d8060008114611445576040519150601f19603f3d011682016040523d82523d6000602084013e61144a565b606091505b50915091508161145d5780518082602001fd5b600160005598975050505050505050565b6060600260005414156114935760405162461bcd60e51b815260040161036a906134c7565b60026000556004805460408051808201909152918252631253925560e21b602083015290816114d55760405162461bcd60e51b815260040161036a919061335a565b5060015460408051637ac46fbb60e01b815290516000926001600160a01b031691637ac46fbb916004808301926060929190829003018186803b15801561151b57600080fd5b505afa15801561152f573d6000803e3d6000fd5b505050506040513d601f19601f8201168201806040525081019061155391906134fe565b602001516040516331a9108f60e11b8152600481018490529091506000906001600160a01b03831690636352211e9060240160206040518083038186803b15801561159d57600080fd5b505afa1580156115b1573d6000803e3d6000fd5b505050506040513d601f19601f820116820180604052508101906115d5919061356f565b60405163fcdabd2760e01b81526001600160a01b03808316600483015291925060009184169063fcdabd279060240160206040518083038186803b15801561161c57600080fd5b505afa158015611630573d6000803e3d6000fd5b505050506040513d601f19601f8201168201806040525081019061165491906135c4565b604080518082019091526002815261272360f11b60208201529091508161168e5760405162461bcd60e51b815260040161036a919061335a565b50600061169b8989611dc1565b905060008190506117058a6002805480602002602001604051908101604052809291908181526020018280548015610f98576020028201919060005260206000209081546001600160a01b03168152600190910190602001808311610f7a5750505050508361249f565b96507f08e404e978692dd1b8275016b7a7b0b3ae4afd06b0cec7228060bb2da18c84fd8160405161173691906130b4565b60405180910390a15050600160005550929695505050505050565b606060028054806020026020016040519081016040528092919081815260200182805480156117a957602002820191906000526020600020905b81546001600160a01b0316815260019091019060200180831161178b575b5050505050905090565b6117bd81836126fe565b5050565b606060058054806020026020016040519081016040528092919081815260200182805480156117a957602002820191906000526020600020905b8154815260200190600101908083116117fb575050505050905090565b6060806000600280548060200260200160405190810160405280929190818152602001828054801561187357602002820191906000526020600020905b81546001600160a01b03168152600190910190602001808311611855575b5050835193945083925050506001600160401b0381111561189657611896612f53565b6040519080825280602002602001820160405280156118bf578160200160208202803683370190505b50935060005b8181101561198f578281815181106118df576118df61358c565b60209081029190910101516040516370a0823160e01b81523060048201526001600160a01b03909116906370a082319060240160206040518083038186803b15801561192a57600080fd5b505afa15801561193e573d6000803e3d6000fd5b505050506040513d601f19601f8201168201806040525081019061196291906135c4565b8582815181106119745761197461358c565b6020908102919091010152611988816135f3565b90506118c5565b5083925050509091565b60006119a482612b89565b806119bf57506001600160e01b03198216633d31d51d60e11b145b8061033f57506001600160e01b03198216630b135d3f60e11b1492915050565b60405163fcdabd2760e01b81526001600160a01b038281166004830152600091829186169063fcdabd279060240160206040518083038186803b158015611a2557600080fd5b505afa158015611a39573d6000803e3d6000fd5b505050506040513d601f19601f82011682018060405250810190611a5d91906135c4565b90508315801590611a6d57508015155b604051806040016040528060048152602001631253925560e21b81525090611aa85760405162461bcd60e51b815260040161036a919061335a565b50829150505b9392505050565b600254600090815b81811015611b115760028181548110611ad857611ad861358c565b6000918252602090912001546001600160a01b0385811691161415611b01575060019392505050565b611b0a816135f3565b9050611abd565b5060009392505050565b6040516001600160a01b038316602482015260448101829052611b7e90849063a9059cbb60e01b906064015b60408051601f198184030181529190526020810180516001600160e01b03166001600160e01b031990931692909217909152612bbf565b505050565b600080600080611b9285612c91565b6040805160008152602081018083528b905260ff8316918101919091526060810184905260808101839052929550909350915060019060a0016020604051602081039080840390855afa158015611bed573d6000803e3d6000fd5b5050604051601f190151979650505050505050565b600080600160009054906101000a90046001600160a01b03166001600160a01b0316637ac46fbb6040518163ffffffff1660e01b815260040160606040518083038186803b158015611c5357600080fd5b505afa158015611c67573d6000803e3d6000fd5b505050506040513d601f19601f82011682018060405250810190611c8b91906134fe565b6020015160045490915080611ca4575060009392505050565b60405163020604bf60e21b8152600481018290526001600160a01b03808616919084169063081812fc9060240160206040518083038186803b158015611ce957600080fd5b505afa158015611cfd573d6000803e3d6000fd5b505050506040513d601f19601f82011682018060405250810190611d21919061356f565b6001600160a01b03161480611db957506040516331a9108f60e11b8152600481018290526001600160a01b038086169190841690636352211e9060240160206040518083038186803b158015611d7657600080fd5b505afa158015611d8a573d6000803e3d6000fd5b505050506040513d601f19601f82011682018060405250810190611dae919061356f565b6001600160a01b0316145b949350505050565b6060611dcc83612cf5565b60405180604001604052806004815260200163494e564160e01b81525090611e075760405162461bcd60e51b815260040161036a919061335a565b5081518351146040518060400160405280600381526020016224a72b60e91b81525090611e475760405162461bcd60e51b815260040161036a919061335a565b50611aae6002805480602002602001604051908101604052809291908181526020018280548015611ea157602002820191906000526020600020905b81546001600160a01b03168152600190910190602001808311611e83575b5050505050848461249f565b606082516001600160401b03811115611ec857611ec8612f53565b604051908082528060200260200182016040528015611ef1578160200160208202803683370190505b509050600083516001600160401b03811115611f0f57611f0f612f53565b604051908082528060200260200182016040528015611f38578160200160208202803683370190505b50905060006002805480602002602001604051908101604052809291908181526020018280548015611f9357602002820191906000526020600020905b81546001600160a01b03168152600190910190602001808311611f75575b505050505090506000600160009054906101000a90046001600160a01b03166001600160a01b0316637ac46fbb6040518163ffffffff1660e01b815260040160606040518083038186803b158015611fea57600080fd5b505afa158015611ffe573d6000803e3d6000fd5b505050506040513d601f19601f8201168201806040525081019061202291906134fe565b60200151600480546040516331a9108f60e11b8152918201529091506000906001600160a01b03831690636352211e9060240160206040518083038186803b15801561206d57600080fd5b505afa158015612081573d6000803e3d6000fd5b505050506040513d601f19601f820116820180604052508101906120a5919061356f565b905060005b87518110156122af5760008482815181106120c7576120c761358c565b60209081029190910101516040516370a0823160e01b81523060048201529091506000906001600160a01b038316906370a082319060240160206040518083038186803b15801561211757600080fd5b505afa15801561212b573d6000803e3d6000fd5b505050506040513d601f19601f8201168201806040525081019061214f91906135c4565b90506000818b85815181106121665761216661358c565b6020026020010151106121795781612194565b8a848151811061218b5761218b61358c565b60200260200101515b90506121ad8c8289878151811061113e5761113e61358c565b808985815181106121c0576121c061358c565b6020026020010181815250508b6001600160a01b0316856001600160a01b03161461229b578684815181106121f7576121f761358c565b60209081029190910101516040516370a0823160e01b81526001600160a01b038e81166004830152909116906370a082319060240160206040518083038186803b15801561224457600080fd5b505afa158015612258573d6000803e3d6000fd5b505050506040513d601f19601f8201168201806040525081019061227c91906135c4565b88858151811061228e5761228e61358c565b6020026020010181815250505b505050806122a8906135f3565b90506120aa565b50876001600160a01b0316816001600160a01b0316146124945760405163159b29ad60e21b81526001600160a01b0389169063566ca6b4906122f990869088908b90600401613764565b600060405180830381600087803b15801561231357600080fd5b505af1158015612327573d6000803e3d6000fd5b505050506040513d6000823e601f3d908101601f1916820160405261234f919081019061379d565b506040516302f0e4a160e11b81526000906001600160a01b038a16906305e1c9429061237f90879060040161344a565b600060405180830381600087803b15801561239957600080fd5b505af11580156123ad573d6000803e3d6000fd5b505050506040513d6000823e601f3d908101601f191682016040526123d5919081019061379d565b905060005b8851811015612491578181815181106123f5576123f561358c565b602002602001015187828151811061240f5761240f61358c565b60200260200101511015612424576000612462565b8181815181106124365761243661358c565b60200260200101518782815181106124505761245061358c565b602002602001015161246291906136a8565b8782815181106124745761247461358c565b602090810291909101015280612489816135f3565b9150506123da565b50505b505050509392505050565b6060600084516001600160401b038111156124bc576124bc612f53565b6040519080825280602002602001820160405280156124e5578160200160208202803683370190505b5090506000805b8651821080156124fc5750855181105b1561267b578581815181106125135761251361358c565b60200260200101516001600160a01b03168783815181106125365761253661358c565b60200260200101516001600160a01b0316101561257e5760008383815181106125615761256161358c565b602090810291909101015281612576816135f3565b9250506124ec565b8581815181106125905761259061358c565b60200260200101516001600160a01b03168783815181106125b3576125b361358c565b60200260200101516001600160a01b0316111561262c578481815181106125dc576125dc61358c565b6020026020010151600014156125fe57806125f6816135f3565b9150506124ec565b60405162461bcd60e51b815260206004820152600360248201526254505360e81b604482015260640161036a565b84818151811061263e5761263e61358c565b60200260200101518383815181106126585761265861358c565b60209081029190910101528161266d816135f3565b92505080806125f6906135f3565b86518210156126b55760008383815181106126985761269861358c565b6020908102919091010152816126ad816135f3565b92505061267b565b509095945050505050565b6040516001600160a01b03808516602483015283166044820152606481018290526126f89085906323b872dd60e01b90608401611b47565b50505050565b6004805460408051808201909152918252631253925560e21b60208301521561273a5760405162461bcd60e51b815260040161036a919061335a565b5061274482612cf5565b60405180604001604052806004815260200163494e564160e01b8152509061277f5760405162461bcd60e51b815260040161036a919061335a565b506040805180820190915260028152612b2d60f11b6020820152816127b75760405162461bcd60e51b815260040161036a919061335a565b506000336001600160a01b0316637ac46fbb6040518163ffffffff1660e01b815260040160606040518083038186803b1580156127f357600080fd5b505afa158015612807573d6000803e3d6000fd5b505050506040513d601f19601f8201168201806040525081019061282b91906134fe565b518351909150158015906128b05750806001600160a01b03166378546fa26040518163ffffffff1660e01b815260040160206040518083038186803b15801561287357600080fd5b505afa158015612887573d6000803e3d6000fd5b505050506040513d601f19601f820116820180604052508101906128ab91906135c4565b835111155b6040518060400160405280600381526020016224a72b60e91b815250906128ea5760405162461bcd60e51b815260040161036a919061335a565b5060005b83518110156129ee57816001600160a01b03166363e85d2d8583815181106129185761291861358c565b60209081029190910101516040516001600160e01b031960e084901b1681526001600160a01b0390911660048201526003602482015260440160206040518083038186803b15801561296957600080fd5b505afa15801561297d573d6000803e3d6000fd5b505050506040513d601f19601f820116820180604052508101906129a191906135a2565b6040518060400160405280600381526020016223292160e91b815250906129db5760405162461bcd60e51b815260040161036a919061335a565b50806129e6816135f3565b9150506128ee565b50600180546001600160a01b031916331790558251612a14906002906020860190612ea3565b50600482905560025460005b81811015612b4457612a33816001613822565b60036000878481518110612a4957612a4961358c565b60200260200101516001600160a01b03166001600160a01b03168152602001908152602001600020819055506000858281518110612a8957612a8961358c565b6020026020010151905060056002826001600160a01b031663313ce5676040518163ffffffff1660e01b815260040160206040518083038186803b158015612ad057600080fd5b505afa158015612ae4573d6000803e3d6000fd5b505050506040513d601f19601f82011682018060405250810190612b08919061383a565b612b12919061385d565b612b1d90600a613971565b8154600181018355600092835260209092209091015550612b3d816135f3565b9050612a20565b50604051339032907f0f043e55a1ce0d7ce25125ccbc2800b540d83e21abf7250f0156c2091a28b22190612b7b9088908890613980565b60405180910390a350505050565b60006301ffc9a760e01b6001600160e01b03198316148061033f57506001600160e01b0319821663305a640b60e21b1492915050565b6000612c14826040518060400160405280602081526020017f5361666545524332303a206c6f772d6c6576656c2063616c6c206661696c6564815250856001600160a01b0316612d989092919063ffffffff16565b805190915015611b7e5780806020019051810190612c3291906135a2565b611b7e5760405162461bcd60e51b815260206004820152602a60248201527f5361666545524332303a204552433230206f7065726174696f6e20646964206e6044820152691bdd081cdd58d8d9595960b21b606482015260840161036a565b60008060008351604114604051806040016040528060048152602001631253959360e21b81525090612cd65760405162461bcd60e51b815260040161036a919061335a565b5050505060208101516040820151606090920151909260009190911a90565b6000600282511015612d0957506001919050565b60005b60018351612d1a91906136a8565b811015612d8f5782612d2d826001613822565b81518110612d3d57612d3d61358c565b60200260200101516001600160a01b0316838281518110612d6057612d6061358c565b60200260200101516001600160a01b031610612d7f5750600092915050565b612d88816135f3565b9050612d0c565b50600192915050565b6060611db9848460008585843b612df15760405162461bcd60e51b815260206004820152601d60248201527f416464726573733a2063616c6c20746f206e6f6e2d636f6e7472616374000000604482015260640161036a565b600080866001600160a01b03168587604051612e0d9190613748565b60006040518083038185875af1925050503d8060008114612e4a576040519150601f19603f3d011682016040523d82523d6000602084013e612e4f565b606091505b5091509150612e5f828286612e6a565b979650505050505050565b60608315612e79575081611aae565b825115612e895782518084602001fd5b8160405162461bcd60e51b815260040161036a919061335a565b828054828255906000526020600020908101928215612ef8579160200282015b82811115612ef857825182546001600160a01b0319166001600160a01b03909116178255602090920191600190910190612ec3565b50612f04929150612f08565b5090565b5b80821115612f045760008155600101612f09565b6001600160e01b031981168114612f3357600080fd5b50565b600060208284031215612f4857600080fd5b8135611aae81612f1d565b634e487b7160e01b600052604160045260246000fd5b604051601f8201601f191681016001600160401b0381118282101715612f9157612f91612f53565b604052919050565b60006001600160401b03821115612fb257612fb2612f53565b5060051b60200190565b6001600160a01b0381168114612f3357600080fd5b600082601f830112612fe257600080fd5b81356020612ff7612ff283612f99565b612f69565b82815260059290921b8401810191818101908684111561301657600080fd5b8286015b8481101561303a57803561302d81612fbc565b835291830191830161301a565b509695505050505050565b60006020828403121561305757600080fd5b81356001600160401b0381111561306d57600080fd5b611db984828501612fd1565b600081518084526020808501945080840160005b838110156130a95781518752958201959082019060010161308d565b509495945050505050565b602081526000611aae6020830184613079565b600082601f8301126130d857600080fd5b81356001600160401b038111156130f1576130f1612f53565b613104601f8201601f1916602001612f69565b81815284602083860101111561311957600080fd5b816020850160208301376000918101602001919091529392505050565b6000806040838503121561314957600080fd5b8235915060208301356001600160401b0381111561316657600080fd5b613172858286016130c7565b9150509250929050565b600082601f83011261318d57600080fd5b8135602061319d612ff283612f99565b82815260059290921b840181019181810190868411156131bc57600080fd5b8286015b8481101561303a57803583529183019183016131c0565b600080600080608085870312156131ed57600080fd5b84356131f881612fbc565b935060208501356001600160401b038082111561321457600080fd5b61322088838901612fd1565b9450604087013591508082111561323657600080fd5b6132428883890161317c565b9350606087013591508082111561325857600080fd5b50613265878288016130c7565b91505092959194509250565b6000806000806060858703121561328757600080fd5b843561329281612fbc565b935060208501356132a281612f1d565b925060408501356001600160401b03808211156132be57600080fd5b818701915087601f8301126132d257600080fd5b8135818111156132e157600080fd5b8860208285010111156132f357600080fd5b95989497505060200194505050565b60005b8381101561331d578181015183820152602001613305565b838111156126f85750506000910152565b60008151808452613346816020860160208601613302565b601f01601f19169290920160200192915050565b602081526000611aae602083018461332e565b60006020828403121561337f57600080fd5b8135611aae81612fbc565b60008060006060848603121561339f57600080fd5b83356001600160401b03808211156133b657600080fd5b6133c287838801612fd1565b945060208601359150808211156133d857600080fd5b6133e48783880161317c565b935060408601359150808211156133fa57600080fd5b50613407868287016130c7565b9150509250925092565b600081518084526020808501945080840160005b838110156130a95781516001600160a01b031687529582019590820190600101613425565b602081526000611aae6020830184613411565b6000806040838503121561347057600080fd5b8235915060208301356001600160401b0381111561348d57600080fd5b61317285828601612fd1565b6040815260006134ac6040830185613079565b82810360208401526134be8185613079565b95945050505050565b6020808252601f908201527f5265656e7472616e637947756172643a207265656e7472616e742063616c6c00604082015260600190565b60006060828403121561351057600080fd5b604051606081018181106001600160401b038211171561353257613532612f53565b604052825161354081612fbc565b8152602083015161355081612fbc565b6020820152604083015161356381612fbc565b60408201529392505050565b60006020828403121561358157600080fd5b8151611aae81612fbc565b634e487b7160e01b600052603260045260246000fd5b6000602082840312156135b457600080fd5b81518015158114611aae57600080fd5b6000602082840312156135d657600080fd5b5051919050565b634e487b7160e01b600052601160045260246000fd5b6000600019821415613607576136076135dd565b5060010190565b6001600160a01b038416815260606020820181905260009061363290830185613411565b82810360408401526136448185613079565b9695505050505050565b828152604060208201526000611db9604083018461332e565b60006020828403121561367957600080fd5b8151611aae81612f1d565b6001600160a01b0383168152604060208201819052600090611db990830184613079565b6000828210156136ba576136ba6135dd565b500390565b6001600160a01b03878116825286166020820152604081018590526001600160e01b03198416606082015260a06080820181905281018290526000828460c0840137600060c0848401015260c0601f19601f8501168301019050979650505050505050565b6001600160e01b031984168152818360048301376000910160040190815292915050565b6000825161375a818460208701613302565b9190910192915050565b6060815260006137776060830186613411565b82810360208401526137898186613079565b90508281036040840152613644818561332e565b600060208083850312156137b057600080fd5b82516001600160401b038111156137c657600080fd5b8301601f810185136137d757600080fd5b80516137e5612ff282612f99565b81815260059190911b8201830190838101908783111561380457600080fd5b928401925b82841015612e5f57835182529284019290840190613809565b60008219821115613835576138356135dd565b500190565b60006020828403121561384c57600080fd5b815160ff81168114611aae57600080fd5b600060ff83168061387e57634e487b7160e01b600052601260045260246000fd5b8060ff84160491505092915050565b600181815b808511156138c85781600019048211156138ae576138ae6135dd565b808516156138bb57918102915b93841c9390800290613892565b509250929050565b6000826138df5750600161033f565b816138ec5750600061033f565b8160018114613902576002811461390c57613928565b600191505061033f565b60ff84111561391d5761391d6135dd565b50506001821b61033f565b5060208310610133831016604e8410600b841016171561394b575081810a61033f565b613955838361388d565b8060001904821115613969576139696135dd565b029392505050565b6000611aae60ff8416836138d0565b6040815260006139936040830185613411565b9050826020830152939250505056fea2646970667358221220d259abb702f67e5ead31489a1ca5cd463eaec7b4c53a73ac94adf9be15c34de264736f6c63430008090033",
  "devdoc": {
    "kind": "dev",
    "methods": {
      "externalCall(address,bytes4,bytes)": {
        "details": "Can only be called by Vault Owner or Strategy. Vault owner is the owner of NFT for this vault in VaultManager. Strategy is approved address for the vault NFT. Since this method allows sending arbitrary transactions, the destinations of the calls are whitelisted by Protocol Governance.",
        "params": {
          "data": "Abi encoded parameters to `to::selector`",
          "selector": "Selector of the call",
          "to": "Address of the reward pool"
        },
        "returns": {
          "result": "Result of execution of the call"
        }
      },
      "initialize(uint256,address[])": {
        "details": "Can only be initialized by vault governance",
        "params": {
          "nft_": "NFT of the vault in the VaultRegistry",
          "vaultTokens_": "ERC20 tokens that will be managed by this Vault"
        }
      },
      "isValidSignature(bytes32,bytes)": {
        "details": "Should return whether the signature provided is valid for the provided hash MUST return the bytes4 magic value 0x1626ba7e when function passes. MUST NOT modify state (using STATICCALL for solc < 0.5, view modifier for solc > 0.5) MUST allow external calls",
        "params": {
          "_hash": "Hash of the data to be signed",
          "_signature": "Signature byte array associated with _hash"
        },
        "returns": {
          "magicValue": "0x1626ba7e if valid, 0xffffffff otherwise"
        }
      },
      "isVaultToken(address)": {
        "params": {
          "token": "Address of the token to check"
        },
        "returns": {
          "_0": "`true` if this token is managed by Vault"
        }
      },
      "pull(address,address[],uint256[],bytes)": {
        "details": "Can only be called but Vault Owner or Strategy. Vault owner is the owner of NFT for this vault in VaultManager. Strategy is approved address for the vault NFT. When called by vault owner this method just pulls the tokens from the protocol to the `to` address When called by strategy on vault other than zero vault it pulls the tokens to zero vault (required `to` == zero vault) When called by strategy on zero vault it pulls the tokens to zero vault, pushes tokens on the `to` vault, and reclaims everything that's left. Thus any vault other than zero vault cannot have any tokens on it Tokens **must** be a subset of Vault Tokens. However, the convention is that if tokenAmount == 0 it is the same as token is missing. Pull is fulfilled on the best effort basis, i.e. if the tokenAmounts overflows available funds it withdraws all the funds.",
        "params": {
          "options": "Additional options that could be needed for some vaults. E.g. for Uniswap this could be `deadline` param. For the exact bytes structure see concrete vault descriptions",
          "to": "Address to receive the tokens",
          "tokenAmounts": "Amounts of tokens to pull",
          "tokens": "Tokens to pull"
        },
        "returns": {
          "actualTokenAmounts": "The amounts actually withdrawn. It could be less than tokenAmounts (but not higher)"
        }
      },
      "push(address[],uint256[],bytes)": {
        "details": "Tokens **must** be a subset of Vault Tokens. However, the convention is that if tokenAmount == 0 it is the same as token is missing. Also notice that this operation doesn't guarantee that tokenAmounts will be invested in full.",
        "params": {
          "options": "Additional options that could be needed for some vaults. E.g. for Uniswap this could be `deadline` param. For the exact bytes structure see concrete vault descriptions",
          "tokenAmounts": "Amounts of tokens to push",
          "tokens": "Tokens to push"
        },
        "returns": {
          "actualTokenAmounts": "The amounts actually invested. It could be less than tokenAmounts (but not higher)"
        }
      },
      "reclaimTokens(address[])": {
        "details": "Cannot be called from zero vault.",
        "params": {
          "tokens": "Tokens to claim"
        },
        "returns": {
          "actualTokenAmounts": "Amounts reclaimed"
        }
      },
      "supportsInterface(bytes4)": {
        "details": "Returns true if this contract implements the interface defined by `interfaceId`. See the corresponding https://eips.ethereum.org/EIPS/eip-165#how-interfaces-are-identified[EIP section] to learn more about how these ids are created. This function call must use less than 30 000 gas."
      },
      "transferAndPush(address,address[],uint256[],bytes)": {
        "params": {
          "options": "Additional options that could be needed for some vaults. E.g. for Uniswap this could be `deadline` param. For the exact bytes structure see concrete vault descriptions",
          "tokenAmounts": "Amounts of tokens to push",
          "tokens": "Tokens to push"
        },
        "returns": {
          "actualTokenAmounts": "The amounts actually invested. It could be less than tokenAmounts (but not higher)"
        }
      },
      "tvl()": {
        "details": "Generally it is the underlying token value of this contract in some other DeFi protocol. For example, for USDC Yearn Vault this would be total USDC balance that could be withdrawn for Yearn to this contract. The tvl itself is estimated in some range. Sometimes the range is exact, sometimes it's not",
        "returns": {
          "maxTokenAmounts": "Upper bound for total available balances estimation (nth tokenAmount corresponds to nth token in vaultTokens)",
          "minTokenAmounts": "Lower bound for total available balances estimation (nth tokenAmount corresponds to nth token in vaultTokens)"
        }
      }
    },
    "version": 1
  },
  "userdoc": {
    "events": {
      "Initialized(address,address,address[],uint256)": {
        "notice": "Emitted when Vault is intialized"
      },
      "Pull(address,uint256[])": {
        "notice": "Emitted on successful pull"
      },
      "Push(uint256[])": {
        "notice": "Emitted on successful push"
      },
      "ReclaimTokens(address,address[],uint256[])": {
        "notice": "Emitted when tokens are reclaimed"
      }
    },
    "kind": "user",
    "methods": {
      "externalCall(address,bytes4,bytes)": {
        "notice": "Execute one of whitelisted calls."
      },
      "initialize(uint256,address[])": {
        "notice": "Initialized a new contract."
      },
      "initialized()": {
        "notice": "Checks if the vault is initialized"
      },
      "isValidSignature(bytes32,bytes)": {
        "notice": "Verifies offchain signature."
      },
      "isVaultToken(address)": {
        "notice": "Checks if a token is vault token"
      },
      "nft()": {
        "notice": "VaultRegistry NFT for this vault"
      },
      "pull(address,address[],uint256[],bytes)": {
        "notice": "Pulls tokens from the underlying protocol to the `to` address."
      },
      "pullExistentials()": {
        "notice": "Existential amounts for each token"
      },
      "push(address[],uint256[],bytes)": {
        "notice": "Pushes tokens on the vault balance to the underlying protocol. For example, for Yearn this operation will take USDC from the contract balance and convert it to yUSDC."
      },
      "reclaimTokens(address[])": {
        "notice": "Claim ERC20 tokens from vault balance to zero vault."
      },
      "transferAndPush(address,address[],uint256[],bytes)": {
        "notice": "The same as `push` method above but transfers tokens to vault balance prior to calling push. After the `push` it returns all the leftover tokens back (`push` method doesn't guarantee that tokenAmounts will be invested in full)."
      },
      "tvl()": {
        "notice": "Total value locked for this contract."
      },
      "vaultGovernance()": {
        "notice": "Address of the Vault Governance for this contract."
      },
      "vaultTokens()": {
        "notice": "ERC20 tokens under Vault management."
      }
    },
    "notice": "Vault that stores ERC20 tokens.",
    "version": 1
  },
  "storageLayout": {
    "storage": [
      {
        "astId": 1491,
        "contract": "contracts/vaults/ERC20Vault.sol:ERC20Vault",
        "label": "_status",
        "offset": 0,
        "slot": "0",
        "type": "t_uint256"
      },
      {
        "astId": 31345,
        "contract": "contracts/vaults/ERC20Vault.sol:ERC20Vault",
        "label": "_vaultGovernance",
        "offset": 0,
        "slot": "1",
        "type": "t_contract(IVaultGovernance)10179"
      },
      {
        "astId": 31348,
        "contract": "contracts/vaults/ERC20Vault.sol:ERC20Vault",
        "label": "_vaultTokens",
        "offset": 0,
        "slot": "2",
        "type": "t_array(t_address)dyn_storage"
      },
      {
        "astId": 31352,
        "contract": "contracts/vaults/ERC20Vault.sol:ERC20Vault",
        "label": "_vaultTokensIndex",
        "offset": 0,
        "slot": "3",
        "type": "t_mapping(t_address,t_int256)"
      },
      {
        "astId": 31354,
        "contract": "contracts/vaults/ERC20Vault.sol:ERC20Vault",
        "label": "_nft",
        "offset": 0,
        "slot": "4",
        "type": "t_uint256"
      },
      {
        "astId": 31357,
        "contract": "contracts/vaults/ERC20Vault.sol:ERC20Vault",
        "label": "_pullExistentials",
        "offset": 0,
        "slot": "5",
        "type": "t_array(t_uint256)dyn_storage"
      }
    ],
    "types": {
      "t_address": {
        "encoding": "inplace",
        "label": "address",
        "numberOfBytes": "20"
      },
      "t_array(t_address)dyn_storage": {
        "base": "t_address",
        "encoding": "dynamic_array",
        "label": "address[]",
        "numberOfBytes": "32"
      },
      "t_array(t_uint256)dyn_storage": {
        "base": "t_uint256",
        "encoding": "dynamic_array",
        "label": "uint256[]",
        "numberOfBytes": "32"
      },
      "t_contract(IVaultGovernance)10179": {
        "encoding": "inplace",
        "label": "contract IVaultGovernance",
        "numberOfBytes": "20"
      },
      "t_int256": {
        "encoding": "inplace",
        "label": "int256",
        "numberOfBytes": "32"
      },
      "t_mapping(t_address,t_int256)": {
        "encoding": "mapping",
        "key": "t_address",
        "label": "mapping(address => int256)",
        "numberOfBytes": "32",
        "value": "t_int256"
      },
      "t_uint256": {
        "encoding": "inplace",
        "label": "uint256",
        "numberOfBytes": "32"
      }
    }
  }
}