{
  "address": "0x1E13A22d392584B24f5DDd6E6Da88f54dA872FA8",
  "abi": [
    {
      "inputs": [
        {
          "internalType": "contract INonfungiblePositionManager",
          "name": "positionManager",
          "type": "address"
        },
        {
          "internalType": "contract IUniswapV3Pool",
          "name": "pool",
          "type": "address"
        },
        {
          "internalType": "uint256",
          "name": "uniV3Nft",
          "type": "uint256"
        }
      ],
      "name": "calculatePositionInfo",
      "outputs": [
        {
          "internalType": "int24",
          "name": "tickLower",
          "type": "int24"
        },
        {
          "internalType": "int24",
          "name": "tickUpper",
          "type": "int24"
        },
        {
          "internalType": "uint128",
          "name": "liquidity",
          "type": "uint128"
        },
        {
          "internalType": "uint128",
          "name": "tokensOwed0",
          "type": "uint128"
        },
        {
          "internalType": "uint128",
          "name": "tokensOwed1",
          "type": "uint128"
        }
      ],
      "stateMutability": "view",
      "type": "function"
    },
    {
      "inputs": [
        {
          "internalType": "uint128",
          "name": "liquidity",
          "type": "uint128"
        },
        {
          "internalType": "contract IUniswapV3Pool",
          "name": "pool",
          "type": "address"
        },
        {
          "internalType": "uint256",
          "name": "uniV3Nft",
          "type": "uint256"
        },
        {
          "internalType": "contract INonfungiblePositionManager",
          "name": "positionManager",
          "type": "address"
        }
      ],
      "name": "liquidityToTokenAmounts",
      "outputs": [
        {
          "internalType": "uint256[]",
          "name": "tokenAmounts",
          "type": "uint256[]"
        }
      ],
      "stateMutability": "view",
      "type": "function"
    },
    {
      "inputs": [
        {
          "internalType": "uint256[]",
          "name": "tokenAmounts",
          "type": "uint256[]"
        },
        {
          "internalType": "contract IUniswapV3Pool",
          "name": "pool",
          "type": "address"
        },
        {
          "internalType": "uint256",
          "name": "uniV3Nft",
          "type": "uint256"
        },
        {
          "internalType": "contract INonfungiblePositionManager",
          "name": "positionManager",
          "type": "address"
        }
      ],
      "name": "tokenAmountsToLiquidity",
      "outputs": [
        {
          "internalType": "uint128",
          "name": "liquidity",
          "type": "uint128"
        }
      ],
      "stateMutability": "view",
      "type": "function"
    }
  ],
  "transactionHash": "0xb5b0d0bd4a3de44ce3c63237d55fae8888f2944bf135353f02bc2ccc51b6f2bc",
  "args": [],
  "solcInputHash": "1d49726b754ac7f6cccc3c78633d62a4",
  "bytecode": "0x608060405234801561001057600080fd5b50611606806100206000396000f3fe608060405234801561001057600080fd5b50600436106100415760003560e01c8063104e205114610046578063250df5ed1461006f5780637d52cdc5146100bf575b600080fd5b61005961005436600461102f565b6100ea565b6040516100669190611082565b60405180910390f35b61008261007d3660046110c6565b610282565b60408051600296870b81529490950b60208501526001600160801b039283169484019490945281166060830152909116608082015260a001610066565b6100d26100cd36600461111d565b610551565b6040516001600160801b039091168152602001610066565b6040805160028082526060808301845292602083019080368337505060405163133f757160e31b8152600481018690529192506000918291506001600160a01b038516906399fbab88906024016101806040518083038186803b15801561015057600080fd5b505afa158015610164573d6000803e3d6000fd5b505050506040513d601f19601f820116820180604052508101906101889190611242565b50505050509650965050505050506000866001600160a01b0316633850c7bd6040518163ffffffff1660e01b815260040160e06040518083038186803b1580156101d157600080fd5b505afa1580156101e5573d6000803e3d6000fd5b505050506040513d601f19601f820116820180604052508101906102099190611345565b5050505050509050600061021c846106c7565b90506000610229846106c7565b90506102378383838d610ae8565b8760008151811061024a5761024a6113d5565b6020026020010188600181518110610264576102646113d5565b60200260200101828152508281525050505050505050949350505050565b6000806000806000806000896001600160a01b03166399fbab88896040518263ffffffff1660e01b81526004016102bb91815260200190565b6101806040518083038186803b1580156102d457600080fd5b505afa1580156102e8573d6000803e3d6000fd5b505050506040513d601f19601f8201168201806040525081019061030c9190611242565b909192939495969798999a509091929394959697989950909192939495969798509091929394959697509091929394959650809950819a50829750839850849b50859c50869d5050505050505050846001600160801b031660001415610373575050610546565b6000896001600160a01b031663f30583996040518163ffffffff1660e01b815260040160206040518083038186803b1580156103ae57600080fd5b505afa1580156103c2573d6000803e3d6000fd5b505050506040513d601f19601f820116820180604052508101906103e691906113eb565b905060008a6001600160a01b031663461413196040518163ffffffff1660e01b815260040160206040518083038186803b15801561042357600080fd5b505afa158015610437573d6000803e3d6000fd5b505050506040513d601f19601f8201168201806040525081019061045b91906113eb565b905060008b6001600160a01b0316633850c7bd6040518163ffffffff1660e01b815260040160e06040518083038186803b15801561049857600080fd5b505afa1580156104ac573d6000803e3d6000fd5b505050506040513d601f19601f820116820180604052508101906104d09190611345565b50505050509150506000806104e98e8d8d868989610b84565b909250905086820386820361050c826001600160801b038e16600160801b610d07565b610516908c61141a565b9a50610530818d6001600160801b0316600160801b610d07565b61053a908b61141a565b99505050505050505050505b939792965093509350565b6000806000836001600160a01b03166399fbab88866040518263ffffffff1660e01b815260040161058491815260200190565b6101806040518083038186803b15801561059d57600080fd5b505afa1580156105b1573d6000803e3d6000fd5b505050506040513d601f19601f820116820180604052508101906105d59190611242565b50505050509650965050505050506000866001600160a01b0316633850c7bd6040518163ffffffff1660e01b815260040160e06040518083038186803b15801561061e57600080fd5b505afa158015610632573d6000803e3d6000fd5b505050506040513d601f19601f820116820180604052508101906106569190611345565b50505050505090506000610669846106c7565b90506000610676846106c7565b90506106b98383838d600081518110610691576106916113d5565b60200260200101518e6001815181106106ac576106ac6113d5565b6020026020010151610dbb565b9a9950505050505050505050565b60008060008360020b126106de578260020b6106eb565b8260020b6106eb90611445565b90506106fa620d89e719611462565b60020b8111156107345760405162461bcd60e51b81526020600482015260016024820152601560fa1b604482015260640160405180910390fd5b60006001821661074857600160801b61075a565b6ffffcb933bd6fad37aa2d162d1a5940015b70ffffffffffffffffffffffffffffffffff1690506002821615610799576080610794826ffff97272373d413259a46990580e213a611485565b901c90505b60048216156107c35760806107be826ffff2e50f5f656932ef12357cf3c7fdcc611485565b901c90505b60088216156107ed5760806107e8826fffe5caca7e10e4e61c3624eaa0941cd0611485565b901c90505b6010821615610817576080610812826fffcb9843d60f6159c9db58835c926644611485565b901c90505b602082161561084157608061083c826fff973b41fa98c081472e6896dfb254c0611485565b901c90505b604082161561086b576080610866826fff2ea16466c96a3843ec78b326b52861611485565b901c90505b6080821615610895576080610890826ffe5dee046a99a2a811c461f1969c3053611485565b901c90505b6101008216156108c05760806108bb826ffcbe86c7900a88aedcffc83b479aa3a4611485565b901c90505b6102008216156108eb5760806108e6826ff987a7253ac413176f2b074cf7815e54611485565b901c90505b610400821615610916576080610911826ff3392b0822b70005940c7a398e4b70f3611485565b901c90505b61080082161561094157608061093c826fe7159475a2c29b7443b29c7fa6e889d9611485565b901c90505b61100082161561096c576080610967826fd097f3bdfd2022b8845ad8f792aa5825611485565b901c90505b612000821615610997576080610992826fa9f746462d870fdf8a65dc1f90e061e5611485565b901c90505b6140008216156109c25760806109bd826f70d869a156d2a1b890bb3df62baf32f7611485565b901c90505b6180008216156109ed5760806109e8826f31be135f97d08fd981231505542fcfa6611485565b901c90505b62010000821615610a19576080610a14826f09aa508b5b7a84e1c677de54f3e99bc9611485565b901c90505b62020000821615610a44576080610a3f826e5d6af8dedb81196699c329225ee604611485565b901c90505b62040000821615610a6e576080610a69826d2216e584f5fa1ea926041bedfe98611485565b901c90505b62080000821615610a96576080610a91826b048a170391f7dc42444e8fa2611485565b901c90505b60008460020b1315610ab157610aae816000196114ba565b90505b610ac0640100000000826114ce565b15610acc576001610acf565b60005b610ae09060ff16602083901c6114e2565b949350505050565b600080836001600160a01b0316856001600160a01b03161115610b09579293925b846001600160a01b0316866001600160a01b031611610b3457610b2d858585610e7f565b9150610b7b565b836001600160a01b0316866001600160a01b03161015610b6d57610b59868585610e7f565b9150610b66858785610ef2565b9050610b7b565b610b78858585610ef2565b90505b94509492505050565b60405163f30dba9360e01b8152600286900b60048201526000908190819081906001600160a01b038b169063f30dba93906024016101006040518083038186803b158015610bd157600080fd5b505afa158015610be5573d6000803e3d6000fd5b505050506040513d601f19601f82011682018060405250810190610c0991906114fa565b505060405163f30dba9360e01b815260028f900b600482015293975091955060009450849350506001600160a01b038e169163f30dba9391506024016101006040518083038186803b158015610c5e57600080fd5b505afa158015610c72573d6000803e3d6000fd5b505050506040513d601f19601f82011682018060405250810190610c9691906114fa565b505050509350935050506000808c60020b8b60020b12610cba575084905083610cc3565b50508388038388035b6000808d60020b8d60020b1215610cde575084905083610ce7565b5050838a03838a035b92909a03999099039d98909703969096039a509598505050505050505050565b600080806000198587098587029250828110838203039150508060001415610d415760008411610d3657600080fd5b508290049050610db4565b808411610d4d57600080fd5b6000848688096000868103871696879004966002600389028118808a02820302808a02820302808a02820302808a02820302808a02820302808a02909103029181900381900460010186841190950394909402919094039290920491909117919091029150505b9392505050565b6000836001600160a01b0316856001600160a01b03161115610ddb579293925b846001600160a01b0316866001600160a01b031611610e0657610dff858585610f3c565b9050610e76565b836001600160a01b0316866001600160a01b03161015610e68576000610e2d878686610f3c565b90506000610e3c878986610fa6565b9050806001600160801b0316826001600160801b031610610e5d5780610e5f565b815b92505050610e76565b610e73858584610fa6565b90505b95945050505050565b6000826001600160a01b0316846001600160a01b03161115610e9f579192915b6001600160a01b038416610ee86fffffffffffffffffffffffffffffffff60601b606085901b16610ed087876115a8565b6001600160a01b0316866001600160a01b0316610d07565b610ae091906114ba565b6000826001600160a01b0316846001600160a01b03161115610f12579192915b610ae06001600160801b038316610f2986866115a8565b6001600160a01b0316600160601b610d07565b6000826001600160a01b0316846001600160a01b03161115610f5c579192915b6000610f7f856001600160a01b0316856001600160a01b0316600160601b610d07565b9050610e76610fa18483610f9389896115a8565b6001600160a01b0316610d07565b610fdc565b6000826001600160a01b0316846001600160a01b03161115610fc6579192915b610ae0610fa183600160601b610f9388886115a8565b806001600160801b0381168114610ff257600080fd5b919050565b6001600160801b038116811461100c57600080fd5b50565b6001600160a01b038116811461100c57600080fd5b8035610ff28161100f565b6000806000806080858703121561104557600080fd5b843561105081610ff7565b935060208501356110608161100f565b92506040850135915060608501356110778161100f565b939692955090935050565b6020808252825182820181905260009190848201906040850190845b818110156110ba5783518352928401929184019160010161109e565b50909695505050505050565b6000806000606084860312156110db57600080fd5b83356110e68161100f565b925060208401356110f68161100f565b929592945050506040919091013590565b634e487b7160e01b600052604160045260246000fd5b6000806000806080858703121561113357600080fd5b843567ffffffffffffffff8082111561114b57600080fd5b818701915087601f83011261115f57600080fd5b813560208282111561117357611173611107565b8160051b604051601f19603f8301168101818110868211171561119857611198611107565b60405292835281830193508481018201928b8411156111b657600080fd5b948201945b838610156111d4578535855294820194938201936111bb565b98506111e39050898201611024565b965050505050604085013591506111fc60608601611024565b905092959194509250565b8051610ff28161100f565b805162ffffff81168114610ff257600080fd5b8051600281900b8114610ff257600080fd5b8051610ff281610ff7565b6000806000806000806000806000806000806101808d8f03121561126557600080fd5b8c516bffffffffffffffffffffffff8116811461128157600080fd5b9b5061128f60208e01611207565b9a5061129d60408e01611207565b99506112ab60608e01611207565b98506112b960808e01611212565b97506112c760a08e01611225565b96506112d560c08e01611225565b95506112e360e08e01611237565b94506101008d015193506101208d015192506113026101408e01611237565b91506113116101608e01611237565b90509295989b509295989b509295989b565b805161ffff81168114610ff257600080fd5b80518015158114610ff257600080fd5b600080600080600080600060e0888a03121561136057600080fd5b875161136b8161100f565b965061137960208901611225565b955061138760408901611323565b945061139560608901611323565b93506113a360808901611323565b925060a088015160ff811681146113b957600080fd5b91506113c760c08901611335565b905092959891949750929550565b634e487b7160e01b600052603260045260246000fd5b6000602082840312156113fd57600080fd5b5051919050565b634e487b7160e01b600052601160045260246000fd5b60006001600160801b0380831681851680830382111561143c5761143c611404565b01949350505050565b6000600160ff1b82141561145b5761145b611404565b5060000390565b60008160020b627fffff1981141561147c5761147c611404565b60000392915050565b600081600019048311821515161561149f5761149f611404565b500290565b634e487b7160e01b600052601260045260246000fd5b6000826114c9576114c96114a4565b500490565b6000826114dd576114dd6114a4565b500690565b600082198211156114f5576114f5611404565b500190565b600080600080600080600080610100898b03121561151757600080fd5b885161152281610ff7565b80985050602089015180600f0b811461153a57600080fd5b80975050604089015195506060890151945060808901518060060b811461156057600080fd5b60a08a01519094506115718161100f565b60c08a015190935063ffffffff8116811461158b57600080fd5b915061159960e08a01611335565b90509295985092959890939650565b60006001600160a01b03838116908316818110156115c8576115c8611404565b03939250505056fea2646970667358221220ce8312768d7db55074d0edbc1955a83ac06496e91d1c0a0cd373cd15aa90ca4e64736f6c63430008090033",
  "devdoc": {
    "kind": "dev",
    "methods": {},
    "version": 1
  },
  "userdoc": {
    "kind": "user",
    "methods": {},
    "version": 1
  },
  "storageLayout": {
    "storage": [],
    "types": null
  }
}